:020000040000FA
:0600000082EF25F0120062
:0600080078EF1FF012006A
:06002A000200A3490000E2
:10003000FD00000001000000224B00000000000055
:040040001A000000A2
:0C0044000001EA6BEB6B8A6A896AF90E16
:10005000926E010EC26E0E0EC16E860EC06EBA6A30
:10006000BD6A010E066E640EEC6FD00EEF6F070EC8
:10007000F06F080EED6F0B0EEE6F000E036E046A4C
:10008000096E0A6A076E086A800ED56E1200F2A425
:1000900018D0F2940001EB2B050E0101005D07E280
:1000A0000A0E0001EB5D03E38974EB6B1200050E91
:1000B0000101005D06E12E0E0001EB5D02E3897493
:1000C000EB6B1200E4DF050E0101005D4CE36D50A7
:1000D000020B01E012000001EA511CE0800E040155
:1000E0000C1518E139EC20F00001EA6B016A0250AE
:1000F000015C0FE20150EA6AE00FE96E000EEA22AD
:10010000EF50E66E45EC20F0E552E750EF6E012A25
:10011000EED7026A0001FD51005C24E3015012E0B9
:10012000400E015C05E245EC20F0EF6A012AF8D7A9
:10013000016A04010CBF03D039EC20F003D00001A8
:10014000010EEA6F400EE66EA00EE66E000EE66E41
:100150007EEC20F0E552E552E5520001FD6FE850DB
:1001600001E0006A01D81200D9CFE6FFE1CFD9FF44
:10017000100EE1260001FD51005C02E342EF1FF08A
:100180000001EA5102E042EF1FF089820050EA6A62
:10019000A00FE96E000EEA22EF50F10A02E1F5EF3E
:1001A0001EF0010A02E1B8EF1EF0020A02E19BEF25
:1001B0001EF0AB0A02E13DEF1EF0010A02E1E3EF9F
:1001C0001DF00F0A02E1B3EF1DF0010A02E134EF66
:1001D0001DF0030A02E1B7EF1CF0010A02E170EF23
:1001E0001CF0070A02E13FEF1CF01B0A02E1CEEF10
:1001F0001BF00F0A02E1C0EF1BF0010A02E1B7EFAA
:100200001BF0030A02E17EEF1BF0010A02E19EEF00
:1002100019F0070A02E17DEF19F0010A02E114EF7B
:1002200019F0030A02E1B6EF18F0010A02E181EFCA
:1002300018F07D0A02E12DEF18F0010A02E1E5EF66
:1002400017F0070A02E1DAEF17F0010A02E171EF95
:1002500017F0030A02E104EF17F0010A02E1EDEFE3
:1002600016F00F0A02E1B5EF16F0080A02E105EFF9
:1002700016F0760A02E18CEF15F0770A02E11BEF27
:1002800015F0080A02E1B6EF14F0030A02E156EF96
:1002900014F0010A02E1DBEF13F0070A02E155EF67
:1002A00013F0010A02E119EF13F0030A02E1DEEF95
:1002B00012F0010A02E1A1EF12F01F0A02E14CEF75
:1002C00012F0020A02E1B4EF11F0030A02E1ECEFCE
:1002D00010F0020A02E113EF10F0070A02E1B7EF93
:1002E0000FF0010A02E164EF0FF0030A02E113EFDD
:1002F0000FF0010A02E192EF0EF00F0A02E112EF95
:100300000EF0010A02E1B7EF0DF0030A02E170EF0F
:100310000DF0010A02E10AEF0DF0070A02E1D4EF45
:100320000CF0010A02E19EEF0CF0030A02E151EF2A
:100330000CF0730A02E1FAEF0BF0030A02E18BEF13
:100340000BF0010A02E105EF0BF0700A02E13AEF4F
:1003500009F03F0A02E108EF09F0010A02E1E4EFC7
:1003600008F0030A02E1BFEF08F0010A02E19BEF87
:1003700008F0070A02E176EF08F0010A02E150EF07
:1003800008F0030A02E12BEF08F0010A02E107EF8F
:1003900008F00F0A02E1B3EF07F0010A02E18FEF64
:1003A00007F0030A02E12DEF07F0010A02E1D7EF9F
:1003B00006F0070A02E15EEF06F0010A02E1F1EF42
:1003C00005F0030A01E1A2D3010A01E186D31F0A65
:1003D00001E107D3010A01E1B8D2030A01E11DD20C
:1003E000010A01E1F9D1070A01E1C7D1010A01E1DE
:1003F000ACD1030A01E193D1010A01E17AD10F0ADC
:1004000001E1F9D0010A01E1EAD0030A01E1C1D01A
:10041000010A01E19BD0070A67E0010A43E0030AF1
:100420000AE0010A02E03BEF1FF0E66A4DEC1FF024
:10043000E55240EF1FF0010EE66E4DEC1FF0E55265
:1004400001DEE66A4DEC1FF0E5520B0EE66E4DEC58
:100450001FF0E552020EE66E4DEC1FF0E552E66A23
:100460004DEC1FF0E552E66A4DEC1FF0E552010E2F
:10047000E66E4DEC1FF0E552200EE66E4DEC1FF0DF
:10048000E552520EE66E4DEC1FF0E552530EE66E4D
:100490004DEC1FF0E552540EE66E4DEC1FF0E552A8
:1004A00040EF1FF0020EE66E4DEC1FF0E552E66ADB
:1004B0004DEC1FF0E5520B0EE66E4DEC1FF0E552D1
:1004C000020EE66E4DEC1FF0E552E66A4DEC1FF0B1
:1004D000E552E66A4DEC1FF0E552010EE66E4DEC7A
:1004E0001FF0E55240EF1FF0030EE66E4DEC1FF0DB
:1004F000E55200282A6E0001FD512A5C18E2002A0C
:100500000050EA6AA00FE96E000EEA22EFCFDFFF8B
:10051000590EDF5C06E2DFCFE6FF4DEC1FF0E5523F
:1005200005D0FE0EE66E4DEC1FF0E5520DD0FE0E2E
:10053000E66E4DEC1FF0E5520028EA6AA00FE96E66
:10054000000EEA22040EEF6E40EF1FF0400E015C39
:1005500009E20150EA6A600FE96E000EEA22EF6AD2
:10056000012AF4D7016A04010CBF0CD0400EE66EDC
:10057000600EE66E000EE66E4CEC20F0E552E552A1
:10058000E55203D00001010EEA6FFDC000F040EF1C
:100590001FF0050EE66E4DEC1FF0E552000E036EE7
:1005A000046A096E0A6A076E086A840ECB6E040E2E
:1005B000CA6E0B0EBC6EB80EBB6E9E9C9D8CB36A51
:1005C000B26A890EB16E0B0EBA6EBE6A0C0EBD6EAB
:1005D0009494C00EF26E1E0ED26E40EF1FF0060E07
:1005E000E66E4DEC1FF0E5529D9CBA6ABD6A0E0E98
:1005F000D26E40EF1FF0070EE66E4DEC1FF0E55295
:10060000030E00242A6E0001FD512A5C63E2002AD9
:100610000050EA6AA00FE96E000EEA22EF500D6E5C
:100620000D50030A40E0010A2BE0030A16E0010A1C
:1006300001E04CD0002A0050EA6AA00FE96E000EDB
:10064000EA22EF50066E002A0050EA6AA00FE96E17
:10065000000EEA22EFCFECF03CD0002A0050EA6A0C
:10066000A00FE96E000EEA22EFCFF0F0002A005052
:10067000EA6AA00FE96E000EEA22EFCFEFF029D070
:10068000002A0050EA6AA00FE96E000EEA22EFCFBE
:10069000F2F0002A0050EA6AA00FE96E000EEA228A
:1006A000EFCFF1F016D0002A0050EA6AA00FE96EF1
:1006B000000EEA22EFCFEDF0002A0050EA6AA00F08
:1006C000E96E000EEA22EFCFEEF003D0020E002614
:1006D00000D00DD0FE0EE66E4DEC1FF0E552002866
:1006E000EA6AA00FE96E000EEA22040EEF6E40EFF8
:1006F0001FF0080EE66E4DEC1FF0E552F29E06501C
:100700000D6E0D5009E00000000000000000000028
:10071000000000000D06F5D7F28E40EF1FF0090E25
:10072000E66E4DEC1FF0E552F29EECC00DF00D5060
:1007300009E00000000000000000000000000000D0
:100740000D06F5D7F28E40EF1FF00A0EE66E4DEC67
:100750001FF0E552F29EEFC013F0F0C014F01350FA
:10076000141008E000000000000000001306000E56
:10077000145AF5D7F28E40EF1FF00B0EE66E4DECDB
:100780001FF0E55200282A6E0001FD512A5C15E297
:10079000002A0050EA6AA00FE96E000EEA22EF502C
:1007A0000D6E0D5009E00000000000000000000088
:1007B000000000000D06F5D70DD0FE0EE66E4DECE4
:1007C0001FF0E5520028EA6AA00FE96E000EEA2247
:1007D000040EEF6E40EF1FF0A1940C0EE66E4DEC90
:1007E0001FF0E552C282C2B2FED7A1A40AD0E66AC7
:1007F0004DEC1FF0E552E66A4DEC1FF0E55240EF7C
:100800001FF0C450E66E4DEC1FF0E552C350E66E8B
:100810004DEC1FF0E55240EF1FF00D0EE66E4DEC73
:100820001FF0E55200282A6E0001FD512A5C01E309
:100830007DD09D50400B03E0D250200B06E1FE0E10
:10084000E66E4DEC1FF0E55270D0A194002A0050E6
:10085000EA6AA00FE96E000EEA22EF50136E146AE6
:1008600013C00BF014C00CF0480E0C02F3CF0CF0C8
:10087000480E0B02F3CF0BF0F4500C260A0E276E35
:10088000286A0BC022F00CC023F021EC25F022C016
:100890000BF023C00CF00F0E0D6EE80E136E030E5E
:1008A000146E1350141008E0000000000000000057
:1008B0001306000E145AF5D70D06083404E207504B
:1008C0000E08000E085408E3D880085004E7F20E22
:1008D000075CFF0E085802E20D50DFE1A1A405D02D
:1008E000E66A4DEC1FF0E55220D0083404E20750D0
:1008F0000E08000E085408E3D880085004E7F20EF2
:10090000075CFF0E085806E2FE0EE66E4DEC1FF087
:10091000E5520BD00050EA6AA00FE96E000EEA2201
:10092000EF50E66E4DEC1FF0E5520DD0FE0EE66E78
:100930004DEC1FF0E5520028EA6AA00FE96E000EA8
:10094000EA22040EEF6E40EF1FF00E0EE66E4DEC45
:100950001FF0E55200282A6E0001FD512A5C32E2A8
:10096000002A0050EA6AA00FE96E000EEA22EF505A
:100970000D6E010E0D1402E0000E01D0010EE8B064
:100980008B82E8A08B92020E0D1402E0010E01D0C2
:10099000000EE8B09482E8A09492040E0D1402E0D8
:1009A000010E01D0000EE8B08B80E8A08B90080EFD
:1009B0000D1402E0010E01D0000EE8B09480E8A012
:1009C00094900DD0FE0EE66E4DEC1FF0E55200281F
:1009D000EA6AA00FE96E000EEA22040EEF6E40EF05
:1009E0001FF00F0EE66E4DEC1FF0E55200282A6E48
:1009F0000001FD512A5C62E2002A0050EA6AA00F61
:100A0000E96E000EEA22EF50010B02E0010E01D068
:100A1000000EE8B08A8AE8A08A9A0050EA6AA00F1D
:100A2000E96E000EEA22EF50020B02E0010E01D047
:100A3000000EE8B0938AE8A0939A0050EA6AA00FEB
:100A4000E96E000EEA22EF50040B02E0010E01D025
:100A5000000EE8B08A8CE8A08A9C0050EA6AA00FD9
:100A6000E96E000EEA22EF50080B02E0010E01D001
:100A7000000EE8B0938CE8A0939C0050EA6AA00FA7
:100A8000E96E000EEA22EF50100B02E0010E01D0D9
:100A9000000EE8B08A8EE8A08A9E0050EA6AA00F95
:100AA000E96E000EEA22EF50200B02E0010E01D0A9
:100AB000000EE8B0938EE8A0939E0DD0FE0EE66E79
:100AC0004DEC1FF0E5520028EA6AA00FE96E000E17
:100AD000EA22040EEF6E40EF1FF0100EE66E4DECB2
:100AE0001FF0E5520D6A81BA0D8093BA0D8281BC68
:100AF0000D8493BC0D8681BE0D8893BE0D8A0D506A
:100B0000E66E4DEC1FF0E55240EF1FF0110EE66E61
:100B10004DEC1FF0E552020E00242A6E0001FD513B
:100B20002A5C50E2002A0050EA6AA00FE96E000E2B
:100B3000EA22EFCF14F0002A0050EA6AA00FE96E13
:100B4000000EEA22EFCF13F0F29E8A9A8A8C000000
:100B50008A9C00008A8C00008A9C00008A8C00001D
:100B60008A9C00008A8C00008A9C00008A8C00000D
:100B70008A9C00008A8C00008A9C000006500D6E42
:100B80000D5009E00000000000000000000000001F
:100B900000000D06F5D78A8C00008A9C00000E0E1E
:100BA0000D6E143213328A9AD8B08A8A8A8C000069
:100BB0008A9C0D2EF6D78A9A8A8C00008A9C0000A7
:100BC000F28E0DD0FE0EE66E4DEC1FF0E5520028C1
:100BD000EA6AA00FE96E000EEA22040EEF6E40EF03
:100BE0001FF0120EE66E4DEC1FF0E552020E0024CF
:100BF0002A6E0001FD512A5C52E2002A0050EA6A86
:100C0000A00FE96E000EEA22EFCF14F0002A005088
:100C1000EA6AA00FE96E000EEA22EFCF13F0F29E0F
:100C20008A9A8A8C00008A9C00008A8A8A8C00003A
:100C30008A9C00008A9A8A8C00008A9C00008A8C18
:100C400000008A9C00008A8C00008A9C00008A8C2C
:100C500000008A9C000006500D6E0D5009E0000057
:100C60000000000000000000000000000D06F5D7A5
:100C70008A8C00008A9C00000E0E0D6E1432133216
:100C80008A9AD8B08A8A8A8C00008A9C0D2EF6D760
:100C90008A9A8A8C00008A9C0000F28E0DD0FE0E8B
:100CA000E66E4DEC1FF0E5520028EA6AA00FE96EEF
:100CB000000EEA22040EEF6E40EF1FF0130EE66EF8
:100CC0004DEC1FF0E55200282A6E0001FD512A5C10
:100CD0005FE2002A0050EA6AA00FE96E000EEA22E5
:100CE000EFCF13F0F29E8A8A8A8C00008A9C000063
:100CF0008A8C00008A9C00008A9A8A8C00008A9C58
:100D000000008A8C00008A9C00008A8C00008A9C6B
:100D100000008A8C00008A9C000006500D6E0D5069
:100D200009E00000000000000000000000000000DA
:100D30000D06F5D78A8C00008A9C0000080E0D6E07
:100D400013328A9AD8B08A8A8A8C00008A9C0D2E27
:100D5000F7D78A9A8A8C00008A9C00008A8C00004F
:100D60008A9C00008A8C00008A9C00008A8C00000B
:100D70008A9C00008A8C00008A9C00008A8C0000FB
:100D80008A9C00008A8C00008A9C0000F28E0DD0A4
:100D9000FE0EE66E4DEC1FF0E5520028EA6AA00F49
:100DA000E96E000EEA22040EEF6E40EF1FF0140E03
:100DB000E66E4DEC1FF0E552F29E8A9A8A8C000096
:100DC0008A9C00008A8C00008A9C00008A8A8A8C97
:100DD00000008A9C00008A9A8A8C00008A9C00008D
:100DE0008A8C00008A9C00008A8C00008A9C00008B
:100DF000938A06500D6E0D5009E0000000000000BF
:100E000000000000000000000D06F5D78A8C0000ED
:100E10008A9C00000E0E0D6E8A8C00008A9CD89071
:100E20008A9C81BAD880143213320D2EF5D7D8900F
:100E300014321332D890143213328A8C939A8A9CCB
:100E4000F28E14C0E6FF4DEC1FF0E55213C0E6FF32
:100E50004DEC1FF0E55240EF1FF0150EE66E4DEC25
:100E60001FF0E552F29E8A8A8A8C00008A9C00005C
:100E70008A9A8A8C00008A9C00008A8A8A8C0000E8
:100E80008A9C00008A9A8A8C00008A9C00008A8CC6
:100E900000008A9C00008A8C00008A9C0000938AD3
:100EA00006500D6E0D5009E000000000000000002B
:100EB0000000000000000D06F5D78A8C00008A9C17
:100EC0000000080E0D6E8A8C00008A9CD89081BAB2
:100ED000D88013320D2EF7D78A8C00008A9C000030
:100EE0008A8C00008A9C00008A8C00008A9C00008A
:100EF0008A8C00008A9C00008A8C00008A9C00007A
:100F00008A8C00008A9C00008A8C939A8A9CF28EBC
:100F100013C0E6FF4DEC1FF0E55240EF1FF0160E38
:100F2000E66E4DEC1FF0E552F29E8A9A8A8C000024
:100F30008A9C00008A8A8A8C00008A9C00008A8C25
:100F400000008A9C00008A9A8A8C00008A9C00001B
:100F50008A8C00008A9C00008A8C00008A9C000019
:100F6000F28E40EF1FF0170EE66E4DEC1FF0E552CB
:100F700000282A6E0001FD512A5C3AE2F29E002A06
:100F80000050EA6AA00FE96E000EEA22EFCF13F0DC
:100F9000000113502BE08A9A8A8C00008A9C000082
:100FA0008A8A8A8C00008A9C00008A8C00008A9CB5
:100FB00000008A9A8A8C00008A9C00008A8C0000BB
:100FC0008A9C00008A8C00008A9C000006500D6EEE
:100FD0000D5009E0000000000000000000000000CB
:100FE00000000D06F5D700011306D2D7F28E0DD002
:100FF000FE0EE66E4DEC1FF0E5520028EA6AA00FE7
:10100000E96E000EEA22040EEF6E40EF1FF0180E9C
:10101000E66E4DEC1FF0E552F29E8A9A8A8C000033
:101020008A9C00008A8C00008A9C00008A8C000048
:101030008A9C00008A8A8A8C00008A9C00008A9A16
:101040008A8C00008A9C00008A8C00008A9C000028
:10105000F28E40EF1FF0190EE66E4DEC1FF0E552D8
:10106000F29E8A8A8A8C00008A9C00008A9A8A8C66
:1010700000008A9C00008A8C00008A9C00008A8AFA
:101080008A8C00008A9C00008A9A8A8C00008A9CC4
:1010900000008A8C00008A9C0000F28E40EF1FF056
:1010A0001A0EE66E4DEC1FF0E552F29E8A9A8A8C7B
:1010B00000008A9C00008A8A8A8C00008A9C0000BA
:1010C0008A9A8A8C00008A9C00008A8A8A8C000096
:1010D0008A9C00008A9A8A8C00008A9C00008A8C74
:1010E00000008A9C0000F28E40EF1FF01B0EE66E9F
:1010F0004DEC1FF0E552F29E8A8A8A8C00008A9C91
:1011000000008A8C00008A9C00008A9A8A8C000069
:101110008A9C00008A8A8A8C00008A9C00008A9A35
:101120008A8C00008A9C00008A8C00008A9C000047
:10113000F28E40EF1FF01C0EE66E4DEC1FF0E552F4
:10114000F29E8A9A8A8C00008A9C00008A8A8A8C85
:1011500000008A9C00008A8C00008A9C00008A8C17
:1011600000008A9C00008A9A8A8C00008A9C0000F9
:101170008A8C00008A9C0000F28E40EF1FF01D0E4A
:10118000E66E4DEC1FF0E552F29E8A8A8A8C0000D2
:101190008A9C00008A9A8A8C00008A9C00008A8CB3
:1011A00000008A9C00008A8C00008A9C00008A8AC9
:1011B0008A8C00008A9C00008A9A8A8C00008A9C93
:1011C0000000F28E40EF1FF01E0EE66E4DEC1FF099
:1011D000E552F29E8A9A8A8C00008A9C00008A8CD2
:1011E00000008A9C00008A8C00008A9C00008A8A89
:1011F0008A8C00008A9C00008A8C00008A9C000077
:101200008A9A8A8C00008A9C0000F28E40EF1FF0C0
:101210001F0EE66E4DEC1FF0E55200282A6E00010D
:10122000FD512A5C18E2002A0050EA6AA00FE96E1C
:10123000000EEA22EFCF13F0F29E060E0D6E13326F
:101240008A9AD8B08A8A8A8C00008A9C0D2EF7D799
:101250008A9AF28E0DD0FE0EE66E4DEC1FF0E5522E
:101260000028EA6AA00FE96E000EEA22040EEF6E73
:1012700040EF1FF0200EE66E4DEC1FF0E552020E1F
:1012800000242A6E0001FD512A5C01E3AFD1002A3F
:101290000050EA6AA00FE96E000EEA22EFCF14F0C8
:1012A000002A0050EA6AA00FE96E000EEA22EFCF92
:1012B00013F0010E13C0DBFF020E14C0DBFFF29E21
:1012C0008A9A8A8C00008A9C00008A8A8A8C000094
:1012D0008A9C00008A9A8A8C00008A9C00008A8C72
:1012E00000008A9C00008A8C00008A9C00008A8C86
:1012F00000008A9C000006500D6E0D5009E00000B1
:101300000000000000000000000000000D06F5D7FE
:101310008A8C00008A9C00000E0E0D6E143213326F
:101320008A9AD8B08A8A8A8C00008A9C0D2EF6D7B9
:101330008A9A8A8C00008A9C0000030EDB6A040EE5
:10134000DB6A030EDBCF2AF0040EDBCF2BF00001AB
:10135000ED5100012BAE02D0D89003D02A5C000ED4
:101360002B5801E3BED08A9A8A8C00008A9C000028
:101370008A8C00008A9C00008A8C00008A9C0000F5
:101380008A8A8A8C00008A9C00008A9A8A8C0000D3
:101390008A9C00008A8C00008A9C0000ECC00DF042
:1013A0000D5009E0000000000000000000000000F7
:1013B00000000D06F5D78A9A8A8C00008A9C0000EE
:1013C0008A8A8A8C00008A9C00008A8C00008A9C91
:1013D00000008A8C00008A9C00008A9A8A8C000097
:1013E0008A9C00008A8C00008A9C000006500D6ECA
:1013F0000D5009E0000000000000000000000000A7
:1014000000000D06F5D78A9A8A8C00008A9C00009D
:101410008A8C00008A9C00008A8A8A8C00008A9C40
:1014200000008A9A8A8C00008A9C00008A8C000046
:101430008A9C00008A8C00008A9C0000938A0650D7
:101440000D6E0D5009E000000000000000000000DB
:10145000000000000D06F5D78A8C00008A9C000071
:101460000E0E0D6E8A8C00008A9CD89081BAD880AE
:10147000143213320D2EF6D7D89014321332D8907E
:10148000143213328A8C939A8A9C06500D6E0D503A
:1014900009E0000000000000000000000000000063
:1014A0000D06F5D7010EDBCF2AF0020EDBCF2BF0B5
:1014B00013502A1802E114502B180DE1030EDBCF54
:1014C0002AF0040EDBCF2BF0010E2A240D6E030E42
:1014D000DB68040EDB6A030EDB2A040E01E3DB2A61
:1014E00030D7F28EF29ED950030FE96EDACFEAFFC1
:1014F000EE5002E1010EED1872E10D50E66E4DEC7A
:101500001FF0E5520001EE510D02F350E66ED95086
:10151000030FE96EDACFEAFFE552E750EE6EED6AAF
:10152000D950030FE96EDACFEAFFEE50ED1056E026
:101530008A9A8A8C00008A9C00008A8C00008A9C0F
:1015400000008A8C00008A9C00008A8A8A8C000035
:101550008A9C00008A9A8A8C00008A9C00008A8CEF
:1015600000008A9C0000ECC00DF00D5009E0000066
:101570000000000000000000000000000D06F5D78C
:101580008A9A8A8C00008A9C00008A8A8A8C0000D1
:101590008A9C00008A8C00008A9C00008A8C0000D3
:1015A0008A9C00008A9A8A8C00008A9C00008A8C9F
:1015B00000008A9C000006500D6E0D5009E00000EE
:1015C0000000000000000000000000000D06F5D73C
:1015D000030EDB06040E01E2DB06A2D705D0FE0EE9
:1015E000E66E4DEC1FF0E552F28E0DD0FE0EE66E6B
:1015F0004DEC1FF0E5520028EA6AA00FE96E000EDC
:10160000EA22040EEF6E40EF1FF0500EE66E4DEC36
:101610001FF0E552020E00242A6E0001FD512A5CE3
:101620006BE2002A0050EA6AA00FE96E000EEA227F
:10163000EFCF14F0002A0050EA6AA00FE96E000E06
:10164000EA22EFCF13F0F29E8A8A8A8C00008A9CED
:1016500000008A9A8A8C00008A9C00008A8A8A8C00
:1016600000008A9C00008A8C00008A9C00008A8C02
:1016700000008A9C00008A9A8A8C00008A9C0000E4
:1016800006500D6E0D5009E0000000000000000043
:101690000000000000000D06F5D78A8C00008A9C2F
:1016A0000000100E0D6E143213328A9AD8B08A8A56
:1016B0008A8C00008A9C0D2EF6D78A9A8A8C0000AC
:1016C0008A9C00008A8C00008A9C00008A8C0000A2
:1016D0008A9C00008A8C00008A9C00008A8C000092
:1016E0008A9C00008A8C00008A9C00008A8C000082
:1016F0008A9C0000F28E0DD0FE0EE66E4DEC1FF0BF
:10170000E5520028EA6AA00FE96E000EEA22040EF4
:10171000EF6E40EF1FF0510EE66E4DEC1FF0E552FC
:10172000020E00242A6E0001FD512A5C54E2002AB8
:101730000050EA6AA00FE96E000EEA22EFCF14F023
:10174000002A0050EA6AA00FE96E000EEA22EFCFED
:1017500013F0F29E8A9A8A8C00008A9C00008A8A82
:101760008A8C00008A9C00008A9A8A8C00008A9CDD
:1017700000008A8C00008A9C00008A8C00008A9CF1
:1017800000008A8A8A8C00008A9C000006500D6E38
:101790000D5009E000000000000000000000000003
:1017A00000000D06F5D78A9A8A8C00008A9C0000FA
:1017B0000E0E0D6E143213328A9AD8B08A8A8A8C31
:1017C00000008A9C0D2EF6D78A9A8A8C00008A9C8B
:1017D0000000F28E0DD0FE0EE66E4DEC1FF0E552CD
:1017E0000028EA6AA00FE96E000EEA22040EEF6EEE
:1017F00040EF1FF0520EE66E4DEC1FF0E552F29EE8
:101800008A9A8A8C00008A9C00008A8C00008A9C3C
:1018100000008A8A8A8C00008A9C00008A9A8A8C3E
:1018200000008A9C00008A8C00008A9C00008A8A42
:101830008A8C00008A9C0000938A06500D6E0D5021
:1018400009E00000000000000000000000000000AF
:101850000D06F5D78A9A8A8C00008A9C00000E0E2D
:101860000D6E8A8C00008A9CD89081BAD880143280
:1018700013320D2EF6D7D89014321332D89014327A
:1018800013328A8C939A8A9CF28E14C0E6FF4DEC38
:101890001FF0E55213C0E6FF4DEC1FF0E55240EF9C
:1018A0001FF0210EE66E4DEC1FF0E552020E0024F3
:1018B0002A6E0001FD512A5C32E2F29E8A8C939AD4
:1018C0008A9A8A9C8A8C00008A9C00008A8C00007C
:1018D0008A9C00008A8C00008A9C0000002A00502C
:1018E000EA6AA00FE96E000EEA22EFCF14F0002A98
:1018F0000050EA6AA00FE96E000EEA22EFCF13F063
:10190000100E0D6E143213328A9AD8B08A8A8A8CDD
:1019100000008A9C0D2EF6D78A9AF28E0DD0FE0E0C
:10192000E66E4DEC1FF0E5520028EA6AA00FE96E62
:10193000000EEA22040EEF6E40EF1FF0220EE66E5C
:101940004DEC1FF0E552F29E8A8C939A8A9A8A9CFB
:101950008A8A8A8C8A9C8A9A8A8C8A9C8A8C8A9C9B
:101960008A8C8A9C8A8C8A9C8A8C8A9C8A8C8A9C87
:101970008A8C8A9C8A8C8A9C8A8C8A9C8A8C8A9C77
:10198000938A080E0D6E8A8C8A9CD89081BAD88072
:1019900013320D2EF8D78A9AF28E13C0E6FF4DEC63
:1019A0001FF0E55240EF1FF0230EE66E4DEC1FF0E6
:1019B000E552F29E8A8C939A8A9A8A9C8A8C8A9C97
:1019C0008A8C8A9C8A8A8A8C8A9C8A9A8A8C8A9C2B
:1019D0008A8C8A9C8A8C8A9C8A8C8A9C8A8C8A9C17
:1019E0008A8C8A9C8A8C8A9C8A8C8A9C938A080E10
:1019F0000D6E8A8C8A9CD89081BAD88013320D2EB5
:101A0000F8D78A9AF28E13C0E6FF4DEC1FF0E5522C
:101A100040EF1FF0240EE66E4DEC1FF0E552002A59
:101A20000050EA6AA00FE96E000EEA22EF500D6E38
:101A30000001FD51005C45E201500D242A6E400E6C
:101A40002A5C3FE20D50E66E4DEC1FF0E552050EAC
:101A50000DC0DBFF050EDB5033E0F29E8A8C939ABB
:101A60008A8A8A9C8A9A8A8C8A9C8A8C8A9C8A8A8C
:101A70008A8C8A9C8A9A8A8C8A9C8A8C8A9C8A8C78
:101A80008A9C8A8C8A9C8A8C8A9C8A8C8A9C8A8C66
:101A90008A9C8A8C8A9C938A080E0D6E8A8C8A9CFA
:101AA000D89081BAD88013320D2EF8D78A9AF28E48
:101AB00013C0E6FF4DEC1FF0E552050EDB06CAD75A
:101AC0000DD0FE0EE66E4DEC1FF0E5520028EA6ADE
:101AD000A00FE96E000EEA22040EEF6E40EF1FF039
:101AE000250EE66E4DEC1FF0E552020E00242A6E24
:101AF0000001FD512A5C2CE2F29E8A8C939A8A9A0C
:101B00008A9C8A8C8A9C8A8A8A8C8A9C8A8C8A9CE7
:101B1000002A0050EA6AA00FE96E000EEA22EFCF19
:101B200014F0002A0050EA6AA00FE96E000EEA22C3
:101B3000EFCF13F0100E0D6E143213328A9AD8B014
:101B40008A8A8A8C8A9C0D2EF7D78A9AF28E0DD0BB
:101B5000FE0EE66E4DEC1FF0E5520028EA6AA00F7B
:101B6000E96E000EEA22040EEF6E40EF1FF0260E23
:101B7000E66E4DEC1FF0E552002A0050EA6AA00F15
:101B8000E96E000EEA22EF500D6E00500D240D2478
:101B90002A6E0001FD512A5C36E2060E0DC0DBFF05
:101BA000060EDB502FE0F29E8A8C939A8A8A8A9CDA
:101BB0008A9A8A8C8A9C8A8A8A8C8A9C8A8C8A9C39
:101BC000002A0050EA6AA00FE96E000EEA22EFCF69
:101BD00014F0002A0050EA6AA00FE96E000EEA2213
:101BE000EFCF13F0100E0D6E143213328A9AD8B064
:101BF0008A8A8A8C8A9C0D2EF7D78A9AF28E060ED4
:101C0000DB06CED70DD0FE0EE66E4DEC1FF0E55292
:101C10000028EA6AA00FE96E000EEA22040EEF6EB9
:101C200040EF1FF0270EE66E4DEC1FF0E552040E5C
:101C300000242A6E0001FD512A5C65E2F29E8A8C26
:101C4000939A8A8A8A9C8A8C8A9C8A8C8A9C8A8C9F
:101C50008A9C002A0050EA6AA00FE96E000EEA2270
:101C6000EFCF14F0002A0050EA6AA00FE96E000ED0
:101C7000EA22EFCF13F0100E0D6E143213328A9A4F
:101C8000D8B08A8A8A8C8A9C0D2EF7D78A9A8A8C39
:101C90008A9C8A8C8A9C8A8C8A9C8A8C002A005016
:101CA000EA6AA00FE96E000EEA22EFCF14F0002AD4
:101CB0000050EA6AA00FE96E000EEA22EFCF13F09F
:101CC0001350141008E0000000000000000013068C
:101CD000000E145AF5D78A9CECC00DF00D5009E0A7
:101CE00000000000000000000000000000000D06E1
:101CF000F5D7100E0D6E0D5004E08A8C8A9C0D06EF
:101D0000FAD7F28E0DD0FE0EE66E4DEC1FF0E552C6
:101D10000028EA6AA00FE96E000EEA22040EEF6EB8
:101D200040EF1FF0280EE66E4DEC1FF0E552040E5A
:101D300000242A6E0001FD512A5C66E2F29E8A8C24
:101D4000939A8A9A8A9C8A8A8A8C8A9C8A8C8A9C90
:101D50008A8C8A9C002A0050EA6AA00FE96E000E65
:101D6000EA22EFCF14F0002A0050EA6AA00FE96ED1
:101D7000000EEA22EFCF13F0100E0D6E1432133264
:101D80008A9AD8B08A8A8A8C8A9C0D2EF7D78A9A2A
:101D90008A8C8A9C8A8C8A9C8A8C8A9C8A8C002A4F
:101DA0000050EA6AA00FE96E000EEA22EFCF14F0AD
:101DB000002A0050EA6AA00FE96E000EEA22EFCF77
:101DC00013F01350141008E00000000000000000A1
:101DD0001306000E145AF5D78A9CECC00DF00D5076
:101DE00009E000000000000000000000000000000A
:101DF0000D06F5D7100E0D6E0D5004E08A8C8A9CEE
:101E00000D06FAD7F28E0DD0FE0EE66E4DEC1FF0E9
:101E1000E5520028EA6AA00FE96E000EEA22040EDD
:101E2000EF6E40EF1FF0290EE66E4DEC1FF0E5520D
:101E3000030E00242A6E0001FD512A5C36E2002ABE
:101E40000050EA6AA00FE96E000EEA22EFCF13F00D
:101E5000F29E8A8C939A040E0D6E13328A9AD8B031
:101E60008A8A8A8C8A9C0D2EF8D7002A0050EA6A4A
:101E7000A00FE96E000EEA22EFCF14F0002A005006
:101E8000EA6AA00FE96E000EEA22EFCF13F0100EFF
:101E90000D6E143213328A9AD8B08A8A8A8C8A9C40
:101EA0000D2EF7D78A9AF28E0DD0FE0EE66E4DEC0F
:101EB0001FF0E5520028EA6AA00FE96E000EEA2240
:101EC000040EEF6E40EF1FF02A0EE66E4DEC1FF091
:101ED000E55200282A6E0001FD512A5C39E2002AF1
:101EE0000050EA6AA00FE96E000EEA22EFCF13F06D
:101EF000F29E8A8C939A040E0D6E13328A9AD8B091
:101F00008A8A8A8C8A9C0D2EF8D78A8C8A9C8A8C25
:101F10008A9C8A8C8A9C8A8C8A9C8A8C8A9C8A8CD1
:101F20008A9C8A8C8A9C8A8C8A9C938A080E0D6E65
:101F30008A8C8A9CD89081BAD88013320D2EF8D71B
:101F40008A9AF28E13C0E6FF4DEC1FF0E5520DD0D9
:101F5000FE0EE66E4DEC1FF0E5520028EA6AA00F77
:101F6000E96E000EEA22040EEF6E40EF1FF02B0E1A
:101F7000E66E4DEC1FF0E55200282A6E0001FD517F
:101F80002A5C42E2002A0050EA6AA00FE96E000EC5
:101F9000EA22EF500D6EFF0E0D5C04E1C66A9368F5
:101FA000948C31D0800EC76E080EC66EC56A0DBC0B
:101FB000C79EC70E936E8A6A0DB08A860DB28A8854
:101FC0000DB48A8A949C8B9C380E0D160D5003E13B
:101FD000770EC86E17D0080E0D5C03E13B0EC86E7D
:101FE00011D0100E0D5C03E1270EC86E0BD0180E39
:101FF0000D5C03E10E0EC86E05D0200E0D5C02E1F3
:102000000B0EC86EC68A0DD0FE0EE66E4DEC1FF0AC
:10201000E5520028EA6AA00FE96E000EEA22040EDB
:10202000EF6E40EF1FF02C0EE66E4DEC1FF0E55208
:10203000030E00242A6E0001FD512A5C01E3BDD08D
:10204000002A0050EA6AA00FE96E000EEA22EF5063
:102050000D6E0001010E146E002A0050EA6AA00FF6
:10206000E96E000EEA22EFCF13F0C750040B01E037
:10207000010E2A6E1F0EC5142A1001E0F6D7C58086
:10208000C5B0FED70D505DE0FE0E00011314C96E01
:10209000C7B0FED7C750040B01E0010E2A6E1F0E19
:1020A000C5142A1001E0F6D7C5BC4AD0002A00505A
:1020B000EA6AA00FE96E000EEA22EF50C96EC7B0BF
:1020C000FED7C750040B01E0010E2A6E1F0EC51487
:1020D0002A1001E0F6D7C5BC33D0C582C5B2FED701
:1020E000010E00011310C96EC7B0FED7C750040B14
:1020F00001E0010E2A6E1F0EC5142A1001E0F6D76A
:10210000C5BC1ED00001146A0D50E66E4DEC1FF0E8
:10211000E5520D5011E0C586C7A0FED7C950E66E46
:102120004DEC1FF0E5520D50010804E2C59AC58838
:10213000C5B8FED70D06EDD7C58AC588C5B8FED788
:1021400025D0010E00011310C96EC7B0FED7C750CD
:10215000040B01E0010E2A6E1F0EC5142A1001E0C7
:10216000F6D7C5BC13D00001146A010EE66E4DEC23
:102170001FF0E552C586C7A0FED7C950E66E4DECEC
:102180001FF0E552C58AC588C5B8FED7C550400BBB
:1021900010E0000114500DE0FD0EE66E4DEC1FF056
:1021A000E5520028EA6AA00FE96E000EEA22040E4A
:1021B000EF6EC584C5B4FED70DD0FE0EE66E4DECB5
:1021C0001FF0E5520028EA6AA00FE96E000EEA222D
:1021D000040EEF6E40EF1FF02E0EE66E4DEC1FF07A
:1021E000E552040E00242A6E0001FD512A5C01E331
:1021F000ACD0002A0050EA6AA00FE96E000EEA2275
:10220000EF500D6E0001010E146E002A0050EA6AB4
:10221000A00FE96E000EEA22EFCF13F0C750040BB7
:1022200001E0010E2A6E1F0EC5142A1001E0F6D738
:10223000C580C5B0FED7FE0E00011314C96EC7B02D
:10224000FED7C750040B01E0010E2A6E1F0EC51405
:102250002A1001E0F6D7C5BC61D0002A0050EA6A16
:10226000A00FE96E000EEA22EF50C96EC7B0FED78C
:10227000C750040B01E0010E2A6E1F0EC5142A1070
:1022800001E0F6D7C5BC4AD0002A0050EA6AA00F88
:10229000E96E000EEA22EF50C96EC7B0FED7C750F4
:1022A000040B01E0010E2A6E1F0EC5142A1001E076
:1022B000F6D7C5BC33D0C582C5B2FED7010E00012A
:1022C0001310C96EC7B0FED7C750040B01E0010E52
:1022D0002A6E1F0EC5142A1001E0F6D7C5BC1ED009
:1022E0000001146A0D50E66E4DEC1FF0E5520D50E2
:1022F00011E0C586C7A0FED7C950E66E4DEC1FF0B1
:10230000E5520D50010804E2C59AC588C5B8FED74C
:102310000D06EDD7C58AC588C5B8FED7C550400B98
:1023200010E0000114500DE0FD0EE66E4DEC1FF0C4
:10233000E5520028EA6AA00FE96E000EEA22040EB8
:10234000EF6EC584C5B4FED70DD0FE0EE66E4DEC23
:102350001FF0E5520028EA6AA00FE96E000EEA229B
:10236000040EEF6E40EF1FF02D0EE66E4DEC1FF0E9
:10237000E552002A0050EA6AA00FE96E000EEA2238
:10238000EF500D6E020E00240D242A6E0001FD5147
:102390002A5C73E2C750040B01E0010E2A6E1F0E87
:1023A000C5142A1001E0F6D7C580C5B0FED7002AB3
:1023B0000050EA6AA00FE96E000EEA22EF50FE0B11
:1023C000C96EC7B0FED7C750040B01E0010E2A6EDC
:1023D0001F0EC5142A1001E0F6D7C5BC38D0002A5C
:1023E0000050EA6AA00FE96E000EEA22EF50C96EB3
:1023F000C7B0FED7C750040B01E0010E2A6E1F0EB6
:10240000C5142A1001E0F6D7C5BC21D00D50E66EE8
:102410004DEC1FF0E5520D501AE0C550400B17E18E
:10242000002A0050EA6AA00FE96E000EEA22EF507F
:10243000C96EC7B0FED7C750040B01E0010E2A6E6B
:102440001F0EC5142A1001E0F6D70D06E4D70D5073
:1024500003E1C550400B0DE0FD0EE66E4DEC1FF0A4
:10246000E5520028EA6AA00FE96E000EEA22040E87
:10247000EF6EC584C5B4FED70DD0FE0EE66E4DECF2
:102480001FF0E5520028EA6AA00FE96E000EEA226A
:10249000040EEF6E40EF1FF02F0EE66E4DEC1FF0B6
:1024A000E55200282A6E0001FD512A5C3BE2002A19
:1024B0000050EA6AA00FE96E000EEA22EF500D6E9E
:1024C000FF0E0D5C09E19368948C948E010E066EEC
:1024D0000001640EEC6F25D0E50E936E0DA602D0C0
:1024E0008A8201D08A92949C8B9C949E0C0E0D142F
:1024F0000001EC6F030E0D160D5003E1120E066E77
:1025000010D00D0403E1080E066E0BD0020E0D5C18
:1025100003E1050E066E05D0030E0D5C02E1020E0E
:10252000066E0DD0FE0EE66E4DEC1FF0E552002853
:10253000EA6AA00FE96E000EEA22040EEF6E40EF89
:102540001FF0300EE66E4DEC1FF0E55200282A6EAB
:102550000001FD512A5C23E2002A0050EA6AA00F24
:10256000E96E000EEA22EF500D6E0D50E66E4DEC56
:102570001FF0E5520D5005E1E66A4DEC1FF0E55203
:102580000DD093800D500AE0E66A01EC20F0E55290
:10259000E66E4DEC1FF0E5520D06F4D70DD0FE0EA1
:1025A000E66E4DEC1FF0E5520028EA6AA00FE96ED6
:1025B000000EEA22040EEF6E40EF1FF0310EE66EC1
:1025C0004DEC1FF0E552002A0050EA6AA00FE96EB8
:1025D000000EEA22EF500D6E00500D242A6E00010D
:1025E000FD512A5C17E20D50E66E4DEC1FF0E552EE
:1025F000949E0D500EE0002A0050EA6AA00FE96E8A
:10260000000EEA22EF50E66E01EC20F0E5520D06D6
:10261000F0D70DD0FE0EE66E4DEC1FF0E55200280F
:10262000EA6AA00FE96E000EEA22040EEF6E40EF98
:102630001FF0320EE66E4DEC1FF0E552020E002444
:102640002A6E0001FD512A5C21E2002A0050EA6A4C
:10265000A00FE96E000EEA22EF508A6E002A0050A9
:10266000EA6AA00FE96E000EEA22EF500D6EC00E6E
:102670000D142A6E3F0E8B142A108B6E380E0D141B
:102680002A6EC70E89142A10896E0DD0FE0EE66ED2
:102690004DEC1FF0E5520028EA6AA00FE96E000E2B
:1026A000EA22040EEF6E40EF1FF0330EE66E4DECA3
:1026B0001FF0E552030E00242A6E0001FD512A5C32
:1026C0006BE2002A0050EA6AA00FE96E000EEA22CF
:1026D000EF500D6E002A0050EA6AA00FE96E000E5E
:1026E000EA22EFCF14F0002A0050EA6AA00FE96E48
:1026F000000EEA22EFCF13F001500D240D242A6EB4
:10270000400E2A5C3BE20D50E66E4DEC1FF0E552A8
:102710000D5033E0200EE66E01EC20F0E55214C0BF
:10272000E6FF01EC20F0E55213C0E6FF01EC20F0DB
:10273000E552E66A01EC20F0E552E66E4DEC1FF042
:10274000E552280EE66E01EC20F0E55214C0E6FFDB
:1027500001EC20F0E55213C0E6FF01EC20F0E55259
:10276000E66A01EC20F0E552E66E4DEC1FF0E55212
:10277000132A000E14220D06CBD70DD0FE0EE66EE6
:102780004DEC1FF0E5520028EA6AA00FE96E000E3A
:10279000EA22040EEF6E0DD0FE0EE66E4DEC1FF039
:1027A000E5520028EA6AA00FE96E000EEA22040E44
:1027B000EF6E40EF1FF0340EE66E4DEC1FF0E55269
:1027C000002A0050EA6AA00FE96E000EEA22EF50DC
:1027D0000D6E00500D240D24020F2A6E0001FD51D4
:1027E0002A5C55E20D50E66E4DEC1FF0E552002AD2
:1027F0000050EA6AA00FE96E000EEA22EFCF14F053
:10280000002A0050EA6AA00FE96E000EEA22EFCF1C
:1028100013F00D503BE0400EE66E01EC20F0E55267
:1028200014C0E6FF01EC20F0E55213C0E6FF01EC16
:1028300020F0E552002A0050EA6AA00FE96E000E6F
:10284000EA22EF50E66E01EC20F0E552480EE66E0B
:1028500001EC20F0E55214C0E6FF01EC20F0E55257
:1028600013C0E6FF01EC20F0E552002A0050EA6AAE
:10287000A00FE96E000EEA22EF50E66E01EC20F0A8
:10288000E552132A000E14220D06C3D70DD0FE0EFA
:10289000E66E4DEC1FF0E5520028EA6AA00FE96EE3
:1028A000000EEA22040EEF6E40EF1FF0350EE66ECA
:1028B0004DEC1FF0E55200282A6E0001FD512A5C04
:1028C00046E2002A0050EA6AA00FE96E000EEA22F2
:1028D000EF500D6EFF0E0D5C05E1BA6ABD6A8A9677
:1028E000B16A34D094849396B368B26AC10EB16E63
:1028F000BC6ABF6A0D5003E13B0EBE6E21D00D04D1
:1029000003E11D0EBE6E1CD0020E0D5C03E10B0E2A
:10291000BE6E16D0030E0D5C03E1050EBE6E10D028
:10292000040E0D5C03E1020EBE6E0AD0050E0D5CB6
:1029300003E1010EBE6E04D0060E0D5C01E1BE6A1D
:10294000010EBB6E0B0EBD6E020EBA6E0DD0FE0EEA
:10295000E66E4DEC1FF0E5520028EA6AA00FE96E22
:10296000000EEA22040EEF6E40EF1FF0360EE66E08
:102970004DEC1FF0E552030E00242A6E0001FD51BC
:102980002A5C4AE2F29E939A8A9A00008A8C00009E
:10299000000000008A9C00008A8C000000000000FB
:1029A0008A9C00008A8C0000000000008A9C0000C5
:1029B0008A8C0000000000008A9C002A0050EA6A0D
:1029C000A00FE96E000EEA22EFCF14F0002A0050AB
:1029D000EA6AA00FE96E000EEA22EFCF13F0002A98
:1029E0000050EA6AA00FE96E000EEA22EF500E6E68
:1029F000180E0D6E143213320E32D8A08A9AD8B047
:102A00008A8A00008A8C0000000000008A9C0D2E3B
:102A1000F1D78A9AF28E0DD0FE0EE66E4DEC1FF0C5
:102A2000E5520028EA6AA00FE96E000EEA22040EC1
:102A3000EF6E40EF1FF03E0EE66E4DEC1FF0E552DC
:102A4000030E00242A6E0001FD512A5C56E2F29E1C
:102A5000939A8A9A00008A8C0000000000008A9CE9
:102A600000008A8C0000000000008A9C00008A8C14
:102A70000000000000008A9C00008A8C000000001A
:102A800000008A9C002A0050EA6AA00FE96E000E3E
:102A9000EA22EFCF14F0002A0050EA6AA00FE96E94
:102AA000000EEA22EFCF13F0002A0050EA6AA00FCE
:102AB000E96E000EEA22EF500E6E180E0D6E143203
:102AC00013320E32D8A08A9AD8B08A8A00008A8C33
:102AD0000000000000008A9C0D2EF1D78A9A0D6A32
:102AE000380E0D5C08E200008A8C00000000000037
:102AF0008A9C0D2AF5D7F28E0DD0FE0EE66E4DECB7
:102B00001FF0E5520028EA6AA00FE96E000EEA22E3
:102B1000040EEF6E40EF1FF0490EE66E4DEC1FF015
:102B2000E552030E00242A6E0001FD512A5C5EE28C
:102B3000F29E939A8A9A00008A8C0000000000009E
:102B40008A9C00008A8C0000000000008A9C000023
:102B50008A8C0000000000008A9C00008A8C000023
:102B6000000000008A9C002A0050EA6AA00FE96E6B
:102B7000000EEA22EFCF14F0002A0050EA6AA00FFC
:102B8000E96E000EEA22EFCF13F0002A0050EA6A45
:102B9000A00FE96E000EEA22EF500E6E180E0D6EB9
:102BA000143213320E32D8A08A9AD8B08A8A000022
:102BB0008A8C0000000000008A9C0D2EF1D78A9AB2
:102BC0000D6A0D502A6E2B6AD8902B5004E68C0E9D
:102BD0002A5C000E2B5808E200008A8C00000000DE
:102BE00000008A9C0D2AEDD7F28E0DD0FE0EE66E07
:102BF0004DEC1FF0E5520028EA6AA00FE96E000EC6
:102C0000EA22040EEF6E40EF1FF03F0EE66E4DEC31
:102C10001FF0E552002A0050EA6AA00FE96E000E8C
:102C2000EA22EF500D6E3F0E0D140E6E00500E2472
:102C30000E240E242A6E0001FD512A5C01E386D089
:102C4000C00E0D14E76E080EE7CFDBFF080EDB5059
:102C5000400806E11C0EF36E080EF3CFDBFF13D025
:102C6000080EDB50800806E1380EF36E080EF3CF35
:102C7000DBFF09D0080EDB50C00805E1540EF36EEF
:102C8000080EF3CFDBFFF29E939A3F0E0D14E76E12
:102C9000070EE7CFDBFF070EDB5056E08A9A0000F5
:102CA0008A8C0000000000008A9C00008A8C0000D2
:102CB000000000008A9C00008A8C000000000000D8
:102CC0008A9C00008A8C0000000000008A9C002A78
:102CD0000050EA6AA00FE96E000EEA22EFCF14F06E
:102CE000002A0050EA6AA00FE96E000EEA22EFCF38
:102CF00013F0002A0050EA6AA00FE96E000EEA22E3
:102D0000EF500E6E180E0D6E143213320E32D8A024
:102D10008A9AD8B08A8A00008A8C000000000000DD
:102D20008A9C0D2EF1D78A9A080EDB500D6E0D503D
:102D300008E000008A8C0000000000008A9C0D065C
:102D4000F6D7070EDB06A7D7F28E0DD0FE0EE66E85
:102D50004DEC1FF0E5520028EA6AA00FE96E000E64
:102D6000EA22040EEF6E40EF1FF0370EE66E4DECD8
:102D70001FF0E552F29E939A8A8A00008A8C000026
:102D8000000000008A9C8A9A0D6A0B0E0D5C08E216
:102D900000008A8C0000000000008A9C0D2AF5D7F4
:102DA000938A100E0D6E8A8C000000000000D890EF
:102DB00081BAD880143213328A9C0D2EF4D78A9AA5
:102DC000F28E14C0E6FF4DEC1FF0E55213C0E6FF93
:102DD0004DEC1FF0E55240EF1FF0380EE66E4DEC63
:102DE0001FF0E552F29E939A8A9A0D6A1C0E0D5CB2
:102DF00008E200008A8C0000000000008A9C0D2A76
:102E0000F5D7F28E40EF1FF0390EE66E4DEC1FF055
:102E1000E552002A0050EA6AA00FE96E000EEA228D
:102E2000EF500D6E00500D240D242A6E0001FD514F
:102E30002A5C48E2F29E939A090E0DC0DBFF090E50
:102E4000DB503CE0002A0050EA6AA00FE96E000E59
:102E5000EA22EFCF14F0002A0050EA6AA00FE96ED0
:102E6000000EEA22EFCF13F0100E0D6E133614365B
:102E7000D8A08A9AD8B08A8A00008A8C06C00EF040
:102E80000E0609E000000000000000000000000045
:102E900000000000F5D78A9C06C00EF00E0609E07F
:102EA0000000000000000000000000000000000022
:102EB000F5D70D2EDBD7090EDB06C1D78A9A938A88
:102EC000F28E0DD0FE0EE66E4DEC1FF0E55200289E
:102ED000EA6AA00FE96E000EEA22040EEF6E40EFE0
:102EE0001FF03A0EE66E4DEC1FF0E552002A00503E
:102EF000EA6AA00FE96E000EEA22EF500D6E0001A3
:102F0000FD51005C48E201500D240D242A6E400E54
:102F10002A5C41E20D50E66E4DEC1FF0E552F29E48
:102F2000938A0A0E0DC0DBFF0A0EDB5032E0100E52
:102F30000D6E8A8C06C00EF00E0609E0000000003F
:102F4000000000000000000000000000F5D7D8904D
:102F500081BAD880133614368A9C06C00EF00E064D
:102F600009E0000000000000000000000000000078
:102F70000000F5D70D2EDDD714C0E6FF4DEC1FF095
:102F8000E55213C0E6FF4DEC1FF0E5520A0EDB06DA
:102F9000CBD7F28E0DD0FE0EE66E4DEC1FF0E55253
:102FA0000028EA6AA00FE96E000EEA22040EEF6E16
:102FB00040EF1FF03B0EE66E4DEC1FF0E552C50EE4
:102FC000936E8A6A949E40EF1FF03C0EE66E4DECC5
:102FD0001FF0E552002A0050EA6AA00FE96E000EC9
:102FE000EA22EF500D6E0D040024E8380F0B2A6E14
:102FF0000001FD512A5C22E2F29E0E6A0D5000088B
:103000001BE20E500BE1002A0050EA6AA00FE96EA5
:10301000000EEA22EFCF13F0080E0E6E1336D8A082
:103020008B9ED8B08B8E8A820000000000000000CA
:103030008A920D060E06E2D7F28E0DD0FE0EE66ED7
:103040004DEC1FF0E5520028EA6AA00FE96E000E71
:10305000EA22040EEF6E40EF1FF03D0EE66E4DECDF
:103060001FF0E55200282A6E0001FD512A5C3AE269
:103070000D040124E8380F0B2B6E400E2B5C32E25E
:10308000002A0050EA6AA00FE96E000EEA22EF5013
:103090000D6E0D50E66E4DEC1FF0E552F29E0001F4
:1030A000136A080E0E6E0D5000081AE28A820000A4
:1030B0000000000000008A92D89081B0D8801336BA
:1030C0000E060E5002E00D0409E1080E0E6E13C04C
:1030D000E6FF4DEC1FF0E5520001136A0D06E3D741
:1030E000F28E0DD0FE0EE66E4DEC1FF0E55200287C
:1030F000EA6AA00FE96E000EEA22040EEF6E40EFBE
:103100001FF0400EE66E4DEC1FF0E552F29E8A80F5
:10311000939000008A90FA0EE66EE7EC1FF0E552FD
:10312000FA0EE66EE7EC1FF0E5528A80000093800D
:10313000460EE66EE7EC1FF0E55281B006D0010EB8
:10314000E66E4DEC1FF0E55204D0E66A4DEC1FF040
:10315000E552960EE66EE7EC1FF0E552960EE66E2F
:10316000E7EC1FF0E552F28E40EF1FF0410EE66EE5
:103170004DEC1FF0E552002A0050EA6AA00FE96EFC
:10318000000EEA22EF500D6E00500D242A6E000151
:10319000FD512A5C3AE20D5037E0002A0050EA6AFD
:1031A000A00FE96E000EEA22EF500E6EF29E080E9E
:1031B000F36E0B0EF3CFDBFF0B0EDB50000821E2AA
:1031C0008A9093900EA00CD0040EE66EE7EC1FF0F0
:1031D000E5528A80420EE66EE7EC1FF0E5520BD016
:1031E0003C0EE66EE7EC1FF0E5528A800A0EE66EB2
:1031F000E7EC1FF0E5520E407F0B0E6E0B0EDB0668
:10320000DBD7F28E0D06C7D70DD0FE0EE66E4DEC65
:103210001FF0E5520028EA6AA00FE96E000EEA22CC
:10322000040EEF6E40EF1FF0420EE66E4DEC1FF005
:10323000E552002A0050EA6AA00FE96E000EEA2269
:10324000EF500D6E0001FD51005C48E201500D246D
:103250002A6E400E2A5C42E20D50E66E4DEC1FF0E5
:10326000E5520D503AE0F29E0E6A080EF36E0C0E17
:10327000F3CFDBFF0C0EDB50000827E28A9093901F
:10328000060EE66EE7EC1FF0E5528A8000009380A0
:10329000080EE66EE7EC1FF0E5520E407F0B0E6E57
:1032A00081A002D0800E0E26280EE66EE7EC1FF0FD
:1032B000E5528A80939000009380100EE66EE7EC52
:1032C0001FF0E5520C0EDB06D5D70E50E66E4DEC26
:1032D0001FF0E552F28E0D06C4D70DD0FE0EE66E3D
:1032E0004DEC1FF0E5520028EA6AA00FE96E000ECF
:1032F000EA22040EEF6E40EF1FF0430EE66E4DEC37
:103300001FF0E552F29E8A9093900A0EE66EE7EC6B
:103310001FF0E5528A80FA0EE66EE7EC1FF0E552E8
:10332000FA0EE66EE7EC1FF0E5526E0EE66EE7EC85
:103330001FF0E5529380F28E40EF1FF0440EE66ED0
:103340004DEC1FF0E552002A0050EA6AA00FE96E2A
:10335000000EEA22EF500D6E002A0050EA6AA00F1C
:10336000E96E000EEA22EF500E6E00500D242A6E18
:103370000001FD512A5C01E3B4D101500E242B6EF3
:10338000400E2B5C01E3ADD1F29E0D5001E175D0F2
:103390008A909390140EE66EE7EC1FF0E5528A8057
:1033A0000A0EE66EE7EC1FF0E5528A90140EE66E08
:1033B000E7EC1FF0E5528A80140EE66EE7EC1FF092
:1033C000E5528A90140EE66EE7EC1FF0E5528A8013
:1033D000140EE66EE7EC1FF0E5528A90140EE66ECE
:1033E000E7EC1FF0E5528A80140EE66EE7EC1FF062
:1033F000E5528A90140EE66EE7EC1FF0E5528A80E3
:103400000A0EE66EE7EC1FF0E5528A900A0EE66EB1
:10341000E7EC1FF0E5528A800A0EE66EE7EC1FF03B
:10342000E5529380050EE66EE7EC1FF0E5520D0EB7
:10343000DB6A81B005D0010EF36E0D0EF3CFDBFF1A
:103440000A0EE66EE7EC1FF0E55281B005D0010EE2
:10345000F36E0D0EF3CFDBFF020EE66EE7EC1FF00E
:10346000E5520D0EDB5009E0FD0EE66E4DEC1FF04F
:10347000E5520E6A0D6A0D5000260D5001E186D00E
:10348000002A0050EA6AA00FE96E000EEA220E0E32
:10349000EFCFDBFF8A909390080EF36E0D0EF3CF03
:1034A000DBFF0D0EDB50000820E20E0EDBAE08D075
:1034B0008A900A0EE66EE7EC1FF0E5528A8007D08C
:1034C0008A800A0EE66EE7EC1FF0E5528A90080E3D
:1034D000E66EE7EC1FF0E5520E0EDB50020D0E0E0D
:1034E000F3CFDBFF0D0EDB06DCD70E5003E10D50F2
:1034F000010808E28A900A0EE66EE7EC1FF0E5523A
:103500008A8007D08A800A0EE66EE7EC1FF0E5524B
:103510008A900A0EE66EE7EC1FF0E5529380050EE6
:10352000E66EE7EC1FF0E5520D0EDB6A81A005D0D8
:10353000010EF36E0D0EF3CFDBFF0A0EE66EE7EC25
:103540001FF0E55281B005D0010EF36E0D0EF3CFE2
:10355000DBFF0D0EDB500AE0FD0EE66E4DEC1FF0BA
:10356000E552010E0D6E0E6A0D5000260D50010839
:103570000BE200000000000000000000000000005E
:1035800000000000000000000D0677D700000000DA
:1035900000000E50E66E4DEC1FF0E5520E5001E1BA
:1035A0009ED00E0EDB6A9380080EF36E0D0EF3CFE5
:1035B000DBFF0D0EDB5000083AE2030EE66EE7EC8F
:1035C0001FF0E5520E0EDB50020D0E0EF3CFDBFFA7
:1035D00081B00BD00A0EE66EE7EC1FF0E55281A039
:1035E00003D00E0EDB2A00D00BD00A0EE66EE7ECFD
:1035F0001FF0E55281A000D0000000000000000094
:10360000000000000000000000000D0EDB5001086B
:1036100006E2040EE66EE7EC1FF0E55205D0020E5E
:10362000E66EE7EC1FF0E5520D0EDB06C2D7000098
:103630000000000000000000000093900E50010800
:1036400008E28A900A0EE66EE7EC1FF0E5528A80E7
:1036500007D08A800A0EE66EE7EC1FF0E5528A90EA
:103660000E0EDBCFE6FF4DEC1FF0E552070EE66EC7
:10367000E7EC1FF0E5529380050EE66EE7EC1FF0D5
:10368000E5520D0EDB6A81A005D0010EF36E0D0E22
:10369000F3CFDBFF0A0EE66EE7EC1FF0E55281B0D8
:1036A00005D0010EF36E0D0EF3CFDBFF030EE66EB9
:1036B000E7EC1FF0E55200000000000000000000F1
:1036C00000000000000000000D0EDB5006E0FD0EC3
:1036D000E66EE3DBE552010E0E6E0E065FD7F28E4C
:1036E0000CD0FE0EE66ED9DBE5520028EA6AA00F88
:1036F000E96E000EEA22040EEF6EC2D3450EE66EAE
:10370000CCDBE552020E00242A6E0001FD512A5C3A
:1037100021E2002A0050EA6AA00FE96E000EEA22B8
:10372000EF50936E002A0050EA6AA00FE96E000E77
:10373000EA22EF500D6EC00E0D142A6E3F0E941447
:103740002A10946E380E0D142A6EC70E92142A1089
:10375000926E0CD0FE0EE66EA0DBE5520028EA6AFF
:10376000A00FE96E000EEA22040EEF6E89D3460E1A
:10377000E66E93DBE5528150E66E8FDBE55280D337
:10378000470EE66E8ADBE552C00E82142A6E380EB2
:1037900080142A10E66E81DBE55272D3480EE66E85
:1037A0007CDBE552002A0050EA6AA00FE96E000EA9
:1037B000EA22EF500D6E00500D240D242A6E0001F8
:1037C000FD512A5C4FE2F29E8B9C8A908B9E9390D7
:1037D000949E949C0F0E0DC0DBFF0F0EDB503CE05F
:1037E000002A0050EA6AA00FE96E000EEA22EFCF2D
:1037F00013F0002A0050EA6AA00FE96E000EEA22D8
:10380000EFCF14F08B8C000000008B9C080E0D6E27
:10381000D89081B2D8800E361336D8A08A90D8B00E
:103820008A801436D8A08B9ED8B08B8E00008B8CEB
:10383000000000008B9C0D2EEBD78B8C000000004D
:103840008B9C000000008B8C000000008B9C8A90F9
:103850008B9E0F0EDB06C1D70E50E66E1EDBE552C7
:10386000F28E0CD0FE0EE66E18DBE5520028EA6AF6
:10387000A00FE96E000EEA22040EEF6E01D3530E84
:10388000E66E0BDBE55200282A6E0001FD512A5C32
:103890001AE2002A0050EA6AA00FE96E000EEA223E
:1038A000EFCF13F0F29E133613368A9E060E0D6E7E
:1038B0001336D8A08A98D8B08A888A8C8A9C0D2E14
:1038C000F7D7F28E0CD0FE0EE66EE7DAE55200284E
:1038D000EA6AA00FE96E000EEA22040EEF6ED0D263
:1038E000540EE66EDADAE55200282A6E0001FD5128
:1038F0002A5C30E2002A0050EA6AA00FE96E000E4E
:10390000EA22EFCF13F0F29E8A9E8A888A8C8A9CE4
:103910008A8C8A9C8A988A8C8A9C8A8C8A9C040EBF
:103920000D6E1332D8A08A9ED8B08A8E8A8C8A9C5B
:103930000D2EF7D78A881332D8A08A9ED8B08A8EE7
:103940008A8C8A9C8A9E8A8C8A9C8A988A8C8A9C79
:10395000F28E0CD0FE0EE66EA0DAE5520028EA6A7E
:10396000A00FE96E000EEA22040EEF6E89D2550E0A
:10397000E66E93DAE552040E00242A6E0001FD5132
:103980002A5C65E2002A0050EA6AA00FE96E000E88
:10399000EA22EFCF16F0002A0050EA6AA00FE96E83
:1039A000000EEA22EFCF15F0002A0050EA6AA00FBD
:1039B000E96E000EEA22EFCF14F0002A0050EA6A06
:1039C000A00FE96E000EEA22EFCF13F0F29E8A9E5E
:1039D0008A888A8C8A9C8A988A8C8A9C8A8C8A9CFF
:1039E0001F0E0D6E1632153214321332D8A08A9E75
:1039F000D8B08A8E169E81BA168E8A8C8A9C0D2E1D
:103A0000F1D78A881632153214321332D8A08A9E22
:103A1000D8B08A8E169E81BA168E8A8C8A9C8A9E0F
:103A20008A8C8A9C8A988A8C8A9C16C0E6FF35DA32
:103A3000E55215C0E6FF31DAE55214C0E6FF2DDA93
:103A4000E55213C0E6FF29DAE552F28E0CD0FE0EE5
:103A5000E66E23DAE5520028EA6AA00FE96E000E4E
:103A6000EA22040EEF6E0CD2560EE66E16DAE5521E
:103A7000040E00242A6E0001FD512A5C67E2002A30
:103A80000050EA6AA00FE96E000EEA22EFCF16F0AE
:103A9000002A0050EA6AA00FE96E000EEA22EFCF7A
:103AA00015F0002A0050EA6AA00FE96E000EEA2223
:103AB000EFCF14F0002A0050EA6AA00FE96E000E62
:103AC000EA22EFCF13F0F29E8A9E8A888A8C8A9C23
:103AD0008A988A8C8A9C8A8C8A9C8A8C8A9C1F0EE3
:103AE0000D6E1632153214321332D8A08A9ED8B019
:103AF0008A8E169E81BA168E8A8C8A9C0D2EF1D7DC
:103B00008A881632153214321332D8A08A9ED8B061
:103B10008A8E169E81BA168E8A8C8A9C8A9E8A8C80
:103B20008A9C8A988A8C8A9C16C0E6FFB6D9E55290
:103B300015C0E6FFB2D9E55214C0E6FFAED9E55292
:103B400013C0E6FFAAD9E552F28E0CD0FE0EE66E47
:103B5000A4D9E5520028EA6AA00FE96E000EEA2215
:103B6000040EEF6E8DD1570EE66E97D9E552002800
:103B70002A6E0001FD512A5C19E2002A0050EA6A0F
:103B8000A00FE96E000EEA22EFCF13F0F29E939A97
:103B9000080E0D6E13368A9AD8B08A8A8A8C000075
:103BA0008A9C0D2EF7D78A9AF28E0CD0FE0EE66E06
:103BB00074D9E5520028EA6AA00FE96E000EEA22E5
:103BC000040EEF6E5DD1580EE66E67D9E5520028FF
:103BD0002A6E0001FD512A5C43E2002A0050EA6A85
:103BE000A00FE96E000EEA22EFCF13F0F29E939A37
:103BF000080E0D6E13368A9AD8B08A8A8A8C000015
:103C00008A9C0D2EF7D78A9A938A0D6A020E0D5C54
:103C100003E200000D2AFAD70D6A070E0D5C06E2DA
:103C20008A8C00008A9C00000D2AF7D7136A146A58
:103C3000100E0D6E8A8CD8908A9C81BAD88013366B
:103C400014360D2EF7D78A8C939A8A9CF28E14C064
:103C5000E6FF23D9E55213C0E6FF1FD9E5520CD089
:103C6000FE0EE66E1AD9E5520028EA6AA00FE96E48
:103C7000000EEA22040EEF6E03D1590EE66E0DD946
:103C8000E552030E00242A6E0001FD512A5C46E233
:103C9000002A0050EA6AA00FE96E000EEA22EFCF78
:103CA00013F0F29E939A080E0D6E13368A9AD8B0CE
:103CB0008A8A8A8C00008A9C0D2EF7D78A9A002A5D
:103CC0000050EA6AA00FE96E000EEA22EFCF14F06E
:103CD000002A0050EA6AA00FE96E000EEA22EFCF38
:103CE00013F00D6A070E0D5C06E28A8C00008A9CB8
:103CF00000000D2AF7D7100E0D6E133614368A9A6F
:103D0000D8B08A8A8A8C00008A9C0D2EF6D78A9AAF
:103D10008A8C00008A9C0000F28E0CD0FE0EE66EAB
:103D2000BCD8E5520028EA6AA00FE96E000EEA222C
:103D3000040EEF6EA5D0400E015C09E20150EA6A64
:103D4000600FE96E000EEA22EF6A012AF4D7016AD9
:103D500004010CBF0BD0400EE66E600EE66E000E46
:103D6000E66E4CEC20F0E552E552E552006888D052
:103D7000F00EE66E92D8E552020E00242A6E000183
:103D8000FD512A5C25E2002A0050EA6AA00FE96E84
:103D9000000EEA22EFCF14F0002A0050EA6AA00FCA
:103DA000E96E000EEA22EFCF13F014C0E6FF75D8DB
:103DB000E55213C0E6FF71D8E55214C0EAFF13C004
:103DC000E9FFEF500D6E0D50E66E67D8E5520CD04E
:103DD000FE0EE66E62D8E5520028EA6AA00FE96E90
:103DE000000EEA22040EEF6E4BD0F10EE66E55D8AF
:103DF000E552030E00242A6E0001FD512A5C2EE2DA
:103E0000002A0050EA6AA00FE96E000EEA22EFCF06
:103E100014F0002A0050EA6AA00FE96E000EEA22B0
:103E2000EFCF13F0002A0050EA6AA00FE96E000EEF
:103E3000EA22EF500D6E14C0E6FF2FD8E55213C0F2
:103E4000E6FF2BD8E5520D50E66E27D8E55214C098
:103E5000EAFF13C0E9FF0D50EF6E0CD0FE0EE66EC8
:103E60001CD8E5520028EA6AA00FE96E000EEA228B
:103E7000040EEF6E05D0FE0EE66E0FD8E55200D0B0
:103E8000002A01D08992100EE15C02E2E16AE5525B
:103E9000E16EE552E7CFD9FF1200D9CFE6FFE1CFBF
:103EA000D9FF0001EA510AE00A0E025C11E2025059
:103EB000022AEA6AE00FE96E000E06D00150012ADC
:103EC000EA6A600FE96E000EEA22FE0EDBCFEFFF1A
:103ED000400E015C09E1016A04010CBF02D0C9D89F
:103EE00003D00001010EEA6FE552E7CFD9FF1200BF
:103EF000D8CFE4FFE0CFE4FFE46EDACFE4FFE2CF17
:103F0000DAFFF3CFE4FFF4CFE4FFE652C2B2FED70C
:103F10009E9C07C009F008C00AF0C4CF08F0C3CFC8
:103F200007F00B50075E0C50085AE10E0902F4CF5F
:103F300010F0F3CF0FF0E10E0A02F35010260F50ED
:103F4000032610500422E40E0702F4CF10F0F3CF42
:103F50000FF0E40E0802F35010260F50035E1050CD
:103F6000045A043404E303500008FE0E045403E32F
:103F7000036AFE0E046E043404E203500008640E6B
:103F8000045403E2036A640E046E0001043405E382
:103F9000BE6ACF0EBD14BD6E0DD004C0BEFF0001C1
:103FA0000350E840E8403F0B300B2E6ECF0EBD149F
:103FB0002E10BD6EE552E5CFF4FFE5CFF3FFE5CF60
:103FC000DAFFE550E5CFE0FFE5CFD8FF1000D9CF0D
:103FD000E6FFE1CFD9FFE652FE0EDB50FE0FDF6EAB
:103FE000DF5009E0000000000000000000000000B9
:103FF0000000DF06F5D700D0E552E552E7CFD9FF44
:104000001200D9CFE6FFE1CFD9FFF29EFE0EDB50C2
:10401000176EECC00FF0080E0E6E0FB404D017AE82
:104020008B9E17BE8B8E0650196E192EFED70FA6CB
:104030008A820FB68A920FA405D017AE8B9E17BE48
:104040008B8E02D0813017360650196E192EFED78E
:104050000FA68A920FB68A820FA402D0813017363B
:104060000E2EDBD7F28E175000D0E552E7CFD9FFE6
:104070001200400EE66E600EE66E000EE66E4CEC30
:1040800020F0E552E552E55212000150EA6A600F55
:08409000E96E000EEA221200A5
:08409800C0DBE65204010CAF8D
:1040A00002D0000E29D0FC0EDB50400805E2400E85
:1040B000F36EFC0EF3CFDBFFDF6AFC0EDB50DF5C40
:1040C0000FE2DF50CEDBEF50E66EDF50EA6A580FAA
:1040D000E96E050EEA22E552E750EF6EDF2AEDD7D2
:1040E000FC0EDBCF0DF404010CAD02D0880E01D024
:1040F000C80E0C6FFC0EDB50E55294D38EDB010131
:10410000136B040108BF28D0FC0EDBCF2AF0095145
:10411000D8802A5403E2FC0E09C4DBFF0101136BB3
:10412000FC0EDB50135D0FE21351EA6A180FE96EC3
:10413000050EEA22EF50E66E135193DBE552E7508D
:10414000EF6E132BEDD70401400E096F08AD02D0BE
:10415000880E01D0C80E086F0101135163D301010D
:10416000136B1E0E716E0401400E096F180E2A6E3D
:10417000050E2AC00AF40B6F880E086F580E2A6EBF
:10418000050E2AC00EF40F6F400E0C6F12009ED366
:104190009DD343DB020E8BDB010859E1045157E14B
:1041A00001C5DFFF060EDF5C1FE1010E03C5DBFF6B
:1041B000DB50210807E144DBFF0E0A6F480E0B6F4E
:1041C000090E0AD0010EDB5022080BE139DB1F0E6D
:1041D0000A6F490E0B6F220E0E6F0F6B010E106FE0
:1041E00003D0010EDB502308600E050100152008E6
:1041F0002EE1DF0402E1CBDF2AD0090EDF5C05E10E
:104200000101010E066FC4DF22D0020EDF5C05E162
:1042100017DB110E086F010E0ED00A0EDF5C04E1F1
:104220000FDB03C511F113D0030EDF5C0AE108DBDD
:10423000120E086F010E096F010E0E6F0F6B106BDF
:1042400006D00B0EDF5C03E1FBDA02C512F1020EB1
:10425000E15C02E2E16AE552E16EE4D2DEDA020EEE
:10426000E126800E0501005D36E103C5DFFF010E8A
:1042700002C5DBFFDF0407E1E3DAE40E0A6F480E54
:104280000B6F120E24D0020EDF5C07E1D9DAF60EB6
:104290000A6F480E0B6F290E1AD0030EDF5C1BE16C
:1042A000CFDADB5004E1410E0A6F490E0AD0010E4D
:1042B000DB0404E1450E0A6F490E03D0650E0A6F58
:1042C000490E0B6F0AC1F6FFF76E0800F5500E6F2E
:1042D0000F6B010E106F020EE15C02E2E16AE55223
:1042E000E16EA0D29ADA030EE2DADF6E106B116B88
:1042F000DF500BE1A5DA035102E005011081010155
:10430000015126E00501108323D0DF0402E198DA91
:104310001FD0020EDF5C1CE10F0E0415E76E010ECC
:10432000E7CFDBFF800E0415E76E020EE7CFDBFF61
:1043300087DAAADA020EDB5004E0040E0C27000E26
:104340000D23CBDAEF50040B03E00501010E106FD3
:104350000101075108E0100E086F050E096F020EEB
:104360000E6F0F6B106B030EE15C02E2E16AE55227
:10437000E16E58D252DA040E9ADADF6E010E02C5EF
:10438000DBFFDF500FE1010EDB043AE159DA030EE7
:104390000501015D04E10101010E016F31D0010150
:1043A000016B2ED0020EDF5C2BE10F0E0415E76EC1
:1043B000020EE7CFDBFF800E0415E76E030EE7CF9A
:1043C000DBFF010EDB501CE1020EDB5019E038DA96
:1043D000020E5ADA030EDB5004E0040E0C27000E26
:1043E0000D23030E0501015D02E1840E07D0030ECB
:1043F000DB0403E172DAEF6A03D0880E6EDAEF6E47
:10440000040EE15C02E2E16AE552E16E0BD205DAEC
:10441000E65201C5DFFF600E050100154AE1050EF9
:10442000DF5C06E10DDA040E006F02C502F141D037
:10443000060EDF5C02E112DF3CD0090EDF5C0CE10E
:10444000FFD902C504F1045103E1040E006F31D01D
:10445000050E006F84DE2DD0080EDF5C05E1F0D97B
:10446000040E086F010E15D0DF5002E13BDF21D0B2
:10447000DF0403E0030EDF5C02E17CDF1AD00A0EEA
:10448000DF5C0DE1DDD90501106B0101100E086F35
:10449000050E096F010E0E6F0F6B106B0AD00B0E1D
:1044A000DF5C02E1CDD905D0070EDF5C02E00C0E27
:1044B000DF5CE552B7D1B1D9030EE1260101080E48
:1044C0000E5D000E0F5907E2010E0EC1DBFF020E5A
:1044D0000FC1DBFF07D0080EF36E010EF3CFDBFF39
:1044E000020EDB6AFC0E04010417010E020EDBCF84
:1044F0002BF0000E030E2B162BC02AF02B500413AA
:10450000FF0EE76E010EDBCF2AF0020EE7502A16EF
:104510002AC005F4100E2A6E050E2D6A2AC006F474
:10452000076F010EDB5001010E5F020EDB500F5BC7
:10453000100E0C6F050E0D6F10050EE1DF6A84D9A9
:1045400010E20AC1F6FF0BC1F7FF0A2B000E0B2386
:104550000800F5506BD9F3D7DF6A76D902E2ACD9FF
:10456000FCD7030EE15C02E2E16AE552E16E5AD14A
:1045700054D9040EE126030E04010015F350011175
:10458000E66ED950020FE96EDACFEAFFE552E75046
:10459000EE6EED6A020EDB5001010E27030EDB50BA
:1045A0000F23100E086F050E096FDE6ADD6ADECF7D
:1045B0002AF0DDCF2BF0020EDBCF2CF0030EDBCF89
:1045C0002DF02C502A5C2D502B5805E275D9010E88
:1045D000EEE3DB2AECD7040EE15C02E2E16AE5528D
:1045E000E16E20D10401049F009F0101056B076B60
:1045F000066B0E6B0F6B0BDFCCDD0101075109E180
:104600003CD92C6A2D6A2AC002F4036F840E006F15
:1046100024D0050100AF23D001010E510501065D34
:1046200001010F510501075904E206C50EF107C546
:104630000FF141DF0101020E056F1FD92FD9800E46
:10464000006F100E2A6E050E2B6E2C6A2D6A2C6AD6
:104650002D6A2AC006F4076FC80E046F0FD001013F
:10466000010E056F0401056BC80E046F080E016F83
:10467000100E2A6E050E12D9C80E006F6D9812002A
:104680000101056BFAD82AC002F4036F880E006F8F
:10469000046B1200C2D8020EE1266C5024E13C0EDD
:1046A00004010015E840E8403F0BDF6E0D0EDF5CB3
:1046B00002E198DF35D00101050531E159DF010143
:1046C000065109E0010E02C5DBFF020E0501035D84
:1046D00002E0030E035D040100AD02D0880E01D09C
:1046E000C80E006F1DD0040E6C5C1AE16E500AE11A
:1046F000040E0101005D06E102C56EFF6E5002E18D
:10470000030E006F020E0101055D09E1D4DE040114
:1047100004AD02D0880E01D0C80E046F01D0B0DF06
:10472000020EE15C02E2E16AE552E16E7BD06DB619
:1047300006D06D6A696A6D860101010E006F010184
:10474000000509E16D50200B06E1686A696A69801D
:104750006988020E006F12006D92699468941200CD
:10476000689C120070A002D08BDF7090689A1200D3
:1047700012006A6A686A9F0E6B6E7B0E696E6E6AC3
:10478000160E706E68A602D06896FCD76D9878DF1A
:104790000101016B036B046B030E006F120001013A
:1047A000005101E112006850040B04E06950040B51
:1047B00001E0D2DF6DB212006850010B04E06950D5
:1047C000010B01E0D6DF6850100B04E06950100BBC
:1047D00001E0CEDF6850400B04E06950400B01E07F
:1047E000BFDF6850200B04E06950200B01E0BADF06
:1047F0006850020B04E06950020B01E06892030E5E
:104800000101005D01E212006850080B05E06950EB
:10481000080B02E03FDF68961200D9CFE6FFE1CF38
:10482000D9FF1200E552E7CFD9FF1200E66E55D846
:104830000C2B000E0D23E552E750EF6EDF2A12001D
:104840000101010E076F1200DFCF2AF0010EDBCF4E
:104850002BF0020EDBCF2CF02B502A5C000E2C54D8
:104860001200E76EFD0EDBCFE9FFFE0EDBCFEAFFA5
:10487000E750E926000EEA2212000401080E016F3B
:10488000000E2A6E050E1200DB50080DF3500C6F5F
:104890000D6B000E0C27040E0D2312002B6E2C6ADC
:1048A0002D6A2C6A2D6A2AC002F4036F1200E126D9
:1048B0001F0E05010015120008C1E9FF09C1EAFF3A
:1048C000082B000E0923EF5016EF24F0A6DFE65266
:1048D00002C5DFFFB5DFE552A5D70CC1E9FF0DC169
:0448E000EAFF1200D9
:0C48E4001201000200000008091232540A
:1048F00001000102000109022900010100A03209A2
:10490000040000020300000009210101000122222D
:10491000000705810340000107050103400001066F
:10492000A0FF0901A1010903150026FF00750895E4
:104930004081020904150026FF0075089540910288
:10494000C00403090420034F00700065006E0020BE
:1049500000500072006F006700720061006D006D12
:1049600000650072003E034F00700065006E00207D
:1049700000500072006F006700720061006D006DF2
:104980000065007200200020005500530042002006
:1049900000480049004400200063006C006100737F
:0349A000007300A1
:0149A3000013
:0C49A4002A0EF66E000EF76E000EF86E84
:1049B00000010900F550F86F0900F550F96F03E1A7
:1049C000F86701D03DD00900F550F36F0900F550AC
:1049D000F46F0900F550F56F09000900F550E96E14
:1049E0000900F550EA6E090009000900F550F66F5C
:1049F0000900F550F76F09000900F6CFFAF0F7CF7C
:104A0000FBF0F8CFFCF0F3C0F6FFF4C0F7FFF5C001
:104A1000F8FF0001F65302E1F75307E00900F550F3
:104A2000EE6EF607F8E2F707F9D7FAC0F6FFFBC01B
:104A3000F7FFFCC0F8FF0001F807000EF95BBFD7D5
:024A4000120062
:0E4A42001A6A28AE2AEF25F0276C281EE86AB3
:104A500028221A1E23AE32EF25F0226C231EE86AAC
:104A600023221A1E47EC25F023BE42EF25F01AAE92
:104A7000000C226C231EE86A23221E6C1F1EE86AAB
:0E4A80001F22000C1ABE39EF25F01B88FF0C18
:024A8E001F6A9D
:104A90001E6A100EE76ED890223623361E361F3659
:104AA00027501E5C28501F5805E327501E5E2850D3
:0A4AB0001F5A222AE72EF0D7120049
:064ABA000F0EC112140EE4
:104AC0006F6E0101006B0101016B0101046B22ECAF
:104AD00000F097EC23F06FBE02D0CFEC23F062EC35
:044AE00000F0F7D714
:0C4AE400000EF36E00EE00F0080E01D88A
:104AF0001200EA6002D0EE6AFCD7F350E9601200BF
:044B0000EE6AFCD786
:0C4B040013EE00F023EE00F0F86A1B9C9A
:104B1000D2EC24F090EC25F05DEC25F0FBD71200F0
:024B2000120081
:0E4B22000000000000640100000000AB030072
:0C4B300000000000000000000000000079
:020000040030CA
:0100000022DD
:010001000EF0
:010002003DC0
:010003001EDE
:0100050000FA
:010006008178
:010008000FE8
:01000900C036
:01000A000FE6
:01000B00E014
:01000C000FE4
:01000D0040B2
:0200000400F00A
:100000004F70656E2050726F6772616D6D65722002
:10001000762E2000302E31312E3200202D20436FDD
:10002000707972696768742028432920323030392A
:100030002D3230323020416C626572746F204D6118
:100040006363696F6E69202D20546869732069733A
:0F005000206672656520736F6674776172650054
:00000001FF
