:020000040000FA
:0600000045EF25F012009F
:060008009BEF1EF0120048
:06002A000200294900005C
:10003000FD00000001000000A84A000000000000D0
:040040001A000000A2
:0C0044000001EA6BEB6B8A6A896AF90E16
:10005000926E010EC26E0E0EC16E860EC06EBA6A30
:10006000BD6A010E066E640EEC6FD00EEF6F070EC8
:10007000F06F080EED6F0B0EEE6F000E036E046A4C
:10008000096E0A6A076E086A800ED56E1200F2A425
:1000900018D0F2940001EB2B050E0101005D07E280
:1000A0000A0E0001EB5D03E38974EB6B1200050E91
:1000B0000101005D06E12E0E0001EB5D02E3897493
:1000C000EB6B1200E4DF050E0101005D66E36D508D
:1000D000020B01E012000001EA5129E0800E040148
:1000E0000C1525E1400EE66E600EE66E000EE66E23
:1000F0005CEC1FF0E552E552E5520001EA6B016A43
:100100000250015C13E20150EA6AE00FE96E000E52
:10011000EA22EF50E66E0150EA6A600FE96E000EC7
:10012000EA22E552E750EF6E012AEAD7026A00019F
:10013000FD51005C31E301501FE0400E015C09E21B
:100140000150EA6A600FE96E000EEA22EF6A012AA6
:10015000F4D7016A04010CBF0CD0400EE66E600EAD
:10016000E66E000EE66E5CEC1FF0E552E552E552DD
:1001700003D00001010EEA6F400EE66EA00EE66E9F
:10018000000EE66E9EEC1FF0E552E552E5520001CE
:10019000FD6FE85001E0006A01D81200D9CFE6FFF8
:1001A000E1CFD9FF100EE1260001FD51005C02E312
:1001B0005BEF1EF00001EA5102E05BEF1EF0898266
:1001C0000050EA6AA00FE96E000EEA22EF50F10A31
:1001D00002E10EEF1EF0010A02E1D1EF1DF0020A6A
:1001E00002E1B4EF1DF0A40A02E135EF1DF0030AAD
:1001F00002E1B8EF1CF0010A02E171EF1CF0070AFE
:1002000002E140EF1CF01B0A02E1CFEF1BF00F0AE6
:1002100002E1C1EF1BF0010A02E1B8EF1BF0030A93
:1002200002E17FEF1BF0010A02E1AAEF19F0070AD1
:1002300002E189EF19F0010A02E120EF19F0030A47
:1002400002E1C2EF18F0010A02E18DEF18F07D0A19
:1002500002E139EF18F0010A02E1F1EF17F0070AA5
:1002600002E1E6EF17F0010A02E17DEF17F0030A61
:1002700002E110EF17F0010A02E1F9EF16F00F0AA0
:1002800002E1C1EF16F0080A02E111EF16F0760A5A
:1002900002E198EF15F0770A02E127EF15F0080A5E
:1002A00002E1C2EF14F0030A02E162EF14F0010A66
:1002B00002E1E7EF13F0070A02E161EF13F0010A30
:1002C00002E125EF13F0030A02E1EAEF12F0010A5E
:1002D00002E1ADEF12F01F0A02E158EF12F0020A3C
:1002E00002E1C0EF11F0030A02E1F8EF10F0020A98
:1002F00002E11FEF10F0070A02E1C3EF0FF0010A5D
:1003000002E170EF0FF0030A02E11FEF0FF0010AA4
:1003100002E19EEF0EF00F0A02E11EEF0EF0010A5D
:1003200002E1C3EF0DF0030A02E17CEF0DF0010AD8
:1003300002E116EF0DF0070A02E1E0EF0CF0010A0E
:1003400002E1AAEF0CF0030A02E15DEF0CF0730A80
:1003500002E106EF0CF0030A02E197EF0BF0010A4D
:1003600002E111EF0BF0700A02E146EF09F03F0ADB
:1003700002E114EF09F0010A02E1F0EF08F0030ACC
:1003800002E1CBEF08F0010A02E1A7EF08F0070A4B
:1003900002E182EF08F0010A02E15CEF08F0030AD3
:1003A00002E137EF08F0010A02E113EF08F00F0A4B
:1003B00002E1BFEF07F0010A02E19BEF07F0030A39
:1003C00002E139EF07F0010A02E1E3EF06F0070A64
:1003D00002E16AEF06F0010A02E1FDEF05F0030A0F
:1003E00001E1A0D3010A01E184D31F0A01E105D391
:1003F000010A01E1B6D2030A01E11BD2010A01E1BF
:10040000F7D1070A01E1C5D1010A01E1AAD1030A26
:1004100001E191D1010A01E178D10F0A01E1F7D0A0
:10042000010A01E1E8D0030A01E1BFD0010A01E1BC
:1004300099D0070A65E0010A42E0030A0AE0010ACE
:1004400002E054EF1EF0E66A66EC1EF0E55259EF4A
:100450001EF0010EE66E66EC1EF0E552F3DDE66A74
:1004600066EC1EF0E5520A0EE66E66EC1EF0E552F2
:10047000E66A66EC1EF0E552E66A66EC1EF0E552AE
:10048000E66A66EC1EF0E552010EE66E66EC1EF0C2
:10049000E552200EE66E66EC1EF0E552520EE66E58
:1004A00066EC1EF0E552530EE66E66EC1EF0E55269
:1004B000540EE66E66EC1EF0E55259EF1EF0020E89
:1004C000E66E66EC1EF0E552E66A66EC1EF0E5525A
:1004D0000A0EE66E66EC1EF0E552E66A66EC1EF069
:1004E000E552E66A66EC1EF0E552E66A66EC1EF03E
:1004F000E552010EE66E66EC1EF0E55259EF1EF075
:10050000030EE66E66EC1EF0E55200282A6E00012E
:10051000FD512A5C18E2002A0050EA6AA00FE96E39
:10052000000EEA22EFCFDFFF560EDF5C06E2DFCFE0
:10053000E6FF66EC1EF0E55205D0FE0EE66E66ECB8
:100540001EF0E5520DD0FE0EE66E66EC1EF0E55292
:100550000028EA6AA00FE96E000EEA22040EEF6E90
:1005600059EF1EF0400E015C09E20150EA6A600F8B
:10057000E96E000EEA22EF6A012AF4D7016A04014B
:100580000CBF0CD0400EE66E600EE66E000EE66EFE
:100590005CEC1FF0E552E552E55203D00001010E7C
:1005A000EA6FFDC000F059EF1EF0050EE66E66EC36
:1005B0001EF0E552000E036E046A096E0A6A076EA9
:1005C000086A840ECB6E040ECA6E0B0EBC6EB80E9B
:1005D000BB6E9E9C9D8CB36AB26A890EB16E0B0E87
:1005E000BA6EBE6A0C0EBD6E9494C00EF26E1E0EF4
:1005F000D26E59EF1EF0060EE66E66EC1EF0E55266
:100600009D9CBA6ABD6A0E0ED26E59EF1EF0070E9F
:10061000E66E66EC1EF0E552030E00242A6E000121
:10062000FD512A5C63E2002A0050EA6AA00FE96EDD
:10063000000EEA22EF500D6E0D50030A40E0010A51
:100640002BE0030A16E0010A01E04CD0002A00501A
:10065000EA6AA00FE96E000EEA22EF50066E002A49
:100660000050EA6AA00FE96E000EEA22EFCFECF02C
:100670003CD0002A0050EA6AA00FE96E000EEA2280
:10068000EFCFF0F0002A0050EA6AA00FE96E000EEA
:10069000EA22EFCFEFF029D0002A0050EA6AA00F3B
:1006A000E96E000EEA22EFCFF2F0002A0050EA6A6B
:1006B000A00FE96E000EEA22EFCFF1F016D0002A6B
:1006C0000050EA6AA00FE96E000EEA22EFCFEDF0CB
:1006D000002A0050EA6AA00FE96E000EEA22EFCF6E
:1006E000EEF003D0020E002600D00DD0FE0EE66E16
:1006F00066EC1EF0E5520028EA6AA00FE96E000ED3
:10070000EA22040EEF6E59EF1EF0080EE66E66EC5C
:100710001EF0E552F29E06500D6E0D5009E00000ED
:100720000000000000000000000000000D06F5D7EA
:10073000F28E59EF1EF0090EE66E66EC1EF0E552E1
:10074000F29EECC00DF00D5009E00000000000002A
:1007500000000000000000000D06F5D7F28E59EFF2
:100760001EF00A0EE66E66EC1EF0E552F29EEFC039
:1007700013F0F0C014F01350141008E00000000053
:10078000000000001306000E145AF5D7F28E59EF40
:100790001EF00B0EE66E66EC1EF0E55200282A6E87
:1007A0000001FD512A5C15E2002A0050EA6AA00F00
:1007B000E96E000EEA22EF500D6E0D5009E00000C8
:1007C0000000000000000000000000000D06F5D74A
:1007D0000DD0FE0EE66E66EC1EF0E5520028EA6AC9
:1007E000A00FE96E000EEA22040EEF6E59EF1EF024
:1007F000A1940C0EE66E66EC1EF0E552C282C2B207
:10080000FED7A1A40AD0E66A66EC1EF0E552E66ABD
:1008100066EC1EF0E55259EF1EF0C450E66E66EC31
:100820001EF0E552C350E66E66EC1EF0E55259EF3D
:100830001EF00D0EE66E66EC1EF0E55200282A6EE4
:100840000001FD512A5C01E37DD09D50400B03E087
:10085000D250200B06E1FE0EE66E66EC1EF0E5526D
:1008600070D0A194002A0050EA6AA00FE96E000E31
:10087000EA22EF50136E146A13C00BF014C00CF090
:10088000480E0C02F3CF0CF0480E0B02F3CF0BF026
:10089000F4500C260A0E276E286A0BC022F00CC0FA
:1008A00023F0E4EC24F022C00BF023C00CF00F0E78
:1008B0000D6EE80E136E030E146E1350141008E044
:1008C00000000000000000001306000E145AF5D7C7
:1008D0000D06083404E207500E08000E085408E321
:1008E000D880085004E7F20E075CFF0E085802E2B9
:1008F0000D50DFE1A1A405D0E66A66EC1EF0E552DA
:1009000020D0083404E207500E08000E085408E313
:10091000D880085004E7F20E075CFF0E085806E284
:10092000FE0EE66E66EC1EF0E5520BD00050EA6A51
:10093000A00FE96E000EEA22EF50E66E66EC1EF0A4
:10094000E5520DD0FE0EE66E66EC1EF0E552002874
:10095000EA6AA00FE96E000EEA22040EEF6E59EF6C
:100960001EF00E0EE66E66EC1EF0E55200282A6EB2
:100970000001FD512A5C32E2002A0050EA6AA00F11
:10098000E96E000EEA22EF500D6E010E0D1402E02A
:10099000000E01D0010EE8B08B82E8A08B92020E0F
:1009A0000D1402E0010E01D0000EE8B09482E8A020
:1009B0009492040E0D1402E0010E01D0000EE8B076
:1009C0008B80E8A08B90080E0D1402E0010E01D080
:1009D000000EE8B09480E8A094900DD0FE0EE66E74
:1009E00066EC1EF0E5520028EA6AA00FE96E000EE0
:1009F000EA22040EEF6E59EF1EF00F0EE66E66EC63
:100A00001EF0E55200282A6E0001FD512A5C62E2C8
:100A1000002A0050EA6AA00FE96E000EEA22EF50A9
:100A2000010B02E0010E01D0000EE8B08A8AE8A0B6
:100A30008A9A0050EA6AA00FE96E000EEA22EF508F
:100A4000020B02E0010E01D0000EE8B0938AE8A08C
:100A5000939A0050EA6AA00FE96E000EEA22EF5066
:100A6000040B02E0010E01D0000EE8B08A8CE8A071
:100A70008A9C0050EA6AA00FE96E000EEA22EF504D
:100A8000080B02E0010E01D0000EE8B0938CE8A044
:100A9000939C0050EA6AA00FE96E000EEA22EF5024
:100AA000100B02E0010E01D0000EE8B08A8EE8A023
:100AB0008A9E0050EA6AA00FE96E000EEA22EF500B
:100AC000200B02E0010E01D0000EE8B0938EE8A0EA
:100AD000939E0DD0FE0EE66E66EC1EF0E5520028E9
:100AE000EA6AA00FE96E000EEA22040EEF6E59EFDB
:100AF0001EF0100EE66E66EC1EF0E5520D6A81BA2D
:100B00000D8093BA0D8281BC0D8493BC0D8681BE8D
:100B10000D8893BE0D8A0D50E66E66EC1EF0E55210
:100B200059EF1EF0110EE66E66EC1EF0E552020E55
:100B300000242A6E0001FD512A5C50E2002A005078
:100B4000EA6AA00FE96E000EEA22EFCF14F0002A45
:100B50000050EA6AA00FE96E000EEA22EFCF13F010
:100B6000F29E8A9A8A8C00008A9C00008A8C00007F
:100B70008A9C00008A8C00008A9C00008A8C0000FD
:100B80008A9C00008A8C00008A9C00008A8C0000ED
:100B90008A9C000006500D6E0D5009E00000000018
:100BA000000000000000000000000D06F5D78A8C50
:100BB00000008A9C00000E0E0D6E143213328A9AC9
:100BC000D8B08A8A8A8C00008A9C0D2EF6D78A9A21
:100BD0008A8C00008A9C0000F28E0DD0FE0EE66E1C
:100BE00066EC1EF0E5520028EA6AA00FE96E000EDE
:100BF000EA22040EEF6E59EF1EF0120EE66E66EC5E
:100C00001EF0E552020E00242A6E0001FD512A5CFE
:100C100052E2002A0050EA6AA00FE96E000EEA22B2
:100C2000EFCF14F0002A0050EA6AA00FE96E000E20
:100C3000EA22EFCF13F0F29E8A9A8A8C00008A9CF7
:100C400000008A8A8A8C00008A9C00008A9A8A8C1A
:100C500000008A9C00008A8C00008A9C00008A8C1C
:100C600000008A9C00008A8C00008A9C00000650CC
:100C70000D6E0D5009E000000000000000000000B3
:100C8000000000000D06F5D78A8C00008A9C000049
:100C90000E0E0D6E143213328A9AD8B08A8A8A8C5C
:100CA00000008A9C0D2EF6D78A9A8A8C00008A9CB6
:100CB0000000F28E0DD0FE0EE66E66EC1EF0E552E0
:100CC0000028EA6AA00FE96E000EEA22040EEF6E19
:100CD00059EF1EF0130EE66E66EC1EF0E55200288A
:100CE0002A6E0001FD512A5C5FE2002A0050EA6A88
:100CF000A00FE96E000EEA22EFCF13F0F29E8A8A6F
:100D00008A8C00008A9C00008A8C00008A9C00006B
:100D10008A9A8A8C00008A9C00008A8C00008A9C37
:100D200000008A8C00008A9C00008A8C00008A9C4B
:100D3000000006500D6E0D5009E00000000000009C
:100D400000000000000000000D06F5D78A8C0000AE
:100D50008A9C0000080E0D6E13328A9AD8B08A8AD7
:100D60008A8C00008A9C0D2EF7D78A9A8A8C000004
:100D70008A9C00008A8C00008A9C00008A8C0000FB
:100D80008A9C00008A8C00008A9C00008A8C0000EB
:100D90008A9C00008A8C00008A9C00008A8C0000DB
:100DA0008A9C0000F28E0DD0FE0EE66E66EC1EF000
:100DB000E5520028EA6AA00FE96E000EEA22040E4E
:100DC000EF6E59EF1EF0140EE66E66EC1EF0E55263
:100DD000F29E8A9A8A8C00008A9C00008A8C00000D
:100DE0008A9C00008A8A8A8C00008A9C00008A9A69
:100DF0008A8C00008A9C00008A8C00008A9C00007B
:100E00008A8C00008A9C0000938A06500D6E0D505B
:100E100009E00000000000000000000000000000E9
:100E20000D06F5D78A8C00008A9C00000E0E0D6E10
:100E30008A8C00008A9CD8908A9C81BAD88014320F
:100E400013320D2EF5D7D89014321332D8901432B5
:100E500013328A8C939A8A9CF28E14C0E6FF66EC59
:100E60001EF0E55213C0E6FF66EC1EF0E55259EFA6
:100E70001EF0150EE66E66EC1EF0E552F29E8A8AB2
:100E80008A8C00008A9C00008A9A8A8C00008A9CC6
:100E900000008A8A8A8C00008A9C00008A9A8A8CC8
:100EA00000008A9C00008A8C00008A9C00008A8CCA
:100EB00000008A9C0000938A06500D6E0D5009E0D8
:100EC00000000000000000000000000000000D060F
:100ED000F5D78A8C00008A9C0000080E0D6E8A8C63
:100EE00000008A9CD89081BAD88013320D2EF7D793
:100EF0008A8C00008A9C00008A8C00008A9C00007A
:100F00008A8C00008A9C00008A8C00008A9C000069
:100F10008A8C00008A9C00008A8C00008A9C000059
:100F20008A8C939A8A9CF28E13C0E6FF66EC1EF0C0
:100F3000E55259EF1EF0160EE66E66EC1EF0E55215
:100F4000F29E8A9A8A8C00008A9C00008A8A8A8C87
:100F500000008A9C00008A8C00008A9C00008A9A0B
:100F60008A8C00008A9C00008A8C00008A9C000009
:100F70008A8C00008A9C0000F28E59EF1EF0170E3A
:100F8000E66E66EC1EF0E55200282A6E0001FD5167
:100F90002A5C3AE2F29E002A0050EA6AA00FE96E4B
:100FA000000EEA22EFCF13F0000113502BE08A9AD3
:100FB0008A8C00008A9C00008A8A8A8C00008A9CA5
:100FC00000008A8C00008A9C00008A9A8A8C0000AB
:100FD0008A9C00008A8C00008A9C00008A8C000099
:100FE0008A9C000006500D6E0D5009E000000000C4
:100FF000000000000000000000000D06F5D7000111
:101000001306D2D7F28E0DD0FE0EE66E66EC1EF001
:10101000E5520028EA6AA00FE96E000EEA22040EEB
:10102000EF6E59EF1EF0180EE66E66EC1EF0E552FC
:10103000F29E8A9A8A8C00008A9C00008A8C0000AA
:101040008A9C00008A8C00008A9C00008A8A8A8C14
:1010500000008A9C00008A9A8A8C00008A9C00000A
:101060008A8C00008A9C0000F28E59EF1EF0190E47
:10107000E66E66EC1EF0E552F29E8A8A8A8C0000CB
:101080008A9C00008A9A8A8C00008A9C00008A8CC4
:1010900000008A9C00008A8A8A8C00008A9C0000DA
:1010A0008A9A8A8C00008A9C00008A8C00008A9CA4
:1010B0000000F28E59EF1EF01A0EE66E66EC1EF07E
:1010C000E552F29E8A9A8A8C00008A9C00008A8AE5
:1010D0008A8C00008A9C00008A9A8A8C00008A9C74
:1010E00000008A8A8A8C00008A9C00008A9A8A8C76
:1010F00000008A9C00008A8C00008A9C0000F28E0E
:1011000059EF1EF01B0EE66E66EC1EF0E552F29EE5
:101110008A8A8A8C00008A9C00008A8C00008A9C43
:1011200000008A9A8A8C00008A9C00008A8A8A8C35
:1011300000008A9C00008A9A8A8C00008A9C000029
:101140008A8C00008A9C0000F28E59EF1EF01C0E63
:10115000E66E66EC1EF0E552F29E8A9A8A8C0000DA
:101160008A9C00008A8A8A8C00008A9C00008A8CF3
:1011700000008A9C00008A8C00008A9C00008A9AE9
:101180008A8C00008A9C00008A8C00008A9C0000E7
:10119000F28E59EF1EF01D0EE66E66EC1EF0E55263
:1011A000F29E8A8A8A8C00008A9C00008A9A8A8C25
:1011B00000008A9C00008A8C00008A9C00008A8CB7
:1011C00000008A9C00008A8A8A8C00008A9C0000A9
:1011D0008A9A8A8C00008A9C0000F28E59EF1EF0D9
:1011E0001E0EE66E66EC1EF0E552F29E8A9A8A8C1E
:1011F00000008A9C00008A8C00008A9C00008A8C77
:1012000000008A9C00008A8A8A8C00008A9C000068
:101210008A8C00008A9C00008A9A8A8C00008A9C32
:101220000000F28E59EF1EF01F0EE66E66EC1EF007
:10123000E55200282A6E0001FD512A5C18E2002ABE
:101240000050EA6AA00FE96E000EEA22EFCF13F019
:10125000F29E060E0D6E13328A9AD8B08A8A8A8C54
:1012600000008A9C0D2EF7D78A9AF28E0DD0FE0EC2
:10127000E66E66EC1EF0E5520028EA6AA00FE96E01
:10128000000EEA22040EEF6E59EF1EF0200EE66EFD
:1012900066EC1EF0E552020E00242A6E0001FD519C
:1012A0002A5C01E3AFD1002A0050EA6AA00FE96E80
:1012B000000EEA22EFCF14F0002A0050EA6AA00FD5
:1012C000E96E000EEA22EFCF13F0010E13C0DBFF30
:1012D000020E14C0DBFFF29E8A9A8A8C00008A9C60
:1012E00000008A8A8A8C00008A9C00008A9A8A8C74
:1012F00000008A9C00008A8C00008A9C00008A8C76
:1013000000008A9C00008A8C00008A9C0000065025
:101310000D6E0D5009E0000000000000000000000C
:10132000000000000D06F5D78A8C00008A9C0000A2
:101330000E0E0D6E143213328A9AD8B08A8A8A8CB5
:1013400000008A9C0D2EF6D78A9A8A8C00008A9C0F
:101350000000030EDB6A040EDB6A030EDBCF2AF00B
:10136000040EDBCF2BF00001ED5100012BAE02D0BB
:10137000D89003D02A5C000E2B5801E3BED08A9A85
:101380008A8C00008A9C00008A8C00008A9C0000E5
:101390008A8C00008A9C00008A8A8A8C00008A9CC1
:1013A00000008A9A8A8C00008A9C00008A8C0000C7
:1013B0008A9C0000ECC00DF00D5009E00000000018
:1013C000000000000000000000000D06F5D78A9A1A
:1013D0008A8C00008A9C00008A8A8A8C00008A9C81
:1013E00000008A8C00008A9C00008A8C00008A9C85
:1013F00000008A9A8A8C00008A9C00008A8C000077
:101400008A9C000006500D6E0D5009E0000000009F
:10141000000000000000000000000D06F5D78A9AC9
:101420008A8C00008A9C00008A8C00008A9C000044
:101430008A8A8A8C00008A9C00008A9A8A8C000022
:101440008A9C00008A8C00008A9C00008A8C000024
:101450008A9C0000938A06500D6E0D5009E0000032
:101460000000000000000000000000000D06F5D79D
:101470008A8C00008A9C00000E0E0D6E8A8C000083
:101480008A9CD89081BAD880143213320D2EF6D7A8
:10149000D89014321332D890143213328A8C939A23
:1014A0008A9C06500D6E0D5009E0000000000000FF
:1014B00000000000000000000D06F5D7010EDBCF94
:1014C0002AF0020EDBCF2BF013502A1802E1145041
:1014D0002B180DE1030EDBCF2AF0040EDBCF2BF02F
:1014E000010E2A240D6E030EDB68040EDB6A030E68
:1014F000DB2A040E01E3DB2A30D7F28EF29ED950AC
:10150000030FE96EDACFEAFFEE5002E1010EED18AB
:1015100072E10D50E66E66EC1EF0E5520001EE51F0
:101520000D02F350E66ED950030FE96EDACFEAFFF1
:10153000E552E750EE6EED6AD950030FE96EDACF4F
:10154000EAFFEE50ED1056E08A9A8A8C00008A9CE1
:1015500000008A8C00008A9C00008A8C00008A9C13
:1015600000008A8A8A8C00008A9C00008A9A8A8CF1
:1015700000008A9C00008A8C00008A9C0000ECC05D
:101580000DF00D5009E00000000000000000000018
:10159000000000000D06F5D78A9A8A8C00008A9C0C
:1015A00000008A8A8A8C00008A9C00008A8C0000D5
:1015B0008A9C00008A8C00008A9C00008A9A8A8C8F
:1015C00000008A9C00008A8C00008A9C0000065063
:1015D0000D6E0D5009E0000000000000000000004A
:1015E000000000000D06F5D7030EDB06040E01E235
:1015F000DB06A2D705D0FE0EE66E66EC1EF0E552C5
:10160000F28E0DD0FE0EE66E66EC1EF0E55200285E
:10161000EA6AA00FE96E000EEA22040EEF6E59EF9F
:101620001EF0500EE66E66EC1EF0E552020E00242F
:101630002A6E0001FD512A5C6BE2002A0050EA6A22
:10164000A00FE96E000EEA22EFCF14F0002A00503E
:10165000EA6AA00FE96E000EEA22EFCF13F0F29EC5
:101660008A8A8A8C00008A9C00008A9A8A8C0000F0
:101670008A9C00008A8A8A8C00008A9C00008A8CDE
:1016800000008A9C00008A8C00008A9C00008A9AD4
:101690008A8C00008A9C000006500D6E0D5009E0F7
:1016A00000000000000000000000000000000D0627
:1016B000F5D78A8C00008A9C0000100E0D6E143243
:1016C00013328A9AD8B08A8A8A8C00008A9C0D2E9E
:1016D000F6D78A9A8A8C00008A9C00008A8C0000C7
:1016E0008A9C00008A8C00008A9C00008A8C000082
:1016F0008A9C00008A8C00008A9C00008A8C000072
:101700008A9C00008A8C00008A9C0000F28E0DD01A
:10171000FE0EE66E66EC1EF0E5520028EA6AA00FA7
:10172000E96E000EEA22040EEF6E59EF1EF0510E24
:10173000E66E66EC1EF0E552020E00242A6E0001F1
:10174000FD512A5C54E2002A0050EA6AA00FE96EBB
:10175000000EEA22EFCF14F0002A0050EA6AA00F30
:10176000E96E000EEA22EFCF13F0F29E8A9A8A8C7D
:1017700000008A9C00008A8A8A8C00008A9C0000F3
:101780008A9A8A8C00008A9C00008A8C00008A9CBD
:1017900000008A8C00008A9C00008A8A8A8C0000E3
:1017A0008A9C000006500D6E0D5009E000000000FC
:1017B000000000000000000000000D06F5D78A9A26
:1017C0008A8C00008A9C00000E0E0D6E14321332BB
:1017D0008A9AD8B08A8A8A8C00008A9C0D2EF6D705
:1017E0008A9A8A8C00008A9C0000F28E0DD0FE0E30
:1017F000E66E66EC1EF0E5520028EA6AA00FE96E7C
:10180000000EEA22040EEF6E59EF1EF0520EE66E45
:1018100066EC1EF0E552F29E8A9A8A8C00008A9C41
:1018200000008A8C00008A9C00008A8A8A8C000052
:101830008A9C00008A9A8A8C00008A9C00008A8C0C
:1018400000008A9C00008A8A8A8C00008A9C000022
:10185000938A06500D6E0D5009E000000000000054
:1018600000000000000000000D06F5D78A9A8A8C5F
:1018700000008A9C00000E0E0D6E8A8C00008A9C6F
:10188000D89081BAD880143213320D2EF6D7D89062
:1018900014321332D890143213328A8C939A8A9C61
:1018A000F28E14C0E6FF66EC1EF0E55213C0E6FFB0
:1018B00066EC1EF0E55259EF1EF0210EE66E66EC66
:1018C0001EF0E552020E00242A6E0001FD512A5C32
:1018D00032E2F29E8A8C939A8A9A8A9C8A8C0000C1
:1018E0008A9C00008A8C00008A9C00008A8C000080
:1018F0008A9C0000002A0050EA6AA00FE96E000EE0
:10190000EA22EFCF14F0002A0050EA6AA00FE96E35
:10191000000EEA22EFCF13F0100E0D6E14321332C8
:101920008A9AD8B08A8A8A8C00008A9C0D2EF6D7B3
:101930008A9AF28E0DD0FE0EE66E66EC1EF0E5522F
:101940000028EA6AA00FE96E000EEA22040EEF6E8C
:1019500059EF1EF0220EE66E66EC1EF0E552F29E86
:101960008A8C939A8A9A8A9C8A8A8A8C8A9C8A9A76
:101970008A8C8A9C8A8C8A9C8A8C8A9C8A8C8A9C77
:101980008A8C8A9C8A8C8A9C8A8C8A9C8A8C8A9C67
:101990008A8C8A9C8A8C8A9C938A080E0D6E8A8C0B
:1019A0008A9CD89081BAD88013320D2EF8D78A9AA3
:1019B000F28E13C0E6FF66EC1EF0E55259EF1EF002
:1019C000230EE66E66EC1EF0E552F29E8A8C939A28
:1019D0008A9A8A9C8A8C8A9C8A8C8A9C8A8A8A8C1B
:1019E0008A9C8A9A8A8C8A9C8A8C8A9C8A8C8A9CF9
:1019F0008A8C8A9C8A8C8A9C8A8C8A9C8A8C8A9CF7
:101A00008A8C8A9C938A080E0D6E8A8C8A9CD89048
:101A100081BAD88013320D2EF8D78A9AF28E13C06D
:101A2000E6FF66EC1EF0E55259EF1EF0240EE66E5E
:101A300066EC1EF0E552002A0050EA6AA00FE96E3B
:101A4000000EEA22EF500D6E0001FD51005C45E2F0
:101A500001500D242A6E400E2A5C3FE20D50E66EC6
:101A600066EC1EF0E552050E0DC0DBFF050EDB50E7
:101A700033E0F29E8A8C939A8A8A8A9C8A9A8A8C0C
:101A80008A9C8A8C8A9C8A8A8A8C8A9C8A9A8A8C6A
:101A90008A9C8A8C8A9C8A8C8A9C8A8C8A9C8A8C56
:101AA0008A9C8A8C8A9C8A8C8A9C8A8C8A9C938A3F
:101AB000080E0D6E8A8C8A9CD89081BAD880133219
:101AC0000D2EF8D78A9AF28E13C0E6FF66EC1EF050
:101AD000E552050EDB06CAD70DD0FE0EE66E66ECAB
:101AE0001EF0E5520028EA6AA00FE96E000EEA2215
:101AF000040EEF6E59EF1EF0250EE66E66EC1EF03A
:101B0000E552020E00242A6E0001FD512A5C2CE2EF
:101B1000F29E8A8C939A8A9A8A9C8A8C8A9C8A8A58
:101B20008A8C8A9C8A8C8A9C002A0050EA6AA00FC0
:101B3000E96E000EEA22EFCF14F0002A0050EA6AA4
:101B4000A00FE96E000EEA22EFCF13F0100E0D6E1B
:101B5000143213328A9AD8B08A8A8A8C8A9C0D2EC3
:101B6000F7D78A9AF28E0DD0FE0EE66E66EC1EF066
:101B7000E5520028EA6AA00FE96E000EEA22040E80
:101B8000EF6E59EF1EF0260EE66E66EC1EF0E55283
:101B9000002A0050EA6AA00FE96E000EEA22EF5018
:101BA0000D6E00500D240D242A6E0001FD512A5C9B
:101BB00036E2060E0DC0DBFF060EDB502FE0F29E74
:101BC0008A8C939A8A8A8A9C8A9A8A8C8A9C8A8A24
:101BD0008A8C8A9C8A8C8A9C002A0050EA6AA00F10
:101BE000E96E000EEA22EFCF14F0002A0050EA6AF4
:101BF000A00FE96E000EEA22EFCF13F0100E0D6E6B
:101C0000143213328A9AD8B08A8A8A8C8A9C0D2E12
:101C1000F7D78A9AF28E060EDB06CED70DD0FE0ECF
:101C2000E66E66EC1EF0E5520028EA6AA00FE96E47
:101C3000000EEA22040EEF6E59EF1EF0270EE66E3C
:101C400066EC1EF0E552040E00242A6E0001FD51E0
:101C50002A5C65E2F29E8A8C939A8A8A8A9C8A8C94
:101C60008A9C8A8C8A9C8A8C8A9C002A0050EA6A08
:101C7000A00FE96E000EEA22EFCF14F0002A005008
:101C8000EA6AA00FE96E000EEA22EFCF13F0100E01
:101C90000D6E143213328A9AD8B08A8A8A8C8A9C42
:101CA0000D2EF7D78A9A8A8C8A9C8A8C8A9C8A8C79
:101CB0008A9C8A8C002A0050EA6AA00FE96E000E06
:101CC000EA22EFCF14F0002A0050EA6AA00FE96E72
:101CD000000EEA22EFCF13F01350141008E00000BA
:101CE0000000000000001306000E145AF5D78A9C6D
:101CF000ECC00DF00D5009E00000000000000000F5
:101D00000000000000000D06F5D7100E0D6E0D50FE
:101D100004E08A8C8A9C0D06FAD7F28E0DD0FE0E56
:101D2000E66E66EC1EF0E5520028EA6AA00FE96E46
:101D3000000EEA22040EEF6E59EF1EF0280EE66E3A
:101D400066EC1EF0E552040E00242A6E0001FD51DF
:101D50002A5C66E2F29E8A8C939A8A9A8A9C8A8A84
:101D60008A8C8A9C8A8C8A9C8A8C8A9C002A005045
:101D7000EA6AA00FE96E000EEA22EFCF14F0002A03
:101D80000050EA6AA00FE96E000EEA22EFCF13F0CE
:101D9000100E0D6E143213328A9AD8B08A8A8A8C49
:101DA0008A9C0D2EF7D78A9A8A8C8A9C8A8C8A9C68
:101DB0008A8C8A9C8A8C002A0050EA6AA00FE96EFD
:101DC000000EEA22EFCF14F0002A0050EA6AA00FBA
:101DD000E96E000EEA22EFCF13F01350141008E062
:101DE00000000000000000001306000E145AF5D792
:101DF0008A9CECC00DF00D5009E0000000000000CE
:101E000000000000000000000D06F5D7100E0D6E5A
:101E10000D5004E08A8C8A9C0D06FAD7F28E0DD004
:101E2000FE0EE66E66EC1EF0E5520028EA6AA00F90
:101E3000E96E000EEA22040EEF6E59EF1EF0290E35
:101E4000E66E66EC1EF0E552030E00242A6E0001D9
:101E5000FD512A5C36E2002A0050EA6AA00FE96EC2
:101E6000000EEA22EFCF13F0F29E8A8C939A040EB2
:101E70000D6E13328A9AD8B08A8A8A8C8A9C0D2E6B
:101E8000F8D7002A0050EA6AA00FE96E000EEA2295
:101E9000EFCF14F0002A0050EA6AA00FE96E000E9E
:101EA000EA22EFCF13F0100E0D6E143213328A9A1D
:101EB000D8B08A8A8A8C8A9C0D2EF7D78A9AF28E9D
:101EC0000DD0FE0EE66E66EC1EF0E5520028EA6AC2
:101ED000A00FE96E000EEA22040EEF6E59EF1EF01D
:101EE0002A0EE66E66EC1EF0E55200282A6E00010E
:101EF000FD512A5C39E2002A0050EA6AA00FE96E1F
:101F0000000EEA22EFCF13F0F29E8A8C939A040E11
:101F10000D6E13328A9AD8B08A8A8A8C8A9C0D2ECA
:101F2000F8D78A8C8A9C8A8C8A9C8A8C8A9C8A8C18
:101F30008A9C8A8C8A9C8A8C8A9C8A8C8A9C8A8CB1
:101F40008A9C938A080E0D6E8A8C8A9CD89081BADE
:101F5000D88013320D2EF8D78A9AF28E13C0E6FF7E
:101F600066EC1EF0E5520DD0FE0EE66E66EC1EF03D
:101F7000E5520028EA6AA00FE96E000EEA22040E7C
:101F8000EF6E59EF1EF02B0EE66E66EC1EF0E5527A
:101F900000282A6E0001FD512A5C42E2002A00500E
:101FA000EA6AA00FE96E000EEA22EF500D6EFF0EF6
:101FB0000D5C04E1C66A9368948C31D0800EC76EC4
:101FC000080EC66EC56A0DBCC79EC70E936E8A6AA0
:101FD0000DB08A860DB28A880DB48A8A949C8B9C37
:101FE000380E0D160D5003E1770EC86E17D0080E8F
:101FF0000D5C03E13B0EC86E11D0100E0D5C03E1C9
:10200000270EC86E0BD0180E0D5C03E10E0EC86EC5
:1020100005D0200E0D5C02E10B0EC86EC68A0DD0F5
:10202000FE0EE66E66EC1EF0E5520028EA6AA00F8E
:10203000E96E000EEA22040EEF6E59EF1EF02C0E30
:10204000E66E66EC1EF0E552030E00242A6E0001D7
:10205000FD512A5C01E3BDD0002A0050EA6AA00FBE
:10206000E96E000EEA22EF500D6E0001010E146EB3
:10207000002A0050EA6AA00FE96E000EEA22EFCFB4
:1020800013F0C750040B01E0010E2A6E1F0EC51499
:102090002A1001E0F6D7C580C5B0FED70D505DE02F
:1020A000FE0E00011314C96EC7B0FED7C750040B53
:1020B00001E0010E2A6E1F0EC5142A1001E0F6D7AA
:1020C000C5BC4AD0002A0050EA6AA00FE96E000E93
:1020D000EA22EF50C96EC7B0FED7C750040B01E02B
:1020E000010E2A6E1F0EC5142A1001E0F6D7C5BCDA
:1020F00033D0C582C5B2FED7010E00011310C96EE0
:10210000C7B0FED7C750040B01E0010E2A6E1F0EA8
:10211000C5142A1001E0F6D7C5BC1ED00001146A10
:102120000D50E66E66EC1EF0E5520D5011E0C586CE
:10213000C7A0FED7C950E66E66EC1EF0E5520D5002
:10214000010804E2C59AC588C5B8FED70D06EDD7CB
:10215000C58AC588C5B8FED725D0010E0001131069
:10216000C96EC7B0FED7C750040B01E0010E2A6E3E
:102170001F0EC5142A1001E0F6D7C5BC13D000010C
:10218000146A010EE66E66EC1EF0E552C586C7A025
:10219000FED7C950E66E66EC1EF0E552C58AC588CA
:1021A000C5B8FED7C550400B10E0000114500DE03B
:1021B000FD0EE66E66EC1EF0E5520028EA6AA00FFE
:1021C000E96E000EEA22040EEF6EC584C5B4FED798
:1021D0000DD0FE0EE66E66EC1EF0E5520028EA6AAF
:1021E000A00FE96E000EEA22040EEF6E59EF1EF00A
:1021F0002E0EE66E66EC1EF0E552040E00242A6EEA
:102200000001FD512A5C01E3ACD0002A0050EA6ACB
:10221000A00FE96E000EEA22EF500D6E0001010ED4
:10222000146E002A0050EA6AA00FE96E000EEA223E
:10223000EFCF13F0C750040B01E0010E2A6E1F0E02
:10224000C5142A1001E0F6D7C580C5B0FED7FE0E32
:1022500000011314C96EC7B0FED7C750040B01E0CC
:10226000010E2A6E1F0EC5142A1001E0F6D7C5BC58
:1022700061D0002A0050EA6AA00FE96E000EEA223F
:10228000EF50C96EC7B0FED7C750040B01E0010E76
:102290002A6E1F0EC5142A1001E0F6D7C5BC4AD01D
:1022A000002A0050EA6AA00FE96E000EEA22EF5001
:1022B000C96EC7B0FED7C750040B01E0010E2A6EED
:1022C0001F0EC5142A1001E0F6D7C5BC33D0C58255
:1022D000C5B2FED7010E00011310C96EC7B0FED7FC
:1022E000C750040B01E0010E2A6E1F0EC5142A1000
:1022F00001E0F6D7C5BC1ED00001146A0D50E66E91
:1023000066EC1EF0E5520D5011E0C586C7A0FED761
:10231000C950E66E66EC1EF0E5520D50010804E26D
:10232000C59AC588C5B8FED70D06EDD7C58AC5883C
:10233000C5B8FED7C550400B10E0000114500DE0A9
:10234000FD0EE66E66EC1EF0E5520028EA6AA00F6C
:10235000E96E000EEA22040EEF6EC584C5B4FED706
:102360000DD0FE0EE66E66EC1EF0E5520028EA6A1D
:10237000A00FE96E000EEA22040EEF6E59EF1EF078
:102380002D0EE66E66EC1EF0E552002A0050EA6A59
:10239000A00FE96E000EEA22EF500D6E020E00242F
:1023A0000D242A6E0001FD512A5C73E2C750040B14
:1023B00001E0010E2A6E1F0EC5142A1001E0F6D7A7
:1023C000C580C5B0FED7002A0050EA6AA00FE96EAA
:1023D000000EEA22EF50FE0BC96EC7B0FED7C75001
:1023E000040B01E0010E2A6E1F0EC5142A1001E035
:1023F000F6D7C5BC38D0002A0050EA6AA00FE96EB3
:10240000000EEA22EF50C96EC7B0FED7C750040BCA
:1024100001E0010E2A6E1F0EC5142A1001E0F6D746
:10242000C5BC21D00D50E66E66EC1EF0E5520D5095
:102430001AE0C550400B17E1002A0050EA6AA00FCD
:10244000E96E000EEA22EF50C96EC7B0FED7C75042
:10245000040B01E0010E2A6E1F0EC5142A1001E0C4
:10246000F6D70D06E4D70D5003E1C550400B0DE043
:10247000FD0EE66E66EC1EF0E5520028EA6AA00F3B
:10248000E96E000EEA22040EEF6EC584C5B4FED7D5
:102490000DD0FE0EE66E66EC1EF0E5520028EA6AEC
:1024A000A00FE96E000EEA22040EEF6E59EF1EF047
:1024B0002F0EE66E66EC1EF0E55200282A6E000133
:1024C000FD512A5C3BE2002A0050EA6AA00FE96E47
:1024D000000EEA22EF500D6EFF0E0D5C09E19368CD
:1024E000948C948E010E066E0001640EEC6F25D064
:1024F000E50E936E0DA602D08A8201D08A92949C3A
:102500008B9C949E0C0E0D140001EC6F030E0D16A7
:102510000D5003E1120E066E10D00D0403E1080EFB
:10252000066E0BD0020E0D5C03E1050E066E05D0A3
:10253000030E0D5C02E1020E066E0DD0FE0EE66E7D
:1025400066EC1EF0E5520028EA6AA00FE96E000E64
:10255000EA22040EEF6E59EF1EF0300EE66E66ECC6
:102560001EF0E55200282A6E0001FD512A5C23E28C
:10257000002A0050EA6AA00FE96E000EEA22EF502E
:102580000D6E0D50E66E66EC1EF0E5520D5005E145
:10259000E66A66EC1EF0E5520DD093800D500AE01D
:1025A000E66A24EC1FF0E552E66E66EC1EF0E5529A
:1025B0000D06F4D70DD0FE0EE66E66EC1EF0E55269
:1025C0000028EA6AA00FE96E000EEA22040EEF6E00
:1025D00059EF1EF0310EE66E66EC1EF0E552002A51
:1025E0000050EA6AA00FE96E000EEA22EF500D6E6D
:1025F00000500D242A6E0001FD512A5C17E20D5097
:10260000E66E66EC1EF0E552949E0D500EE0002A38
:102610000050EA6AA00FE96E000EEA22EF50E66E63
:1026200024EC1FF0E5520D06F0D70DD0FE0EE66E3D
:1026300066EC1EF0E5520028EA6AA00FE96E000E73
:10264000EA22040EEF6E59EF1EF0320EE66E66ECD3
:102650001EF0E552020E00242A6E0001FD512A5C94
:1026600021E2002A0050EA6AA00FE96E000EEA2279
:10267000EF508A6E002A0050EA6AA00FE96E000E41
:10268000EA22EF500D6EC00E0D142A6E3F0E8B1411
:102690002A108B6E380E0D142A6EC70E89142A105C
:1026A000896E0DD0FE0EE66E66EC1EF0E552002837
:1026B000EA6AA00FE96E000EEA22040EEF6E59EFEF
:1026C0001EF0330EE66E66EC1EF0E552030E00249B
:1026D0002A6E0001FD512A5C6BE2002A0050EA6A72
:1026E000A00FE96E000EEA22EF500D6E002A005096
:1026F000EA6AA00FE96E000EEA22EFCF14F0002A7A
:102700000050EA6AA00FE96E000EEA22EFCF13F044
:1027100001500D240D242A6E400E2A5C3BE20D5020
:10272000E66E66EC1EF0E5520D5033E0200EE66ECC
:1027300024EC1FF0E55214C0E6FF24EC1FF0E55234
:1027400013C0E6FF24EC1FF0E552E66A24EC1FF00C
:10275000E552E66E66EC1EF0E552280EE66E24ECBD
:102760001FF0E55214C0E6FF24EC1FF0E55213C041
:10277000E6FF24EC1FF0E552E66A24EC1FF0E55278
:10278000E66E66EC1EF0E552132A000E14220D06CA
:10279000CBD70DD0FE0EE66E66EC1EF0E55200289B
:1027A000EA6AA00FE96E000EEA22040EEF6E0DD069
:1027B000FE0EE66E66EC1EF0E5520028EA6AA00FF7
:1027C000E96E000EEA22040EEF6E59EF1EF0340E91
:1027D000E66E66EC1EF0E552002A0050EA6AA00F91
:1027E000E96E000EEA22EF500D6E00500D240D240C
:1027F000020F2A6E0001FD512A5C55E20D50E66E73
:1028000066EC1EF0E552002A0050EA6AA00FE96E5D
:10281000000EEA22EFCF14F0002A0050EA6AA00F5F
:10282000E96E000EEA22EFCF13F00D503BE0400EB0
:10283000E66E24EC1FF0E55214C0E6FF24EC1FF016
:10284000E55213C0E6FF24EC1FF0E552002A0050C9
:10285000EA6AA00FE96E000EEA22EF50E66E24EC61
:102860001FF0E552480EE66E24EC1FF0E55214C04E
:10287000E6FF24EC1FF0E55213C0E6FF24EC1FF046
:10288000E552002A0050EA6AA00FE96E000EEA2223
:10289000EF50E66E24EC1FF0E552132A000E1422CE
:1028A0000D06C3D70DD0FE0EE66E66EC1EF0E552A7
:1028B0000028EA6AA00FE96E000EEA22040EEF6E0D
:1028C00059EF1EF0350EE66E66EC1EF0E55200285C
:1028D0002A6E0001FD512A5C46E2002A0050EA6A95
:1028E000A00FE96E000EEA22EF500D6EFF0E0D5C98
:1028F00005E1BA6ABD6A8A96B16A34D09484939627
:10290000B368B26AC10EB16EBC6ABF6A0D5003E112
:102910003B0EBE6E21D00D0403E11D0EBE6E1CD019
:10292000020E0D5C03E10B0EBE6E16D0030E0D5CA5
:1029300003E1050EBE6E10D0040E0D5C03E1020E25
:10294000BE6E0AD0050E0D5C03E1010EBE6E04D012
:10295000060E0D5C01E1BE6A010EBB6E0B0EBD6E74
:10296000020EBA6E0DD0FE0EE66E66EC1EF0E5525B
:102970000028EA6AA00FE96E000EEA22040EEF6E4C
:1029800059EF1EF0360EE66E66EC1EF0E552030EB1
:1029900000242A6E0001FD512A5C4AE2F29E939ABD
:1029A0008A9A00008A8C0000000000008A9C0000C7
:1029B0008A8C0000000000008A9C00008A8C0000C5
:1029C000000000008A9C00008A8C000000000000CB
:1029D0008A9C002A0050EA6AA00FE96E000EEA22E3
:1029E000EFCF14F0002A0050EA6AA00FE96E000E43
:1029F000EA22EFCF13F0002A0050EA6AA00FE96E36
:102A0000000EEA22EF500E6E180E0D6E14321332C5
:102A10000E32D8A08A9AD8B08A8A00008A8C000028
:102A2000000000008A9C0D2EF1D78A9AF28E0DD0FC
:102A3000FE0EE66E66EC1EF0E5520028EA6AA00F74
:102A4000E96E000EEA22040EEF6E59EF1EF03E0E04
:102A5000E66E66EC1EF0E552030E00242A6E0001BD
:102A6000FD512A5C56E2F29E939A8A9A00008A8C63
:102A70000000000000008A9C00008A8C000000001A
:102A800000008A9C00008A8C0000000000008A9CE4
:102A900000008A8C0000000000008A9C002A005080
:102AA000EA6AA00FE96E000EEA22EFCF14F0002AC6
:102AB0000050EA6AA00FE96E000EEA22EFCF13F091
:102AC000002A0050EA6AA00FE96E000EEA22EF50D9
:102AD0000E6E180E0D6E143213320E32D8A08A9A72
:102AE000D8B08A8A00008A8C0000000000008A9C0E
:102AF0000D2EF1D78A9A0D6A380E0D5C08E200009F
:102B00008A8C0000000000008A9C0D2AF5D7F28E06
:102B10000DD0FE0EE66E66EC1EF0E5520028EA6A65
:102B2000A00FE96E000EEA22040EEF6E59EF1EF0C0
:102B3000490EE66E66EC1EF0E552030E00242A6E86
:102B40000001FD512A5C5EE2F29E939A8A9A00008F
:102B50008A8C0000000000008A9C00008A8C000023
:102B6000000000008A9C00008A8C00000000000029
:102B70008A9C00008A8C0000000000008A9C002AC9
:102B80000050EA6AA00FE96E000EEA22EFCF14F0BF
:102B9000002A0050EA6AA00FE96E000EEA22EFCF89
:102BA00013F0002A0050EA6AA00FE96E000EEA2234
:102BB000EF500E6E180E0D6E143213320E32D8A076
:102BC0008A9AD8B08A8A00008A8C0000000000002F
:102BD0008A9C0D2EF1D78A9A0D6A0D502A6E2B6AA7
:102BE000D8902B5004E68C0E2A5C000E2B5808E27D
:102BF00000008A8C0000000000008A9C0D2AEDD79E
:102C0000F28E0DD0FE0EE66E66EC1EF0E552002848
:102C1000EA6AA00FE96E000EEA22040EEF6E59EF89
:102C20001EF03F0EE66E66EC1EF0E552002A0050E4
:102C3000EA6AA00FE96E000EEA22EF500D6E3F0E19
:102C40000D140E6E00500E240E240E242A6E000168
:102C5000FD512A5C01E386D0C00E0D14E76E080E0C
:102C6000E7CFDBFF080EDB50400806E11C0EF36ED9
:102C7000080EF3CFDBFF13D0080EDB50800806E10F
:102C8000380EF36E080EF3CFDBFF09D0080EDB50D1
:102C9000C00805E1540EF36E080EF3CFDBFFF29E81
:102CA000939A3F0E0D14E76E070EE7CFDBFF070E7A
:102CB000DB5056E08A9A00008A8C00000000000079
:102CC0008A9C00008A8C0000000000008A9C0000A2
:102CD0008A8C0000000000008A9C00008A8C0000A2
:102CE000000000008A9C002A0050EA6AA00FE96EEA
:102CF000000EEA22EFCF14F0002A0050EA6AA00F7B
:102D0000E96E000EEA22EFCF13F0002A0050EA6AC3
:102D1000A00FE96E000EEA22EF500E6E180E0D6E37
:102D2000143213320E32D8A08A9AD8B08A8A0000A0
:102D30008A8C0000000000008A9C0D2EF1D78A9A30
:102D4000080EDB500D6E0D5008E000008A8C00006C
:102D5000000000008A9C0D06F6D7070EDB06A7D7F9
:102D6000F28E0DD0FE0EE66E66EC1EF0E5520028E7
:102D7000EA6AA00FE96E000EEA22040EEF6E59EF28
:102D80001EF0370EE66E66EC1EF0E552F29E939A48
:102D90008A8A00008A8C0000000000008A9C8A9ABF
:102DA0000D6A0B0E0D5C08E200008A8C000000002A
:102DB00000008A9C0D2AF5D7938A100E0D6E8A8C1E
:102DC000000000000000D89081BAD880143213327D
:102DD0008A9C0D2EF4D78A9AF28E14C0E6FF66EC18
:102DE0001EF0E55213C0E6FF66EC1EF0E55259EF07
:102DF0001EF0380EE66E66EC1EF0E552F29E939AD7
:102E00008A9A0D6A1C0E0D5C08E200008A8C000094
:102E1000000000008A9C0D2AF5D7F28E59EF1EF0B3
:102E2000390EE66E66EC1EF0E552002A0050EA6AA2
:102E3000A00FE96E000EEA22EF500D6E00500D2437
:102E40000D242A6E0001FD512A5C48E2F29E939AFD
:102E5000090E0DC0DBFF090EDB503CE0002A0050DC
:102E6000EA6AA00FE96E000EEA22EFCF14F0002A02
:102E70000050EA6AA00FE96E000EEA22EFCF13F0CD
:102E8000100E0D6E13361436D8A08A9AD8B08A8ADE
:102E900000008A8C06C00EF00E0609E0000000005B
:102EA000000000000000000000000000F5D78A9C30
:102EB00006C00EF00E0609E0000000000000000051
:102EC0000000000000000000F5D70D2EDBD7090E32
:102ED000DB06C1D78A9A938AF28E0DD0FE0EE66E7B
:102EE00066EC1EF0E5520028EA6AA00FE96E000EBB
:102EF000EA22040EEF6E59EF1EF03A0EE66E66EC13
:102F00001EF0E552002A0050EA6AA00FE96E000E9A
:102F1000EA22EF500D6E0001FD51005C48E20150C5
:102F20000D240D242A6E400E2A5C41E20D50E66EFF
:102F300066EC1EF0E552F29E938A0A0E0DC0DBFF8E
:102F40000A0EDB5032E0100E0D6E8A8C06C00EF0B9
:102F50000E0609E000000000000000000000000074
:102F600000000000F5D7D89081BAD8801336143607
:102F70008A9C06C00EF00E0609E00000000000006A
:102F800000000000000000000000F5D70D2EDDD786
:102F900014C0E6FF66EC1EF0E55213C0E6FF66ECD7
:102FA0001EF0E5520A0EDB06CBD7F28E0DD0FE0ED8
:102FB000E66E66EC1EF0E5520028EA6AA00FE96EA4
:102FC000000EEA22040EEF6E59EF1EF03B0EE66E85
:102FD00066EC1EF0E552C50E936E8A6A949E59EF18
:102FE0001EF03C0EE66E66EC1EF0E552002A005024
:102FF000EA6AA00FE96E000EEA22EF500D6E0D0492
:103000000024E8380F0B2A6E0001FD512A5C22E2F1
:10301000F29E0E6A0D5000081BE20E500BE1002AD2
:103020000050EA6AA00FE96E000EEA22EFCF13F01B
:10303000080E0E6E1336D8A08B9ED8B08B8E8A8267
:1030400000000000000000008A920D060E06E2D784
:10305000F28E0DD0FE0EE66E66EC1EF0E5520028F4
:10306000EA6AA00FE96E000EEA22040EEF6E59EF35
:103070001EF03D0EE66E66EC1EF0E55200282A6E4C
:103080000001FD512A5C3AE20D040124E8380F0BDF
:103090002B6E400E2B5C32E2002A0050EA6AA00F31
:1030A000E96E000EEA22EF500D6E0D50E66E66ECF2
:1030B0001EF0E552F29E0001136A080E0E6E0D50CE
:1030C00000081AE28A8200000000000000008A92D4
:1030D000D89081B0D88013360E060E5002E00D0451
:1030E00009E1080E0E6E13C0E6FF66EC1EF0E55215
:1030F0000001136A0D06E3D7F28E0DD0FE0EE66EC8
:1031000066EC1EF0E5520028EA6AA00FE96E000E98
:10311000EA22040EEF6E59EF1EF0400EE66E66ECEA
:103120001EF0E552F29E8A80939000008A90FA0E7B
:10313000E66E0AEC1FF0E552FA0EE66E0AEC1FF09E
:10314000E5528A8000009380460EE66E0AEC1FF07E
:10315000E55281B006D0010EE66E66EC1EF0E55237
:1031600004D0E66A66EC1EF0E552960EE66E0AECB6
:103170001FF0E552960EE66E0AEC1FF0E552F28E55
:1031800059EF1EF0410EE66E66EC1EF0E552002A85
:103190000050EA6AA00FE96E000EEA22EF500D6EB1
:1031A00000500D242A6E0001FD512A5C3AE20D50B8
:1031B00037E0002A0050EA6AA00FE96E000EEA220A
:1031C000EF500E6EF29E080EF36E0B0EF3CFDBFF88
:1031D0000B0EDB50000821E28A9093900EA00CD0D9
:1031E000040EE66E0AEC1FF0E5528A80420EE66E8F
:1031F0000AEC1FF0E5520BD03C0EE66E0AEC1FF015
:10320000E5528A800A0EE66E0AEC1FF0E5520E4087
:103210007F0B0E6E0B0EDB06DBD7F28E0D06C7D7CB
:103220000DD0FE0EE66E66EC1EF0E5520028EA6A4E
:10323000A00FE96E000EEA22040EEF6E59EF1EF0A9
:10324000420EE66E66EC1EF0E552002A0050EA6A75
:10325000A00FE96E000EEA22EF500D6E0001FD5145
:10326000005C48E201500D242A6E400E2A5C42E2C6
:103270000D50E66E66EC1EF0E5520D503AE0F29EFF
:103280000E6A080EF36E0C0EF3CFDBFF0C0EDB5054
:10329000000827E28A909390060EE66E0AEC1FF073
:1032A000E5528A8000009380080EE66E0AEC1FF05B
:1032B000E5520E407F0B0E6E81A002D0800E0E26CE
:1032C000280EE66E0AEC1FF0E5528A80939000000B
:1032D0009380100EE66E0AEC1FF0E5520C0EDB0632
:1032E000D5D70E50E66E66EC1EF0E552F28E0D0656
:1032F000C4D70DD0FE0EE66E66EC1EF0E552002837
:10330000EA6AA00FE96E000EEA22040EEF6E59EF92
:103310001EF0430EE66E66EC1EF0E552F29E8A90B9
:1033200093900A0EE66E0AEC1FF0E5528A80FA0EC0
:10333000E66E0AEC1FF0E552FA0EE66E0AEC1FF09C
:10334000E5526E0EE66E0AEC1FF0E5529380F28EA7
:1033500059EF1EF0440EE66E66EC1EF0E552002AB0
:103360000050EA6AA00FE96E000EEA22EF500D6EDF
:10337000002A0050EA6AA00FE96E000EEA22EF5020
:103380000E6E00500D242A6E0001FD512A5C01E3EF
:10339000A9D101500E242B6E400E2B5C01E3A2D16B
:1033A000F29E0D5001E175D08A909390140EE66E56
:1033B0000AEC1FF0E5528A800A0EE66E0AEC1FF056
:1033C000E5528A90140EE66E0AEC1FF0E5528A80F0
:1033D000140EE66E0AEC1FF0E5528A90140EE66EAB
:1033E0000AEC1FF0E5528A80140EE66E0AEC1FF01C
:1033F000E5528A90140EE66E0AEC1FF0E5528A80C0
:10340000140EE66E0AEC1FF0E5528A90140EE66E7A
:103410000AEC1FF0E5528A800A0EE66E0AEC1FF0F5
:10342000E5528A900A0EE66E0AEC1FF0E5528A8099
:103430000A0EE66E0AEC1FF0E5529380050EE66E6A
:103440000AEC1FF0E5520D0EDB6A81B005D0010ECB
:10345000F36E0D0EF3CFDBFF0A0EE66E0AEC1FF0E3
:10346000E55281B005D0010EF36E0D0EF3CFDBFFF8
:10347000020EE66E0AEC1FF0E5520D0EDB5009E07D
:10348000FD0EE66E66EC1EF0E5520E6A0D6A0D50FA
:1034900000260D5001E185D0002A0050EA6AA00FF5
:1034A000E96E000EEA220E0EEFCFDBFF8A909390BA
:1034B000080EF36E0D0EF3CFDBFF0D0EDB50000890
:1034C00020E20E0EDBAE08D08A900A0EE66E0AEC01
:1034D0001FF0E5528A8007D08A800A0EE66E0AEC59
:1034E0001FF0E5528A90080EE66E0AEC1FF0E552D6
:1034F0000E0EDB50020D0E0EF3CFDBFF0D0EDB06C2
:10350000DCD70E5003E10D50010808E28A900A0E44
:10351000E66E0AEC1FF0E5528A8007D08A800A0E18
:10352000E66E0AEC1FF0E5528A900A0EE66E0AEC8F
:103530001FF0E5529380050EE66E0AEC1FF0E5528F
:103540000D0EDB6A81A005D0010EF36E0D0EF3CFD8
:10355000DBFF0A0EE66E0AEC1FF0E55281B005D0E3
:10356000010EF36E0D0EF3CFDBFF0D0EDB5009E005
:10357000FD0EE66EABDBE552010E0D6E0E6A0D50D0
:1035800000260D5001080BE20000000000000000C2
:1035900000000000000000000000000000000D0618
:1035A00078D70000000000000E50E66E8FDBE55279
:1035B0000E5001E195D00E0EDB6A9380080EF36E7B
:1035C0000D0EF3CFDBFF0D0EDB50000838E2030ECB
:1035D000E66E0AEC1FF0E5520E0EDB50020D0E0EE9
:1035E000F3CFDBFF81B00BD00A0EE66E0AEC1FF0C2
:1035F000E55281A003D00E0EDB2A00D00BD00A0EBC
:10360000E66E0AEC1FF0E55281A000D00000000039
:1036100000000000000000000000000000000D0E8F
:10362000DB50010805E2040EE66EF4DBE55204D03F
:10363000020EE66EEFDBE5520D0EDB06C4D700008E
:103640000000000000000000000093900E500108F0
:1036500007E28A900A0EE66EDDDBE5528A8006D02C
:103660008A800A0EE66ED6DBE5528A900E0EDBCF1C
:10367000E6FF2CDBE552070EE66ECCDBE5529380CD
:10368000050EE66EC7DBE5520D0EDB6A81A005D0A4
:10369000010EF36E0D0EF3CFDBFF0A0EE66EBADB02
:1036A000E55281B005D0010EF36E0D0EF3CFDBFFB6
:1036B000030EE66EAFDBE5520000000000000000E4
:1036C000000000000000000000000D0EDB5006E0CE
:1036D000FD0EE66EFBDAE552010E0E6E0E0668D7A1
:1036E000F28E0CD0FE0EE66EF1DAE5520028EA6AA0
:1036F000A00FE96E000EEA22040EEF6EDAD2450E3C
:10370000E66EE4DAE552020E00242A6E0001FD5155
:103710002A5C21E2002A0050EA6AA00FE96E000E3E
:10372000EA22EF50936E002A0050EA6AA00FE96E79
:10373000000EEA22EF500D6EC00E0D142A6E3F0EE1
:1037400094142A10946E380E0D142A6EC70E92141B
:103750002A10926E0CD0FE0EE66EB8DAE552002802
:10376000EA6AA00FE96E000EEA22040EEF6EA1D203
:10377000460EE66EABDAE5528150E66EA7DAE55208
:1037800098D2470EE66EA2DAE552C00E82142A6E77
:10379000380E80142A10E66E99DAE5528AD2480E65
:1037A000E66E94DAE552002A0050EA6AA00FE96E4C
:1037B000000EEA22EF500D6E00500D240D242A6EEB
:1037C0000001FD512A5C4FE2F29E8B9C8A908B9EF9
:1037D0009390949E949C0F0E0DC0DBFF0F0EDB5058
:1037E0003CE0002A0050EA6AA00FE96E000EEA22CF
:1037F000EFCF13F0002A0050EA6AA00FE96E000E26
:10380000EA22EFCF14F08B8C000000008B9C080E96
:103810000D6ED89081B2D8800E361336D8A08A901B
:10382000D8B08A801436D8A08B9ED8B08B8E00007A
:103830008B8C000000008B9C0D2EEBD78B8C000036
:1038400000008B9C000000008B8C000000008B9C13
:103850008A908B9E0F0EDB06C1D70E50E66E36DACD
:10386000E552F28E0CD0FE0EE66E30DAE5520028FC
:10387000EA6AA00FE96E000EEA22040EEF6E19D27A
:10388000530EE66E23DAE55200282A6E0001FD5140
:103890002A5C1AE2002A0050EA6AA00FE96E000EC4
:1038A000EA22EFCF13F0F29E133613368A9E060EED
:1038B0000D6E1336D8A08A98D8B08A888A8C8A9CD4
:1038C0000D2EF7D7F28E0CD0FE0EE66EFFD9E55224
:1038D0000028EA6AA00FE96E000EEA22040EEF6EDD
:1038E000E8D1540EE66EF2D9E55200282A6E0001A6
:1038F000FD512A5C30E2002A0050EA6AA00FE96E0E
:10390000000EEA22EFCF13F0F29E8A9E8A888A8CFC
:103910008A9C8A8C8A9C8A988A8C8A9C8A8C8A9CAB
:10392000040E0D6E1332D8A08A9ED8B08A8E8A8C6F
:103930008A9C0D2EF7D78A881332D8A08A9ED8B0D9
:103940008A8E8A8C8A9C8A9E8A8C8A9C8A988A8C87
:103950008A9CF28E0CD0FE0EE66EB8D9E552002895
:10396000EA6AA00FE96E000EEA22040EEF6EA1D102
:10397000550EE66EABD9E552040E00242A6E000106
:10398000FD512A5C65E2002A0050EA6AA00FE96E48
:10399000000EEA22EFCF16F0002A0050EA6AA00FCC
:1039A000E96E000EEA22EFCF15F0002A0050EA6A15
:1039B000A00FE96E000EEA22EFCF14F0002A0050AB
:1039C000EA6AA00FE96E000EEA22EFCF13F0F29E32
:1039D0008A9E8A888A8C8A9C8A988A8C8A9C8A8CFD
:1039E0008A9C1F0E0D6E1632153214321332D8A077
:1039F0008A9ED8B08A8E169E81BA168E8A8C8A9C30
:103A00000D2EF1D78A881632153214321332D8A00F
:103A10008A9ED8B08A8E169E81BA168E8A8C8A9C0F
:103A20008A9E8A8C8A9C8A988A8C8A9C16C0E6FF19
:103A30004DD9E55215C0E6FF49D9E55214C0E6FF5D
:103A400045D9E55213C0E6FF41D9E552F28E0CD0BC
:103A5000FE0EE66E3BD9E5520028EA6AA00FE96E39
:103A6000000EEA22040EEF6E24D1560EE66E2ED919
:103A7000E552040E00242A6E0001FD512A5C67E223
:103A8000002A0050EA6AA00FE96E000EEA22EFCF8A
:103A900016F0002A0050EA6AA00FE96E000EEA2232
:103AA000EFCF15F0002A0050EA6AA00FE96E000E71
:103AB000EA22EFCF14F0002A0050EA6AA00FE96E64
:103AC000000EEA22EFCF13F0F29E8A9E8A888A8C3B
:103AD0008A9C8A988A8C8A9C8A8C8A9C8A8C8A9CEA
:103AE0001F0E0D6E1632153214321332D8A08A9E74
:103AF000D8B08A8E169E81BA168E8A8C8A9C0D2E1C
:103B0000F1D78A881632153214321332D8A08A9E21
:103B1000D8B08A8E169E81BA168E8A8C8A9C8A9E0E
:103B20008A8C8A9C8A988A8C8A9C16C0E6FFCED89A
:103B3000E55215C0E6FFCAD8E55214C0E6FFC6D864
:103B4000E55213C0E6FFC2D8E552F28E0CD0FE0E4D
:103B5000E66EBCD8E5520028EA6AA00FE96E000EB6
:103B6000EA22040EEF6EA5D0400E015C09E201507E
:103B7000EA6A600FE96E000EEA22EF6A012AF4D7C2
:103B8000016A04010CBF0BD0400EE66E600EE66EBB
:103B9000000EE66E5CEC1FF0E552E552E55200685F
:103BA00088D0F00EE66E92D8E552020E00242A6EFE
:103BB0000001FD512A5C25E2002A0050EA6AA00FAC
:103BC000E96E000EEA22EFCF14F0002A0050EA6AF4
:103BD000A00FE96E000EEA22EFCF13F014C0E6FF4B
:103BE00075D8E55213C0E6FF71D8E55214C0EAFF5C
:103BF00013C0E9FFEF500D6E0D50E66E67D8E55229
:103C00000CD0FE0EE66E62D8E5520028EA6AA00FDC
:103C1000E96E000EEA22040EEF6E4BD0F10EE66E56
:103C200055D8E552030E00242A6E0001FD512A5C8E
:103C30002EE2002A0050EA6AA00FE96E000EEA2286
:103C4000EFCF14F0002A0050EA6AA00FE96E000ED0
:103C5000EA22EFCF13F0002A0050EA6AA00FE96EC3
:103C6000000EEA22EF500D6E14C0E6FF2FD8E55289
:103C700013C0E6FF2BD8E5520D50E66E27D8E5526B
:103C800014C0EAFF13C0E9FF0D50EF6E0CD0FE0E1A
:103C9000E66E1CD8E5520028EA6AA00FE96E000E15
:103CA000EA22040EEF6E05D0FE0EE66E0FD8E55246
:103CB00000D0002A01D08992100EE15C02E2E16A94
:103CC000E552E16EE552E7CFD9FF1200D9CFE6FF0A
:103CD000E1CFD9FF0001EA510AE00A0E025C11E2CD
:103CE0000250022AEA6AE00FE96E000E06D0015087
:103CF000012AEA6A600FE96E000EEA22FE0EDBCFAF
:103D0000EFFF400E015C13E1016A04010CBF0CD00F
:103D1000400EE66E600EE66E000EE66E5CEC1FF086
:103D2000E552E552E55203D00001010EEA6FE5527B
:103D3000E7CFD9FF1200D8CFE4FFE0CFE4FFE46E75
:103D4000DACFE4FFE2CFDAFFF3CFE4FFF4CFE4FF12
:103D5000E652C2B2FED79E9C07C009F008C00AF026
:103D6000C4CF08F0C3CF07F00B50075E0C50085AC1
:103D7000E10E0902F4CF10F0F3CF0FF0E10E0A02CA
:103D8000F35010260F50032610500422E40E0702B1
:103D9000F4CF10F0F3CF0FF0E40E0802F35010262A
:103DA0000F50035E1050045A043404E3035000081B
:103DB000FE0E045403E3036AFE0E046E043404E2B0
:103DC00003500008640E045403E2036A640E046E98
:103DD0000001043405E3BE6ACF0EBD14BD6E0DD0E4
:103DE00004C0BEFF00010350E840E8403F0B300B29
:103DF0002E6ECF0EBD142E10BD6EE552E5CFF4FF32
:103E0000E5CFF3FFE5CFDAFFE550E5CFE0FFE5CF03
:103E1000D8FF1000D9CFE6FFE1CFD9FFE652FE0E62
:103E2000DB50FE0FDF6EDF5009E0000000000000F5
:103E30000000000000000000DF06F5D700D0E552CA
:103E4000E552E7CFD9FF1200D9CFE6FFE1CFD9FF86
:103E5000F29EFE0EDB50176EECC00FF0080E0E6ED9
:103E60000FB404D017AE8B9E17BE8B8E0650196E02
:103E7000192EFED70FA68A820FB68A920FA405D0FC
:103E800017AE8B9E17BE8B8E02D081301736065030
:103E9000196E192EFED70FA68A920FB68A820FA42A
:103EA00002D0813017360E2EDBD7F28E175000D09D
:083EB000E552E7CFD9FF120033
:083EB800D9CFE6FFE1CFD9FFED
:103EC000E65204010CAF02D0000E33D0FC0EDB50E2
:103ED000400805E2400EF36EFC0EF3CFDBFFDF6A15
:103EE000FC0EDB50DF5C19E2DF50E76EFD0EDBCF2E
:103EF000E9FFFE0EDBCFEAFFE750E926000EEA22DB
:103F0000EF50E66EDF50EA6A580FE96E050EEA22BE
:103F1000E552E750EF6EDF2AE3D7FC0EDBCF0DF45E
:103F200004010CAD02D0880E01D0C80E0C6FFC0E3F
:103F3000DB50E552E552E7CFD9FF1200D9CFE6FFBB
:103F4000E1CFD9FF0101136B040108BF32D0FC0E91
:103F5000DBCF2AF00951D8802A5403E2FC0E09C4B1
:103F6000DBFF0101136BFC0EDB50135D19E21351F3
:103F7000EA6A180FE96E050EEA22EF50E66E135159
:103F8000E76EFD0EDBCFE9FFFE0EDBCFEAFFE75069
:103F9000E926000EEA22E552E750EF6E132BE3D735
:103FA0000401400E096F08AD02D0880E01D0C80E82
:103FB000086F01011351E552E7CFD9FF120001014B
:103FC000136B1E0E716E0401400E096F180E2A6EDF
:103FD000050E2AC00AF40B6F880E086F580E2A6E61
:103FE000050E2AC00EF40F6F400E0C6F1200D9CFD1
:103FF000E6FFE1CFD9FFE65202C5DFFF0101010E66
:10400000076FE552E552E7CFD9FF1200D9CFE6FF9F
:10401000E1CFD9FFE65202C5DFFF0101010E076FB4
:10402000E552E552E7CFD9FF1200D9CFE6FFE1CF45
:10403000D9FF020EE1261F0E05010015010865E1FA
:10404000045163E101C5DFFF060EDF5C23E1010ED1
:1040500003C5DBFFDB50210809E10101010E076FF9
:10406000850E0A6F480E0B6F090E0CD0010EDB5047
:1040700022080DE10101010E076FA50E0A6F480E1F
:104080000B6F220E0E6F0F6B010E106F03D0010E1F
:10409000DB502308600E05010015200836E1DF041F
:1040A00002E1A5DF32D0090EDF5C05E10101010E5E
:1040B000066FACDF2AD0020EDF5C07E10101010EC2
:1040C000076F110E086F010E12D00A0EDF5C06E1B9
:1040D0000101010E076F03C511F117D0030EDF5C5C
:1040E0000CE10101010E076F120E086F010E096F3E
:1040F000010E0E6F0F6B106B08D00B0EDF5C05E12D
:104100000101010E076F02C512F1020EE15C02E22D
:10411000E16AE552E16EE552E7CFD9FF1200D9CF4F
:10412000E6FFE1CFD9FF020EE126800E0501005D1A
:104130003CE103C5DFFF010E02C5DBFFDF0409E13F
:104140000101010E076F6A0E0A6F480E0B6F120E07
:1041500028D0020EDF5C09E10101010E076F7C0E21
:104160000A6F480E0B6F290E1CD0030EDF5C1DE199
:104170000101010E076FDB5004E1C70E0A6F480E04
:104180000AD0010EDB0404E1CB0E0A6F480E03D007
:10419000EB0E0A6F480E0B6F0AC1F6FFF76E0800B0
:1041A000F5500E6F0F6B010E106F020EE15C02E214
:1041B000E16AE552E16EE552E7CFD9FF1200D9CFAF
:1041C000E6FFE1CFD9FF030EE1261F0E0501001522
:1041D000DF6E106B116BDF500DE10101010E076FF7
:1041E000035102E0050110810101015135E0050193
:1041F000108332D0DF0404E10101010E076F2CD0DF
:10420000020EDF5C29E10F0E0415E76E010EE7CF09
:10421000DBFF800E0415E76E020EE7CFDBFF010126
:10422000010E076FDB50080DF3500C6F0D6B000E85
:104230000C27040E0D23020EDB5004E0040E0C27A5
:10424000000E0D230CC1E9FF0DC1EAFFEF50040B76
:1042500003E00501010E106F0101075108E0100E87
:10426000086F050E096F020E0E6F0F6B106B030EB9
:10427000E15C02E2E16AE552E16EE552E7CFD9FF87
:104280001200D9CFE6FFE1CFD9FF040EE1261F0EC1
:1042900005010015DF6E010E02C5DBFFDF5011E1E5
:1042A000010EDB044CE10101010E076F030E050155
:1042B000015D04E10101010E016F41D00101016BBB
:1042C0003ED0020EDF5C3BE10F0E0415E76E020EDE
:1042D000E7CFDBFF800E0415E76E030EE7CFDBFFB1
:1042E000010EDB502CE1020EDB5029E00101010E32
:1042F000076F020EDB50080DF3500C6F0D6B000EB4
:104300000C27040E0D23030EDB5004E0040E0C27D3
:10431000000E0D23030E0501015D02E1840E0AD09B
:10432000030EDB0406E10CC1E9FF0DC1EAFFEF6AF1
:1043300006D0880E0CC1E9FF0DC1EAFFEF6E040E36
:10434000E15C02E2E16AE552E16EE552E7CFD9FFB6
:104350001200D9CFE6FFE1CFD9FFE65201C5DFFF5A
:10436000600E0501001554E1050EDF5C08E1010156
:10437000010E076F040E006F02C502F149D0060E50
:10438000DF5C02E1CCDE44D0090EDF5C0EE101010E
:10439000010E076F02C504F1045103E1040E006F22
:1043A00037D0050E006F0BDE33D0080EDF5C07E15F
:1043B0000101010E076F040E086F010E17D0DF50C8
:1043C00002E1FDDE25D0DF0403E0030EDF5C02E145
:1043D00058DF1ED00A0EDF5C0FE10101010E076FEE
:1043E0000501106B0101100E086F050E096F010E1B
:1043F0000E6F0F6B106B0CD00B0EDF5C04E1010134
:10440000010E076F05D0070EDF5C02E00C0EDF5CCB
:10441000E552E552E7CFD9FF1200D9CFE6FFE1CF51
:10442000D9FF030EE1260101080E0E5D000E0F59A3
:1044300007E2010E0EC1DBFF020E0FC1DBFF07D04A
:10444000080EF36E010EF3CFDBFF020EDB6AFC0EEB
:1044500004010417010E020EDBCF2BF0000E030E39
:104460002B162BC02AF02B500413FF0EE76E010E03
:10447000DBCF2AF0020EE7502A162AC005F4100EF0
:104480002A6E050E2D6A2AC006F4076F010EDB5056
:1044900001010E5F020EDB500F5B100E0C6F050E5C
:1044A0000D6F100524E1DF6ADFCF2AF0010EDBCFAC
:1044B0002BF0020EDBCF2CF02B502A5C000E2C547C
:1044C00039E20AC1F6FF0BC1F7FF0A2B000E0B23DE
:1044D0000800F550E66E0CC1E9FF0DC1EAFF0C2B98
:1044E000000E0D23E552E750EF6EDF2ADDD7DF6ABD
:1044F000DFCF2AF0010EDBCF2BF0020EDBCF2CF04A
:104500002B502A5C000E2C5415E208C1E9FF09C1AA
:10451000EAFF082B000E0923EF50E66E0CC1E9FFFD
:104520000DC1EAFF0C2B000E0D23E552E750EF6E94
:10453000DF2ADED7030EE15C02E2E16AE552E16EBA
:10454000E552E7CFD9FF1200D9CFE6FFE1CFD9FF7F
:10455000040EE126030E04010015F3500111E66E6E
:10456000D950020FE96EDACFEAFFE552E750EE6E5E
:10457000ED6A020EDB5001010E27030EDB500F2304
:10458000100E086F050E096FDE6ADD6ADECF2AF0B5
:10459000DDCF2BF0020EDBCF2CF0030EDBCF2DF0A6
:1045A0002C502A5C2D502B5818E208C1E9FF09C194
:1045B000EAFF082B000E0923EF50E66E0CC1E9FF5D
:1045C0000DC1EAFF0C2B000E0D23E552E750EF6EF4
:1045D000DF2A010EDBE3DB2AD9D7040EE15C02E21D
:1045E000E16AE552E16EE552E7CFD9FF120004011E
:1045F000049F009F0101056B076B066B0E6B0F6B31
:10460000A8DE13DD010107510EE10401080E016F60
:10461000000E2A6E050E2C6A2D6A2AC002F4036F62
:10462000840E006F30D0050100AF2FD001010E5174
:104630000501065D01010F510501075904E206C598
:104640000EF107C50FF1E9DE0101020E056F04014D
:10465000080E016F000E2A6E050E2B6E2C6A2D6A55
:104660002C6A2D6A2AC002F4036F800E006F100EB0
:104670002A6E050E2B6E2C6A2D6A2C6A2D6A2AC0B2
:1046800006F4076FC80E046F16D00101010E056F06
:104690000401056BC80E046F080E016F100E2A6E20
:1046A000050E2B6E2C6A2D6A2C6A2D6A2AC002F424
:1046B000036FC80E006F6D9812000101056B0401B5
:1046C000080E016F000E2A6E050E2AC002F4036F59
:1046D000880E006F046B1200D9CFE6FFE1CFD9FF3F
:1046E000020EE1266C5024E13C0E04010015E84066
:1046F000E8403F0BDF6E0D0EDF5C02E178DF35D066
:104700000101050531E120DF0101065109E0010E3B
:1047100002C5DBFF020E0501035D02E0030E035D2F
:10472000040100AD02D0880E01D0C80E006F1DD06C
:10473000040E6C5C1AE16E500AE1040E0101005D8A
:1047400006E102C56EFF6E5002E1030E006F020E1D
:104750000101055D09E161DE040104AD02D0880EAE
:1047600001D0C80E046F01D0A8DF020EE15C02E2A6
:10477000E16AE552E16EE552E7CFD9FF12006DB66E
:1047800006D06D6A696A6D860101010E006F010134
:10479000000509E16D50200B06E1686A696A6980CD
:1047A0006988020E006F12006D926994689412007D
:1047B000689C120070A002D080DF7090689A12008E
:1047C00012006A6A686A9F0E6B6E7B0E696E6E6A73
:1047D000160E706E68A602D06896FCD76D986DDFD5
:1047E0000101016B036B046B030E006F12000101EA
:1047F000005101E112006850040B04E06950040B01
:1048000001E0D2DF6DB212006850010B04E0695084
:10481000010B01E0D6DF6850100B04E06950100B6B
:1048200001E0CEDF6850400B04E06950400B01E02E
:10483000BFDF6850200B04E06950200B01E0BADFB5
:104840006850020B04E06950020B01E06892030E0D
:104850000101005D01E212006850080B05E069509B
:0A486000080B02E039DF6896120031
:06486A0012010002000033
:104870000008091232540100010200010902290056
:10488000010100A032090400000203000000092118
:1048900001010001222200070581034000010705F4
:1048A000010340000106A0FF0901A1010903150051
:1048B00026FF007508954081020904150026FF00B7
:1048C000750895409102C00403090420034F00704D
:1048D0000065006E002000500072006F00670072DB
:1048E0000061006D006D00650072003E034F0070B6
:1048F0000065006E002000500072006F00670072BB
:104900000061006D006D0065007200200020005500
:10491000005300420020004800490044002000638A
:09492000006C00610073007300DB
:01492900008D
:06492A002A0EF66E000EDD
:10493000F76E000EF86E00010900F550F86F0900DF
:10494000F550F96F03E1F86701D03DD00900F5504B
:10495000F36F0900F550F46F0900F550F56F090089
:104960000900F550E96E0900F550EA6E09000900EA
:104970000900F550F66F0900F550F76F09000900BE
:10498000F6CFFAF0F7CFFBF0F8CFFCF0F3C0F6FF6C
:10499000F4C0F7FFF5C0F8FF0001F65302E1F7534A
:1049A00007E00900F550EE6EF607F8E2F707F9D7D1
:1049B000FAC0F6FFFBC0F7FFFCC0F8FF0001F807E4
:0849C000000EF95BBFD71200E5
:0849C8001A6A28AEEDEF24F09D
:1049D000276C281EE86A28221A1E23AEF5EF24F061
:1049E000226C231EE86A23221A1E0AEC25F023BE3D
:1049F00005EF25F01AAE000C226C231EE86A232274
:104A00001E6C1F1EE86A1F22000C1ABEFCEF24F069
:044A10001B88FF0CF4
:0C4A14001F6A1E6A100EE76ED890223652
:104A200023361E361F3627501E5C28501F5805E3BC
:104A300027501E5E28501F5A222AE72EF0D7120058
:104A40000F0EC112140E6F6E0101006B0101016B9C
:104A50000101046B22EC00F0BFEC23F06FBE02D02A
:0A4A6000F7EC23F062EC00F0F7D74A
:064A6A00000EF36E00EEE9
:104A700000F0080E01D81200EA6002D0EE6AFCD7FE
:0A4A8000F350E9601200EE6AFCD763
:064A8A0013EE00F023EE24
:104A900000F0F86A1B9C95EC24F053EC25F020EC18
:064AA00025F0FBD7120017
:024AA6001200FC
:084AA8000000000000640100A1
:104AB000000000AB03000000000000000000000048
:024AC0000000F4
:020000040030CA
:0100000022DD
:010001000EF0
:010002003DC0
:010003001EDE
:0100050000FA
:010006008178
:010008000FE8
:01000900C036
:01000A000FE6
:01000B00E014
:01000C000FE4
:01000D0040B2
:0200000400F00A
:100000004F70656E2050726F6772616D6D65722002
:10001000762E2000302E31302E3000202D20436FE0
:10002000707972696768742028432920323030392A
:100030002D3230313620416C626572746F204D6113
:100040006363696F6E69202D20546869732069733A
:0F005000206672656520736F6674776172650054
:00000001FF
