:020000040000FA
:060000008BEF1CF0120062
:060008001DEF16F01200CE
:06002A000200D5370000C2
:10003000FD00000001000000423900000000000047
:0400400018000000A4
:0C0044000001EA6BEB6B8A6A896AF90E16
:10005000926E010EC26E0E0EC16E860EC06EBA6A30
:10006000BD6A010E066E640EEC6FD00EEF6F070EC8
:10007000F06F080EED6F0B0EEE6F000E036E046A4C
:10008000096E0A6A076E086A800ED56E1200F2A425
:1000900018D0F2940001EB2B050E0101005D07E280
:1000A0000A0E0001EB5D03E38974EB6B1200050E91
:1000B0000101005D06E12E0E0001EB5D02E3897493
:1000C000EB6B1200E4DF050E0101005D45E36D50AE
:1000D000020B01E012000001EA5129E0800E040148
:1000E0000C1525E1400EE66E600EE66E000EE66E23
:1000F000B4EC16F0E552E552E5520001EA6B016AF4
:100100000250015C13E20150EA6AE00FE96E000E52
:10011000EA22EF50E66E0150EA6A600FE96E000EC7
:10012000EA22E552E750EF6E012AEAD7026A00019F
:10013000FD51005C10E3400EE66EA00EE66E000E70
:10014000E66EF6EC16F0E552E552E5520001FD6F61
:10015000E85001E0006A01D81200D9CFE6FFE1CFF4
:10016000D9FF0B0EE1260001FD51005C02E3DDEF3B
:1001700015F00001EA5102E0DDEF15F08982005030
:10018000EA6AA00FE96E000EEA22EF50F10A02E1DE
:1001900090EF15F0010A02E153EF15F0020A02E1B7
:1001A00036EF15F0CF0A02E1E7EF14F0010A02E1A1
:1001B000A2EF14F0070A02E199EF14F0010A02E13C
:1001C00036EF14F0030A02E1CCEF13F0010A02E16A
:1001D000B7EF13F00F0A02E183EF13F0080A02E110
:1001E000D6EF12F0010A02E168EF12F0080A02E10C
:1001F00006EF12F0030A02E1A8EF11F0010A02E192
:100200002DEF11F0070A02E1A7EF10F0010A02E159
:100210006BEF10F0030A02E130EF10F0010A02E187
:10022000F3EF0FF01F0A02E19EEF0FF0020A02E166
:1002300006EF0FF0030A02E13EEF0EF0020A02E1C0
:1002400065EF0DF0070A02E109EF0DF0010A02E186
:10025000B6EF0CF0030A02E165EF0CF0010A02E1CF
:10026000E4EF0BF00F0A02E164EF0BF0010A02E188
:1002700009EF0BF0030A02E1C2EF0AF0010A02E102
:100280005CEF0AF0070A02E126EF0AF0010A02E138
:10029000F0EF09F0030A02E1AAEF09F0010A02E116
:1002A00029EF08F03F0A02E1F8EF07F0010A02E146
:1002B000DEEF07F0030A02E1C2EF07F0010A02E1F4
:1002C000A8EF07F0070A02E18CEF07F0010A02E14C
:1002D0006EEF07F0030A02E152EF07F0010A02E1B4
:1002E00038EF07F00F0A02E1EFEF06F0010A02E132
:1002F000D6EF06F0030A02E18CEF06F0010A02E1F4
:1003000044EF06F0070A02E1E7EF05F0010A02E117
:1003100089EF05F0030A01E1A2D3010A01E186D3C6
:100320001F0A01E107D3010A01E1B8D2030A01E182
:100330001DD2010A01E1F9D1070A01E1C7D1010A81
:1003400001E1ACD1030A01E193D1010A01E17AD1C3
:100350000F0A01E1F9D0010A01E1EAD0030A01E143
:10036000C1D0010A01E19BD0070A67E0010A43E01E
:10037000030A0AE0010A02E0D6EF15F0E66AE8ECAB
:1003800015F0E552DBEF15F0010EE66EE8EC15F026
:10039000E55258DEE66AE8EC15F0E552070EE66E27
:1003A000E8EC15F0E552060EE66EE8EC15F0E552C5
:1003B000E66AE8EC15F0E552E66AE8EC15F0E5527D
:1003C000010EE66EE8EC15F0E552200EE66EE8EC64
:1003D00015F0E552520EE66EE8EC15F0E552530EBC
:1003E000E66EE8EC15F0E552540EE66EE8EC15F01A
:1003F000E552DBEF15F0020EE66EE8EC15F0E55283
:10040000E66AE8EC15F0E552070EE66EE8EC15F04A
:10041000E552060EE66EE8EC15F0E552E66AE8EC09
:1004200015F0E552E66AE8EC15F0E552010EE66ECD
:10043000E8EC15F0E552DBEF15F0030EE66EE8ECA4
:1004400015F0E5520028286E0001FD51285C18E2E5
:10045000002A0050EA6AA00FE96E000EEA22EFCFF0
:10046000DFFF3F0EDF5C06E2DFCFE6FFE8EC15F0D2
:10047000E55205D0FE0EE66EE8EC15F0E5520DD023
:10048000FE0EE66EE8EC15F0E5520028EA6AA00FD1
:10049000E96E000EEA22040EEF6EDBEF15F0400E5F
:1004A000015C09E20150EA6A600FE96E000EEA227F
:1004B000EF6A012AF4D7016A04010CBF0CD0400E88
:1004C000E66E600EE66E000EE66EB4EC16F0E552D7
:1004D000E552E55203D00001010EEA6FFDC000F0C5
:1004E000DBEF15F0050EE66EE8EC15F0E552000EB8
:1004F000036E046A096E0A6A076E086A840ECB6E80
:10050000040ECA6E0B0EBC6EB80EBB6E9E9C9D8C0C
:10051000B36AB26A890EB16E0B0EBA6EBE6A0C0E69
:10052000BD6E9494C00EF26E1E0ED26EDBEF15F00F
:10053000060EE66EE8EC15F0E5529D9CBA6ABD6ABF
:100540000E0ED26EDBEF15F0070EE66EE8EC15F03E
:10055000E552030E0024286E0001FD51285C63E281
:10056000002A0050EA6AA00FE96E000EEA22EF505E
:100570000D6E0D50030A40E0010A2BE0030A16E05D
:10058000010A01E04CD0002A0050EA6AA00FE96E8F
:10059000000EEA22EF50066E002A0050EA6AA00F11
:1005A000E96E000EEA22EFCFECF03CD0002A0050BA
:1005B000EA6AA00FE96E000EEA22EFCFF0F0002AFF
:1005C0000050EA6AA00FE96E000EEA22EFCFEFF0CA
:1005D00029D0002A0050EA6AA00FE96E000EEA2234
:1005E000EFCFF2F0002A0050EA6AA00FE96E000E89
:1005F000EA22EFCFF1F016D0002A0050EA6AA00FED
:10060000E96E000EEA22EFCFEDF0002A0050EA6A10
:10061000A00FE96E000EEA22EFCFEEF003D0020E3B
:10062000002600D00DD0FE0EE66EE8EC15F0E55287
:100630000028EA6AA00FE96E000EEA22040EEF6EAF
:10064000DBEF15F0080EE66EE8EC15F0E552F29ED1
:1006500006500D6E0D5009E0000000000000000083
:100660000000000000000D06F5D7F28EDBEF15F05C
:10067000090EE66EE8EC15F0E552F29EECC00DF0C6
:100680000D5009E000000000000000000000000024
:1006900000000D06F5D7F28EDBEF15F00A0EE66EC0
:1006A000E8EC15F0E552F29EEFC013F0F0C014F044
:1006B0001350141008E000000000000000001306B2
:1006C000000E145AF5D7F28EDBEF15F00B0EE66E26
:1006D000E8EC15F0E5520028286E0001FD51285C79
:1006E00015E2002A0050EA6AA00FE96E000EEA2225
:1006F000EF500D6E0D5009E00000000000000000FA
:100700000000000000000D06F5D70DD0FE0EE66ECD
:10071000E8EC15F0E5520028EA6AA00FE96E000E39
:10072000EA22040EEF6EDBEF15F0A1940C0EE66EDC
:10073000E8EC15F0E552C282C2B2FED7A1A40AD0FD
:10074000E66AE8EC15F0E552E66AE8EC15F0E552E9
:10075000DBEF15F0C450E66EE8EC15F0E552C3503F
:10076000E66EE8EC15F0E552DBEF15F00D0EE66EE7
:10077000E8EC15F0E5520028286E0001FD51285CD8
:1007800001E37DD09D50400B03E0D250200B06E1E9
:10079000FE0EE66EE8EC15F0E55270D0A194002A4A
:1007A0000050EA6AA00FE96E000EEA22EF50136EC5
:1007B000146A13C00BF014C00CF0480E0C02F3CFF7
:1007C0000CF0480E0B02F3CF0BF0F4500C260A0E7F
:1007D000256E266A0BC020F00CC021F03AEC1CF00C
:1007E00020C00BF021C00CF00F0E0D6EE80E136E42
:1007F000030E146E1350141008E0000000000000F7
:1008000000001306000E145AF5D70D06083404E252
:1008100007500E08000E085408E3D880085004E77B
:10082000F20E075CFF0E085802E20D50DFE1A1A4B2
:1008300005D0E66AE8EC15F0E55220D0083404E271
:1008400007500E08000E085408E3D880085004E74B
:10085000F20E075CFF0E085806E2FE0EE66EE8ECAC
:1008600015F0E5520BD00050EA6AA00FE96E000EB9
:10087000EA22EF50E66EE8EC15F0E5520DD0FE0EE0
:10088000E66EE8EC15F0E5520028EA6AA00FE96E82
:10089000000EEA22040EEF6EDBEF15F00E0EE66E90
:1008A000E8EC15F0E5520028286E0001FD51285CA7
:1008B00032E2002A0050EA6AA00FE96E000EEA2236
:1008C000EF500D6E010E0D1402E0000E01D0010E6E
:1008D000E8B08B82E8A08B92020E0D1402E0010EAC
:1008E00001D0000EE8B09482E8A09492040E0D149A
:1008F00002E0010E01D0000EE8B08B80E8A08B90E2
:10090000080E0D1402E0010E01D0000EE8B0948034
:10091000E8A094900DD0FE0EE66EE8EC15F0E552DE
:100920000028EA6AA00FE96E000EEA22040EEF6EBC
:10093000DBEF15F00F0EE66EE8EC15F0E55200283F
:10094000286E0001FD51285C62E2002A0050EA6A2C
:10095000A00FE96E000EEA22EF50010B02E0010E3B
:1009600001D0000EE8B08A8AE8A08A9A0050EA6AAC
:10097000A00FE96E000EEA22EF50020B02E0010E1A
:1009800001D0000EE8B0938AE8A0939A0050EA6A7A
:10099000A00FE96E000EEA22EF50040B02E0010EF8
:1009A00001D0000EE8B08A8CE8A08A9C0050EA6A68
:1009B000A00FE96E000EEA22EF50080B02E0010ED4
:1009C00001D0000EE8B0938CE8A0939C0050EA6A36
:1009D000A00FE96E000EEA22EF50100B02E0010EAC
:1009E00001D0000EE8B08A8EE8A08A9E0050EA6A24
:1009F000A00FE96E000EEA22EF50200B02E0010E7C
:100A000001D0000EE8B0938EE8A0939E0DD0FE0EAC
:100A1000E66EE8EC15F0E5520028EA6AA00FE96EF0
:100A2000000EEA22040EEF6EDBEF15F0100EE66EFC
:100A3000E8EC15F0E5520D6A81BA0D8093BA0D828B
:100A400081BC0D8493BC0D8681BE0D8893BE0D8A3A
:100A50000D50E66EE8EC15F0E552DBEF15F0110EE7
:100A6000E66EE8EC15F0E552020E0024286E000157
:100A7000FD51285C3FE2002A0050EA6AA00FE96EAF
:100A8000000EEA22EFCF14F0002A0050EA6AA00F0D
:100A9000E96E000EEA22EFCF13F0F29E8A9A8A8C5A
:100AA0008A9C8A8C8A9C8A8C8A9C8A8C8A9C8A8C56
:100AB0008A9C8A8C8A9C06500D6E0D5009E00000BD
:100AC0000000000000000000000000000D06F5D747
:100AD0008A8C8A9C0E0E0D6E14321332819AD8B015
:100AE000818A818C819C0D2EF7D78A9A8A8C8A9C68
:100AF000F28E0DD0FE0EE66EE8EC15F0E552002801
:100B0000EA6AA00FE96E000EEA22040EEF6EDBEF38
:100B100015F0120EE66EE8EC15F0E552020E002418
:100B2000286E0001FD51285C43E2002A0050EA6A69
:100B3000A00FE96E000EEA22EFCF14F0002A005059
:100B4000EA6AA00FE96E000EEA22EFCF13F0F29EE0
:100B50008A9A8A8C8A9C00008A8A8A8C8A9C0000E5
:100B60008A9A8A8C8A9C8A8C8A9C8A8C8A9C8A8C97
:100B70008A9C06500D6E0D5009E000000000000038
:100B800000000000000000000D06F5D78A8C8A9C4A
:100B90000E0E0D6E14321332819AD8B0818A818C78
:100BA000819C0D2EF7D78A9A8A8C8A9CF28E0DD062
:100BB000FE0EE66EE8EC15F0E5520028EA6AA00F9A
:100BC000E96E000EEA22040EEF6EDBEF15F0130E55
:100BD000E66EE8EC15F0E5520028286E0001FD51A4
:100BE000285C43E2002A0050EA6AA00FE96E000E7A
:100BF000EA22EFCF13F0F29E8A8A8A8C8A9C8A8C32
:100C00008A9C00008A9A8A8C8A9C8A8C8A9C8A8C0C
:100C10008A9C8A8C8A9C06500D6E0D5009E000005B
:100C20000000000000000000000000000D06F5D7E5
:100C30008A8C8A9C080E0D6E1332819AD8B0818AF4
:100C4000818C819C0D2EF8D78A9A8A8C8A9C8A8CFA
:100C50008A9C8A8C8A9C8A8C8A9C8A8C8A9C8A8CA4
:100C60008A9C8A8C8A9CF28E0DD0FE0EE66EE8EC91
:100C700015F0E5520028EA6AA00FE96E000EEA229C
:100C8000040EEF6EDBEF15F0140EE66EE8EC15F0D7
:100C9000E552F29E8A9A8A8C8A9C8A8C8A9C0000F1
:100CA0008A8A8A8C8A9C00008A9A8A8C8A9C8A8C7E
:100CB0008A9C8A8C8A9C938A06500D6E0D5009E09E
:100CC00000000000000000000000000000000D0611
:100CD000F5D78A8C8A9C0E0E0D6E8A8C8A9CD890D1
:100CE00081BAD880143213320D2EF7D7D89014322F
:100CF0001332D890143213328A8C939A8A9CF28ED3
:100D000014C0E6FFE8EC15F0E55213C0E6FFE8EC8E
:100D100015F0E552DBEF15F0150EE66EE8EC15F078
:100D2000E552F29E8A8A8A8C8A9C00008A9A8A8C72
:100D30008A9C00008A8A8A8C8A9C00008A9A8A8C03
:100D40008A9C8A8C8A9C8A8C8A9C938A06500D6E17
:100D50000D5009E00000000000000000000000004D
:100D600000000D06F5D78A8C8A9C080E0D6E8A8CC1
:100D70008A9CD89081BAD88013320D2EF8D78A8CED
:100D80008A9C8A8C8A9C8A8C8A9C8A8C8A9C8A8C73
:100D90008A9C8A8C8A9C8A8C939A8A9CF28E13C035
:100DA000E6FFE8EC15F0E552DBEF15F0160EE66E07
:100DB000E8EC15F0E552F29E8A9A8A8C8A9C000033
:100DC0008A8A8A8C8A9C8A8C8A9C8A9A8A8C8A9C37
:100DD0008A8C8A9C8A8C8A9CF28EDBEF15F0170E27
:100DE000E66EE8EC15F0E5520028286E0001FD5192
:100DF000285C2FE2F29E002A0050EA6AA00FE96EFA
:100E0000000EEA22EFCF13F00001135020E08A9A7F
:100E10008A8C8A9C00008A8A8A8C8A9C8A8C8A9C0A
:100E20008A9A8A8C8A9C8A8C8A9C8A8C8A9C065094
:100E30000D6E0D5009E000000000000000000000F1
:100E4000000000000D06F5D700011306DDD7F28E75
:100E50000DD0FE0EE66EE8EC15F0E5520028EA6AC9
:100E6000A00FE96E000EEA22040EEF6EDBEF15F024
:100E7000180EE66EE8EC15F0E552F29E8A9A8A8C1E
:100E80008A9C8A8C8A9C8A8C8A9C00008A8A8A8C9A
:100E90008A9C00008A9A8A8C8A9C8A8C8A9CF28E10
:100EA000DBEF15F0190EE66EE8EC15F0E552F29E58
:100EB0008A8A8A8C8A9C00008A9A8A8C8A9C8A8C6C
:100EC0008A9C00008A8A8A8C8A9C00008A9A8A8C72
:100ED0008A9C8A8C8A9CF28EDBEF15F01A0EE66EE5
:100EE000E8EC15F0E552F29E8A9A8A8C8A9C000002
:100EF0008A8A8A8C8A9C00008A9A8A8C8A9C000042
:100F00008A8A8A8C8A9C00008A9A8A8C8A9C8A8C1B
:100F10008A9CF28EDBEF15F01B0EE66EE8EC15F006
:100F2000E552F29E8A8A8A8C8A9C8A8C8A9C00006E
:100F30008A9A8A8C8A9C00008A8A8A8C8A9C000001
:100F40008A9A8A8C8A9C8A8C8A9CF28EDBEF15F0B6
:100F50001C0EE66EE8EC15F0E552F29E8A9A8A8C39
:100F60008A9C00008A8A8A8C8A9C8A8C8A9C8A8CB9
:100F70008A9C00008A9A8A8C8A9C8A8C8A9CF28E2F
:100F8000DBEF15F01D0EE66EE8EC15F0E552F29E73
:100F90008A8A8A8C8A9C00008A9A8A8C8A9C8A8C8B
:100FA0008A9C8A8C8A9C00008A8A8A8C8A9C00008F
:100FB0008A9A8A8C8A9CF28EDBEF15F01E0EE66E02
:100FC000E8EC15F0E552F29E8A9A8A8C8A9C8A8C0B
:100FD0008A9C8A8C8A9C00008A8A8A8C8A9C8A8C49
:100FE0008A9C00008A9A8A8C8A9CF28EDBEF15F02C
:100FF0001F0EE66EE8EC15F0E5520028286E0001A1
:10100000FD51285C17E2002A0050EA6AA00FE96E41
:10101000000EEA22EFCF13F0F29E060E0D6E133291
:10102000819AD8B0818A818C819C0D2EF8D78A9ABA
:10103000F28E0DD0FE0EE66EE8EC15F0E5520028BB
:10104000EA6AA00FE96E000EEA22040EEF6EDBEFF3
:1010500015F0200EE66EE8EC15F0E552020E0024C5
:10106000286E0001FD51285C01E365D1002A005083
:10107000EA6AA00FE96E000EEA22EFCF14F0002A10
:101080000050EA6AA00FE96E000EEA22EFCF13F0DB
:10109000010E13C0DBFF020E14C0DBFFF29E8A9A22
:1010A0008A8C8A9C00008A8A8A8C8A9C00008A9A90
:1010B0008A8C8A9C8A8C8A9C8A8C8A9C8A8C8A9C40
:1010C00006500D6E0D5009E0000000000000000009
:1010D0000000000000000D06F5D78A8C8A9C0E0ED9
:1010E0000D6E14321332819AD8B0818A818C819C22
:1010F0000D2EF7D78A9A8A8C8A9C030EDB6A040E1F
:10110000DB6A030EDBCF28F0040EDBCF29F00001F1
:10111000ED51000129AE02D0D89003D0285C000E1A
:10112000295801E397D08A9A8A8C8A9C8A8C8A9C57
:101130008A8C8A9C00008A8A8A8C8A9C00008A9AFF
:101140008A8C8A9C8A8C8A9CECC00DF00D5009E038
:1011500000000000000000000000000000000D067C
:10116000F5D78A9A8A8C8A9C00008A8A8A8C8A9C03
:101170008A8C8A9C8A8C8A9C00008A9A8A8C8A9C97
:101180008A8C8A9C06500D6E0D5009E0000000000C
:10119000000000000000000000000D06F5D78A9A4C
:1011A0008A8C8A9C8A8C8A9C00008A8A8A8C8A9C77
:1011B00000008A9A8A8C8A9C8A8C8A9C8A8C8A9C57
:1011C000938A06500D6E0D5009E0000000000000EB
:1011D00000000000000000000D06F5D78A8C8A9CF4
:1011E0000E0E0D6E8A8C8A9CD89081BAD8801432EB
:1011F00013320D2EF7D7D89014321332D890143200
:1012000013328A8C939A8A9C06500D6E0D5009E019
:1012100000000000000000000000000000000D06BB
:10122000F5D7010EDBCF28F0020EDBCF29F01350EB
:10123000281802E11450291807E1030EDB500D6E47
:10124000030EDB68040EDB6A030EDB2A040E01E3E7
:10125000DB2A57D7F28EF29ED950030FE96EDACF10
:10126000EAFFFF0EEE1801E1ED505EE10D50E66E73
:10127000E8EC15F0E5520001EE510D02F350E66E78
:10128000D950030FE96EDACFEAFFE552E750EE6E70
:10129000ED6AD950030FE96EDACFEAFFEE50ED1098
:1012A00042E08A9A8A8C8A9C8A8C8A9C8A8C8A9C44
:1012B00000008A8A8A8C8A9C00008A9A8A8C8A9C7E
:1012C0008A8C8A9CECC00DF00D5009E000000000F3
:1012D000000000000000000000000D06F5D78A9A0B
:1012E0008A8C8A9C00008A8A8A8C8A9C8A8C8A9C36
:1012F0008A8C8A9C00008A9A8A8C8A9C8A8C8A9C16
:1013000006500D6E0D5009E00000000000000000C6
:101310000000000000000D06F5D7030EDB06040EEA
:1013200001E2DB06B6D705D0FE0EE66EE8EC15F05E
:10133000E552F28E0DD0FE0EE66EE8EC15F0E552A9
:101340000028EA6AA00FE96E000EEA22040EEF6E92
:10135000DBEF15F0210EE66EE8EC15F0E552020E1B
:101360000024286E0001FD51285C2BE2F29E8A8C3D
:10137000939A8A9A8A9C8A8C8A9C8A8C8A9C8A8C68
:101380008A9C002A0050EA6AA00FE96E000EEA2249
:10139000EFCF14F0002A0050EA6AA00FE96E000EA9
:1013A000EA22EFCF13F0100E0D6E14321332819A31
:1013B000D8B0818A818C819C0D2EF7D78A9AF28EC3
:1013C0000DD0FE0EE66EE8EC15F0E5520028EA6A54
:1013D000A00FE96E000EEA22040EEF6EDBEF15F0AF
:1013E000220EE66EE8EC15F0E552F29E8A8C939A96
:1013F0008A9A8A9C8A8A8A8C8A9C8A9A8A8C8A9CF3
:101400008A8C8A9C8A8C8A9C8A8C8A9C8A8C8A9CEC
:101410008A8C8A9C8A8C8A9C8A8C8A9C8A8C8A9CDC
:101420008A8C8A9C938A080E0D6E818C819CD89040
:1014300081BAD88013320D2EF8D78A9AF28E13C053
:10144000E6FFE8EC15F0E552DBEF15F0230EE66E53
:10145000E8EC15F0E552F29E8A8C939A8A9A8A9C5F
:101460008A8C8A9C8A8C8A9C8A8A8A8C8A9C8A9A90
:101470008A8C8A9C8A8C8A9C8A8C8A9C8A8C8A9C7C
:101480008A8C8A9C8A8C8A9C8A8C8A9C8A8C8A9C6C
:10149000938A080E0D6E818C819CD89081BAD88079
:1014A00013320D2EF8D78A9AF28E13C0E6FFE8ECBD
:1014B00015F0E552DBEF15F0240EE66EE8EC15F0C2
:1014C000E552002A0050EA6AA00FE96E000EEA22F7
:1014D000EF500D6E0001FD51005C45E201500D24FE
:1014E000286E400E285C3FE20D50E66EE8EC15F0E9
:1014F000E552050E0DC0DBFF050EDB5033E0F29E1A
:101500008A8C939A8A8A8A9C8A9A8A8C8A9C8A8CE8
:101510008A9C8A8A8A8C8A9C8A9A8A8C8A9C8A8CDF
:101520008A9C8A8C8A9C8A8C8A9C8A8C8A9C8A8CCB
:101530008A9C8A8C8A9C8A8C8A9C938A080E0D6E5F
:10154000818C819CD89081BAD88013320D2EF8D727
:101550008A9AF28E13C0E6FFE8EC15F0E552050E0C
:10156000DB06CAD70DD0FE0EE66EE8EC15F0E552AC
:101570000028EA6AA00FE96E000EEA22040EEF6E60
:10158000DBEF15F0250EE66EE8EC15F0E552020EE5
:101590000024286E0001FD51285C2CE2F29E8A8C0A
:1015A000939A8A9A8A9C8A8C8A9C8A8A8A8C8A9C38
:1015B0008A8C8A9C002A0050EA6AA00FE96E000E0D
:1015C000EA22EFCF14F0002A0050EA6AA00FE96E79
:1015D000000EEA22EFCF13F0100E0D6E143213320C
:1015E000819AD8B0818A818C819C0D2EF7D78A9AF6
:1015F000F28E0DD0FE0EE66EE8EC15F0E5520028F6
:10160000EA6AA00FE96E000EEA22040EEF6EDBEF2D
:1016100015F0260EE66EE8EC15F0E552002A0050B3
:10162000EA6AA00FE96E000EEA22EF500D6E00503C
:101630000D240D24286E0001FD51285C36E2060EB3
:101640000DC0DBFF060EDB502FE0F29E8A8C939AD2
:101650008A8A8A9C8A9A8A8C8A9C8A8A8A8C8A9CA0
:101660008A8C8A9C002A0050EA6AA00FE96E000E5C
:10167000EA22EFCF14F0002A0050EA6AA00FE96EC8
:10168000000EEA22EFCF13F0100E0D6E143213325B
:10169000819AD8B0818A818C819C0D2EF7D78A9A45
:1016A000F28E060EDB06CED70DD0FE0EE66EE8EC0F
:1016B00015F0E5520028EA6AA00FE96E000EEA2252
:1016C000040EEF6EDBEF15F0270EE66EE8EC15F07A
:1016D000E552040E0024286E0001FD51285C65E2ED
:1016E000F29E8A8C939A8A8A8A9C8A8C8A9C8A8C9B
:1016F0008A9C8A8C8A9C002A0050EA6AA00FE96EB4
:10170000000EEA22EFCF14F0002A0050EA6AA00F80
:10171000E96E000EEA22EFCF13F0100E0D6E1432B8
:101720001332819AD8B0818A818C819C0D2EF7D793
:101730008A9A8A8C8A9C8A8C8A9C8A8C8A9C8A8CBB
:10174000002A0050EA6AA00FE96E000EEA22EFCFED
:1017500014F0002A0050EA6AA00FE96E000EEA2297
:10176000EFCF13F01350141008E000000000000049
:1017700000001306000E145AF5D78A9CECC00DF039
:101780000D5009E000000000000000000000000013
:1017900000000D06F5D7100E0D6E0D5004E08A8C7A
:1017A0008A9C0D06FAD7F28E0DD0FE0EE66EE8EC9E
:1017B00015F0E5520028EA6AA00FE96E000EEA2251
:1017C000040EEF6EDBEF15F0280EE66EE8EC15F078
:1017D000E552040E0024286E0001FD51285C66E2EB
:1017E000F29E8A8C939A8A9A8A9C8A8A8A8C8A9C8C
:1017F0008A8C8A9C8A8C8A9C002A0050EA6AA00FF4
:10180000E96E000EEA22EFCF14F0002A0050EA6AD7
:10181000A00FE96E000EEA22EFCF13F0100E0D6E4E
:1018200014321332819AD8B0818A818C819C0D2E1A
:10183000F7D78A9A8A8C8A9C8A8C8A9C8A8C8A9C02
:101840008A8C002A0050EA6AA00FE96E000EEA2294
:10185000EFCF14F0002A0050EA6AA00FE96E000EE4
:10186000EA22EFCF13F01350141008E0000000003C
:10187000000000001306000E145AF5D78A9CECC035
:101880000DF00D5009E00000000000000000000015
:10189000000000000D06F5D7100E0D6E0D5004E08F
:1018A0008A8C8A9C0D06FAD7F28E0DD0FE0EE66E5B
:1018B000E8EC15F0E5520028EA6AA00FE96E000E88
:1018C000EA22040EEF6EDBEF15F0290EE66EE8EC6F
:1018D00015F0E552030E0024286E0001FD51285C2E
:1018E00036E2002A0050EA6AA00FE96E000EEA22F2
:1018F000EFCF13F0F29E8A8C939A040E0D6E133282
:10190000819AD8B0818A818C819C0D2EF8D7002ACB
:101910000050EA6AA00FE96E000EEA22EFCF14F041
:10192000002A0050EA6AA00FE96E000EEA22EFCF0B
:1019300013F0100E0D6E14321332819AD8B0818AD2
:10194000818C819C0D2EF7D78A9AF28E0DD0FE0ED7
:10195000E66EE8EC15F0E5520028EA6AA00FE96EA1
:10196000000EEA22040EEF6EDBEF15F02A0EE66E93
:10197000E8EC15F0E5520028286E0001FD51285CC6
:1019800039E2002A0050EA6AA00FE96E000EEA224E
:10199000EFCF13F0F29E8A8C939A040E0D6E1332E1
:1019A000819AD8B0818A818C819C0D2EF8D78A8C3F
:1019B0008A9C8A8C8A9C8A8C8A9C8A8C8A9C8A8C37
:1019C0008A9C8A8C8A9C8A8C8A9C8A8C8A9C938A20
:1019D000080E0D6E818C819CD89081BAD88013320C
:1019E0000D2EF8D78A9AF28E13C0E6FFE8EC15F0B8
:1019F000E5520DD0FE0EE66EE8EC15F0E55200283B
:101A0000EA6AA00FE96E000EEA22040EEF6EDBEF29
:101A100015F02B0EE66EE8EC15F0E5520028286E66
:101A20000001FD51285C42E2002A0050EA6AA00F42
:101A3000E96E000EEA22EF500D6EFF0E0D5C04E120
:101A4000C66A9368948C31D0800EC76E080EC66E3D
:101A5000C56A0DBCC79EC70E936E8A6A0DB08A8692
:101A60000DB28A880DB48A8A949C8B9C380E0D1610
:101A70000D5003E1770EC86E17D0080E0D5C03E120
:101A80003B0EC86E11D0100E0D5C03E1270EC86E20
:101A90000BD0180E0D5C03E10E0EC86E05D0200EA3
:101AA0000D5C02E10B0EC86EC68A0DD0FE0EE66E0E
:101AB000E8EC15F0E5520028EA6AA00FE96E000E86
:101AC000EA22040EEF6EDBEF15F02C0EE66EE8EC6A
:101AD00015F0E552030E0024286E0001FD51285C2C
:101AE00001E3BDD0002A0050EA6AA00FE96E000EA3
:101AF000EA22EF500D6E0001010E146E002A005014
:101B0000EA6AA00FE96E000EEA22EFCF13F0C75089
:101B1000040B01E0010E286E1F0EC514281001E011
:101B2000F6D7C580C5B0FED70D505DE0FE0E0001B2
:101B30001314C96EC7B0FED7C750040B01E0010EE5
:101B4000286E1F0EC514281001E0F6D7C5BC4AD078
:101B5000002A0050EA6AA00FE96E000EEA22EF5058
:101B6000C96EC7B0FED7C750040B01E0010E286E46
:101B70001F0EC514281001E0F6D7C5BC33D0C582AE
:101B8000C5B2FED7010E00011310C96EC7B0FED753
:101B9000C750040B01E0010E286E1F0EC51428105B
:101BA00001E0F6D7C5BC1ED00001146A0D50E66EE8
:101BB000E8EC15F0E5520D5011E0C586C7A0FED740
:101BC000C950E66EE8EC15F0E5520D50010804E24C
:101BD000C59AC588C5B8FED70D06EDD7C58AC58894
:101BE000C5B8FED725D0010E00011310C96EC7B0CD
:101BF000FED7C750040B01E0010E286E1F0EC5145E
:101C0000281001E0F6D7C5BC13D00001146A010EFC
:101C1000E66EE8EC15F0E552C586C7A0FED7C950C0
:101C2000E66EE8EC15F0E552C58AC588C5B8FED762
:101C3000C550400B10E0000114500DE0FD0EE66EA3
:101C4000E8EC15F0E5520028EA6AA00FE96E000EF4
:101C5000EA22040EEF6EC584C5B4FED70DD0FE0E89
:101C6000E66EE8EC15F0E5520028EA6AA00FE96E8E
:101C7000000EEA22040EEF6EDBEF15F02E0EE66E7C
:101C8000E8EC15F0E552040E0024286E0001FD5129
:101C9000285C01E3ACD0002A0050EA6AA00FE96E8C
:101CA000000EEA22EF500D6E0001010E146E002AA4
:101CB0000050EA6AA00FE96E000EEA22EFCF13F09F
:101CC000C750040B01E0010E286E1F0EC51428102A
:101CD00001E0F6D7C580C5B0FED7FE0E0001131493
:101CE000C96EC7B0FED7C750040B01E0010E286EC5
:101CF0001F0EC514281001E0F6D7C5BC61D0002A1C
:101D00000050EA6AA00FE96E000EEA22EF50C96E99
:101D1000C7B0FED7C750040B01E0010E286E1F0E9E
:101D2000C514281001E0F6D7C5BC4AD0002A0050DF
:101D3000EA6AA00FE96E000EEA22EF50C96EC7B042
:101D4000FED7C750040B01E0010E286E1F0EC5140C
:101D5000281001E0F6D7C5BC33D0C582C5B2FED786
:101D6000010E00011310C96EC7B0FED7C750040B97
:101D700001E0010E286E1F0EC514281001E0F6D7F1
:101D8000C5BC1ED00001146A0D50E66EE8EC15F0DB
:101D9000E5520D5011E0C586C7A0FED7C950E66ECA
:101DA000E8EC15F0E5520D50010804E2C59AC5882B
:101DB000C5B8FED70D06EDD7C58AC588C5B8FED70C
:101DC000C550400B10E0000114500DE0FD0EE66E12
:101DD000E8EC15F0E5520028EA6AA00FE96E000E63
:101DE000EA22040EEF6EC584C5B4FED70DD0FE0EF8
:101DF000E66EE8EC15F0E5520028EA6AA00FE96EFD
:101E0000000EEA22040EEF6EDBEF15F02D0EE66EEB
:101E1000E8EC15F0E552002A0050EA6AA00FE96EDE
:101E2000000EEA22EF500D6E020E00240D24286EE3
:101E30000001FD51285C73E2C750040B01E0010E64
:101E4000286E1F0EC514281001E0F6D7C580C5B056
:101E5000FED7002A0050EA6AA00FE96E000EEA22BF
:101E6000EF50FE0BC96EC7B0FED7C750040B01E0A0
:101E7000010E286E1F0EC514281001E0F6D7C5BC50
:101E800038D0002A0050EA6AA00FE96E000EEA225C
:101E9000EF50C96EC7B0FED7C750040B01E0010E6A
:101EA000286E1F0EC514281001E0F6D7C5BC21D03E
:101EB0000D50E66EE8EC15F0E5520D501AE0C550F5
:101EC000400B17E1002A0050EA6AA00FE96E000EED
:101ED000EA22EF50C96EC7B0FED7C750040B01E02D
:101EE000010E286E1F0EC514281001E0F6D70D064E
:101EF000E4D70D5003E1C550400B0DE0FD0EE66E3A
:101F0000E8EC15F0E5520028EA6AA00FE96E000E31
:101F1000EA22040EEF6EC584C5B4FED70DD0FE0EC6
:101F2000E66EE8EC15F0E5520028EA6AA00FE96ECB
:101F3000000EEA22040EEF6EDBEF15F02F0EE66EB8
:101F4000E8EC15F0E5520028286E0001FD51285CF0
:101F50003BE2002A0050EA6AA00FE96E000EEA2276
:101F6000EF500D6EFF0E0D5C09E19368948C948E1A
:101F7000010E066E0001640EEC6F25D0E50E936E27
:101F80000DA602D08A8201D08A92949C8B9C949E4A
:101F90000C0E0D140001EC6F030E0D160D5003E135
:101FA000120E066E10D00D0403E1080E066E0BD063
:101FB000020E0D5C03E1050E066E05D0030E0D5CEE
:101FC00002E1020E066E0DD0FE0EE66EE8EC15F094
:101FD000E5520028EA6AA00FE96E000EEA22040E1C
:101FE000EF6EDBEF15F0300EE66EE8EC15F0E55223
:101FF0000028286E0001FD51285C23E2002A0050D1
:10200000EA6AA00FE96E000EEA22EF500D6E0D5045
:10201000E66EE8EC15F0E5520D5005E1E66AE8ECF5
:1020200015F0E5520DD093800D500AE0E66A7CEC85
:1020300016F0E552E66EE8EC15F0E5520D06F4D721
:102040000DD0FE0EE66EE8EC15F0E5520028EA6AC7
:10205000A00FE96E000EEA22040EEF6EDBEF15F022
:10206000310EE66EE8EC15F0E552002A0050EA6AFF
:10207000A00FE96E000EEA22EF500D6E00500D2405
:10208000286E0001FD51285C17E20D50E66EE8EC69
:1020900015F0E552949E0D500EE0002A0050EA6AB9
:1020A000A00FE96E000EEA22EF50E66E7CEC16F00F
:1020B000E5520D06F0D70DD0FE0EE66EE8EC15F0F9
:1020C000E5520028EA6AA00FE96E000EEA22040E2B
:1020D000EF6EDBEF15F0320EE66EE8EC15F0E55230
:1020E000020E0024286E0001FD51285C21E2002A26
:1020F0000050EA6AA00FE96E000EEA22EF508A6EE5
:10210000002A0050EA6AA00FE96E000EEA22EF50A2
:102110000D6EC00E0D14286E3F0E8B1428108B6EA2
:10212000380E0D14286EC70E89142810896E0DD034
:10213000FE0EE66EE8EC15F0E5520028EA6AA00F04
:10214000E96E000EEA22040EEF6EDBEF15F0330E9F
:10215000E66EE8EC15F0E552030E0024286E00014F
:10216000FD51285C6BE2002A0050EA6AA00FE96E7C
:10217000000EEA22EF500D6E002A0050EA6AA00F0E
:10218000E96E000EEA22EFCF14F0002A0050EA6A4E
:10219000A00FE96E000EEA22EFCF13F001500D24DC
:1021A0000D24286E400E285C3BE20D50E66EE8ECF4
:1021B00015F0E5520D5033E0200EE66E7CEC16F083
:1021C000E55214C0E6FF7CEC16F0E55213C0E6FFC2
:1021D0007CEC16F0E552E66A7CEC16F0E552E66E11
:1021E000E8EC15F0E552280EE66E7CEC16F0E552B0
:1021F00014C0E6FF7CEC16F0E55213C0E6FF7CEC61
:1022000016F0E552E66A7CEC16F0E552E66EE8EC74
:1022100015F0E552132A000E14220D06CBD70DD06F
:10222000FE0EE66EE8EC15F0E5520028EA6AA00F13
:10223000E96E000EEA22040EEF6E0DD0FE0EE66E81
:10224000E8EC15F0E5520028EA6AA00FE96E000EEE
:10225000EA22040EEF6EDBEF15F0340EE66EE8ECCA
:1022600015F0E552002A0050EA6AA00FE96E000E50
:10227000EA22EF500D6E00500D240D24020F286E3F
:102280000001FD51285C55E20D50E66EE8EC15F0BA
:10229000E552002A0050EA6AA00FE96E000EEA2219
:1022A000EFCF14F0002A0050EA6AA00FE96E000E8A
:1022B000EA22EFCF13F00D503BE0400EE66E7CECCF
:1022C00016F0E55214C0E6FF7CEC16F0E55213C0A0
:1022D000E6FF7CEC16F0E552002A0050EA6AA00FF7
:1022E000E96E000EEA22EF50E66E7CEC16F0E55245
:1022F000480EE66E7CEC16F0E55214C0E6FF7CEC6E
:1023000016F0E55213C0E6FF7CEC16F0E552002A09
:102310000050EA6AA00FE96E000EEA22EF50E66E66
:102320007CEC16F0E552132A000E14220D06C3D7DA
:102330000DD0FE0EE66EE8EC15F0E5520028EA6AD4
:10234000A00FE96E000EEA22040EEF6EDBEF15F02F
:10235000350EE66EE8EC15F0E5520028286E000117
:10236000FD51285C46E2002A0050EA6AA00FE96E9F
:10237000000EEA22EF500D6EFF0E0D5C05E1BA6A09
:10238000BD6A8A96B16A34D094849396B36AB26A6D
:10239000C10EB16EBC6ABF6A0D5003E13B0EBE6E4A
:1023A00021D00D0403E11D0EBE6E1CD0020E0D5C8B
:1023B00003E10B0EBE6E16D0030E0D5C03E1050E9D
:1023C000BE6E10D0040E0D5C03E1020EBE6E0AD08C
:1023D000050E0D5C03E1010EBE6E04D0060E0D5C11
:1023E00001E1BE6A010EBB6E0B0EBD6E020EBA6E2F
:1023F0000CD0FE0EE66EECDBE5520028EA6AA00F78
:10240000E96E000EEA22040EEF6ED5D3360EE66EAC
:10241000DFDBE552030E0024286E0001FD51285C2D
:102420004AE2F29E939A8A9A00008A8C0000000089
:1024300000008A9C00008A8C0000000000008A9C3A
:1024400000008A8C0000000000008A9C00008A8C3A
:102450000000000000008A9C002A0050EA6AA00FD9
:10246000E96E000EEA22EFCF14F0002A0050EA6A6B
:10247000A00FE96E000EEA22EFCF13F0002A005001
:10248000EA6AA00FE96E000EEA22EF500E6E180EF7
:102490000D6E143213320E32D8A0819AD8B0818AD0
:1024A0000000818C000000000000819C0D2EF1D7FF
:1024B0008A9AF28E0CD0FE0EE66E8ADBE552002878
:1024C000EA6AA00FE96E000EEA22040EEF6E73D3E3
:1024D0003E0EE66E7DDBE552030E0024286E000101
:1024E000FD51285C56E2F29E939A8A9A00008A8CEB
:1024F0000000000000008A9C00008A8C00000000A0
:1025000000008A9C00008A8C0000000000008A9C69
:1025100000008A8C0000000000008A9C002A005005
:10252000EA6AA00FE96E000EEA22EFCF14F0002A4B
:102530000050EA6AA00FE96E000EEA22EFCF13F016
:10254000002A0050EA6AA00FE96E000EEA22EF505E
:102550000E6E180E0D6E143213320E32D8A0819A00
:10256000D8B0818A0000818C000000000000819CAE
:102570000D2EF1D78A9A0D6A380E0D5C08E2000024
:102580008A8C0000000000008A9C0D2AF5D7F28E8C
:102590000CD0FE0EE66E1CDBE5520028EA6AA00FA6
:1025A000E96E000EEA22040EEF6E05D33F0EE66ED2
:1025B0000FDBE552002A0050EA6AA00FE96E000E18
:1025C000EA22EF500D6E3F0E0D140E6E00500E24D9
:1025D0000E240E24286E0001FD51285C01E386D0F4
:1025E000C00E0D14E76E080EE7CFDBFF080EDB50C0
:1025F000400806E11C0EF36E080EF3CFDBFF13D08C
:10260000080EDB50800806E1380EF36E080EF3CF9B
:10261000DBFF09D0080EDB50C00805E1540EF36E55
:10262000080EF3CFDBFFF29E939A3F0E0D14E76E78
:10263000070EE7CFDBFF070EDB5056E08A9A00005B
:102640008A8C0000000000008A9C00008A8C000038
:10265000000000008A9C00008A8C0000000000003E
:102660008A9C00008A8C0000000000008A9C002ADE
:102670000050EA6AA00FE96E000EEA22EFCF14F0D4
:10268000002A0050EA6AA00FE96E000EEA22EFCF9E
:1026900013F0002A0050EA6AA00FE96E000EEA2249
:1026A000EF500E6E180E0D6E143213320E32D8A08B
:1026B000819AD8B0818A0000818C0000000000005F
:1026C000819C0D2EF1D78A9A080EDB500D6E0D50AD
:1026D00008E000008A8C0000000000008A9C0D06C3
:1026E000F6D7070EDB06A7D7F28E0CD0FE0EE66EED
:1026F0006FDAE5520028EA6AA00FE96E000EEA22BE
:10270000040EEF6E58D2370EE66E62DAE552F29E94
:10271000939A8A8A00008A8C0000000000008A9C3C
:102720008A9A0D6A0B0E0D5C08E200008A8C00008C
:10273000000000008A9C0D2AF5D7938A100E0D6EBA
:10274000818C000000000000D89081BAD88014323B
:102750001332819C0D2EF4D78A9AF28E14C0E6FFB4
:1027600037DAE55213C0E6FF33DAE55224D2380EE9
:10277000E66E2EDAE552F29E939A8A9A0D6A1C0E44
:102780000D5C08E200008A8C0000000000008A9CBA
:102790000D2AF5D7F28E0FD2390EE66E19DAE55210
:1027A000002A0050EA6AA00FE96E000EEA22EF50FC
:1027B0000D6E00500D240D24286E0001FD51285C83
:1027C00048E2F29E939A090E0DC0DBFF090EDB5022
:1027D0003CE0002A0050EA6AA00FE96E000EEA22EF
:1027E000EFCF14F0002A0050EA6AA00FE96E000E45
:1027F000EA22EFCF13F0100E0D6E13361436D8A068
:10280000819AD8B0818A0000818C06C00EF00E0635
:1028100009E00000000000000000000000000000CF
:102820000000F5D7819C06C00EF00E0609E00000FE
:102830000000000000000000000000000000F5D7CC
:102840000D2EDBD7090EDB06C1D78A9A938AF28E4A
:102850000CD0FE0EE66EBCD9E5520028EA6AA00F45
:10286000E96E000EEA22040EEF6EA5D13A0EE66E76
:10287000AFD9E552002A0050EA6AA00FE96E000EB7
:10288000EA22EF500D6E0001FD51005C45E201505F
:102890000D240D24286E400E285C3EE20D50E66E9D
:1028A00097D9E552F29E938A0A0E0DC0DBFF0A0EFD
:1028B000DB5030E0100E0D6E818C06C00EF00E065F
:1028C00009E000000000000000000000000000001F
:1028D0000000F5D7D89081BAD88013361436819C81
:1028E00006C00EF00E0609E0000000000000000027
:1028F0000000000000000000F5D70D2EDDD714C049
:10290000E6FF66D9E55213C0E6FF62D9E5520A0E2A
:10291000DB06CDD7F28E0CD0FE0EE66E59D9E5520D
:102920000028EA6AA00FE96E000EEA22040EEF6E9C
:1029300042D13B0EE66E4CD9E552C50E936E8A6AC3
:10294000949E39D13C0EE66E43D9E552002A0050E0
:10295000EA6AA00FE96E000EEA22EF500D6E0D0438
:102960000024E8380F0B286E0001FD51285C22E29C
:10297000F29E0E6A0D5000081BE20E500BE1002A79
:102980000050EA6AA00FE96E000EEA22EFCF13F0C2
:10299000080E0E6E1336D8A08B9ED8B08B8E8A820E
:1029A00000000000000000008A920D060E06E2D72B
:1029B000F28E0CD0FE0EE66E0BD9E5520028EA6AC4
:1029C000A00FE96E000EEA22040EEF6EF4D03D0E69
:1029D000E66EFED8E5520028286E0001FD51285C05
:1029E00038E20D040124E8380F0B296E400E295CF3
:1029F00030E2002A0050EA6AA00FE96E000EEA22D7
:102A0000EF500D6E0D50E66EE3D8E552F29E0001D8
:102A1000136A080E0E6E0D50000819E28A8200003B
:102A20000000000000008A92D89081B0D880133650
:102A30000E060E5002E00D0408E1080E0E6E13C0E3
:102A4000E6FFC6D8E5520001136A0D06E4D7F28E00
:102A50000CD0FE0EE66EBCD8E5520028EA6AA00F44
:102A6000E96E000EEA22040EEF6EA5D0400E015C66
:102A700009E20150EA6A600FE96E000EEA22EF6A8D
:102A8000012AF4D7016A04010CBF0BD0400EE66E98
:102A9000600EE66E000EE66EB4EC16F0E552E552FE
:102AA000E552006888D0F00EE66E92D8E552020E2C
:102AB0000024286E0001FD51285C25E2002A005008
:102AC000EA6AA00FE96E000EEA22EFCF14F0002AA6
:102AD0000050EA6AA00FE96E000EEA22EFCF13F071
:102AE00014C0E6FF75D8E55213C0E6FF71D8E55271
:102AF00014C0EAFF13C0E9FFEF500D6E0D50E66EF3
:102B000067D8E5520CD0FE0EE66E62D8E55200287A
:102B1000EA6AA00FE96E000EEA22040EEF6E4BD0B7
:102B2000F10EE66E55D8E552030E0024286E000122
:102B3000FD51285C2EE2002A0050EA6AA00FE96EDF
:102B4000000EEA22EFCF14F0002A0050EA6AA00F2C
:102B5000E96E000EEA22EFCF13F0002A0050EA6A75
:102B6000A00FE96E000EEA22EF500D6E14C0E6FFD2
:102B70002FD8E55213C0E6FF2BD8E5520D50E66E74
:102B800027D8E55214C0EAFF13C0E9FF0D50EF6EDD
:102B90000CD0FE0EE66E1CD8E5520028EA6AA00FA3
:102BA000E96E000EEA22040EEF6E05D0FE0EE66E10
:102BB0000FD8E55200D0002A01D089920B0EE15CBB
:102BC00002E2E16AE552E16EE552E7CFD9FF120079
:102BD000D9CFE6FFE1CFD9FF0001EA510AE00A0EA2
:102BE000025C11E20250022AEA6AE00FE96E000E6E
:102BF00006D00150012AEA6A600FE96E000EEA224F
:102C0000FE0EDBCFEFFF400E015C13E1016A040111
:102C10000CBF0CD0400EE66E600EE66E000EE66E47
:102C2000B4EC16F0E552E552E55203D00001010E76
:102C3000EA6FE552E7CFD9FF1200D8CFE4FFE0CF2B
:102C4000E4FFE46EDACFE4FFE2CFDAFFF3CFE4FF94
:102C5000F4CFE4FFE652C2B2FED79E9C07C009F053
:102C600008C00AF0C4CF08F0C3CF07F00B50075ECE
:102C70000C50085AE10E0902F4CF10F0F3CF0FF018
:102C8000E10E0A02F35010260F50032610500422C2
:102C9000E40E0702F4CF10F0F3CF0FF0E40E0802B9
:102CA000F35010260F50035E1050045A00010434F4
:102CB00002E3036A046A05500001D880045402E26A
:102CC00005C004F004C0BEFF00010350E840E84026
:102CD0003F0B300B2C6ECF0EBD142C10BD6EE55289
:102CE000E5CFF4FFE5CFF3FFE5CFDAFFE550E5CF21
:102CF000E0FFE5CFD8FF1000D9CFE6FFE1CFD9FF45
:102D0000F29EFE0EDB50156EECC00FF0080E0E6E3C
:102D10000FB404D015AE829E15BE828E0650176E7B
:102D2000172EFED70FA681820FB681920FA405D071
:102D300015AE829E15BE828E02D0813015360650A9
:102D4000176E172EFED70FA681920FB681820FA4A1
:102D500002D0813015360E2EDBD7F28E155000D002
:082D6000E552E7CFD9FF120094
:082D6800D9CFE6FFE1CFD9FF4E
:102D7000E65204010CAF02D0000E33D0FC0EDB5043
:102D8000400805E2400EF36EFC0EF3CFDBFFDF6A76
:102D9000FC0EDB50DF5C19E2DF50E76EFD0EDBCF8F
:102DA000E9FFFE0EDBCFEAFFE750E926000EEA223C
:102DB000EF50E66EDF50EA6A580FE96E050EEA2220
:102DC000E552E750EF6EDF2AE3D7FC0EDBCF0DF4C0
:102DD00004010CAD02D0880E01D0C80E0C6FFC0EA1
:102DE000DB50E552E552E7CFD9FF1200D9CFE6FF1D
:102DF000E1CFD9FF0101136B040108BF32D0FC0EF3
:102E0000DBCF28F00951D880285403E2FC0E09C416
:102E1000DBFF0101136BFC0EDB50135D19E2135154
:102E2000EA6A180FE96E050EEA22EF50E66E1351BA
:102E3000E76EFD0EDBCFE9FFFE0EDBCFEAFFE750CA
:102E4000E926000EEA22E552E750EF6E132BE3D796
:102E50000401400E096F08AD02D0880E01D0C80EE3
:102E6000086F01011351E552E7CFD9FF12000101AC
:102E7000136B1E0E716E0401400E096F180E286E42
:102E8000050E28C00AF40B6F880E086F580E286EC6
:102E9000050E28C00EF40F6F400E0C6F1200D9CF34
:102EA000E6FFE1CFD9FFE65202C5DFFF0101010EC7
:102EB000076FE552E552E7CFD9FF1200D9CFE6FF01
:102EC000E1CFD9FFE65202C5DFFF0101010E076F16
:102ED000E552E552E7CFD9FF1200D9CFE6FFE1CFA7
:102EE000D9FF020EE1261F0E05010015010865E15C
:102EF000045163E101C5DFFF060EDF5C23E1010E33
:102F000003C5DBFFDB50210809E10101010E076F5A
:102F1000310E0A6F370E0B6F090E0CD0010EDB500D
:102F200022080DE10101010E076F510E0A6F370EE5
:102F30000B6F220E0E6F0F6B010E106F03D0010E80
:102F4000DB502308600E05010015200836E1DF0480
:102F500002E1A5DF32D0090EDF5C05E10101010EBF
:102F6000066FACDF2AD0020EDF5C07E10101010E23
:102F7000076F110E086F010E12D00A0EDF5C06E11A
:102F80000101010E076F03C511F117D0030EDF5CBD
:102F90000CE10101010E076F120E086F010E096F9F
:102FA000010E0E6F0F6B106B08D00B0EDF5C05E18E
:102FB0000101010E076F02C512F1020EE15C02E28F
:102FC000E16AE552E16EE552E7CFD9FF1200D9CFB1
:102FD000E6FFE1CFD9FF020EE126800E0501005D7C
:102FE0003CE103C5DFFF010E02C5DBFFDF0409E1A1
:102FF0000101010E076F160E0A6F370E0B6F120ECE
:1030000028D0020EDF5C09E10101010E076F280ED6
:103010000A6F370E0B6F290E1CD0030EDF5C1DE10B
:103020000101010E076FDB5004E1730E0A6F370ECA
:103030000AD0010EDB0404E1770E0A6F370E03D0CD
:10304000970E0A6F370E0B6F0AC1F6FFF76E080076
:10305000F5500E6F0F6B010E106F020EE15C02E275
:10306000E16AE552E16EE552E7CFD9FF1200D9CF10
:10307000E6FFE1CFD9FF030EE1261F0E0501001583
:10308000DF6E106B116BDF500DE10101010E076F58
:10309000035102E0050110810101015135E00501F4
:1030A000108332D0DF0404E10101010E076F2CD040
:1030B000020EDF5C29E10F0E0415E76E010EE7CF6B
:1030C000DBFF800E0415E76E020EE7CFDBFF010188
:1030D000010E076FDB50080DF3500C6F0D6B000EE7
:1030E0000C27040E0D23020EDB5004E0040E0C2707
:1030F000000E0D230CC1E9FF0DC1EAFFEF50040BD8
:1031000003E00501010E106F0101075108E0100EE8
:10311000086F050E096F020E0E6F0F6B106B030E1A
:10312000E15C02E2E16AE552E16EE552E7CFD9FFE8
:103130001200D9CFE6FFE1CFD9FF040EE1261F0E22
:1031400005010015DF6E010E02C5DBFFDF5011E146
:10315000010EDB044CE10101010E076F030E0501B6
:10316000015D04E10101010E016F41D00101016B1C
:103170003ED0020EDF5C3BE10F0E0415E76E020E3F
:10318000E7CFDBFF800E0415E76E030EE7CFDBFF12
:10319000010EDB502CE1020EDB5029E00101010E93
:1031A000076F020EDB50080DF3500C6F0D6B000E15
:1031B0000C27040E0D23030EDB5004E0040E0C2735
:1031C000000E0D23030E0501015D02E1840E0AD0FD
:1031D000030EDB0406E10CC1E9FF0DC1EAFFEF6A53
:1031E00006D0880E0CC1E9FF0DC1EAFFEF6E040E98
:1031F000E15C02E2E16AE552E16EE552E7CFD9FF18
:103200001200D9CFE6FFE1CFD9FFE65201C5DFFFBB
:10321000600E0501001554E1050EDF5C08E10101B7
:10322000010E076F040E006F02C502F149D0060EB1
:10323000DF5C02E1CCDE44D0090EDF5C0EE101016F
:10324000010E076F02C504F1045103E1040E006F83
:1032500037D0050E006F0BDE33D0080EDF5C07E1C0
:103260000101010E076F040E086F010E17D0DF5029
:1032700002E1FDDE25D0DF0403E0030EDF5C02E1A6
:1032800058DF1ED00A0EDF5C0FE10101010E076F4F
:103290000501106B0101100E086F050E096F010E7C
:1032A0000E6F0F6B106B0CD00B0EDF5C04E1010195
:1032B000010E076F05D0070EDF5C02E00C0EDF5C2D
:1032C000E552E552E7CFD9FF1200D9CFE6FFE1CFB3
:1032D000D9FF030EE1260101080E0E5D000E0F5905
:1032E00007E2010E0EC1DBFF020E0FC1DBFF07D0AC
:1032F000080EF36E010EF3CFDBFF020EDB6AFC0E4D
:1033000004010417010E020EDBCF29F0000E030E9C
:10331000291629C028F029500413FF0EE76E010E6C
:10332000DBCF28F0020EE750281628C005F4100E57
:10333000286E050E2B6A28C006F4076F010EDB50BD
:1033400001010E5F020EDB500F5B100E0C6F050EBD
:103350000D6F100524E1DF6ADFCF28F0010EDBCF0F
:1033600029F0020EDBCF2AF02950285C000E2A54E7
:1033700039E20AC1F6FF0BC1F7FF0A2B000E0B233F
:103380000800F550E66E0CC1E9FF0DC1EAFF0C2BF9
:10339000000E0D23E552E750EF6EDF2ADDD7DF6A1E
:1033A000DFCF28F0010EDBCF29F0020EDBCF2AF0B1
:1033B0002950285C000E2A5415E208C1E9FF09C112
:1033C000EAFF082B000E0923EF50E66E0CC1E9FF5F
:1033D0000DC1EAFF0C2B000E0D23E552E750EF6EF6
:1033E000DF2ADED7030EE15C02E2E16AE552E16E1C
:1033F000E552E7CFD9FF1200D9CFE6FFE1CFD9FFE1
:10340000040EE1260401F3500111E66ED950020FBB
:10341000E96EDACFEAFFE552E750EE6EED6A020E92
:10342000DB5001010E27030EDB500F23100E086F37
:10343000050E096FDE6ADD6ADECF28F0DDCF29F0E8
:10344000020EDBCF2AF0030EDBCF2BF02A50285CD4
:103450002B50295818E208C1E9FF09C1EAFF082BDF
:10346000000E0923EF50E66E0CC1E9FF0DC1EAFF23
:103470000C2B000E0D23E552E750EF6EDF2A010EF4
:10348000DBE3DB2AD9D7040EE15C02E2E16AE55214
:10349000E16EE552E7CFD9FF12000401049F009FBF
:1034A0000101056B076B066B0E6B0F6BAADE15DD5A
:1034B000010107510EE10401080E016F000E286E94
:1034C000050E2A6A2B6A28C002F4036F840E006F6F
:1034D00030D0050100AF2FD001010E510501065D6E
:1034E00001010F510501075904E206C50EF107C598
:1034F0000FF1EBDE0101020E056F0401080E016FF2
:10350000000E286E050E296E2A6A2B6A2A6A2B6A1B
:1035100028C002F4036F800E006F100E286E050E97
:10352000296E2A6A2B6A2A6A2B6A28C006F4076F5A
:10353000C80E046F16D00101010E056F0401056B62
:10354000C80E046F080E016F100E286E050E296E4E
:103550002A6A2B6A2A6A2B6A28C002F4036FC80EF3
:10356000006F6D9812000101056B0401080E016FD8
:10357000000E286E050E28C002F4036F880E006F3F
:10358000046B1200D9CFE6FFE1CFD9FF020EE1268E
:103590006C5024E13C0E04010015E840E8403F0B6C
:1035A000DF6E0D0EDF5C02E178DF35D0010105052D
:1035B00031E122DF0101065109E0010E02C5DBFF06
:1035C000020E0501035D02E0030E035D040100AD80
:1035D00002D0880E01D0C80E006F1DD0040E6C5CA6
:1035E0001AE16E500AE1040E0101005D06E102C518
:1035F0006EFF6E5002E1030E006F020E0101055DC9
:1036000009E163DE040104AD02D0880E01D0C80ECA
:10361000046F01D0A8DF020EE15C02E2E16AE5522C
:10362000E16EE552E7CFD9FF12006DB606D06D6AA4
:10363000696A6D860101010E006F0101000509E153
:103640006D50200B06E1686A696A69806988020E1C
:10365000006F12006D92699468941200689C1200C9
:1036600070A002D080DF7090689A120012006A6A1F
:10367000686A9F0E6B6E7B0E696E6E6A160E706EB8
:1036800068A602D06896FCD76D986DDF0101016BCA
:10369000036B046B030E006F12000101005101E186
:1036A00012006850040B04E06950040B01E0D2DF03
:1036B0006DB212006850010B04E06950010B01E08B
:1036C000D6DF6850100B04E06950100B01E0CEDF2C
:1036D0006850400B04E06950400B01E0BFDF6850C8
:1036E000200B04E06950200B01E0BADF6850020BA8
:1036F00004E06950020B01E06892030E0101005DD5
:1037000001E212006850080B05E06950080B02E066
:0637100039DF689612008B
:0A3716001201000200000008D804B0
:10372000000101000102000109022900010100A0BD
:103730003209040000020300000009210101000118
:103740002222000705810340000107050103400014
:103750000106A0FF0901A1010903150026FF00755C
:1037600008954081020904150026FF007508954060
:103770009102C00403090420034F00700065006E2D
:10378000002000500072006F006700720061006D41
:10379000006D00650072003E034F00700065006E12
:1037A000002000500072006F006700720061006D21
:1037B000006D00650072002000200055005300429B
:1037C000002000480049004400200063006C0061B4
:0537D00000730073000E
:0137D50000F3
:0A37D6002A0EF66E000EF76E000ECC
:1037E000F86E00010900F550F86F0900F550F96F07
:1037F00003E1F86701D03DD00900F550F36F0900EF
:10380000F550F46F0900F550F56F09000900F55007
:10381000E96E0900F550EA6E090009000900F5504B
:10382000F66F0900F550F76F09000900F6CFFAF0BE
:10383000F7CFFBF0F8CFFCF0F3C0F6FFF4C0F7FFD2
:10384000F5C0F8FF0001F65302E1F75307E0090065
:10385000F550EE6EF607F8E2F707F9D7FAC0F6FF73
:10386000FBC0F7FFFCC0F8FF0001F807000EF95B92
:04387000BFD71200AC
:0C387400186A26AE43EF1CF0256C261EDF
:10388000E86A2622181E21AE4BEF1CF0206C211E88
:10389000E86A2122181E60EC1CF021BE5BEF1CF0D0
:1038A00018AE000C206C211EE86A21221C6C1D1E23
:1038B000E86A1D22000C18BE52EF1CF01988FF0C9C
:1038C0001D6A1C6A100EE76ED890203621361C3611
:1038D0001D3625501C5C26501D5805E325501C5EE6
:0C38E00026501D5A202AE72EF0D71200B7
:0438EC000F0EC112E8
:1038F000140E6F6E0101006B0101016B0101046B7D
:1039000022EC00F015EC1BF06FBE02D04DEC1BF06A
:0639100062EC00F0F7D7A5
:0A39160013EE00F023EE00F0F86A53
:10392000199CEBEC1BF0A0EC1CF076EC1CF0FBD728
:02393000120083
:0E39320000EE00F00F0EEE6AEA62FDD7120002
:02394000120073
:0E3942000000000000640100000000AB030064
:0A395000000000000000000000006D
:020000040030CA
:0100000022DD
:010001000EF0
:010002003DC0
:010003001EDE
:0100050000FA
:010006008178
:0200000400F00A
:100000004F70656E2050726F6772616D6D65722002
:10001000762E2000302E372E3600202D20436F7094
:10002000797269676874202843292032303039207A
:10003000416C626572746F204D616363696F6E69B4
:10004000202D2054686973206973206672656520CD
:09005000736F667477617265003C
:00000001FF
