:020000040000FA
:0600000025EF1CF01200C8
:060008003DEF15F01200AF
:06002A000200093700008E
:10003000FD00000001000000763800000000000014
:0400400018000000A4
:0C0044000001EA6BEB6B8A6A896AF90E16
:10005000926E010EC26E0E0EC16E860EC06EBD6A2D
:10006000010E066E640EEC6FD00EEF6F070EF06F90
:10007000080EED6F0B0EEE6F000E036E046A096E34
:100080000A6A076E086A800ED56E1200F2A418D0B4
:10009000F2940001EB2B050E0101405D07E20A0E10
:1000A0000001EB5D03E38974EB6B1200050E0101A7
:1000B000405D06E12E0E0001EB5D02E38974EB6BFF
:1000C0001200E4DF050E0101405D45E36D50020BB7
:1000D00001E012000001EA5129E0800E04010C1534
:1000E00025E1400EE66E600EE66E000EE66E4EEC0A
:1000F00016F0E552E552E5520001EA6B016A025042
:10010000015C13E20150EA6AE00FE96E000EEA2298
:10011000EF50E66E0150EA6A600FE96E000EEA22C7
:10012000E552E750EF6E012AEAD7026A0001FD515D
:10013000005C10E3400EE66EA00EE66E000EE66E6A
:1001400090EC16F0E552E552E5520001FD6FE850E3
:1001500001E0006A01D81200D9CFE6FFE1CFD9FF54
:100160000B0EE1260001FD51005C02E3FDEF14F0EF
:100170000001EA5102E0FDEF14F089820050EA6AC2
:10018000A00FE96E000EEA22EF50F10A02E1B0EF93
:1001900014F0010A02E173EF14F0020A02E156EFD3
:1001A00014F0CF0A02E107EF14F0010A02E1C2EFF6
:1001B00013F0070A02E1B9EF13F0010A02E156EF6A
:1001C00013F0030A02E1ECEF12F0010A02E1D7EFAB
:1001D00012F00F0A02E1A3EF12F0080A02E1F6EFB3
:1001E00011F0010A02E188EF11F0080A02E126EF9E
:1001F00011F0030A02E1FDEF10F0010A02E182EFC3
:1002000010F0070A02E1FCEF0FF0010A02E1C0EF73
:100210000FF0030A02E185EF0FF0010A02E148EF57
:100220000FF01F0A02E1F3EF0EF0020A02E17EEF87
:100230000EF0030A02E1E3EF0DF0020A02E13CEFE7
:100240000DF0070A02E104EF0DF0010A02E1B1EF3F
:100250000CF0030A02E160EF0CF0010A02E1DFEFAB
:100260000BF00F0A02E15FEF0BF0010A02E104EF6D
:100270000BF0030A02E1BDEF0AF0010A02E157EFB9
:100280000AF0070A02E121EF0AF0010A02E1EBEFAE
:1002900009F0030A02E1A5EF09F0010A02E124EFE7
:1002A00008F03F0A02E1F3EF07F0010A02E1D9EF9B
:1002B00007F0030A02E1BDEF07F0010A02E1A3EF34
:1002C00007F0070A02E187EF07F0010A02E169EF90
:1002D00007F0030A02E14DEF07F0010A02E133EFF4
:1002E00007F00F0A02E1EAEF06F0010A02E1D1EF9E
:1002F00006F0030A02E187EF06F0010A02E13FEF90
:1003000006F0070A02E1E2EF05F0010A02E184EFDC
:1003100005F0030A01E19ED3010A01E182D31F0A1D
:1003200001E103D3010A01E1B4D2030A01E119D2C8
:10033000010A01E1F5D1070A01E1C3D1010A01E196
:10034000A8D1030A01E18FD1010A01E176D10F0A98
:1003500001E1F5D0010A01E1E6D0030A01E1C1D0D3
:10036000010A01E19BD0070A67E0010A43E0030AA2
:100370000AE0010A02E0F6EF14F0E66A08EC15F074
:10038000E552FBEF14F0010EE66E08EC15F0E552B5
:1003900059DEE66A08EC15F0E552070EE66E08EC49
:1003A00015F0E552060EE66E08EC15F0E552E66A29
:1003B00008EC15F0E552E66A08EC15F0E552020E7D
:1003C000E66E08EC15F0E552200EE66E08EC15F02E
:1003D000E552520EE66E08EC15F0E552530EE66E4D
:1003E00008EC15F0E552540EE66E08EC15F0E552F7
:1003F000FBEF14F0020EE66E08EC15F0E552E66A2B
:1004000008EC15F0E552070EE66E08EC15F0E55223
:10041000060EE66E08EC15F0E552E66A08EC15F0FB
:10042000E552E66A08EC15F0E552020EE66E08ECBD
:1004300015F0E552FBEF14F0030EE66E08EC15F034
:10044000E5520028286E0001FD51285C18E2002AC0
:100450000050EA6AA00FE96E000EEA22EFCFDFFF3C
:100460003F0EDF5C06E2DFCFE6FF08EC15F0E55259
:1004700005D0FE0EE66E08EC15F0E5520DD0FE0E2E
:10048000E66E08EC15F0E5520028EA6AA00FE96E66
:10049000000EEA22040EEF6EFBEF14F0400E015C3A
:1004A00009E20150EA6A600FE96E000EEA22EF6A83
:1004B000012AF4D7016A04010CBF0CD0400EE66E8D
:1004C000600EE66E000EE66E4EEC16F0E552E5525A
:1004D000E55203D00001010EEA6FFDC000F0FBEF12
:1004E00014F0050EE66E08EC15F0E552000E036EF2
:1004F000046A096E0A6A076E086A840ECB6E040EDF
:10050000CA6E9E909D80F40ECF6E480ECE6E810E08
:10051000CD6EBE6A0C0EBD6E9494C00EF26E1E0EB1
:10052000D26EFBEF14F0060EE66E08EC15F0E55205
:100530009D90CD6ABD6A0E0ED26EFBEF14F0070ED1
:10054000E66E08EC15F0E552030E0024286E00015B
:10055000FD51285C63E2002A0050EA6AA00FE96EB0
:10056000000EEA22EF500D6E0D50030A40E0010A22
:100570002BE0030A16E0010A01E04CD0002A0050EB
:10058000EA6AA00FE96E000EEA22EF50066E002A1A
:100590000050EA6AA00FE96E000EEA22EFCFECF0FD
:1005A0003CD0002A0050EA6AA00FE96E000EEA2251
:1005B000EFCFF0F0002A0050EA6AA00FE96E000EBB
:1005C000EA22EFCFEFF029D0002A0050EA6AA00F0C
:1005D000E96E000EEA22EFCFF2F0002A0050EA6A3C
:1005E000A00FE96E000EEA22EFCFF1F016D0002A3C
:1005F0000050EA6AA00FE96E000EEA22EFCFEDF09C
:10060000002A0050EA6AA00FE96E000EEA22EFCF3E
:10061000EEF003D0020E002600D00DD0FE0EE66EE6
:1006200008EC15F0E5520028EA6AA00FE96E000E0A
:10063000EA22040EEF6EFBEF14F0080EE66E08ECF3
:1006400015F0E552F29E06500D6E0D5009E00000C7
:100650000000000000000000000000000D06F5D7BB
:10066000F28EFBEF14F0090EE66E08EC15F0E55281
:10067000F29EECC00DF00D5009E0000000000000FB
:1006800000000000000000000D06F5D7F28EFBEF21
:1006900014F00A0EE66E08EC15F0E552F29EEFC07B
:1006A00013F0F0C014F01350141008E00000000024
:1006B000000000001306000E145AF5D7F28EFBEF6F
:1006C00014F00B0EE66E08EC15F0E5520028286ECB
:1006D0000001FD51285C15E2002A0050EA6AA00FD3
:1006E000E96E000EEA22EF500D6E0D5009E0000099
:1006F0000000000000000000000000000D06F5D71B
:100700000DD0FE0EE66E08EC15F0E5520028EA6A00
:10071000A00FE96E000EEA22040EEF6EFBEF14F05C
:10072000A1940C0EE66E08EC15F0E552C282C2B23E
:10073000FED7A1A40AD0E66A08EC15F0E552E66AF5
:1007400008EC15F0E552FBEF14F0C450E66E08EC2F
:1007500015F0E552C350E66E08EC15F0E552FBEFDC
:1007600014F00D0EE66E08EC15F0E5520028286E28
:100770000001FD51285C01E37DD09D50010B03E099
:10078000D250200B06E1FE0EE66E08EC15F0E552A5
:1007900070D0A194002A0050EA6AA00FE96E000E02
:1007A000EA22EF50136E146A13C00BF014C00CF061
:1007B000480E0C02F3CF0CF0480E0B02F3CF0BF0F7
:1007C000F4500C260A0E256E266A0BC020F00CC0D1
:1007D00021F0D4EC1BF020C00BF021C00CF00F0E68
:1007E0000D6EE80E136E030E146E1350141008E015
:1007F00000000000000000001306000E145AF5D798
:100800000D06083404E207500E08000E085408E3F1
:10081000D880085004E7F20E075CFF0E085802E289
:100820000D50DFE1A1A405D0E66A08EC15F0E55211
:1008300020D0083404E207500E08000E085408E3E4
:10084000D880085004E7F20E075CFF0E085806E255
:10085000FE0EE66E08EC15F0E5520BD00050EA6A89
:10086000A00FE96E000EEA22EF50E66E08EC15F0DC
:10087000E5520DD0FE0EE66E08EC15F0E5520028AC
:10088000EA6AA00FE96E000EEA22040EEF6EFBEF9B
:1008900014F00E0EE66E08EC15F0E5520028286EF6
:1008A0000001FD51285C32E2002A0050EA6AA00FE4
:1008B000E96E000EEA22EF500D6E010E0D1402E0FB
:1008C000000E01D0010EE8B08B82E8A08B92020EE0
:1008D0000D1402E0010E01D0000EE8B09482E8A0F1
:1008E0009492040E0D1402E0010E01D0000EE8B047
:1008F0008B80E8A08B90080E0D1402E0010E01D051
:10090000000EE8B09480E8A094900DD0FE0EE66E44
:1009100008EC15F0E5520028EA6AA00FE96E000E17
:10092000EA22040EEF6EFBEF14F00F0EE66E08ECF9
:1009300015F0E5520028286E0001FD51285C62E2A6
:10094000002A0050EA6AA00FE96E000EEA22EF507A
:10095000010B02E0010E01D0000EE8B08A8AE8A087
:100960008A9A0050EA6AA00FE96E000EEA22EF5060
:10097000020B02E0010E01D0000EE8B0938AE8A05D
:10098000939A0050EA6AA00FE96E000EEA22EF5037
:10099000040B02E0010E01D0000EE8B08A8CE8A042
:1009A0008A9C0050EA6AA00FE96E000EEA22EF501E
:1009B000080B02E0010E01D0000EE8B0938CE8A015
:1009C000939C0050EA6AA00FE96E000EEA22EF50F5
:1009D000100B02E0010E01D0000EE8B08A8EE8A0F4
:1009E0008A9E0050EA6AA00FE96E000EEA22EF50DC
:1009F000200B02E0010E01D0000EE8B0938EE8A0BB
:100A0000939E0DD0FE0EE66E08EC15F0E552002820
:100A1000EA6AA00FE96E000EEA22040EEF6EFBEF09
:100A200014F0100EE66E08EC15F0E5520D6A81BA6E
:100A30000D8093BA0D8281BC0D8493BC0D8681BE5E
:100A40000D8893BE0D8A0D50E66E08EC15F0E55248
:100A5000FBEF14F0110EE66E08EC15F0E552020EF5
:100A60000024286E0001FD51285C3FE2002A00505E
:100A7000EA6AA00FE96E000EEA22EFCF14F0002A16
:100A80000050EA6AA00FE96E000EEA22EFCF13F0E1
:100A9000F29E8A9A8A8C8A9C8A8C8A9C8A8C8A9CEE
:100AA0008A8C8A9C8A8C8A9C8A8C8A9C06500D6EC1
:100AB0000D5009E0000000000000000000000000F0
:100AC00000000D06F5D78A8C8A9C0E0E0D6E14322E
:100AD0001332819AD8B0818A818C819C0D2EF7D7F0
:100AE0008A9A8A8C8A9CF28E0DD0FE0EE66E08ECF5
:100AF00015F0E5520028EA6AA00FE96E000EEA221E
:100B0000040EEF6EFBEF14F0120EE66E08EC15F01B
:100B1000E552020E0024286E0001FD51285C43E2DC
:100B2000002A0050EA6AA00FE96E000EEA22EFCF19
:100B300014F0002A0050EA6AA00FE96E000EEA22C3
:100B4000EFCF13F0F29E8A9A8A8C8A9C00008A8AE0
:100B50008A8C8A9C00008A9A8A8C8A9C8A8C8A9CBD
:100B60008A8C8A9C8A8C8A9C06500D6E0D5009E0F6
:100B700000000000000000000000000000000D0662
:100B8000F5D78A8C8A9C0E0E0D6E14321332819A20
:100B9000D8B0818A818C819C0D2EF7D78A9A8A8C55
:100BA0008A9CF28E0DD0FE0EE66E08EC15F0E55232
:100BB0000028EA6AA00FE96E000EEA22040EEF6E2A
:100BC000FBEF14F0130EE66E08EC15F0E55200286A
:100BD000286E0001FD51285C43E2002A0050EA6AB9
:100BE000A00FE96E000EEA22EFCF13F0F29E8A8A80
:100BF0008A8C8A9C8A8C8A9C00008A9A8A8C8A9C1D
:100C00008A8C8A9C8A8C8A9C8A8C8A9C06500D6E5F
:100C10000D5009E00000000000000000000000008E
:100C200000000D06F5D78A8C8A9C080E0D6E1332D3
:100C3000819AD8B0818A818C819C0D2EF8D78A9AAE
:100C40008A8C8A9C8A8C8A9C8A8C8A9C8A8C8A9CB4
:100C50008A8C8A9C8A8C8A9C8A8C8A9CF28E0DD083
:100C6000FE0EE66E08EC15F0E5520028EA6AA00FC9
:100C7000E96E000EEA22040EEF6EFBEF14F0140E84
:100C8000E66E08EC15F0E552F29E8A9A8A8C8A9CF0
:100C90008A8C8A9C00008A8A8A8C8A9C00008A9AA4
:100CA0008A8C8A9C8A8C8A9C8A8C8A9C938A06501D
:100CB0000D6E0D5009E00000000000000000000073
:100CC000000000000D06F5D78A8C8A9C0E0E0D6E72
:100CD0008A8C8A9CD89081BAD880143213320D2E17
:100CE000F7D7D89014321332D890143213328A8C3A
:100CF000939A8A9CF28E14C0E6FF08EC15F0E55238
:100D000013C0E6FF08EC15F0E552FBEF14F0150EEA
:100D1000E66E08EC15F0E552F29E8A8A8A8C8A9C6F
:100D200000008A9A8A8C8A9C00008A8A8A8C8A9C13
:100D300000008A9A8A8C8A9C8A8C8A9C8A8C8A9CDB
:100D4000938A06500D6E0D5009E00000000000006F
:100D500000000000000000000D06F5D78A8C8A9C78
:100D6000080E0D6E8A8C8A9CD89081BAD880133276
:100D70000D2EF8D78A8C8A9C8A8C8A9C8A8C8A9CB5
:100D80008A8C8A9C8A8C8A9C8A8C8A9C8A8C939A6C
:100D90008A9CF28E13C0E6FF08EC15F0E552FBEFDB
:100DA00014F0160EE66E08EC15F0E552F29E8A9AE3
:100DB0008A8C8A9C00008A8A8A8C8A9C8A8C8A9C6B
:100DC0008A9A8A8C8A9C8A8C8A9C8A8C8A9CF28ECB
:100DD000FBEF14F0170EE66E08EC15F0E552002854
:100DE000286E0001FD51285C2FE2F29E002A00507F
:100DF000EA6AA00FE96E000EEA22EFCF13F00001BD
:100E0000135020E08A9A8A8C8A9C00008A8A8A8CF5
:100E10008A9C8A8C8A9C8A9A8A8C8A9C8A8C8A9CD4
:100E20008A8C8A9C06500D6E0D5009E0000000006F
:100E3000000000000000000000000D06F5D70001D2
:100E40001306DDD7F28E0DD0FE0EE66E08EC15F01F
:100E5000E5520028EA6AA00FE96E000EEA22040EAD
:100E6000EF6EFBEF14F0180EE66E08EC15F0E5528D
:100E7000F29E8A9A8A8C8A9C8A8C8A9C8A8C8A9C0A
:100E800000008A8A8A8C8A9C00008A9A8A8C8A9CB2
:100E90008A8C8A9CF28EFBEF14F0190EE66E08EC39
:100EA00015F0E552F29E8A8A8A8C8A9C00008A9A02
:100EB0008A8C8A9C8A8C8A9C00008A8A8A8C8A9C6A
:100EC00000008A9A8A8C8A9C8A8C8A9CF28EFBEF1C
:100ED00014F01A0EE66E08EC15F0E552F29E8A9AAE
:100EE0008A8C8A9C00008A8A8A8C8A9C00008A9A52
:100EF0008A8C8A9C00008A8A8A8C8A9C00008A9A42
:100F00008A8C8A9C8A8C8A9CF28EFBEF14F01B0ED2
:100F1000E66E08EC15F0E552F29E8A8A8A8C8A9C6D
:100F20008A8C8A9C00008A9A8A8C8A9C00008A8A11
:100F30008A8C8A9C00008A9A8A8C8A9C8A8C8A9CD9
:100F4000F28EFBEF14F01C0EE66E08EC15F0E55285
:100F5000F29E8A9A8A8C8A9C00008A8A8A8C8A9C51
:100F60008A8C8A9C8A8C8A9C00008A9A8A8C8A9CA9
:100F70008A8C8A9CF28EFBEF14F01D0EE66E08EC54
:100F800015F0E552F29E8A8A8A8C8A9C00008A9A21
:100F90008A8C8A9C8A8C8A9C8A8C8A9C00008A8A89
:100FA0008A8C8A9C00008A9A8A8C8A9CF28EFBEF3B
:100FB00014F01E0EE66E08EC15F0E552F29E8A9AC9
:100FC0008A8C8A9C8A8C8A9C8A8C8A9C00008A8A59
:100FD0008A8C8A9C8A8C8A9C00008A9A8A8C8A9C39
:100FE000F28EFBEF14F01F0EE66E08EC15F0E552E2
:100FF0000028286E0001FD51285C17E2002A0050ED
:10100000EA6AA00FE96E000EEA22EFCF13F0F29E1B
:10101000060E0D6E1332819AD8B0818A818C819C24
:101020000D2EF8D78A9AF28E0DD0FE0EE66E08ECE1
:1010300015F0E5520028EA6AA00FE96E000EEA22D8
:10104000040EEF6EFBEF14F0200EE66E08EC15F0C8
:10105000E552020E0024286E0001FD51285C01E3D8
:1010600065D1002A0050EA6AA00FE96E000EEA225C
:10107000EFCF14F0002A0050EA6AA00FE96E000ECC
:10108000EA22EFCF13F0010E13C0DBFF020E14C0F3
:10109000DBFFF29E8A9A8A8C8A9C00008A8A8A8C5C
:1010A0008A9C00008A9A8A8C8A9C8A8C8A9C8A8C68
:1010B0008A9C8A8C8A9C06500D6E0D5009E00000B7
:1010C0000000000000000000000000000D06F5D741
:1010D0008A8C8A9C0E0E0D6E14321332819AD8B00F
:1010E000818A818C819C0D2EF7D78A9A8A8C8A9C62
:1010F000030EDB6A040EDB6A030EDBCF28F0040E5E
:10110000DBCF29F00001ED51000129AE02D0D890CB
:1011100003D0285C000E295801E397D08A9A8A8C64
:101120008A9C8A8C8A9C8A8C8A9C00008A8A8A8CF7
:101130008A9C00008A9A8A8C8A9C8A8C8A9CECC041
:101140000DF00D5009E0000000000000000000005C
:10115000000000000D06F5D78A9A8A8C8A9C000050
:101160008A8A8A8C8A9C8A8C8A9C8A8C8A9C0000B7
:101170008A9A8A8C8A9C8A8C8A9C06500D6E0D50A5
:1011800009E0000000000000000000000000000076
:101190000D06F5D78A9A8A8C8A9C8A8C8A9C0000D4
:1011A0008A8A8A8C8A9C00008A9A8A8C8A9C8A8C79
:1011B0008A9C8A8C8A9C938A06500D6E0D5009E099
:1011C00000000000000000000000000000000D060C
:1011D000F5D78A8C8A9C0E0E0D6E8A8C8A9CD890CC
:1011E00081BAD880143213320D2EF7D7D89014322A
:1011F0001332D890143213328A8C939A8A9C0650F8
:101200000D6E0D5009E0000000000000000000001D
:10121000000000000D06F5D7010EDBCF28F0020E0E
:10122000DBCF29F01350281802E11450291807E1E8
:10123000030EDB500D6E030EDB68040EDB6A030E3B
:10124000DB2A040E01E3DB2A57D7F28EF29ED95037
:10125000030FE96EDACFEAFFFF0EEE1801E1ED5061
:101260005EE10D50E66E08EC15F0E5520001EE511E
:101270000D02F350E66ED950030FE96EDACFEAFFA4
:10128000E552E750EE6EED6AD950030FE96EDACF02
:10129000EAFFEE50ED1042E08A9A8A8C8A9C8A8C92
:1012A0008A9C8A8C8A9C00008A8A8A8C8A9C00008C
:1012B0008A9A8A8C8A9C8A8C8A9CECC00DF00D508C
:1012C00009E0000000000000000000000000000035
:1012D0000D06F5D78A9A8A8C8A9C00008A8A8A8CA5
:1012E0008A9C8A8C8A9C8A8C8A9C00008A9A8A8C26
:1012F0008A9C8A8C8A9C06500D6E0D5009E0000075
:101300000000000000000000000000000D06F5D7FE
:10131000030EDB06040E01E2DB06B6D705D0FE0E97
:10132000E66E08EC15F0E552F28E0DD0FE0EE66E7C
:1013300008EC15F0E5520028EA6AA00FE96E000EED
:10134000EA22040EEF6EFBEF14F0210EE66E08ECBD
:1013500015F0E552020E0024286E0001FD51285CB4
:101360002BE2F29E8A8C939A8A9A8A9C8A8C8A9C17
:101370008A8C8A9C8A8C8A9C002A0050EA6AA00F78
:10138000E96E000EEA22EFCF14F0002A0050EA6A5C
:10139000A00FE96E000EEA22EFCF13F0100E0D6ED3
:1013A00014321332819AD8B0818A818C819C0D2E9F
:1013B000F7D78A9AF28E0DD0FE0EE66E08EC15F085
:1013C000E5520028EA6AA00FE96E000EEA22040E38
:1013D000EF6EFBEF14F0220EE66E08EC15F0E5520E
:1013E000F29E8A8C939A8A9A8A9C8A8A8A8C8A9C90
:1013F0008A9A8A8C8A9C8A8C8A9C8A8C8A9C8A8CFF
:101400008A9C8A8C8A9C8A8C8A9C8A8C8A9C8A8CEC
:101410008A9C8A8C8A9C8A8C8A9C938A080E0D6E80
:10142000818C819CD89081BAD88013320D2EF8D748
:101430008A9AF28E13C0E6FF08EC15F0E552FBEF36
:1014400014F0230EE66E08EC15F0E552F29E8A8C3D
:10145000939A8A9A8A9C8A8C8A9C8A8C8A9C8A8A89
:101460008A8C8A9C8A9A8A8C8A9C8A8C8A9C8A8C8E
:101470008A9C8A8C8A9C8A8C8A9C8A8C8A9C8A8C7C
:101480008A9C8A8C8A9C938A080E0D6E818C819C22
:10149000D89081BAD88013320D2EF8D78A9AF28E5E
:1014A00013C0E6FF08EC15F0E552FBEF14F0240E34
:1014B000E66E08EC15F0E552002A0050EA6AA00F2B
:1014C000E96E000EEA22EF500D6E0001FD51005C46
:1014D00045E201500D24286E400E285C3FE20D507D
:1014E000E66E08EC15F0E552050E0DC0DBFF050EAB
:1014F000DB5033E0F29E8A8C939A8A8A8A9C8A9A7D
:101500008A8C8A9C8A8C8A9C8A8A8A8C8A9C8A9AEF
:101510008A8C8A9C8A8C8A9C8A8C8A9C8A8C8A9CDB
:101520008A8C8A9C8A8C8A9C8A8C8A9C8A8C8A9CCB
:10153000938A080E0D6E818C819CD89081BAD880D8
:1015400013320D2EF8D78A9AF28E13C0E6FF08ECFC
:1015500015F0E552050EDB06CAD70DD0FE0EE66E7D
:1015600008EC15F0E5520028EA6AA00FE96E000EBB
:10157000EA22040EEF6EFBEF14F0250EE66E08EC87
:1015800015F0E552020E0024286E0001FD51285C82
:101590002CE2F29E8A8C939A8A9A8A9C8A8C8A9CE4
:1015A0008A8A8A8C8A9C8A8C8A9C002A0050EA6AE1
:1015B000A00FE96E000EEA22EFCF14F0002A0050CF
:1015C000EA6AA00FE96E000EEA22EFCF13F0100EC8
:1015D0000D6E14321332819AD8B0818A818C819C2D
:1015E0000D2EF7D78A9AF28E0DD0FE0EE66E08EC1D
:1015F00015F0E5520028EA6AA00FE96E000EEA2213
:10160000040EEF6EFBEF14F0260EE66E08EC15F0FC
:10161000E552002A0050EA6AA00FE96E000EEA22A5
:10162000EF500D6E00500D240D24286E0001FD5169
:10163000285C36E2060E0DC0DBFF060EDB502FE005
:10164000F29E8A8C939A8A8A8A9C8A9A8A8C8A9C2D
:101650008A8A8A8C8A9C8A8C8A9C002A0050EA6A30
:10166000A00FE96E000EEA22EFCF14F0002A00501E
:10167000EA6AA00FE96E000EEA22EFCF13F0100E17
:101680000D6E14321332819AD8B0818A818C819C7C
:101690000D2EF7D78A9AF28E060EDB06CED70DD026
:1016A000FE0EE66E08EC15F0E5520028EA6AA00F7F
:1016B000E96E000EEA22040EEF6EFBEF14F0270E27
:1016C000E66E08EC15F0E552040E0024286E0001C9
:1016D000FD51285C65E2F29E8A8C939A8A8A8A9CE4
:1016E0008A8C8A9C8A8C8A9C8A8C8A9C002A0050CC
:1016F000EA6AA00FE96E000EEA22EFCF14F0002A8A
:101700000050EA6AA00FE96E000EEA22EFCF13F054
:10171000100E0D6E14321332819AD8B0818A818CEA
:10172000819C0D2EF7D78A9A8A8C8A9C8A8C8A9CF7
:101730008A8C8A9C8A8C002A0050EA6AA00FE96E83
:10174000000EEA22EFCF14F0002A0050EA6AA00F40
:10175000E96E000EEA22EFCF13F01350141008E0E8
:1017600000000000000000001306000E145AF5D718
:101770008A9CECC00DF00D5009E000000000000054
:1017800000000000000000000D06F5D7100E0D6EE1
:101790000D5004E08A8C8A9C0D06FAD7F28E0DD08B
:1017A000FE0EE66E08EC15F0E5520028EA6AA00F7E
:1017B000E96E000EEA22040EEF6EFBEF14F0280E25
:1017C000E66E08EC15F0E552040E0024286E0001C8
:1017D000FD51285C66E2F29E8A8C939A8A9A8A9CD2
:1017E0008A8A8A8C8A9C8A8C8A9C8A8C8A9C002A07
:1017F0000050EA6AA00FE96E000EEA22EFCF14F063
:10180000002A0050EA6AA00FE96E000EEA22EFCF2C
:1018100013F0100E0D6E14321332819AD8B0818AF3
:10182000818C819C0D2EF7D78A9A8A8C8A9C8A8C0F
:101830008A9C8A8C8A9C8A8C002A0050EA6AA00FB3
:10184000E96E000EEA22EFCF14F0002A0050EA6A97
:10185000A00FE96E000EEA22EFCF13F01350141020
:1018600008E000000000000000001306000E145AFB
:10187000F5D78A9CECC00DF00D5009E00000000087
:10188000000000000000000000000D06F5D7100E5B
:101890000D6E0D5004E08A8C8A9C0D06FAD7F28EEC
:1018A0000DD0FE0EE66E08EC15F0E5520028EA6A4F
:1018B000A00FE96E000EEA22040EEF6EFBEF14F0AB
:1018C000290EE66E08EC15F0E552030E0024286E92
:1018D0000001FD51285C36E2002A0050EA6AA00FA0
:1018E000E96E000EEA22EFCF13F0F29E8A8C939AF3
:1018F000040E0D6E1332819AD8B0818A818C819C3E
:101900000D2EF8D7002A0050EA6AA00FE96E000EEB
:10191000EA22EFCF14F0002A0050EA6AA00FE96E25
:10192000000EEA22EFCF13F0100E0D6E14321332B8
:10193000819AD8B0818A818C819C0D2EF7D78A9AA2
:10194000F28E0DD0FE0EE66E08EC15F0E552002882
:10195000EA6AA00FE96E000EEA22040EEF6EFBEFBA
:1019600014F02A0EE66E08EC15F0E5520028286EF9
:101970000001FD51285C39E2002A0050EA6AA00FFC
:10198000E96E000EEA22EFCF13F0F29E8A8C939A52
:10199000040E0D6E1332819AD8B0818A818C819C9D
:1019A0000D2EF8D78A8C8A9C8A8C8A9C8A8C8A9C79
:1019B0008A8C8A9C8A8C8A9C8A8C8A9C8A8C8A9C37
:1019C0008A8C8A9C938A080E0D6E818C819CD8909B
:1019D00081BAD88013320D2EF8D78A9AF28E13C0AE
:1019E000E6FF08EC15F0E5520DD0FE0EE66E08ECB1
:1019F00015F0E5520028EA6AA00FE96E000EEA220F
:101A0000040EEF6EFBEF14F02B0EE66E08EC15F0F3
:101A1000E5520028286E0001FD51285C1EE2002AD4
:101A20000050EA6AA00FE96E000EEA22EF500D6E38
:101A3000FF0E0D5C03E19368948C0ED0C70E936E7D
:101A40008A6A0DB08A860DB28A880DB48A8A949CFF
:101A50008B9C0001050EEC6F0DD0FE0EE66E08ECBF
:101A600015F0E5520028EA6AA00FE96E000EEA229E
:101A7000040EEF6EFBEF14F02C0EE66E08EC15F082
:101A8000E552030E0024286E0001FD51285C01E39D
:101A90008BD0002A0050EA6AA00FE96E000EEA22FD
:101AA000EF500D6E0001010E146E002A0050EA6A1C
:101AB000A00FE96E000EEA22EFCF13F0A1EC15F0B3
:101AC0000D5042E0FE0E00011314E66EC3EC15F05B
:101AD000E552A5EC15F0000936E1002A0050EA6A4B
:101AE000A00FE96E000EEA22EF50E66EC3EC15F08F
:101AF000E552A5EC15F0000926E1E5EC15F0010E24
:101B000000011310E66EC3EC15F0E552A5EC15F0DC
:101B1000000919E10001146A0D50E66E08EC15F099
:101B2000E5520D500EE0AEEC15F0F350E66E08EC09
:101B300015F0E5520D50010802E200EC16F00D061A
:101B4000F0D7FAEC15F019D0010E00011310E66E73
:101B5000C3EC15F0E552A5EC15F000090EE1010EFD
:101B6000E66E08EC15F0E552AEEC15F0F350E66EBB
:101B700008EC15F0E552FAEC15F0A5EC15F00009AB
:101B800010E0000114500DE0FD0EE66E08EC15F0BB
:101B9000E5520028EA6AA00FE96E000EEA22040E60
:101BA000EF6EEFEC15F00DD0FE0EE66E08EC15F0C2
:101BB000E5520028EA6AA00FE96E000EEA22040E40
:101BC000EF6EFBEF14F02E0EE66E08EC15F0E5520A
:101BD000040E0024286E0001FD51285C01E37FD033
:101BE000002A0050EA6AA00FE96E000EEA22EF50C8
:101BF0000D6E0001010E146E002A0050EA6AA00F5B
:101C0000E96E000EEA22EFCF13F0A1EC15F0FE0E04
:101C100000011314E66EC3EC15F0E552A5EC15F0C7
:101C2000000946E1002A0050EA6AA00FE96E000EA2
:101C3000EA22EF50E66EC3EC15F0E552A5EC15F084
:101C4000000936E1002A0050EA6AA00FE96E000E92
:101C5000EA22EF50E66EC3EC15F0E552A5EC15F064
:101C6000000926E1E5EC15F0010E00011310E66E07
:101C7000C3EC15F0E552A5EC15F0000919E10001DF
:101C8000146A0D50E66E08EC15F0E5520D500EE0AA
:101C9000AEEC15F0F350E66E08EC15F0E5520D5081
:101CA000010802E200EC16F00D06F0D7FAEC15F090
:101CB000A5EC15F0000910E0000114500DE0FD0E38
:101CC000E66E08EC15F0E5520028EA6AA00FE96E0E
:101CD000000EEA22040EEF6EEFEC15F00DD0FE0EB2
:101CE000E66E08EC15F0E5520028EA6AA00FE96EEE
:101CF000000EEA22040EEF6EFBEF14F02D0EE66EDE
:101D000008EC15F0E552002A0050EA6AA00FE96ECF
:101D1000000EEA22EF500D6E020E00240D24286EF4
:101D20000001FD51285C50E2A1EC15F0002A0050A2
:101D3000EA6AA00FE96E000EEA22EF50FE0BE66E93
:101D4000C3EC15F0E552A5EC15F000092BE1002AD3
:101D50000050EA6AA00FE96E000EEA22EF50E66E2C
:101D6000C3EC15F0E552A5EC15F000091BE10D5090
:101D7000E66E08EC15F0E5520D5014E0002A005014
:101D8000EA6AA00FE96E000EEA22EF50E66EC3EC9D
:101D900015F0E552A5EC15F0000902E00D6802D03F
:101DA0000D06EAD70D500DE0FD0EE66E08EC15F0BD
:101DB000E5520028EA6AA00FE96E000EEA22040E3E
:101DC000EF6EEFEC15F00DD0FE0EE66E08EC15F0A0
:101DD000E5520028EA6AA00FE96E000EEA22040E1E
:101DE000EF6EFBEF14F02F0EE66E08EC15F0E552E7
:101DF0000028286E0001FD51285C3BE2002A0050BB
:101E0000EA6AA00FE96E000EEA22EF500D6EFF0E97
:101E10000D5C09E19368948C948E010E066E0001AE
:101E2000640EEC6F25D0E50E936E0DA602D08A826B
:101E300001D08A92949C8B9C949E0C0E0D140001F0
:101E4000EC6F030E0D160D5003E1120E066E10D04E
:101E50000D0403E1080E066E0BD0020E0D5C03E1CB
:101E6000050E066E05D0030E0D5C02E1020E066E35
:101E70000DD0FE0EE66E08EC15F0E5520028EA6A79
:101E8000A00FE96E000EEA22040EEF6EFBEF14F0D5
:101E9000300EE66E08EC15F0E5520028286E0001C1
:101EA000FD51285C23E2002A0050EA6AA00FE96E87
:101EB000000EEA22EF500D6E0D50E66E08EC15F0A4
:101EC000E5520D5005E1E66A08EC15F0E5520DD03B
:101ED00093800D500AE0E66A16EC16F0E552E66EC5
:101EE00008EC15F0E5520D06F4D70DD0FE0EE66EA7
:101EF00008EC15F0E5520028EA6AA00FE96E000E22
:101F0000EA22040EEF6EFBEF14F0310EE66E08ECE1
:101F100015F0E552002A0050EA6AA00FE96E000EA3
:101F2000EA22EF500D6E00500D24286E0001FD5185
:101F3000285C17E20D50E66E08EC15F0E552949E11
:101F40000D500EE0002A0050EA6AA00FE96E000E64
:101F5000EA22EF50E66E16EC16F0E5520D06F0D7C9
:101F60000DD0FE0EE66E08EC15F0E5520028EA6A88
:101F7000A00FE96E000EEA22040EEF6EFBEF14F0E4
:101F8000320EE66E08EC15F0E552020E0024286EC3
:101F90000001FD51285C21E2002A0050EA6AA00FEE
:101FA000E96E000EEA22EF508A6E002A0050EA6ABB
:101FB000A00FE96E000EEA22EF500D6EC00E0D1458
:101FC000286E3F0E8B1428108B6E380E0D14286E61
:101FD000C70E89142810896E0DD0FE0EE66E08EC2F
:101FE00015F0E5520028EA6AA00FE96E000EEA2219
:101FF000040EEF6EFBEF14F0330EE66E08EC15F0F6
:10200000E552030E0024286E0001FD51285C6BE2AE
:10201000002A0050EA6AA00FE96E000EEA22EF5093
:102020000D6E002A0050EA6AA00FE96E000EEA2247
:10203000EFCF14F0002A0050EA6AA00FE96E000EFC
:10204000EA22EFCF13F001500D240D24286E400E2C
:10205000285C3BE20D50E66E08EC15F0E5520D50A1
:1020600033E0200EE66E16EC16F0E55214C0E6FFE3
:1020700016EC16F0E55213C0E6FF16EC16F0E5522A
:10208000E66A16EC16F0E552E66E08EC15F0E5523D
:10209000280EE66E16EC16F0E55214C0E6FF16ECBC
:1020A00016F0E55213C0E6FF16EC16F0E552E66AAC
:1020B00016EC16F0E552E66E08EC15F0E552132A20
:1020C000000E14220D06CBD70DD0FE0EE66E08ECE6
:1020D00015F0E5520028EA6AA00FE96E000EEA2228
:1020E000040EEF6E0DD0FE0EE66E08EC15F0E55214
:1020F0000028EA6AA00FE96E000EEA22040EEF6ED5
:10210000FBEF14F0340EE66E08EC15F0E552002AF1
:102110000050EA6AA00FE96E000EEA22EF500D6E41
:1021200000500D240D24020F286E0001FD51285C83
:1021300055E20D50E66E08EC15F0E552002A00500D
:10214000EA6AA00FE96E000EEA22EFCF14F0002A2F
:102150000050EA6AA00FE96E000EEA22EFCF13F0FA
:102160000D503BE0400EE66E16EC16F0E55214C042
:10217000E6FF16EC16F0E55213C0E6FF16EC16F07B
:10218000E552002A0050EA6AA00FE96E000EEA222A
:10219000EF50E66E16EC16F0E552480EE66E16ECC1
:1021A00016F0E55214C0E6FF16EC16F0E55213C027
:1021B000E6FF16EC16F0E552002A0050EA6AA00F7E
:1021C000E96E000EEA22EF50E66E16EC16F0E552CC
:1021D000132A000E14220D06C3D70DD0FE0EE66E94
:1021E00008EC15F0E5520028EA6AA00FE96E000E2F
:1021F000EA22040EEF6EFBEF14F0350EE66E08ECEB
:1022000015F0E5520028286E0001FD51285C11E20E
:10221000002A0050EA6AA00FE96E000EEA22EF5091
:102220000D6EFF0E0D5C02E18A9602D093968A86AF
:102230000CD0FE0EE66EECDBE5520028EA6AA00F39
:10224000E96E000EEA22040EEF6ED5D3360EE66E6E
:10225000DFDBE552030E0024286E0001FD51285CEF
:102260004AE2F29E939A8A9A00008A8C000000004B
:1022700000008A9C00008A8C0000000000008A9CFC
:1022800000008A8C0000000000008A9C00008A8CFC
:102290000000000000008A9C002A0050EA6AA00F9B
:1022A000E96E000EEA22EFCF14F0002A0050EA6A2D
:1022B000A00FE96E000EEA22EFCF13F0002A0050C3
:1022C000EA6AA00FE96E000EEA22EF500E6E180EB9
:1022D0000D6E143213320E32D8A0819AD8B0818A92
:1022E0000000818C000000000000819C0D2EF1D7C1
:1022F0008A9AF28E0CD0FE0EE66E8ADBE55200283A
:10230000EA6AA00FE96E000EEA22040EEF6E73D3A4
:102310003E0EE66E7DDBE552030E0024286E0001C2
:10232000FD51285C56E2F29E939A8A9A00008A8CAC
:102330000000000000008A9C00008A8C0000000061
:1023400000008A9C00008A8C0000000000008A9C2B
:1023500000008A8C0000000000008A9C002A0050C7
:10236000EA6AA00FE96E000EEA22EFCF14F0002A0D
:102370000050EA6AA00FE96E000EEA22EFCF13F0D8
:10238000002A0050EA6AA00FE96E000EEA22EF5020
:102390000E6E180E0D6E143213320E32D8A0819AC2
:1023A000D8B0818A0000818C000000000000819C70
:1023B0000D2EF1D78A9A0D6A380E0D5C08E20000E6
:1023C0008A8C0000000000008A9C0D2AF5D7F28E4E
:1023D0000CD0FE0EE66E1CDBE5520028EA6AA00F68
:1023E000E96E000EEA22040EEF6E05D33F0EE66E94
:1023F0000FDBE552002A0050EA6AA00FE96E000EDA
:10240000EA22EF500D6E3F0E0D140E6E00500E249A
:102410000E240E24286E0001FD51285C01E386D0B5
:10242000C00E0D14E76E080EE7CFDBFF080EDB5081
:10243000400806E11C0EF36E080EF3CFDBFF13D04D
:10244000080EDB50800806E1380EF36E080EF3CF5D
:10245000DBFF09D0080EDB50C00805E1540EF36E17
:10246000080EF3CFDBFFF29E939A3F0E0D14E76E3A
:10247000070EE7CFDBFF070EDB5056E08A9A00001D
:102480008A8C0000000000008A9C00008A8C0000FA
:10249000000000008A9C00008A8C00000000000000
:1024A0008A9C00008A8C0000000000008A9C002AA0
:1024B0000050EA6AA00FE96E000EEA22EFCF14F096
:1024C000002A0050EA6AA00FE96E000EEA22EFCF60
:1024D00013F0002A0050EA6AA00FE96E000EEA220B
:1024E000EF500E6E180E0D6E143213320E32D8A04D
:1024F000819AD8B0818A0000818C00000000000021
:10250000819C0D2EF1D78A9A080EDB500D6E0D506E
:1025100008E000008A8C0000000000008A9C0D0684
:10252000F6D7070EDB06A7D7F28E0CD0FE0EE66EAE
:102530006FDAE5520028EA6AA00FE96E000EEA227F
:10254000040EEF6E58D2370EE66E62DAE552F29E56
:10255000939A8A8A00008A8C0000000000008A9CFE
:102560008A9A0D6A0B0E0D5C08E200008A8C00004E
:10257000000000008A9C0D2AF5D7938A100E0D6E7C
:10258000818C000000000000D89081BAD8801432FD
:102590001332819C0D2EF4D78A9AF28E14C0E6FF76
:1025A00037DAE55213C0E6FF33DAE55224D2380EAB
:1025B000E66E2EDAE552F29E939A8A9A0D6A1C0E06
:1025C0000D5C08E200008A8C0000000000008A9C7C
:1025D0000D2AF5D7F28E0FD2390EE66E19DAE552D2
:1025E000002A0050EA6AA00FE96E000EEA22EF50BE
:1025F0000D6E00500D240D24286E0001FD51285C45
:1026000048E2F29E939A090E0DC0DBFF090EDB50E3
:102610003CE0002A0050EA6AA00FE96E000EEA22B0
:10262000EFCF14F0002A0050EA6AA00FE96E000E06
:10263000EA22EFCF13F0100E0D6E13361436D8A029
:10264000819AD8B0818A0000818C06C00EF00E06F7
:1026500009E0000000000000000000000000000091
:102660000000F5D7819C06C00EF00E0609E00000C0
:102670000000000000000000000000000000F5D78E
:102680000D2EDBD7090EDB06C1D78A9A938AF28E0C
:102690000CD0FE0EE66EBCD9E5520028EA6AA00F07
:1026A000E96E000EEA22040EEF6EA5D13A0EE66E38
:1026B000AFD9E552002A0050EA6AA00FE96E000E79
:1026C000EA22EF500D6E0001FD51005C45E2015021
:1026D0000D240D24286E400E285C3EE20D50E66E5F
:1026E00097D9E552F29E938A0A0E0DC0DBFF0A0EBF
:1026F000DB5030E0100E0D6E818C06C00EF00E0621
:1027000009E00000000000000000000000000000E0
:102710000000F5D7D89081BAD88013361436819C42
:1027200006C00EF00E0609E00000000000000000E8
:102730000000000000000000F5D70D2EDDD714C00A
:10274000E6FF66D9E55213C0E6FF62D9E5520A0EEC
:10275000DB06CDD7F28E0CD0FE0EE66E59D9E552CF
:102760000028EA6AA00FE96E000EEA22040EEF6E5E
:1027700042D13B0EE66E4CD9E552C50E936E8A6A85
:10278000949E39D13C0EE66E43D9E552002A0050A2
:10279000EA6AA00FE96E000EEA22EF500D6E0D04FA
:1027A0000024E8380F0B286E0001FD51285C22E25E
:1027B000F29E0E6A0D5000081BE20E500BE1002A3B
:1027C0000050EA6AA00FE96E000EEA22EFCF13F084
:1027D000080E0E6E1336D8A08B9ED8B08B8E8A82D0
:1027E00000000000000000008A920D060E06E2D7ED
:1027F000F28E0CD0FE0EE66E0BD9E5520028EA6A86
:10280000A00FE96E000EEA22040EEF6EF4D03D0E2A
:10281000E66EFED8E5520028286E0001FD51285CC6
:1028200038E20D040124E8380F0B296E400E295CB4
:1028300030E2002A0050EA6AA00FE96E000EEA2298
:10284000EF500D6E0D50E66EE3D8E552F29E00019A
:10285000136A080E0E6E0D50000819E28A820000FD
:102860000000000000008A92D89081B0D880133612
:102870000E060E5002E00D0408E1080E0E6E13C0A5
:10288000E6FFC6D8E5520001136A0D06E4D7F28EC2
:102890000CD0FE0EE66EBCD8E5520028EA6AA00F06
:1028A000E96E000EEA22040EEF6EA5D0400E015C28
:1028B00009E20150EA6A600FE96E000EEA22EF6A4F
:1028C000012AF4D7016A04010CBF0BD0400EE66E5A
:1028D000600EE66E000EE66E4EEC16F0E552E55226
:1028E000E552006888D0F00EE66E92D8E552020EEE
:1028F0000024286E0001FD51285C25E2002A0050CA
:10290000EA6AA00FE96E000EEA22EFCF14F0002A67
:102910000050EA6AA00FE96E000EEA22EFCF13F032
:1029200014C0E6FF75D8E55213C0E6FF71D8E55232
:1029300014C0EAFF13C0E9FFEF500D6E0D50E66EB4
:1029400067D8E5520CD0FE0EE66E62D8E55200283C
:10295000EA6AA00FE96E000EEA22040EEF6E4BD079
:10296000F10EE66E55D8E552030E0024286E0001E4
:10297000FD51285C2EE2002A0050EA6AA00FE96EA1
:10298000000EEA22EFCF14F0002A0050EA6AA00FEE
:10299000E96E000EEA22EFCF13F0002A0050EA6A37
:1029A000A00FE96E000EEA22EF500D6E14C0E6FF94
:1029B0002FD8E55213C0E6FF2BD8E5520D50E66E36
:1029C00027D8E55214C0EAFF13C0E9FF0D50EF6E9F
:1029D0000CD0FE0EE66E1CD8E5520028EA6AA00F65
:1029E000E96E000EEA22040EEF6E05D0FE0EE66ED2
:1029F0000FD8E55200D0002A01D089920B0EE15C7D
:102A000002E2E16AE552E16EE552E7CFD9FF12003A
:102A1000D9CFE6FFE1CFD9FF0001EA510AE00A0E63
:102A2000025C11E20250022AEA6AE00FE96E000E2F
:102A300006D00150012AEA6A600FE96E000EEA2210
:102A4000FE0EDBCFEFFF400E015C13E1016A0401D3
:102A50000CBF0CD0400EE66E600EE66E000EE66E09
:102A60004EEC16F0E552E552E55203D00001010E9E
:102A7000EA6FE552E7CFD9FF1200D8CFE4FFE0CFED
:102A8000E4FFE46EDACFE4FFE2CFDAFFF3CFE4FF56
:102A9000F4CFE4FFE652C282F40ECF6E480ECE6E43
:102AA000C2B2FED79E9007C009F008C00AF0C4CF9A
:102AB00008F0C3CF07F00B50075E0C50085AE10E28
:102AC0000902F4CF10F0F3CF0FF0E10E0A02F35039
:102AD00010260F50032610500422E40E0702F4CFF4
:102AE00010F0F3CF0FF0E40E0802F35010260F5051
:102AF000035E1050045A0001043402E3036A046ABE
:102B000005500001D880045402E205C004F004C05E
:102B1000BEFF00010350E840E8403F0B300B2C6E35
:102B2000CF0EBD142C10BD6EE552E5CFF4FFE5CFFE
:102B3000F3FFE5CFDAFFE550E5CFE0FFE5CFD8FFC3
:102B400010008A90939007EF16F08A9293929380E8
:102B50005ED893825CD881B0FF0C000C080E166E14
:102B60008A929392938053D8938251D8159E15469A
:102B7000159081B015801606F4E1296A15C0F3FF9F
:102B800029C0F4FF1200D9CFE6FFE1CFD9FF080E2C
:102B9000166EFE0EDB50156E8A921537D8A006D041
:102BA0009392938034D8938232D806D093928A90AD
:102BB00093902DD893822BD816061650EEE1000E76
:102BC00000D0E552E7CFD9FF12008A92939293800A
:102BD0001ED893821CD88A90939007EF16F08A92A1
:102BE00093928A90939013D8938211D893800FD8A0
:102BF00007EF16F0939293800AD8938207EF16F0AE
:102C000093928A90939003D8938207EF16F0ECC0CA
:102C100017F0175009E0000000000000000000005D
:102C2000000000001706F5D700D01200D9CFE6FF4C
:102C3000E1CFD9FFF29EFE0EDB50156EECC00FF017
:102C4000080E0E6E0FB404D015AE829E15BE828E95
:102C50000650176E172EFED70FA681820FB68192EF
:102C60000FA405D015AE829E15BE828E02D0813093
:102C700015360650176E172EFED70FA681920FB687
:102C800081820FA402D0813015360E2EDBD7F28E52
:0C2C9000155000D0E552E7CFD9FF12002C
:042C9C00D9CFE6FFA7
:102CA000E1CFD9FFE65204010CAF02D0000E33D0C1
:102CB000FC0EDB50400805E2400EF36EFC0EF3CF35
:102CC000DBFFDF6AFC0EDB50DF5C19E2DF50E76EF2
:102CD000FD0EDBCFE9FFFE0EDBCFEAFFE750E92672
:102CE000000EEA22EF50E66EDF50EA6A680FE96EE6
:102CF000040EEA22E552E750EF6EDF2AE3D7FC0E1E
:102D0000DBCF0DF404010CAD02D0880E01D0C80E4B
:102D10000C6FFC0EDB50E552E552E7CFD9FF1200F5
:102D2000D9CFE6FFE1CFD9FF0101536B040108BF02
:102D300032D0FC0EDBCF28F00951D880285403E2B2
:102D4000FC0E09C4DBFF0101536BFC0EDB50535D2D
:102D500019E25351EA6A280FE96E040EEA22EF5095
:102D6000E66E5351E76EFD0EDBCFE9FFFE0EDBCFC3
:102D7000EAFFE750E926000EEA22E552E750EF6E3F
:102D8000532BE3D70401400E096F08AD02D0880E23
:102D900001D0C80E086F01015351E552E7CFD9FFAA
:102DA00012000101536B1E0E716E0401400E096F7B
:102DB000280E286E040E28C00AF40B6F880E086FC8
:102DC000680E286E040E28C00EF40F6F400E0C6FB4
:102DD0001200D9CFE6FFE1CFD9FFE65212C4DFFFE0
:102DE0000101010E476FE552E552E7CFD9FF12000E
:102DF000D9CFE6FFE1CFD9FFE65212C4DFFF0101D0
:102E0000010E476FE552E552E7CFD9FF1200D9CF47
:102E1000E6FFE1CFD9FF020EE1261F0E04011015D7
:102E2000010865E1145163E111C4DFFF060EDF5CA8
:102E300023E1010E13C4DBFFDB50210809E101018E
:102E4000010E476F650E4A6F360E4B6F090E0CD0A0
:102E5000010EDB5022080DE10101010E476F850EC6
:102E60004A6F360E4B6F220E4E6F4F6B010E506F36
:102E700003D0010EDB502308600E0401101520085A
:102E800036E1DF0402E1A5DF32D0090EDF5C05E1A7
:102E90000101010E466FACDF2AD0020EDF5C07E1B4
:102EA0000101010E476F510E486F010E12D00A0E3C
:102EB000DF5C06E10101010E476F13C451F117D029
:102EC000030EDF5C0CE10101010E476F520E486FEB
:102ED000010E496F010E4E6F4F6B506B08D00B0EF9
:102EE000DF5C05E10101010E476F12C452F1020ED1
:102EF000E15C02E2E16AE552E16EE552E7CFD9FF1B
:102F00001200D9CFE6FFE1CFD9FF020EE126800EF5
:102F10000401105D3CE113C4DFFF010E12C4DBFFAE
:102F2000DF0409E10101010E476F4A0E4A6F360EB8
:102F30004B6F120E28D0020EDF5C09E10101010E79
:102F4000476F5C0E4A6F360E4B6F290E1CD0030E76
:102F5000DF5C1DE10101010E476FDB5004E1A70EAC
:102F60004A6F360E0AD0010EDB0404E1AB0E4A6F45
:102F7000360E03D0CB0E4A6F360E4B6F4AC1F6FFAA
:102F8000F76E0800F5504E6F4F6B010E506F020E3A
:102F9000E15C02E2E16AE552E16EE552E7CFD9FF7A
:102FA0001200D9CFE6FFE1CFD9FF030EE1261F0EB5
:102FB00004011015DF6E206B216BDF500DE1010164
:102FC000010E476F435102E004012081010141518C
:102FD00035E00401208332D0DF0404E10101010E59
:102FE000476F2CD0020EDF5C29E10F0E1415E76E3F
:102FF000010EE7CFDBFF800E1415E76E020EE7CF60
:10300000DBFF0101010E476FDB50080DF3504C6FE1
:103010004D6B000E4C27040E4D23020EDB5004E0D6
:10302000040E4C27000E4D234CC1E9FF4DC1EAFFB1
:10303000EF50040B03E00401010E206F0101475122
:1030400008E0200E486F040E496F020E4E6F4F6B62
:10305000506B030EE15C02E2E16AE552E16EE5527B
:10306000E7CFD9FF1200D9CFE6FFE1CFD9FF040E99
:10307000E1261F0E04011015DF6E010E12C4DBFFE6
:10308000DF5011E1010EDB044CE10101010E476F3D
:10309000030E0401115D04E10101010E416F41D0F5
:1030A0000101416B3ED0020EDF5C3BE10F0E1415B7
:1030B000E76E020EE7CFDBFF800E1415E76E030EFE
:1030C000E7CFDBFF010EDB502CE1020EDB5029E0E5
:1030D0000101010E476F020EDB50080DF3504C6FDB
:1030E0004D6B000E4C27040E4D23030EDB5004E005
:1030F000040E4C27000E4D23030E0401115D02E166
:10310000840E0AD0030EDB0406E14CC1E9FF4DC179
:10311000EAFFEF6A06D0880E4CC1E9FF4DC1EAFF15
:10312000EF6E040EE15C02E2E16AE552E16EE55207
:10313000E7CFD9FF1200D9CFE6FFE1CFD9FFE652A2
:1031400011C4DFFF600E0401101554E1050EDF5CB1
:1031500008E10101010E476F040E406F12C442F1F5
:1031600049D0060EDF5C02E1CCDE44D0090EDF5C04
:103170000EE10101010E476F12C444F1445103E115
:10318000040E406F37D0050E406F0BDE33D0080EB3
:10319000DF5C07E10101010E476F440E486F010E2D
:1031A00017D0DF5002E1FDDE25D0DF0403E0030E7F
:1031B000DF5C02E158DF1ED00A0EDF5C0FE1010187
:1031C000010E476F0401206B0101200E486F040EB1
:1031D000496F010E4E6F4F6B506B0CD00B0EDF5CC6
:1031E00004E10101010E476F05D0070EDF5C02E02C
:1031F0000C0EDF5CE552E552E7CFD9FF1200D9CFC4
:10320000E6FFE1CFD9FF030EE1260101080E4E5D76
:10321000000E4F5907E2010E4EC1DBFF020E4FC1F7
:10322000DBFF07D0080EF36E010EF3CFDBFF020EBB
:10323000DB6AFC0E04010417010E020EDBCF29F03D
:10324000000E030E291629C028F029500413FF0E82
:10325000E76E010EDBCF28F0020EE750281628C0DB
:1032600005F4200E286E040E2B6A28C006F4076FA2
:10327000010EDB5001014E5F020EDB504F5B200E52
:103280004C6F040E4D6F500524E1DF6ADFCF28F04C
:10329000010EDBCF29F0020EDBCF2AF02950285C8B
:1032A000000E2A5439E24AC1F6FF4BC1F7FF4A2B00
:1032B000000E4B230800F550E66E4CC1E9FF4DC1EE
:1032C000EAFF4C2B000E4D23E552E750EF6EDF2A4C
:1032D000DDD7DF6ADFCF28F0010EDBCF29F0020E49
:1032E000DBCF2AF02950285C000E2A5415E248C191
:1032F000E9FF49C1EAFF482B000E4923EF50E66E73
:103300004CC1E9FF4DC1EAFF4C2B000E4D23E552A5
:10331000E750EF6EDF2ADED7030EE15C02E2E16ADE
:10332000E552E16EE552E7CFD9FF1200D9CFE6FFB3
:10333000E1CFD9FF040EE1260401F3500111E66E3E
:10334000D950020FE96EDACFEAFFE552E750EE6E90
:10335000ED6A020EDB5001014E27030EDB504F23B6
:10336000200E486F040E496FDE6ADD6ADECF28F05A
:10337000DDCF29F0020EDBCF2AF0030EDBCF2BF0DE
:103380002A50285C2B50295818E248C1E9FF49C14E
:10339000EAFF482B000E4923EF50E66E4CC1E9FFCF
:1033A0004DC1EAFF4C2B000E4D23E552E750EF6E66
:1033B000DF2A010EDBE3DB2AD9D7040EE15C02E24F
:1033C000E16AE552E16EE552E7CFD9FF1200040150
:1033D000049F009F0101456B476B466B4E6B4F6B23
:1033E000AADE15DD010147510EE10401080E016F4F
:1033F000100E286E040E2A6A2B6A28C002F4036F8E
:10340000840E006F30D0040110AF2FD001014E5157
:103410000401165D01014F510401175904E216C45D
:103420004EF117C44FF1EBDE0101020E456F0401AE
:10343000080E016F100E286E040E296E2A6A2B6A80
:103440002A6A2B6A28C002F4036F800E006F200ED8
:10345000286E040E296E2A6A2B6A2A6A2B6A28C0F3
:1034600006F4076FC80E046F16D00101010E456FF8
:103470000401056BC80E046F080E016F200E286E44
:10348000040E296E2A6A2B6A2A6A2B6A28C002F463
:10349000036FC80E006F6D9812000101456B0401A7
:1034A000080E016F100E286E040E28C002F4036F80
:1034B000880E006F046B1200D9CFE6FFE1CFD9FF71
:1034C000020EE1266C5024E13C0E04010015E84098
:1034D000E8403F0BDF6E0D0EDF5C02E178DF35D098
:1034E0000101450531E122DF0101465109E0010EEC
:1034F00012C4DBFF020E0401135D02E0030E135D34
:10350000040100AD02D0880E01D0C80E006F1DD09E
:10351000040E6C5C1AE16E500AE1040E0101405D7C
:1035200006E112C46EFF6E5002E1030E406F020E00
:103530000101455D09E163DE040104AD02D0880E9E
:1035400001D0C80E046F01D0A8DF020EE15C02E2D8
:10355000E16AE552E16EE552E7CFD9FF12006DB6A0
:1035600006D06D6A696A6D860101010E406F010126
:10357000400509E16D50200B06E1686A696A6980BF
:103580006988020E406F12006D926994689412006F
:10359000689C120070A002D080DF7090689A1200C0
:1035A00012006A6A686A9F0E6B6E7B0E696E6E6AA5
:1035B000160E706E68A602D06896FCD76D986DDF07
:1035C0000101416B436B446B030E406F120001011C
:1035D000405101E112006850040B04E06950040BF3
:1035E00001E0D2DF6DB212006850010B04E06950B7
:1035F000010B01E0D6DF6850100B04E06950100B9E
:1036000001E0CEDF6850400B04E06950400B01E060
:10361000BFDF6850200B04E06950200B01E0BADFE7
:103620006850020B04E06950020B01E06892030E3F
:103630000101405D01E212006850080B05E069508D
:0A364000080B02E039DF6896120063
:06364A0012010002000065
:103650000008D8040001010001020001090229004C
:10366000010100A03209040000020300000009214A
:103670000101000122220007058103400001070526
:10368000010340000106A0FF0901A1010903150083
:1036900026FF007508954081020904150026FF00E9
:1036A000750895409102C00403090420034F00707F
:1036B0000065006E002000500072006F006700720D
:1036C0000061006D006D00650072003E034F0070E8
:1036D0000065006E002000500072006F00670072ED
:1036E0000061006D006D0065007200200020005533
:1036F00000530042002000480049004400200063BD
:09370000006C006100730073000D
:0137090000BF
:06370A002A0EF66E000E0F
:10371000F76E000EF86E00010900F550F86F090011
:10372000F550F96F03E1F86701D03DD00900F5507D
:10373000F36F0900F550F46F0900F550F56F0900BB
:103740000900F550E96E0900F550EA6E090009001C
:103750000900F550F66F0900F550F76F09000900F0
:10376000F6CFFAF0F7CFFBF0F8CFFCF0F3C0F6FF9E
:10377000F4C0F7FFF5C0F8FF0001F65302E1F7537C
:1037800007E00900F550EE6EF607F8E2F707F9D703
:10379000FAC0F6FFFBC0F7FFFCC0F8FF0001F80716
:0837A000000EF95BBFD7120017
:0837A800186A26AEDDEF1BF0EC
:1037B000256C261EE86A2622181E21AEE5EF1BF0B6
:1037C000206C211EE86A2122181EFAEC1BF021BE93
:1037D000F5EF1BF018AE000C206C211EE86A2122C8
:1037E0001C6C1D1EE86A1D22000C18BEECEF1BF0BD
:0437F0001988FF0C29
:0C37F4001D6A1C6A100EE76ED89020368B
:1038000021361C361D3625501C5C26501D5805E3FC
:1038100025501C5E26501D5A202AE72EF0D7120094
:103820000F0EC112140E6F6E0101406B0101416B4E
:103830000101446B22EC00F0AFEC1AF06FBE02D035
:0A384000E7EC1AF061EC00F0F7D796
:06384A0011EE00F021EE7A
:1038500000F0F86A199C85EC1BF03AEC1CF010ECB7
:063860001CF0FBD7120072
:0A38660000EE00F00F0EEE6AEA62B9
:04387000FDD712006E
:02387400120040
:0A38760000000000006401000000E3
:0E38800000AB0300000000000000000000008C
:020000040030CA
:0100000022DD
:010001000EF0
:010002003DC0
:010003001EDE
:0100050000FA
:010006008178
:00000001FF
