:020000040000FA
:06000000BCEF1FF012002E
:060008002CEF19F01200BC
:06002A000200373E000059
:10003000FD00000001000000A43F000000000000DF
:0400400018000000A4
:0C0044000001EA6BEB6B8A6A896AF90E16
:10005000926E010EC26E0E0EC16E860EC06EBA6A30
:10006000BD6A010E066E640EEC6FD00EEF6F070EC8
:10007000F06F080EED6F0B0EEE6F000E036E046A4C
:10008000096E0A6A076E086A800ED56E1200F2A425
:1000900018D0F2940001EB2B050E0101005D07E280
:1000A0000A0E0001EB5D03E38974EB6B1200050E91
:1000B0000101005D06E12E0E0001EB5D02E3897493
:1000C000EB6B1200E4DF050E0101005D66E36D508D
:1000D000020B01E012000001EA5129E0800E040148
:1000E0000C1525E1400EE66E600EE66E000EE66E23
:1000F000E5EC19F0E552E552E5520001EA6B016AC0
:100100000250015C13E20150EA6AE00FE96E000E52
:10011000EA22EF50E66E0150EA6A600FE96E000EC7
:10012000EA22E552E750EF6E012AEAD7026A00019F
:10013000FD51005C31E301501FE0400E015C09E21B
:100140000150EA6A600FE96E000EEA22EF6A012AA6
:10015000F4D7016A04010CBF0CD0400EE66E600EAD
:10016000E66E000EE66EE5EC19F0E552E552E5525A
:1001700003D00001010EEA6F400EE66EA00EE66E9F
:10018000000EE66E27EC1AF0E552E552E55200014A
:10019000FD6FE85001E0006A01D81200D9CFE6FFF8
:1001A000E1CFD9FF0F0EE1260001FD51005C02E313
:1001B000ECEF18F00001EA5102E0ECEF18F0898250
:1001C0000050EA6AA00FE96E000EEA22EF50F10A31
:1001D00002E19FEF18F0010A02E162EF18F0020A53
:1001E00002E145EF18F0B60A02E18DEF16F0070ABA
:1001F00002E172EF16F0010A02E112EF16F0030AB3
:1002000002E1BBEF15F0010A02E18CEF15F07D0A67
:1002100002E13DEF15F0010A02E1F7EF14F0070AE1
:1002200002E1ECEF14F0010A02E183EF14F0030A9B
:1002300002E116EF14F0010A02E1FFEF13F00F0ADA
:1002400002E1C7EF13F0080A02E117EF13F0010A09
:1002500002E1A6EF12F0080A02E141EF12F0030AF0
:1002600002E1E1EF11F0010A02E166EF11F0070A85
:1002700002E1E0EF10F0010A02E1A4EF10F0030A3E
:1002800002E169EF10F0010A02E12CEF10F01F0A01
:1002900002E1D7EF0FF0020A02E13FEF0FF0030A8D
:1002A00002E177EF0EF0020A02E19EEF0DF0070A7D
:1002B00002E142EF0DF0010A02E1EFEF0CF0030A58
:1002C00002E19EEF0CF0010A02E11DEF0CF00F0AB3
:1002D00002E19DEF0BF0010A02E142EF0BF0030A8D
:1002E00002E1FBEF0AF0010A02E195EF0AF0070ACA
:1002F00002E15FEF0AF0010A02E129EF0AF0030AC6
:1003000002E1E3EF09F0010A02E15CEF08F03F0AC5
:1003100002E12BEF08F0010A02E111EF08F0030AF5
:1003200002E1F5EF07F0010A02E1DBEF07F0070A4F
:1003300002E1BFEF07F0010A02E1A1EF07F0030AB3
:1003400002E185EF07F0010A02E16BEF07F00F0A07
:1003500002E122EF07F0010A02E109EF07F0030AC8
:1003600002E1BFEF06F0010A02E177EF06F0070AAB
:1003700002E11AEF06F0010A02E1BCEF05F0030A00
:1003800001E1A0D3010A01E184D31F0A01E105D3F1
:10039000010A01E1B6D2030A01E11BD2010A01E11F
:1003A000F7D1070A01E1C5D1010A01E1AAD1030A87
:1003B00001E191D1010A01E178D10F0A01E1F7D001
:1003C000010A01E1E8D0030A01E1BFD0010A01E11D
:1003D00099D0070A65E0010A42E0030A0AE0010A2F
:1003E00002E0E5EF18F0E66AF7EC18F0E552EAEF04
:1003F00018F0010EE66EF7EC18F0E55223DEE66A1F
:10040000F7EC18F0E552080EE66EF7EC18F0E5523E
:10041000E66AF7EC18F0E552E66AF7EC18F0E552F8
:10042000E66AF7EC18F0E552030EE66EF7EC18F00A
:10043000E552200EE66EF7EC18F0E552520EE66E2D
:10044000F7EC18F0E552530EE66EF7EC18F0E552B3
:10045000540EE66EF7EC18F0E552EAEF18F0020ED3
:10046000E66EF7EC18F0E552E66AF7EC18F0E552A4
:10047000080EE66EF7EC18F0E552E66AF7EC18F0B5
:10048000E552E66AF7EC18F0E552E66AF7EC18F088
:10049000E552030EE66EF7EC18F0E552EAEF18F0BD
:1004A000030EE66EF7EC18F0E5520028286E000106
:1004B000FD51285C18E2002A0050EA6AA00FE96E9C
:1004C000000EEA22EFCFDFFF440EDF5C06E2DFCF53
:1004D000E6FFF7EC18F0E55205D0FE0EE66EF7ECFD
:1004E00018F0E5520DD0FE0EE66EF7EC18F0E5526E
:1004F0000028EA6AA00FE96E000EEA22040EEF6EF1
:10050000EAEF18F0400E015C09E20150EA6A600F60
:10051000E96E000EEA22EF6A012AF4D7016A0401AB
:100520000CBF0CD0400EE66E600EE66E000EE66E5E
:10053000E5EC19F0E552E552E55203D00001010E59
:10054000EA6FFDC000F0EAEF18F0050EE66EF7EC7A
:1005500018F0E552000E036E046A096E0A6A076E0F
:10056000086A840ECB6E040ECA6E0B0EBC6EB80EFB
:10057000BB6E9E9C9D8CB36AB26A890EB16E0B0EE7
:10058000BA6EBE6A0C0EBD6E9494C00EF26E1E0E54
:10059000D26EEAEF18F0060EE66EF7EC18F0E552B0
:1005A0009D9CBA6ABD6A0E0ED26EEAEF18F0070E75
:1005B000E66EF7EC18F0E552030E0024286E0001F9
:1005C000FD51285C63E2002A0050EA6AA00FE96E40
:1005D000000EEA22EF500D6E0D50030A40E0010AB2
:1005E0002BE0030A16E0010A01E04CD0002A00507B
:1005F000EA6AA00FE96E000EEA22EF50066E002AAA
:100600000050EA6AA00FE96E000EEA22EFCFECF08C
:100610003CD0002A0050EA6AA00FE96E000EEA22E0
:10062000EFCFF0F0002A0050EA6AA00FE96E000E4A
:10063000EA22EFCFEFF029D0002A0050EA6AA00F9B
:10064000E96E000EEA22EFCFF2F0002A0050EA6ACB
:10065000A00FE96E000EEA22EFCFF1F016D0002ACB
:100660000050EA6AA00FE96E000EEA22EFCFEDF02B
:10067000002A0050EA6AA00FE96E000EEA22EFCFCE
:10068000EEF003D0020E002600D00DD0FE0EE66E76
:10069000F7EC18F0E5520028EA6AA00FE96E000EA8
:1006A000EA22040EEF6EEAEF18F0080EE66EF7ECA1
:1006B00018F0E552F29E06500D6E0D5009E0000054
:1006C0000000000000000000000000000D06F5D74B
:1006D000F28EEAEF18F0090EE66EF7EC18F0E5522C
:1006E000F29EECC00DF00D5009E00000000000008B
:1006F00000000000000000000D06F5D7F28EEAEFC2
:1007000018F00A0EE66EF7EC18F0E552F29EEFC014
:1007100013F0F0C014F01350141008E000000000B3
:10072000000000001306000E145AF5D7F28EEAEF0F
:1007300018F00B0EE66EF7EC18F0E5520028286E64
:100740000001FD51285C15E2002A0050EA6AA00F62
:10075000E96E000EEA22EF500D6E0D5009E0000028
:100760000000000000000000000000000D06F5D7AA
:100770000DD0FE0EE66EF7EC18F0E5520028EA6A9E
:10078000A00FE96E000EEA22040EEF6EEAEF18F0F9
:10079000A1940C0EE66EF7EC18F0E552C282C2B2DC
:1007A000FED7A1A40AD0E66AF7EC18F0E552E66A93
:1007B000F7EC18F0E552EAEF18F0C450E66EF7ECEB
:1007C00018F0E552C350E66EF7EC18F0E552EAEF88
:1007D00018F00D0EE66EF7EC18F0E5520028286EC2
:1007E0000001FD51285C01E37DD09D50400B03E0EA
:1007F000D250200B06E1FE0EE66EF7EC18F0E55243
:1008000070D0A194002A0050EA6AA00FE96E000E91
:10081000EA22EF50136E146A13C00BF014C00CF0F0
:10082000480E0C02F3CF0CF0480E0B02F3CF0BF086
:10083000F4500C260A0E256E266A0BC020F00CC060
:1008400021F06BEC1FF020C00BF021C00CF00F0E5C
:100850000D6EE80E136E030E146E1350141008E0A4
:1008600000000000000000001306000E145AF5D727
:100870000D06083404E207500E08000E085408E381
:10088000D880085004E7F20E075CFF0E085802E219
:100890000D50DFE1A1A405D0E66AF7EC18F0E552AF
:1008A00020D0083404E207500E08000E085408E374
:1008B000D880085004E7F20E075CFF0E085806E2E5
:1008C000FE0EE66EF7EC18F0E5520BD00050EA6A27
:1008D000A00FE96E000EEA22EF50E66EF7EC18F07A
:1008E000E5520DD0FE0EE66EF7EC18F0E55200284A
:1008F000EA6AA00FE96E000EEA22040EEF6EEAEF3C
:1009000018F00E0EE66EF7EC18F0E5520028286E8F
:100910000001FD51285C32E2002A0050EA6AA00F73
:10092000E96E000EEA22EF500D6E010E0D1402E08A
:10093000000E01D0010EE8B08B82E8A08B92020E6F
:100940000D1402E0010E01D0000EE8B09482E8A080
:100950009492040E0D1402E0010E01D0000EE8B0D6
:100960008B80E8A08B90080E0D1402E0010E01D0E0
:10097000000EE8B09480E8A094900DD0FE0EE66ED4
:10098000F7EC18F0E5520028EA6AA00FE96E000EB5
:10099000EA22040EEF6EEAEF18F00F0EE66EF7ECA7
:1009A00018F0E5520028286E0001FD51285C62E233
:1009B000002A0050EA6AA00FE96E000EEA22EF500A
:1009C000010B02E0010E01D0000EE8B08A8AE8A017
:1009D0008A9A0050EA6AA00FE96E000EEA22EF50F0
:1009E000020B02E0010E01D0000EE8B0938AE8A0ED
:1009F000939A0050EA6AA00FE96E000EEA22EF50C7
:100A0000040B02E0010E01D0000EE8B08A8CE8A0D1
:100A10008A9C0050EA6AA00FE96E000EEA22EF50AD
:100A2000080B02E0010E01D0000EE8B0938CE8A0A4
:100A3000939C0050EA6AA00FE96E000EEA22EF5084
:100A4000100B02E0010E01D0000EE8B08A8EE8A083
:100A50008A9E0050EA6AA00FE96E000EEA22EF506B
:100A6000200B02E0010E01D0000EE8B0938EE8A04A
:100A7000939E0DD0FE0EE66EF7EC18F0E5520028BE
:100A8000EA6AA00FE96E000EEA22040EEF6EEAEFAA
:100A900018F0100EE66EF7EC18F0E5520D6A81BA08
:100AA0000D8093BA0D8281BC0D8493BC0D8681BEEE
:100AB0000D8893BE0D8A0D50E66EF7EC18F0E552E6
:100AC000EAEF18F0110EE66EF7EC18F0E552020EA0
:100AD0000024286E0001FD51285C3FE2002A0050EE
:100AE000EA6AA00FE96E000EEA22EFCF14F0002AA6
:100AF0000050EA6AA00FE96E000EEA22EFCF13F071
:100B0000F29E8A9A8A8C8A9C8A8C8A9C8A8C8A9C7D
:100B10008A8C8A9C8A8C8A9C8A8C8A9C06500D6E50
:100B20000D5009E00000000000000000000000007F
:100B300000000D06F5D78A8C8A9C0E0E0D6E1432BD
:100B40001332819AD8B0818A818C819C0D2EF7D77F
:100B50008A9A8A8C8A9CF28E0DD0FE0EE66EF7EC95
:100B600018F0E5520028EA6AA00FE96E000EEA22AA
:100B7000040EEF6EEAEF18F0120EE66EF7EC18F0C6
:100B8000E552020E0024286E0001FD51285C43E26C
:100B9000002A0050EA6AA00FE96E000EEA22EFCFA9
:100BA00014F0002A0050EA6AA00FE96E000EEA2253
:100BB000EFCF13F0F29E8A9A8A8C8A9C00008A8A70
:100BC0008A8C8A9C00008A9A8A8C8A9C8A8C8A9C4D
:100BD0008A8C8A9C8A8C8A9C06500D6E0D5009E086
:100BE00000000000000000000000000000000D06F2
:100BF000F5D78A8C8A9C0E0E0D6E14321332819AB0
:100C0000D8B0818A818C819C0D2EF7D78A9A8A8CE4
:100C10008A9CF28E0DD0FE0EE66EF7EC18F0E552CF
:100C20000028EA6AA00FE96E000EEA22040EEF6EB9
:100C3000EAEF18F0130EE66EF7EC18F0E552002814
:100C4000286E0001FD51285C43E2002A0050EA6A48
:100C5000A00FE96E000EEA22EFCF13F0F29E8A8A0F
:100C60008A8C8A9C8A8C8A9C00008A9A8A8C8A9CAC
:100C70008A8C8A9C8A8C8A9C8A8C8A9C06500D6EEF
:100C80000D5009E00000000000000000000000001E
:100C900000000D06F5D78A8C8A9C080E0D6E133263
:100CA000819AD8B0818A818C819C0D2EF8D78A9A3E
:100CB0008A8C8A9C8A8C8A9C8A8C8A9C8A8C8A9C44
:100CC0008A8C8A9C8A8C8A9C8A8C8A9CF28E0DD013
:100CD000FE0EE66EF7EC18F0E5520028EA6AA00F67
:100CE000E96E000EEA22040EEF6EEAEF18F0140E21
:100CF000E66EF7EC18F0E552F29E8A9A8A8C8A9C8E
:100D00008A8C8A9C00008A8A8A8C8A9C00008A9A33
:100D10008A8C8A9C8A8C8A9C8A8C8A9C938A0650AC
:100D20000D6E0D5009E00000000000000000000002
:100D3000000000000D06F5D78A8C8A9C0E0E0D6E01
:100D40008A8C8A9CD89081BAD880143213320D2EA6
:100D5000F7D7D89014321332D890143213328A8CC9
:100D6000939A8A9CF28E14C0E6FFF7EC18F0E552D5
:100D700013C0E6FFF7EC18F0E552EAEF18F0150E95
:100D8000E66EF7EC18F0E552F29E8A8A8A8C8A9C0D
:100D900000008A9A8A8C8A9C00008A8A8A8C8A9CA3
:100DA00000008A9A8A8C8A9C8A8C8A9C8A8C8A9C6B
:100DB000938A06500D6E0D5009E0000000000000FF
:100DC00000000000000000000D06F5D78A8C8A9C08
:100DD000080E0D6E8A8C8A9CD89081BAD880133206
:100DE0000D2EF8D78A8C8A9C8A8C8A9C8A8C8A9C45
:100DF0008A8C8A9C8A8C8A9C8A8C8A9C8A8C939AFC
:100E00008A9CF28E13C0E6FFF7EC18F0E552EAEF89
:100E100018F0160EE66EF7EC18F0E552F29E8A9A7C
:100E20008A8C8A9C00008A8A8A8C8A9C8A8C8A9CFA
:100E30008A9A8A8C8A9C8A8C8A9C8A8C8A9CF28E5A
:100E4000EAEF18F0170EE66EF7EC18F0E5520028FE
:100E5000286E0001FD51285C2FE2F29E002A00500E
:100E6000EA6AA00FE96E000EEA22EFCF13F000014C
:100E7000135020E08A9A8A8C8A9C00008A8A8A8C85
:100E80008A9C8A8C8A9C8A9A8A8C8A9C8A8C8A9C64
:100E90008A8C8A9C06500D6E0D5009E000000000FF
:100EA000000000000000000000000D06F5D7000162
:100EB0001306DDD7F28E0DD0FE0EE66EF7EC18F0BD
:100EC000E5520028EA6AA00FE96E000EEA22040E3D
:100ED000EF6EEAEF18F0180EE66EF7EC18F0E55238
:100EE000F29E8A9A8A8C8A9C8A8C8A9C8A8C8A9C9A
:100EF00000008A8A8A8C8A9C00008A9A8A8C8A9C42
:100F00008A8C8A9CF28EEAEF18F0190EE66EF7ECE6
:100F100018F0E552F29E8A8A8A8C8A9C00008A9A8E
:100F20008A8C8A9C8A8C8A9C00008A8A8A8C8A9CF9
:100F300000008A9A8A8C8A9C8A8C8A9CF28EEAEFBC
:100F400018F01A0EE66EF7EC18F0E552F29E8A9A47
:100F50008A8C8A9C00008A8A8A8C8A9C00008A9AE1
:100F60008A8C8A9C00008A8A8A8C8A9C00008A9AD1
:100F70008A8C8A9C8A8C8A9CF28EEAEF18F01B0E6F
:100F8000E66EF7EC18F0E552F29E8A8A8A8C8A9C0B
:100F90008A8C8A9C00008A9A8A8C8A9C00008A8AA1
:100FA0008A8C8A9C00008A9A8A8C8A9C8A8C8A9C69
:100FB000F28EEAEF18F01C0EE66EF7EC18F0E55230
:100FC000F29E8A9A8A8C8A9C00008A8A8A8C8A9CE1
:100FD0008A8C8A9C8A8C8A9C00008A9A8A8C8A9C39
:100FE0008A8C8A9CF28EEAEF18F01D0EE66EF7EC02
:100FF00018F0E552F29E8A8A8A8C8A9C00008A9AAE
:101000008A8C8A9C8A8C8A9C8A8C8A9C00008A8A18
:101010008A8C8A9C00008A9A8A8C8A9CF28EEAEFDB
:1010200018F01E0EE66EF7EC18F0E552F29E8A9A62
:101030008A8C8A9C8A8C8A9C8A8C8A9C00008A8AE8
:101040008A8C8A9C8A8C8A9C00008A9A8A8C8A9CC8
:10105000F28EEAEF18F01F0EE66EF7EC18F0E5528C
:101060000028286E0001FD51285C17E2002A00507C
:10107000EA6AA00FE96E000EEA22EFCF13F0F29EAB
:10108000060E0D6E1332819AD8B0818A818C819CB4
:101090000D2EF8D78A9AF28E0DD0FE0EE66EF7EC82
:1010A00018F0E5520028EA6AA00FE96E000EEA2265
:1010B000040EEF6EEAEF18F0200EE66EF7EC18F073
:1010C000E552020E0024286E0001FD51285C01E368
:1010D0006BD1002A0050EA6AA00FE96E000EEA22E6
:1010E000EFCF14F0002A0050EA6AA00FE96E000E5C
:1010F000EA22EFCF13F0010E13C0DBFF020E14C083
:10110000DBFFF29E8A9A8A8C8A9C00008A8A8A8CEB
:101110008A9C00008A9A8A8C8A9C8A8C8A9C8A8CF7
:101120008A9C8A8C8A9C06500D6E0D5009E0000046
:101130000000000000000000000000000D06F5D7D0
:101140008A8C8A9C0E0E0D6E14321332819AD8B09E
:10115000818A818C819C0D2EF7D78A9A8A8C8A9CF1
:10116000030EDB6A040EDB6A030EDBCF28F0040EED
:10117000DBCF29F00001ED51000129AE02D0D8905B
:1011800003D0285C000E295801E39DD08A9A8A8CEE
:101190008A9C8A8C8A9C8A8C8A9C00008A8A8A8C87
:1011A0008A9C00008A9A8A8C8A9C8A8C8A9CECC0D1
:1011B0000DF00D5009E000000000000000000000EC
:1011C000000000000D06F5D78A9A8A8C8A9C0000E0
:1011D0008A8A8A8C8A9C8A8C8A9C8A8C8A9C000047
:1011E0008A9A8A8C8A9C8A8C8A9C06500D6E0D5035
:1011F00009E0000000000000000000000000000006
:101200000D06F5D78A9A8A8C8A9C8A8C8A9C000063
:101210008A8A8A8C8A9C00008A9A8A8C8A9C8A8C08
:101220008A9C8A8C8A9C938A06500D6E0D5009E028
:1012300000000000000000000000000000000D069B
:10124000F5D78A8C8A9C0E0E0D6E8A8C8A9CD8905B
:1012500081BAD880143213320D2EF7D7D8901432B9
:101260001332D890143213328A8C939A8A9C065087
:101270000D6E0D5009E000000000000000000000AD
:10128000000000000D06F5D7010EDBCF28F0020E9E
:10129000DBCF29F01350281802E1145029180DE172
:1012A000030EDBCF28F0040EDBCF29F0010E28243B
:1012B0000D6E030EDB68040EDB6A030EDB2A040EE0
:1012C00001E3DB2A51D7F28EF29ED950030FE96E6B
:1012D000DACFEAFFEE5002E1010EED185EE10D50AB
:1012E000E66EF7EC18F0E5520001EE510D02F350F6
:1012F000E66ED950030FE96EDACFEAFFE552E75008
:10130000EE6EED6AD950030FE96EDACFEAFFEE50C8
:10131000ED1042E08A9A8A8C8A9C8A8C8A9C8A8CFC
:101320008A9C00008A8A8A8C8A9C00008A9A8A8C0D
:101330008A9C8A8C8A9CECC00DF00D5009E000005C
:101340000000000000000000000000000D06F5D7BE
:101350008A9A8A8C8A9C00008A8A8A8C8A9C8A8CC7
:101360008A9C8A8C8A9C00008A9A8A8C8A9C8A8CA5
:101370008A9C06500D6E0D5009E000000000000030
:1013800000000000000000000D06F5D7030EDB068C
:10139000040E01E2DB06B6D705D0FE0EE66EF7ECD2
:1013A00018F0E552F28E0DD0FE0EE66EF7EC18F056
:1013B000E5520028EA6AA00FE96E000EEA22040E48
:1013C000EF6EEAEF18F0210EE66EF7EC18F0E5523A
:1013D000020E0024286E0001FD51285C2BE2F29ED3
:1013E0008A8C939A8A9A8A9C8A8C8A9C8A8C8A9CF8
:1013F0008A8C8A9C002A0050EA6AA00FE96E000ECF
:10140000EA22EFCF14F0002A0050EA6AA00FE96E3A
:10141000000EEA22EFCF13F0100E0D6E14321332CD
:10142000819AD8B0818A818C819C0D2EF7D78A9AB7
:10143000F28E0DD0FE0EE66EF7EC18F0E5520028A5
:10144000EA6AA00FE96E000EEA22040EEF6EEAEFE0
:1014500018F0220EE66EF7EC18F0E552F29E8A8C38
:10146000939A8A9A8A9C8A8A8A8C8A9C8A9A8A8C7B
:101470008A9C8A8C8A9C8A8C8A9C8A8C8A9C8A8C7C
:101480008A9C8A8C8A9C8A8C8A9C8A8C8A9C8A8C6C
:101490008A9C8A8C8A9C938A080E0D6E818C819C12
:1014A000D89081BAD88013320D2EF8D78A9AF28E4E
:1014B00013C0E6FFF7EC18F0E552EAEF18F0230E40
:1014C000E66EF7EC18F0E552F29E8A8C939A8A9AAF
:1014D0008A9C8A8C8A9C8A8C8A9C8A8A8A8C8A9C1E
:1014E0008A9A8A8C8A9C8A8C8A9C8A8C8A9C8A8C0E
:1014F0008A9C8A8C8A9C8A8C8A9C8A8C8A9C8A8CFC
:101500008A9C938A080E0D6E818C819CD89081BA3A
:10151000D88013320D2EF8D78A9AF28E13C0E6FFC8
:10152000F7EC18F0E552EAEF18F0240EE66EF7EC4F
:1015300018F0E552002A0050EA6AA00FE96E000E8A
:10154000EA22EF500D6E0001FD51005C45E20150B2
:101550000D24286E400E285C3FE20D50E66EF7EC3D
:1015600018F0E552050E0DC0DBFF050EDB5033E031
:10157000F29E8A8C939A8A8A8A9C8A9A8A8C8A9CFE
:101580008A8C8A9C8A8A8A8C8A9C8A9A8A8C8A9C6F
:101590008A8C8A9C8A8C8A9C8A8C8A9C8A8C8A9C5B
:1015A0008A8C8A9C8A8C8A9C8A8C8A9C938A080E54
:1015B0000D6E818C819CD89081BAD88013320D2E0B
:1015C000F8D78A9AF28E13C0E6FFF7EC18F0E552CE
:1015D000050EDB06CAD70DD0FE0EE66EF7EC18F04E
:1015E000E5520028EA6AA00FE96E000EEA22040E16
:1015F000EF6EEAEF18F0250EE66EF7EC18F0E55204
:10160000020E0024286E0001FD51285C2CE2F29E9F
:101610008A8C939A8A9A8A9C8A8C8A9C8A8A8A8CD7
:101620008A9C8A8C8A9C002A0050EA6AA00FE96E84
:10163000000EEA22EFCF14F0002A0050EA6AA00F51
:10164000E96E000EEA22EFCF13F0100E0D6E143289
:101650001332819AD8B0818A818C819C0D2EF7D764
:101660008A9AF28E0DD0FE0EE66EF7EC18F0E55277
:101670000028EA6AA00FE96E000EEA22040EEF6E5F
:10168000EAEF18F0260EE66EF7EC18F0E552002AA5
:101690000050EA6AA00FE96E000EEA22EF500D6ECC
:1016A00000500D240D24286E0001FD51285C36E207
:1016B000060E0DC0DBFF060EDB502FE0F29E8A8C7B
:1016C000939A8A8A8A9C8A9A8A8C8A9C8A8A8A8C29
:1016D0008A9C8A8C8A9C002A0050EA6AA00FE96ED4
:1016E000000EEA22EFCF14F0002A0050EA6AA00FA1
:1016F000E96E000EEA22EFCF13F0100E0D6E1432D9
:101700001332819AD8B0818A818C819C0D2EF7D7B3
:101710008A9AF28E060EDB06CED70DD0FE0EE66E4E
:10172000F7EC18F0E5520028EA6AA00FE96E000E07
:10173000EA22040EEF6EEAEF18F0270EE66EF7ECE1
:1017400018F0E552040E0024286E0001FD51285CBB
:1017500065E2F29E8A8C939A8A8A8A9C8A8C8A9CF9
:101760008A8C8A9C8A8C8A9C002A0050EA6AA00F84
:10177000E96E000EEA22EFCF14F0002A0050EA6A68
:10178000A00FE96E000EEA22EFCF13F0100E0D6EDF
:1017900014321332819AD8B0818A818C819C0D2EAB
:1017A000F7D78A9A8A8C8A9C8A8C8A9C8A8C8A9C93
:1017B0008A8C002A0050EA6AA00FE96E000EEA2225
:1017C000EFCF14F0002A0050EA6AA00FE96E000E75
:1017D000EA22EFCF13F01350141008E000000000CD
:1017E000000000001306000E145AF5D78A9CECC0C6
:1017F0000DF00D5009E000000000000000000000A6
:10180000000000000D06F5D7100E0D6E0D5004E01F
:101810008A8C8A9C0D06FAD7F28E0DD0FE0EE66EEB
:10182000F7EC18F0E5520028EA6AA00FE96E000E06
:10183000EA22040EEF6EEAEF18F0280EE66EF7ECDF
:1018400018F0E552040E0024286E0001FD51285CBA
:1018500066E2F29E8A8C939A8A9A8A9C8A8A8A8CF9
:101860008A9C8A8C8A9C8A8C8A9C002A0050EA6A0C
:10187000A00FE96E000EEA22EFCF14F0002A00500C
:10188000EA6AA00FE96E000EEA22EFCF13F0100E05
:101890000D6E14321332819AD8B0818A818C819C6A
:1018A0000D2EF7D78A9A8A8C8A9C8A8C8A9C8A8C7D
:1018B0008A9C8A8C002A0050EA6AA00FE96E000E0A
:1018C000EA22EFCF14F0002A0050EA6AA00FE96E76
:1018D000000EEA22EFCF13F01350141008E00000BE
:1018E0000000000000001306000E145AF5D78A9C71
:1018F000ECC00DF00D5009E00000000000000000F9
:101900000000000000000D06F5D7100E0D6E0D5002
:1019100004E08A8C8A9C0D06FAD7F28E0DD0FE0E5A
:10192000E66EF7EC18F0E5520028EA6AA00FE96EBF
:10193000000EEA22040EEF6EEAEF18F0290EE66EB2
:10194000F7EC18F0E552030E0024286E0001FD515B
:10195000285C36E2002A0050EA6AA00FE96E000E09
:10196000EA22EFCF13F0F29E8A8C939A040E0D6E4A
:101970001332819AD8B0818A818C819C0D2EF8D740
:10198000002A0050EA6AA00FE96E000EEA22EFCFAB
:1019900014F0002A0050EA6AA00FE96E000EEA2255
:1019A000EFCF13F0100E0D6E14321332819AD8B0AF
:1019B000818A818C819C0D2EF7D78A9AF28E0DD068
:1019C000FE0EE66EF7EC18F0E5520028EA6AA00F6A
:1019D000E96E000EEA22040EEF6EEAEF18F02A0E0E
:1019E000E66EF7EC18F0E5520028286E0001FD5174
:1019F000285C39E2002A0050EA6AA00FE96E000E66
:101A0000EA22EFCF13F0F29E8A8C939A040E0D6EA9
:101A10001332819AD8B0818A818C819C0D2EF8D79F
:101A20008A8C8A9C8A8C8A9C8A8C8A9C8A8C8A9CC6
:101A30008A8C8A9C8A8C8A9C8A8C8A9C8A8C8A9CB6
:101A4000938A080E0D6E818C819CD89081BAD880C3
:101A500013320D2EF8D78A9AF28E13C0E6FFF7ECF8
:101A600018F0E5520DD0FE0EE66EF7EC18F0E552D8
:101A70000028EA6AA00FE96E000EEA22040EEF6E5B
:101A8000EAEF18F02B0EE66EF7EC18F0E55200289E
:101A9000286E0001FD51285C42E2002A0050EA6AEB
:101AA000A00FE96E000EEA22EF500D6EFF0E0D5CE6
:101AB00004E1C66A9368948C31D0800EC76E080E1C
:101AC000C66EC56A0DBCC79EC70E936E8A6A0DB0FE
:101AD0008A860DB28A880DB48A8A949C8B9C380EB3
:101AE0000D160D5003E1770EC86E17D0080E0D5C71
:101AF00003E13B0EC86E11D0100E0D5C03E1270E02
:101B0000C86E0BD0180E0D5C03E10E0EC86E05D02A
:101B1000200E0D5C02E10B0EC86EC68A0DD0FE0EC3
:101B2000E66EF7EC18F0E5520028EA6AA00FE96EBD
:101B3000000EEA22040EEF6EEAEF18F02C0EE66EAD
:101B4000F7EC18F0E552030E0024286E0001FD5159
:101B5000285C01E3BDD0002A0050EA6AA00FE96EBC
:101B6000000EEA22EF500D6E0001010E146E002AE5
:101B70000050EA6AA00FE96E000EEA22EFCF13F0E0
:101B8000C750040B01E0010E286E1F0EC51428106B
:101B900001E0F6D7C580C5B0FED70D505DE0FE0E62
:101BA00000011314C96EC7B0FED7C750040B01E083
:101BB000010E286E1F0EC514281001E0F6D7C5BC13
:101BC0004AD0002A0050EA6AA00FE96E000EEA220D
:101BD000EF50C96EC7B0FED7C750040B01E0010E2D
:101BE000286E1F0EC514281001E0F6D7C5BC33D0EF
:101BF000C582C5B2FED7010E00011310C96EC7B071
:101C0000FED7C750040B01E0010E286E1F0EC5144D
:101C1000281001E0F6D7C5BC1ED00001146A0D5093
:101C2000E66EF7EC18F0E5520D5011E0C586C7A03E
:101C3000FED7C950E66EF7EC18F0E5520D500108DA
:101C400004E2C59AC588C5B8FED70D06EDD7C58A8A
:101C5000C588C5B8FED725D0010E00011310C96E86
:101C6000C7B0FED7C750040B01E0010E286E1F0E4F
:101C7000C514281001E0F6D7C5BC13D00001146AC2
:101C8000010EE66EF7EC18F0E552C586C7A0FED748
:101C9000C950E66EF7EC18F0E552C58AC588C5B89C
:101CA000FED7C550400B10E0000114500DE0FD0EB2
:101CB000E66EF7EC18F0E5520028EA6AA00FE96E2C
:101CC000000EEA22040EEF6EC584C5B4FED70DD017
:101CD000FE0EE66EF7EC18F0E5520028EA6AA00F57
:101CE000E96E000EEA22040EEF6EEAEF18F02E0EF7
:101CF000E66EF7EC18F0E552040E0024286E0001A1
:101D0000FD51285C01E3ACD0002A0050EA6AA00F24
:101D1000E96E000EEA22EF500D6E0001010E146E06
:101D2000002A0050EA6AA00FE96E000EEA22EFCF07
:101D300013F0C750040B01E0010E286E1F0EC514EE
:101D4000281001E0F6D7C580C5B0FED7FE0E000111
:101D50001314C96EC7B0FED7C750040B01E0010EC3
:101D6000286E1F0EC514281001E0F6D7C5BC61D03F
:101D7000002A0050EA6AA00FE96E000EEA22EF5036
:101D8000C96EC7B0FED7C750040B01E0010E286E24
:101D90001F0EC514281001E0F6D7C5BC4AD0002A92
:101DA0000050EA6AA00FE96E000EEA22EF50C96EF9
:101DB000C7B0FED7C750040B01E0010E286E1F0EFE
:101DC000C514281001E0F6D7C5BC33D0C582C5B212
:101DD000FED7010E00011310C96EC7B0FED7C75061
:101DE000040B01E0010E286E1F0EC514281001E03F
:101DF000F6D7C5BC1ED00001146A0D50E66EF7EC94
:101E000018F0E5520D5011E0C586C7A0FED7C950A5
:101E1000E66EF7EC18F0E5520D50010804E2C59AA1
:101E2000C588C5B8FED70D06EDD7C58AC588C5B823
:101E3000FED7C550400B10E0000114500DE0FD0E20
:101E4000E66EF7EC18F0E5520028EA6AA00FE96E9A
:101E5000000EEA22040EEF6EC584C5B4FED70DD085
:101E6000FE0EE66EF7EC18F0E5520028EA6AA00FC5
:101E7000E96E000EEA22040EEF6EEAEF18F02D0E66
:101E8000E66EF7EC18F0E552002A0050EA6AA00F5F
:101E9000E96E000EEA22EF500D6E020E00240D24B2
:101EA000286E0001FD51285C73E2C750040B01E06D
:101EB000010E286E1F0EC514281001E0F6D7C5804C
:101EC000C5B0FED7002A0050EA6AA00FE96E000EE6
:101ED000EA22EF50FE0BC96EC7B0FED7C750040B05
:101EE00001E0010E286E1F0EC514281001E0F6D780
:101EF000C5BC38D0002A0050EA6AA00FE96E000E77
:101F0000EA22EF50C96EC7B0FED7C750040B01E0FC
:101F1000010E286E1F0EC514281001E0F6D7C5BCAF
:101F200021D00D50E66EF7EC18F0E5520D501AE096
:101F3000C550400B17E1002A0050EA6AA00FE96E75
:101F4000000EEA22EF50C96EC7B0FED7C750040B8F
:101F500001E0010E286E1F0EC514281001E0F6D70F
:101F60000D06E4D70D5003E1C550400B0DE0FD0E0A
:101F7000E66EF7EC18F0E5520028EA6AA00FE96E69
:101F8000000EEA22040EEF6EC584C5B4FED70DD054
:101F9000FE0EE66EF7EC18F0E5520028EA6AA00F94
:101FA000E96E000EEA22040EEF6EEAEF18F02F0E33
:101FB000E66EF7EC18F0E5520028286E0001FD519E
:101FC000285C3BE2002A0050EA6AA00FE96E000E8E
:101FD000EA22EF500D6EFF0E0D5C09E19368948CC0
:101FE000948E010E066E0001640EEC6F25D0E50E96
:101FF000936E0DA602D08A8201D08A92949C8B9C0B
:10200000949E0C0E0D140001EC6F030E0D160D5076
:1020100003E1120E066E10D00D0403E1080E066EE9
:102020000BD0020E0D5C03E1050E066E05D0030E0B
:102030000D5C02E1020E066E0DD0FE0EE66EF7ECB0
:1020400018F0E5520028EA6AA00FE96E000EEA22B5
:10205000040EEF6EEAEF18F0300EE66EF7EC18F0B3
:10206000E5520028286E0001FD51285C23E2002A79
:102070000050EA6AA00FE96E000EEA22EF500D6EE2
:102080000D50E66EF7EC18F0E5520D5005E1E66AEA
:10209000F7EC18F0E5520DD093800D500AE0E66A97
:1020A000ADEC19F0E552E66EF7EC18F0E5520D06CE
:1020B000F4D70DD0FE0EE66EF7EC18F0E5520028CE
:1020C000EA6AA00FE96E000EEA22040EEF6EEAEF54
:1020D00018F0310EE66EF7EC18F0E552002A0050C9
:1020E000EA6AA00FE96E000EEA22EF500D6E005072
:1020F0000D24286E0001FD51285C17E20D50E66E9C
:10210000F7EC18F0E552949E0D500EE0002A0050B6
:10211000EA6AA00FE96E000EEA22EF50E66EADEC1F
:1021200019F0E5520D06F0D70DD0FE0EE66EF7EC75
:1021300018F0E5520028EA6AA00FE96E000EEA22C4
:10214000040EEF6EEAEF18F0320EE66EF7EC18F0C0
:10215000E552020E0024286E0001FD51285C21E2A8
:10216000002A0050EA6AA00FE96E000EEA22EF5042
:102170008A6E002A0050EA6AA00FE96E000EEA2279
:10218000EF500D6EC00E0D14286E3F0E8B142810EC
:102190008B6E380E0D14286EC70E89142810896EA8
:1021A0000DD0FE0EE66EF7EC18F0E5520028EA6A54
:1021B000A00FE96E000EEA22040EEF6EEAEF18F0AF
:1021C000330EE66EF7EC18F0E552030E0024286E8D
:1021D0000001FD51285C6BE2002A0050EA6AA00F62
:1021E000E96E000EEA22EF500D6E002A0050EA6AF6
:1021F000A00FE96E000EEA22EFCF14F0002A005083
:10220000EA6AA00FE96E000EEA22EFCF13F0015048
:102210000D240D24286E400E285C3BE20D50E66E26
:10222000F7EC18F0E5520D5033E0200EE66EADEC01
:1022300019F0E55214C0E6FFADEC19F0E55213C0F9
:10224000E6FFADEC19F0E552E66AADEC19F0E552A7
:10225000E66EF7EC18F0E552280EE66EADEC19F0DC
:10226000E55214C0E6FFADEC19F0E55213C0E6FFED
:10227000ADEC19F0E552E66AADEC19F0E552E66E08
:10228000F7EC18F0E552132A000E14220D06CBD7F6
:102290000DD0FE0EE66EF7EC18F0E5520028EA6A63
:1022A000A00FE96E000EEA22040EEF6E0DD0FE0EB6
:1022B000E66EF7EC18F0E5520028EA6AA00FE96E26
:1022C000000EEA22040EEF6EEAEF18F0340EE66E0E
:1022D000F7EC18F0E552002A0050EA6AA00FE96E08
:1022E000000EEA22EF500D6E00500D240D24020F57
:1022F000286E0001FD51285C55E20D50E66EF7ECAA
:1023000018F0E552002A0050EA6AA00FE96E000EAC
:10231000EA22EFCF14F0002A0050EA6AA00FE96E1B
:10232000000EEA22EFCF13F00D503BE0400EE66EB8
:10233000ADEC19F0E55214C0E6FFADEC19F0E55232
:1023400013C0E6FFADEC19F0E552002A0050EA6A2E
:10235000A00FE96E000EEA22EF50E66EADEC19F028
:10236000E552480EE66EADEC19F0E55214C0E6FFFA
:10237000ADEC19F0E55213C0E6FFADEC19F0E552F3
:10238000002A0050EA6AA00FE96E000EEA22EF5020
:10239000E66EADEC19F0E552132A000E14220D067C
:1023A000C3D70DD0FE0EE66EF7EC18F0E55200280C
:1023B000EA6AA00FE96E000EEA22040EEF6EEAEF61
:1023C00018F0350EE66EF7EC18F0E5520028286E8E
:1023D0000001FD51285C46E2002A0050EA6AA00F85
:1023E000E96E000EEA22EF500D6EFF0E0D5C05E166
:1023F000BA6ABD6A8A96B16A34D094849396B36AF5
:10240000B26AC10EB16EBC6ABF6A0D5003E13B0EE9
:10241000BE6E21D00D0403E11D0EBE6E1CD0020E57
:102420000D5C03E10B0EBE6E16D0030E0D5C03E1D6
:10243000050EBE6E10D0040E0D5C03E1020EBE6EE2
:102440000AD0050E0D5C03E1010EBE6E04D0060E2F
:102450000D5C01E1BE6A010EBB6E0B0EBD6E020E7D
:10246000BA6E0DD0FE0EE66EF7EC18F0E5520028BD
:10247000EA6AA00FE96E000EEA22040EEF6EEAEFA0
:1024800018F0360EE66EF7EC18F0E552030E002455
:10249000286E0001FD51285C4AE2F29E939A8A9AC6
:1024A00000008A8C0000000000008A9C00008A8CDA
:1024B0000000000000008A9C00008A8C00000000E0
:1024C00000008A9C00008A8C0000000000008A9CAA
:1024D000002A0050EA6AA00FE96E000EEA22EFCF50
:1024E00014F0002A0050EA6AA00FE96E000EEA22FA
:1024F000EFCF13F0002A0050EA6AA00FE96E000E39
:10250000EA22EF500E6E180E0D6E143213320E3298
:10251000D8A0819AD8B0818A0000818C0000000088
:102520000000819C0D2EF1D78A9AF28E0DD0FE0EFE
:10253000E66EF7EC18F0E5520028EA6AA00FE96EA3
:10254000000EEA22040EEF6EEAEF18F03E0EE66E81
:10255000F7EC18F0E552030E0024286E0001FD513F
:10256000285C56E2F29E939A8A9A00008A8C0000B8
:10257000000000008A9C00008A8C0000000000001F
:102580008A9C00008A8C0000000000008A9C0000E9
:102590008A8C0000000000008A9C002A0050EA6A31
:1025A000A00FE96E000EEA22EFCF14F0002A0050CF
:1025B000EA6AA00FE96E000EEA22EFCF13F0002ABC
:1025C0000050EA6AA00FE96E000EEA22EF500E6E8C
:1025D000180E0D6E143213320E32D8A0819AD8B074
:1025E000818A0000818C000000000000819C0D2E7B
:1025F000F1D78A9A0D6A380E0D5C08E200008A8CC9
:102600000000000000008A9C0D2AF5D7F28E0DD044
:10261000FE0EE66EF7EC18F0E5520028EA6AA00F0D
:10262000E96E000EEA22040EEF6EEAEF18F03F0E9C
:10263000E66EF7EC18F0E552002A0050EA6AA00FA7
:10264000E96E000EEA22EF500D6E3F0E0D140E6E75
:1026500000500E240E240E24286E0001FD51285C2B
:1026600001E386D0C00E0D14E76E080EE7CFDBFF46
:10267000080EDB50400806E11C0EF36E080EF3CF87
:10268000DBFF13D0080EDB50800806E1380EF36E36
:10269000080EF3CFDBFF09D0080EDB50C00805E1C0
:1026A000540EF36E080EF3CFDBFFF29E939A3F0EAB
:1026B0000D14E76E070EE7CFDBFF070EDB5056E089
:1026C0008A9A00008A8C0000000000008A9C0000AA
:1026D0008A8C0000000000008A9C00008A8C0000A8
:1026E000000000008A9C00008A8C000000000000AE
:1026F0008A9C002A0050EA6AA00FE96E000EEA22C6
:10270000EFCF14F0002A0050EA6AA00FE96E000E25
:10271000EA22EFCF13F0002A0050EA6AA00FE96E18
:10272000000EEA22EF500E6E180E0D6E14321332A8
:102730000E32D8A0819AD8B0818A0000818C000026
:1027400000000000819C0D2EF1D78A9A080EDB5004
:102750000D6E0D5008E000008A8C000000000000A3
:102760008A9C0D06F6D7070EDB06A7D7F28E0DD092
:10277000FE0EE66EF7EC18F0E5520028EA6AA00FAC
:10278000E96E000EEA22040EEF6EEAEF18F0370E43
:10279000E66EF7EC18F0E552F29E939A8A8A0000F2
:1027A0008A8C0000000000008A9C8A9A0D6A0B0E39
:1027B0000D5C08E200008A8C0000000000008A9C8A
:1027C0000D2AF5D7938A100E0D6E818C0000000043
:1027D0000000D89081BAD88014321332819C0D2E1B
:1027E000F4D78A9AF28E14C0E6FFF7EC18F0E5529F
:1027F00013C0E6FFF7EC18F0E552EAEF18F0380ED8
:10280000E66EF7EC18F0E552F29E939A8A9A0D6AFA
:102810001C0E0D5C08E200008A8C00000000000025
:102820008A9C0D2AF5D7F28EEAEF18F0390EE66E83
:10283000F7EC18F0E552002A0050EA6AA00FE96EA2
:10284000000EEA22EF500D6E00500D240D24286E6C
:102850000001FD51285C48E2F29E939A090E0DC0DA
:10286000DBFF090EDB503CE0002A0050EA6AA00FB3
:10287000E96E000EEA22EFCF14F0002A0050EA6A57
:10288000A00FE96E000EEA22EFCF13F0100E0D6ECE
:1028900013361436D8A0819AD8B0818A0000818C72
:1028A00006C00EF00E0609E0000000000000000067
:1028B0000000000000000000F5D7819C06C00EF06B
:1028C0000E0609E00000000000000000000000000B
:1028D00000000000F5D70D2EDBD7090EDB06C1D7AF
:1028E0008A9A938AF28E0DD0FE0EE66EF7EC18F0FF
:1028F000E5520028EA6AA00FE96E000EEA22040EF3
:10290000EF6EEAEF18F03A0EE66EF7EC18F0E552CB
:10291000002A0050EA6AA00FE96E000EEA22EF508A
:102920000D6E0001FD51005C48E201500D240D24A4
:10293000286E400E285C41E20D50E66EF7EC18F070
:10294000E552F29E938A0A0E0DC0DBFF0A0EDB50A1
:1029500032E0100E0D6E818C06C00EF00E0609E0FE
:102960000000000000000000000000000000000067
:10297000F5D7D89081BAD88013361436819C06C01A
:102980000EF00E0609E0000000000000000000004C
:10299000000000000000F5D70D2EDDD714C0E6FFC3
:1029A000F7EC18F0E55213C0E6FFF7EC18F0E5522B
:1029B0000A0EDB06CBD7F28E0DD0FE0EE66EF7ECDC
:1029C00018F0E5520028EA6AA00FE96E000EEA222C
:1029D000040EEF6EEAEF18F03B0EE66EF7EC18F01F
:1029E000E552C50E936E8A6A949EEAEF18F03C0E8B
:1029F000E66EF7EC18F0E552002A0050EA6AA00FE4
:102A0000E96E000EEA22EF500D6E0D040024E83846
:102A10000F0B286E0001FD51285C22E2F29E0E6A27
:102A20000D5000081BE20E500BE1002A0050EA6A2C
:102A3000A00FE96E000EEA22EFCF13F0080E0E6E23
:102A40001336D8A08B9ED8B08B8E8A8200000000EF
:102A5000000000008A920D060E06E2D7F28E0CD01E
:102A6000FE0EE66EC4DBE5520028EA6AA00FE96EAE
:102A7000000EEA22040EEF6EADD33D0EE66EB7DB1C
:102A8000E5520028286E0001FD51285C38E20D0453
:102A90000124E8380F0B296E400E295C30E2002A31
:102AA0000050EA6AA00FE96E000EEA22EF500D6EA8
:102AB0000D50E66E9CDBE552F29E0001136A080E93
:102AC0000E6E0D50000819E28A820000000000001E
:102AD00000008A92D89081B0D88013360E060E502E
:102AE00002E00D0408E1080E0E6E13C0E6FF7FDB66
:102AF000E5520001136A0D06E4D7F28E0CD0FE0EEB
:102B0000E66E75DBE5520028EA6AA00FE96E000E5A
:102B1000EA22040EEF6E5ED3400EE66E68DBE552ED
:102B2000F29E8A80939000008A90FA0EE66E93ECF3
:102B300019F0E552FA0EE66E93EC19F0E5528A8030
:102B400000009380460EE66E93EC19F0E55281B0DA
:102B500005D0010EE66E4BDBE55203D0E66A47DB9B
:102B6000E552960EE66EDFDBE552960EE66EDBDB97
:102B7000E552F28E2FD3410EE66E39DBE552002A84
:102B80000050EA6AA00FE96E000EEA22EF500D6EC7
:102B900000500D24286E0001FD51285C36E20D50D6
:102BA00033E0002A0050EA6AA00FE96E000EEA2224
:102BB000EF500E6EF29E080EF36E0B0EF3CFDBFF9E
:102BC0000B0EDB5000081DE28A9093900EA00AD0F5
:102BD000040EE66EA8DBE5528A80420EE66EA3DBA9
:102BE000E55209D03C0EE66E9EDBE5528A800A0E65
:102BF000E66E99DBE5520E407F0B0E6E0B0EDB0688
:102C0000DFD7F28E0D06CBD70CD0FE0EE66EEFDAD4
:102C1000E5520028EA6AA00FE96E000EEA22040ECF
:102C2000EF6ED8D2420EE66EE2DAE552002A00508C
:102C3000EA6AA00FE96E000EEA22EF500D6E000165
:102C4000FD51005C42E201500D24286E400E285CCC
:102C50003CE20D50E66ECBDAE5520D5035E0F29EC7
:102C60000E6A080EF36E0C0EF3CFDBFF0C0EDB507A
:102C7000000823E28A909390060EE66E54DBE5523C
:102C80008A8000009380080EE66E4DDBE5520E4010
:102C90007F0B0E6E81A002D0800E0E26280EE66EEF
:102CA00042DBE5528A80939000009380100EE66E1E
:102CB0003ADBE5520C0EDB06D9D70E50E66E97DAFA
:102CC000E552F28E0D06C9D70CD0FE0EE66E8FDAF5
:102CD000E5520028EA6AA00FE96E000EEA22040E0F
:102CE000EF6E78D2430EE66E82DAE552F29E8A905B
:102CF00093900A0EE66E17DBE5528A80FA0EE66EB6
:102D000012DBE552FA0EE66E0EDBE5526E0EE66E53
:102D10000ADBE5529380F28E5DD2440EE66E67DAEE
:102D2000E552002A0050EA6AA00FE96E000EEA227E
:102D3000EF500D6E002A0050EA6AA00FE96E000EF7
:102D4000EA22EF500E6E00500D24286E0001FD5156
:102D5000285C01E38DD101500E24296E400E295CC0
:102D600001E386D1F29E0D5065E08A909390140E97
:102D7000E66ED9DAE5528A800A0EE66ED4DAE552BA
:102D80008A90140EE66ECFDAE5528A80140EE66E53
:102D9000CADAE5528A90140EE66EC5DAE5528A80E8
:102DA000140EE66EC0DAE5528A90140EE66EBBDAB7
:102DB000E5528A80140EE66EB6DAE5528A90140E59
:102DC000E66EB1DAE5528A800A0EE66EACDAE552BA
:102DD0008A900A0EE66EA7DAE5528A800A0EE66E3F
:102DE000A2DAE5529380050EE66E9DDAE5520D0EED
:102DF000DB6A81B005D0010EF36E0D0EF3CFDBFF61
:102E00000A0EE66E90DAE55281B005D0010EF36E3F
:102E10000D0EF3CFDBFF020EE66E85DAE5520D0EE6
:102E2000DB5008E0FD0EE66EE2D9E5520E6A0D6A4F
:102E30000D5000260D5001E17DD0002A0050EA6AB5
:102E4000A00FE96E000EEA220E0EEFCFDBFF8A9094
:102E50009390080EF36E0D0EF3CFDBFF0D0EDB50DB
:102E600000081DE20E0EDBAE07D08A900A0EE66E59
:102E70005ADAE5528A8006D08A800A0EE66E53DA64
:102E8000E5528A90080EE66E4EDAE5520E0EDB50E1
:102E9000020D0E0EF3CFDBFF0D0EDB06DFD70E505B
:102EA00003E10D50010807E28A900A0EE66E3BDA54
:102EB000E5528A8006D08A800A0EE66E34DAE55240
:102EC0008A900A0EE66E2FDAE5529380050EE66EC2
:102ED0002ADAE5520D0EDB6A81A005D0010EF36EF1
:102EE0000D0EF3CFDBFF0A0EE66E1DDAE55281B060
:102EF00005D0010EF36E0D0EF3CFDBFF0D0EDB5090
:102F000009E0FD0EE66E73D9E552010E0D6E0E6AF4
:102F10000D5000260D5001080BE2000000000000DB
:102F200000000000000000000000000000000000A1
:102F30000D0680D70000000000000E50E66E57D945
:102F4000E5520E5001E192D00E0EDB6A9380080E1E
:102F5000F36E0D0EF3CFDBFF0D0EDB50000835E2F4
:102F6000030EE66EE0D9E5520E0EDB50020D0E0E9A
:102F7000F3CFDBFF81B00AD00A0EE66ED4D9E5525A
:102F800081A003D00E0EDB2A00D00AD00A0EE66E16
:102F9000CAD9E55281A000D0000000000000000066
:102FA000000000000000000000000D0EDB500108D2
:102FB00005E2040EE66EB7D9E55204D0020EE66EC5
:102FC000B2D9E5520D0EDB06C7D7000000000000A5
:102FD00000000000000093900E50010807E28A9064
:102FE0000A0EE66EA0D9E5528A8006D08A800A0EC3
:102FF000E66E99D9E5528A900E0EDBCFE6FFF7D840
:10300000E552070EE66E8FD9E5529380050EE66E07
:103010008AD9E5520D0EDB6A81A005D0010EF36E50
:103020000D0EF3CFDBFF0A0EE66E7DD9E55281B0BF
:1030300005D0010EF36E0D0EF3CFDBFF030EE66E2F
:1030400072D9E552000000000000000000000000FE
:103050000000000000000D0EDB5006E0FD0EE66EE5
:10306000C6D8E552010E0E6E0E066BD7F28E0CD04E
:10307000FE0EE66EBCD8E5520028EA6AA00FE96EA3
:10308000000EEA22040EEF6EA5D0400E015C09E2AC
:103090000150EA6A600FE96E000EEA22EF6A012A27
:1030A000F4D7016A04010CBF0BD0400EE66E600E2F
:1030B000E66E000EE66EE5EC19F0E552E552E552DB
:1030C000006888D0F00EE66E92D8E552020E002419
:1030D000286E0001FD51285C25E2002A0050EA6AB2
:1030E000A00FE96E000EEA22EFCF14F0002A005084
:1030F000EA6AA00FE96E000EEA22EFCF13F014C0C7
:10310000E6FF75D8E55213C0E6FF71D8E55214C04A
:10311000EAFF13C0E9FFEF500D6E0D50E66E67D861
:10312000E5520CD0FE0EE66E62D8E5520028EA6A3F
:10313000A00FE96E000EEA22040EEF6E4BD0F10EE6
:10314000E66E55D8E552030E0024286E0001FD51AD
:10315000285C2EE2002A0050EA6AA00FE96E000EF9
:10316000EA22EFCF14F0002A0050EA6AA00FE96EBD
:10317000000EEA22EFCF13F0002A0050EA6AA00FF7
:10318000E96E000EEA22EF500D6E14C0E6FF2FD854
:10319000E55213C0E6FF2BD8E5520D50E66E27D856
:1031A000E55214C0EAFF13C0E9FF0D50EF6E0CD0DA
:1031B000FE0EE66E1CD8E5520028EA6AA00FE96E02
:1031C000000EEA22040EEF6E05D0FE0EE66E0FD85A
:1031D000E55200D0002A01D089920F0EE15C02E294
:1031E000E16AE552E16EE552E7CFD9FF1200D9CF8F
:1031F000E6FFE1CFD9FF0001EA510AE00A0E025CC6
:1032000011E20250022AEA6AE00FE96E000E06D0CF
:103210000150012AEA6A600FE96E000EEA22FE0EF2
:10322000DBCFEFFF400E015C13E1016A04010CBF2C
:103230000CD0400EE66E600EE66E000EE66EE5EC1B
:1032400019F0E552E552E55203D00001010EEA6F94
:10325000E552E7CFD9FF1200D8CFE4FFE0CFE4FF7B
:10326000E46EDACFE4FFE2CFDAFFF3CFE4FFF4CF8E
:10327000E4FFE652C2B2FED79E9C07C009F008C028
:103280000AF0C4CF08F0C3CF07F0020E0F0B05E021
:10329000D89008320732E806FBE10B50075E0C506D
:1032A000085AE10E0902F4CF10F0F3CF0FF0E10E4F
:1032B0000A02F35010260F50032610500422E40E89
:1032C0000702F4CF10F0F3CF0FF0E40E0802F35032
:1032D00010260F50035E1050045A0001043402E31C
:1032E000036A046A05500001D880045402E205C054
:1032F00004F004C0BEFF00010350E840E8403F0B6B
:10330000300B2C6ECF0EBD142C10BD6EE552E5CFE8
:10331000F4FFE5CFF3FFE5CFDAFFE550E5CFE0FFBF
:10332000E5CFD8FF1000D9CFE6FFE1CFD9FFE652B5
:10333000FE0EDB50FE0FDF6EDF5009E000000000E4
:1033400000000000000000000000DF06F5D700D0FC
:10335000E552E552E7CFD9FF1200D9CFE6FFE1CF22
:10336000D9FFF29EFE0EDB50156EECC00FF0080E7A
:103370000E6E0FB404D015AE829E15BE828E06501E
:10338000176E172EFED70FA681820FB681920FA45B
:1033900005D015AE829E15BE828E02D081301536C4
:1033A0000650176E172EFED70FA681920FB6818298
:1033B0000FA402D0813015360E2EDBD7F28E1550B9
:0A33C00000D0E552E7CFD9FF12005C
:0633CA00D9CFE6FFE1CFC0
:1033D000D9FFE65204010CAF02D0000E33D0FC0E30
:1033E000DB50400805E2400EF36EFC0EF3CFDBFF2E
:1033F000DF6AFC0EDB50DF5C19E2DF50E76EFD0E8A
:10340000DBCFE9FFFE0EDBCFEAFFE750E926000E37
:10341000EA22EF50E66EDF50EA6A580FE96E050EB9
:10342000EA22E552E750EF6EDF2AE3D7FC0EDBCF4E
:103430000DF404010CAD02D0880E01D0C80E0C6F43
:10344000FC0EDB50E552E552E7CFD9FF1200D9CF91
:10345000E6FFE1CFD9FF0101136B040108BF32D0B1
:10346000FC0EDBCF28F00951D880285403E2FC0E73
:1034700009C4DBFF0101136BFC0EDB50135D19E285
:103480001351EA6A180FE96E050EEA22EF50E66E54
:103490001351E76EFD0EDBCFE9FFFE0EDBCFEAFF37
:1034A000E750E926000EEA22E552E750EF6E132BB3
:1034B000E3D70401400E096F08AD02D0880E01D099
:1034C000C80E086F01011351E552E7CFD9FF120072
:1034D0000101136B1E0E716E0401400E096F180E70
:1034E000286E050E28C00AF40B6F880E086F580E60
:1034F000286E050E28C00EF40F6F400E0C6F1200E0
:10350000D9CFE6FFE1CFD9FFE65202C5DFFF0101C7
:10351000010E076FE552E552E7CFD9FF1200D9CF70
:10352000E6FFE1CFD9FFE65202C5DFFF0101010E40
:10353000076FE552E552E7CFD9FF1200D9CFE6FF7A
:10354000E1CFD9FF020EE1261F0E0501001501088B
:1035500065E1045163E101C5DFFF060EDF5C23E195
:10356000010E03C5DBFFDB50210809E10101010E5B
:10357000076F930E0A6F3D0E0B6F090E0CD0010EF4
:10358000DB5022080DE10101010E076FB30E0A6F37
:103590003D0E0B6F220E0E6F0F6B010E106F03D0DE
:1035A000010EDB502308600E05010015200836E1EE
:1035B000DF0402E1A5DF32D0090EDF5C05E1010185
:1035C000010E066FACDF2AD0020EDF5C07E10101BD
:1035D000010E076F110E086F010E12D00A0EDF5C8C
:1035E00006E10101010E076F03C511F117D0030EAB
:1035F000DF5C0CE10101010E076F120E086F010E76
:10360000096F010E0E6F0F6B106B08D00B0EDF5C95
:1036100005E10101010E076F02C512F1020EE15C26
:1036200002E2E16AE552E16EE552E7CFD9FF12000E
:10363000D9CFE6FFE1CFD9FF020EE126800E0501CA
:10364000005D3CE103C5DFFF010E02C5DBFFDF04C7
:1036500009E10101010E076F780E0A6F3D0E0B6F35
:10366000120E28D0020EDF5C09E10101010E076F86
:103670008A0E0A6F3D0E0B6F290E1CD0030EDF5C05
:103680001DE10101010E076FDB5004E1D50E0A6F49
:103690003D0E0AD0010EDB0404E1D90E0A6F3D0E87
:1036A00003D0F90E0A6F3D0E0B6F0AC1F6FFF76EDD
:1036B0000800F5500E6F0F6B010E106F020EE15CEB
:1036C00002E2E16AE552E16EE552E7CFD9FF12006E
:1036D000D9CFE6FFE1CFD9FF030EE1261F0E05018A
:1036E0000015DF6E106B116BDF500DE10101010E53
:1036F000076F035102E0050110810101015135E01E
:103700000501108332D0DF0404E10101010E076FCF
:103710002CD0020EDF5C29E10F0E0415E76E010EBE
:10372000E7CFDBFF800E0415E76E020EE7CFDBFF6D
:103730000101010E076FDB50080DF3500C6F0D6B8C
:10374000000E0C27040E0D23020EDB5004E0040EC5
:103750000C27000E0D230CC1E9FF0DC1EAFFEF504D
:10376000040B03E00501010E106F0101075108E091
:10377000100E086F050E096F020E0E6F0F6B106BA7
:10378000030EE15C02E2E16AE552E16EE552E7CF49
:10379000D9FF1200D9CFE6FFE1CFD9FF040EE12611
:1037A0001F0E05010015DF6E010E02C5DBFFDF50A5
:1037B00011E1010EDB044CE10101010E076F030E64
:1037C0000501015D04E10101010E016F41D001011C
:1037D000016B3ED0020EDF5C3BE10F0E0415E76E7D
:1037E000020EE7CFDBFF800E0415E76E030EE7CF76
:1037F000DBFF010EDB502CE1020EDB5029E0010162
:10380000010E076F020EDB50080DF3500C6F0D6BAD
:10381000000E0C27040E0D23030EDB5004E0040EF3
:103820000C27000E0D23030E0501015D02E1840E3D
:103830000AD0030EDB0406E10CC1E9FF0DC1EAFF6B
:10384000EF6A06D0880E0CC1E9FF0DC1EAFFEF6EEA
:10385000040EE15C02E2E16AE552E16EE552E7CF77
:10386000D9FF1200D9CFE6FFE1CFD9FFE65201C55B
:10387000DFFF600E0501001554E1050EDF5C08E175
:103880000101010E076F040E006F02C502F149D05D
:10389000060EDF5C02E1CCDE44D0090EDF5C0EE1F7
:1038A0000101010E076F02C504F1045103E1040E8A
:1038B000006F37D0050E006F0BDE33D0080EDF5CD3
:1038C00007E10101010E076F040E086F010E17D00A
:1038D000DF5002E1FDDE25D0DF0403E0030EDF5CF4
:1038E00002E158DF1ED00A0EDF5C0FE10101010E7C
:1038F000076F0501106B0101100E086F050E096FAF
:10390000010E0E6F0F6B106B0CD00B0EDF5C04E121
:103910000101010E076F05D0070EDF5C02E00C0EFF
:10392000DF5CE552E552E7CFD9FF1200D9CFE6FFC1
:10393000E1CFD9FF030EE1260101080E0E5D000E56
:103940000F5907E2010E0EC1DBFF020E0FC1DBFFB4
:1039500007D0080EF36E010EF3CFDBFF020EDB6A19
:10396000FC0E04010417010E020EDBCF29F0000E3D
:10397000030E291629C028F029500413FF0EE76E04
:10398000010EDBCF28F0020EE750281628C005F400
:10399000100E286E050E2B6A28C006F4076F010E64
:1039A000DB5001010E5F020EDB500F5B100E0C6F3F
:1039B000050E0D6F100524E1DF6ADFCF28F0010E40
:1039C000DBCF29F0020EDBCF2AF02950285C000E55
:1039D0002A5439E20AC1F6FF0BC1F7FF0A2B000E89
:1039E0000B230800F550E66E0CC1E9FF0DC1EAFF9C
:1039F0000C2B000E0D23E552E750EF6EDF2ADDD7CA
:103A0000DF6ADFCF28F0010EDBCF29F0020EDBCF1B
:103A10002AF02950285C000E2A5415E208C1E9FF5B
:103A200009C1EAFF082B000E0923EF50E66E0CC116
:103A3000E9FF0DC1EAFF0C2B000E0D23E552E75004
:103A4000EF6EDF2ADED7030EE15C02E2E16AE552A7
:103A5000E16EE552E7CFD9FF1200D9CFE6FFE1CF03
:103A6000D9FF040EE1260401F3500111E66ED9508E
:103A7000020FE96EDACFEAFFE552E750EE6EED6A2B
:103A8000020EDB5001010E27030EDB500F23100E38
:103A9000086F050E096FDE6ADD6ADECF28F0DDCF24
:103AA00029F0020EDBCF2AF0030EDBCF2BF02A50D9
:103AB000285C2B50295818E208C1E9FF09C1EAFF28
:103AC000082B000E0923EF50E66E0CC1E9FF0DC173
:103AD000EAFF0C2B000E0D23E552E750EF6EDF2AB4
:103AE000010EDBE3DB2AD9D7040EE15C02E2E16AD6
:103AF000E552E16EE552E7CFD9FF12000401049FC1
:103B0000009F0101056B076B066B0E6B0F6BAADE46
:103B100015DD010107510EE10401080E016F000ED1
:103B2000286E050E2A6A2B6A28C002F4036F840EE1
:103B3000006F30D0050100AF2FD001010E510501FB
:103B4000065D01010F510501075904E206C50EF19A
:103B500007C50FF1EBDE0101020E056F0401080E2F
:103B6000016F000E286E050E296E2A6A2B6A2A6ADA
:103B70002B6A28C002F4036F800E006F100E286EAF
:103B8000050E296E2A6A2B6A2A6A2B6A28C006F457
:103B9000076FC80E046F16D00101010E056F0401F6
:103BA000056BC80E046F080E016F100E286E050E0F
:103BB000296E2A6A2B6A2A6A2B6A28C002F4036FCC
:103BC000C80E006F6D9812000101056B0401080E0C
:103BD000016F000E286E050E28C002F4036F880ED8
:103BE000006F046B1200D9CFE6FFE1CFD9FF020EC0
:103BF000E1266C5024E13C0E04010015E840E84049
:103C00003F0BDF6E0D0EDF5C02E178DF35D0010186
:103C1000050531E122DF0101065109E0010E02C56F
:103C2000DBFF020E0501035D02E0030E035D0401EC
:103C300000AD02D0880E01D0C80E006F1DD0040E5A
:103C40006C5C1AE16E500AE1040E0101005D06E1B0
:103C500002C56EFF6E5002E1030E006F020E0101FD
:103C6000055D09E163DE040104AD02D0880E01D0D8
:103C7000C80E046F01D0A8DF020EE15C02E2E16A27
:103C8000E552E16EE552E7CFD9FF12006DB606D0DE
:103C90006D6A696A6D860101010E006F0101000500
:103CA00009E16D50200B06E1686A696A69806988DC
:103CB000020E006F12006D92699468941200689C65
:103CC000120070A002D080DF7090689A120012007B
:103CD0006A6A686A9F0E6B6E7B0E696E6E6A160E5C
:103CE000706E68A602D06896FCD76D986DDF0101F2
:103CF000016B036B046B030E006F12000101005196
:103D000001E112006850040B04E06950040B01E06B
:103D1000D2DF6DB212006850010B04E06950010B54
:103D200001E0D6DF6850100B04E06950100B01E091
:103D3000CEDF6850400B04E06950400B01E0BFDF6C
:103D40006850200B04E06950200B01E0BADF685096
:103D5000020B04E06950020B01E06892030E0101BE
:103D6000005D01E212006850080B05E06950080B85
:083D700002E039DF6896120041
:083D7800120100020000000826
:103D8000D80400010100010200010902290001011B
:103D900000A0320904000002030000000921010113
:103DA00000012222000705810340000107050103ED
:103DB00040000106A0FF0901A1010903150026FF2B
:103DC000007508954081020904150026FF0075085A
:103DD00095409102C00403090420034F0070006560
:103DE000006E002000500072006F006700720061DA
:103DF000006D006D00650072003E034F00700065AD
:103E0000006E002000500072006F006700720061B9
:103E1000006D006D00650072002000200055005309
:103E20000042002000480049004400200063006C6C
:073E30000061007300730044
:013E3700008A
:083E38002A0EF66E000EF76E73
:103E4000000EF86E00010900F550F86F0900F550FA
:103E5000F96F03E1F86701D03DD00900F550F36F29
:103E60000900F550F46F0900F550F56F09000900DD
:103E7000F550E96E0900F550EA6E090009000900E5
:103E8000F550F66F0900F550F76F09000900F6CFFD
:103E9000FAF0F7CFFBF0F8CFFCF0F3C0F6FFF4C078
:103EA000F7FFF5C0F8FF0001F65302E1F75307E012
:103EB0000900F550EE6EF607F8E2F707F9D7FAC0F9
:103EC000F6FFFBC0F7FFFCC0F8FF0001F807000E8B
:063ED000F95BBFD71200F0
:0A3ED600186A26AE74EF1FF0256C89
:103EE000261EE86A2622181E21AE7CEF1FF0206CE9
:103EF000211EE86A2122181E91EC1FF021BE8CEFD2
:103F00001FF018AE000C206C211EE86A21221C6CE8
:103F10001D1EE86A1D22000C18BE83EF1FF01988D1
:023F2000FF0C94
:0E3F22001D6A1C6A100EE76ED89020362136FC
:103F30001C361D3625501C5C26501D5805E32550A7
:0E3F40001C5E26501D5A202AE72EF0D71200D4
:023F4E000F0E54
:103F5000C112140E6F6E0101006B0101016B0101B2
:103F6000046B22EC00F046EC1EF06FBE02D07EEC3B
:083F70001EF062EC00F0F7D72F
:083F780013EE00F023EE00F04F
:103F8000F86A199C1CEC1FF0D1EC1FF0A7EC1FF095
:043F9000FBD7120049
:0C3F940000EE00F00F0EEE6AEA62FDD7AE
:023FA00012000D
:023FA20012000B
:0C3FA4000000000000640100000000AB01
:0C3FB00003000000000000000000000002
:020000040030CA
:0100000022DD
:010001000EF0
:010002003DC0
:010003001EDE
:0100050000FA
:010006008178
:0200000400F00A
:100000004F70656E2050726F6772616D6D65722002
:10001000762E2000302E382E3000202D20436F7099
:100020007972696768742028432920323030392D6D
:100030003230313220416C626572746F204D6163E1
:1000400063696F6E69202D2054686973206973207D
:0E0050006672656520736F6674776172650075
:00000001FF
