:020000040000FA
:060000004DEF1FF012009D
:060008004BEF18F012009E
:06002A000200593D000038
:10003000FD00000001000000C63E000000000000BE
:0400400018000000A4
:0C0044000001EA6BEB6B8A6A896AF90E16
:10005000926E010EC26E0E0EC16E860EC06EBD6A2D
:10006000010E066E640EEC6FD00EEF6F070EF06F90
:10007000080EED6F0B0EEE6F000E036E046A096E34
:100080000A6A076E086A800ED56E1200F2A418D0B4
:10009000F2940001EB2B050E0101405D07E20A0E10
:1000A0000001EB5D03E38974EB6B1200050E0101A7
:1000B000405D06E12E0E0001EB5D02E38974EB6BFF
:1000C0001200E4DF050E0101405D66E36D50020B96
:1000D00001E012000001EA5129E0800E04010C1534
:1000E00025E1400EE66E600EE66E000EE66E76ECE2
:1000F00019F0E552E552E5520001EA6B016A02503F
:10010000015C13E20150EA6AE00FE96E000EEA2298
:10011000EF50E66E0150EA6A600FE96E000EEA22C7
:10012000E552E750EF6E012AEAD7026A0001FD515D
:10013000005C31E301501FE0400E015C09E2015018
:10014000EA6A600FE96E000EEA22EF6A012AF4D72C
:10015000016A04010CBF0CD0400EE66E600EE66E24
:10016000000EE66E76EC19F0E552E552E55203D04A
:100170000001010EEA6F400EE66EA00EE66E000E64
:10018000E66EB8EC19F0E552E552E5520001FD6F5C
:10019000E85001E0006A01D81200D9CFE6FFE1CFB4
:1001A000D9FF0F0EE1260001FD51005C02E30BEFC9
:1001B00018F00001EA5102E00BEF18F089820050BC
:1001C000EA6AA00FE96E000EEA22EF50F10A02E19E
:1001D000BEEF17F0010A02E181EF17F0020A02E117
:1001E00064EF17F0B60A02E1ACEF15F0070A02E17E
:1001F00091EF15F0010A02E131EF15F0030A02E177
:10020000DAEF14F0010A02E1ABEF14F07D0A02E12B
:100210005CEF14F0010A02E116EF14F0070A02E1A4
:100220000BEF14F0010A02E1A2EF13F0030A02E15E
:1002300035EF13F0010A02E11EEF13F00F0A02E19D
:10024000E6EF12F0080A02E136EF12F0010A02E1CD
:10025000C5EF11F0080A02E160EF11F0030A02E1B4
:1002600035EF11F0010A02E1BAEF10F0070A02E1DE
:1002700034EF10F0010A02E1F8EF0FF0030A02E197
:10028000BDEF0FF0010A02E180EF0FF01F0A02E15B
:100290002BEF0FF0020A02E1B6EF0EF0030A02E1C3
:1002A0001BEF0EF0020A02E174EF0DF0070A02E103
:1002B0003CEF0DF0010A02E1E9EF0CF0030A02E164
:1002C00098EF0CF0010A02E117EF0CF00F0A02E1BF
:1002D00097EF0BF0010A02E13CEF0BF0030A02E199
:1002E000F5EF0AF0010A02E18FEF0AF0070A02E1D6
:1002F00059EF0AF0010A02E123EF0AF0030A02E1D2
:10030000DDEF09F0010A02E156EF08F03F0A02E1D1
:1003100025EF08F0010A02E10BEF08F0030A02E101
:10032000EFEF07F0010A02E1D5EF07F0070A02E15B
:10033000B9EF07F0010A02E19BEF07F0030A02E1BF
:100340007FEF07F0010A02E165EF07F00F0A02E113
:100350001CEF07F0010A02E103EF07F0030A02E1D4
:10036000B9EF06F0010A02E171EF06F0070A02E1B7
:1003700014EF06F0010A01E1F9D3030A01E19CD36D
:10038000010A01E180D31F0A01E101D3010A01E161
:10039000B2D2030A01E117D2010A01E1F3D1070A3F
:1003A00001E1C1D1010A01E1A6D1030A01E18DD128
:1003B000010A01E174D10F0A01E1F3D0010A01E160
:1003C000E4D0030A01E1BFD0010A01E199D0070A94
:1003D00065E0010A42E0030A0AE0010A02E004EFD4
:1003E00018F0E66A16EC18F0E55209EF18F0010E65
:1003F000E66E16EC18F0E55225DEE66A16EC18F00B
:10040000E552080EE66E16EC18F0E552E66A16ECB8
:1004100018F0E552E66A16EC18F0E552E66A16ECBA
:1004200018F0E552020EE66E16EC18F0E552200EBA
:10043000E66E16EC18F0E552520EE66E16EC18F069
:10044000E552530EE66E16EC18F0E552540EE66EC9
:1004500016EC18F0E55209EF18F0020EE66E16ECF5
:1004600018F0E552E66A16EC18F0E552080EE66E52
:1004700016EC18F0E552E66A16EC18F0E552E66A5A
:1004800016EC18F0E552E66A16EC18F0E552020E8A
:10049000E66E16EC18F0E55209EF18F0030EE66E62
:1004A00016EC18F0E5520028286E0001FD51285C7A
:1004B00018E2002A0050EA6AA00FE96E000EEA2254
:1004C000EFCFDFFF440EDF5C06E2DFCFE6FF16EC86
:1004D00018F0E55205D0FE0EE66E16EC18F0E55267
:1004E0000DD0FE0EE66E16EC18F0E5520028EA6A12
:1004F000A00FE96E000EEA22040EEF6E09EF18F06D
:10050000400E015C09E20150EA6A600FE96E000EDC
:10051000EA22EF6A012AF4D7016A04010CBF0CD069
:10052000400EE66E600EE66E000EE66E76EC19F09A
:10053000E552E552E55203D00001010EEA6FFDC01D
:1005400000F009EF18F0050EE66E16EC18F0E55213
:10055000000E036E046A096E0A6A076E086A840E4A
:10056000CB6E040ECA6E9E909D80F40ECF6E480E28
:10057000CE6E810ECD6EBE6A0C0EBD6E9494C00E12
:10058000F26E1E0ED26E09EF18F0060EE66E16EC35
:1005900018F0E5529D90CD6ABD6A0E0ED26E09EF3D
:1005A00018F0070EE66E16EC18F0E552030E002464
:1005B000286E0001FD51285C63E2002A0050EA6ABF
:1005C000A00FE96E000EEA22EF500D6E0D50030AE7
:1005D00040E0010A2BE0030A16E0010A01E04CD0DA
:1005E000002A0050EA6AA00FE96E000EEA22EF50DE
:1005F000066E002A0050EA6AA00FE96E000EEA2299
:10060000EFCFECF03CD0002A0050EA6AA00FE96E70
:10061000000EEA22EFCFF0F0002A0050EA6AA00FA5
:10062000E96E000EEA22EFCFEFF029D0002A005049
:10063000EA6AA00FE96E000EEA22EFCFF2F0002A7C
:100640000050EA6AA00FE96E000EEA22EFCFF1F047
:1006500016D0002A0050EA6AA00FE96E000EEA22C6
:10066000EFCFEDF0002A0050EA6AA00FE96E000E0D
:10067000EA22EFCFEEF003D0020E002600D00DD01C
:10068000FE0EE66E16EC18F0E5520028EA6AA00F9E
:10069000E96E000EEA22040EEF6E09EF18F0080E64
:1006A000E66E16EC18F0E552F29E06500D6E0D50F7
:1006B00009E0000000000000000000000000000051
:1006C0000D06F5D7F28E09EF18F0090EE66E16EC5E
:1006D00018F0E552F29EECC00DF00D5009E000005C
:1006E0000000000000000000000000000D06F5D72B
:1006F000F28E09EF18F00A0EE66E16EC18F0E552CD
:10070000F29EEFC013F0F0C014F01350141008E084
:1007100000000000000000001306000E145AF5D778
:10072000F28E09EF18F00B0EE66E16EC18F0E5529B
:100730000028286E0001FD51285C15E2002A0050B7
:10074000EA6AA00FE96E000EEA22EF500D6E0D501E
:1007500009E00000000000000000000000000000B0
:100760000D06F5D70DD0FE0EE66E16EC18F0E5522C
:100770000028EA6AA00FE96E000EEA22040EEF6E6E
:1007800009EF18F0A1940C0EE66E16EC18F0E55285
:10079000C282C2B2FED7A1A40AD0E66A16EC18F053
:1007A000E552E66A16EC18F0E55209EF18F0C4506D
:1007B000E66E16EC18F0E552C350E66E16EC18F033
:1007C000E55209EF18F00D0EE66E16EC18F0E55242
:1007D0000028286E0001FD51285C01E37DD09D506A
:1007E000010B03E0D250200B06E1FE0EE66E16EC84
:1007F00018F0E55270D0A194002A0050EA6AA00FC8
:10080000E96E000EEA22EF50136E146A13C00BF06B
:1008100014C00CF0480E0C02F3CF0CF0480E0B0283
:10082000F3CF0BF0F4500C260A0E256E266A0BC08F
:1008300020F00CC021F0FCEC1EF020C00BF021C019
:100840000CF00F0E0D6EE80E136E030E146E1350A7
:10085000141008E000000000000000001306000E65
:10086000145AF5D70D06083404E207500E08000E9E
:10087000085408E3D880085004E7F20E075CFF0E26
:10088000085802E20D50DFE1A1A405D0E66A16EC9B
:1008900018F0E55220D0083404E207500E08000E8C
:1008A000085408E3D880085004E7F20E075CFF0EF6
:1008B000085806E2FE0EE66E16EC18F0E5520BD074
:1008C0000050EA6AA00FE96E000EEA22EF50E66ED1
:1008D00016EC18F0E5520DD0FE0EE66E16EC18F090
:1008E000E5520028EA6AA00FE96E000EEA22040E23
:1008F000EF6E09EF18F00E0EE66E16EC18F0E552EA
:100900000028286E0001FD51285C32E2002A0050C8
:10091000EA6AA00FE96E000EEA22EF500D6E010E9A
:100920000D1402E0000E01D0010EE8B08B82E8A0A9
:100930008B92020E0D1402E0010E01D0000EE8B001
:100940009482E8A09492040E0D1402E0010E01D0EE
:10095000000EE8B08B80E8A08B90080E0D1402E02A
:10096000010E01D0000EE8B09480E8A094900DD064
:10097000FE0EE66E16EC18F0E5520028EA6AA00FAB
:10098000E96E000EEA22040EEF6E09EF18F00F0E6A
:10099000E66E16EC18F0E5520028286E0001FD51B5
:1009A000285C62E2002A0050EA6AA00FE96E000E9D
:1009B000EA22EF50010B02E0010E01D0000EE8B078
:1009C0008A8AE8A08A9A0050EA6AA00FE96E000EAF
:1009D000EA22EF50020B02E0010E01D0000EE8B057
:1009E000938AE8A0939A0050EA6AA00FE96E000E7D
:1009F000EA22EF50040B02E0010E01D0000EE8B035
:100A00008A8CE8A08A9C0050EA6AA00FE96E000E6A
:100A1000EA22EF50080B02E0010E01D0000EE8B010
:100A2000938CE8A0939C0050EA6AA00FE96E000E38
:100A3000EA22EF50100B02E0010E01D0000EE8B0E8
:100A40008A8EE8A08A9E0050EA6AA00FE96E000E26
:100A5000EA22EF50200B02E0010E01D0000EE8B0B8
:100A6000938EE8A0939E0DD0FE0EE66E16EC18F065
:100A7000E5520028EA6AA00FE96E000EEA22040E91
:100A8000EF6E09EF18F0100EE66E16EC18F0E55256
:100A90000D6A81BA0D8093BA0D8281BC0D8493BC1E
:100AA0000D8681BE0D8893BE0D8A0D50E66E16EC44
:100AB00018F0E55209EF18F0110EE66E16EC18F07A
:100AC000E552020E0024286E0001FD51285C3FE231
:100AD000002A0050EA6AA00FE96E000EEA22EFCF6A
:100AE00014F0002A0050EA6AA00FE96E000EEA2214
:100AF000EFCF13F0F29E8A9A8A8C8A9C8A8C8A9C09
:100B00008A8C8A9C8A8C8A9C8A8C8A9C8A8C8A9CF5
:100B100006500D6E0D5009E00000000000000000BE
:100B20000000000000000D06F5D78A8C8A9C0E0E8E
:100B30000D6E14321332819AD8B0818A818C819CD7
:100B40000D2EF7D78A9A8A8C8A9CF28E0DD0FE0ED3
:100B5000E66E16EC18F0E5520028EA6AA00FE96E7E
:100B6000000EEA22040EEF6E09EF18F0120EE66E88
:100B700016EC18F0E552020E0024286E0001FD511B
:100B8000285C43E2002A0050EA6AA00FE96E000EDA
:100B9000EA22EFCF14F0002A0050EA6AA00FE96EB3
:100BA000000EEA22EFCF13F0F29E8A9A8A8C8A9C7A
:100BB00000008A8A8A8C8A9C00008A9A8A8C8A9C85
:100BC0008A8C8A9C8A8C8A9C8A8C8A9C06500D6EA0
:100BD0000D5009E0000000000000000000000000CF
:100BE00000000D06F5D78A8C8A9C0E0E0D6E14320D
:100BF0001332819AD8B0818A818C819C0D2EF7D7CF
:100C00008A9A8A8C8A9CF28E0DD0FE0EE66E16ECC5
:100C100018F0E5520028EA6AA00FE96E000EEA22F9
:100C2000040EEF6E09EF18F0130EE66E16EC18F0D6
:100C3000E5520028286E0001FD51285C43E2002A9D
:100C40000050EA6AA00FE96E000EEA22EFCF13F01F
:100C5000F29E8A8A8A8C8A9C8A8C8A9C00008A9A54
:100C60008A8C8A9C8A8C8A9C8A8C8A9C8A8C8A9C94
:100C700006500D6E0D5009E000000000000000005D
:100C80000000000000000D06F5D78A8C8A9C080E33
:100C90000D6E1332819AD8B0818A818C819C0D2E81
:100CA000F8D78A9A8A8C8A9C8A8C8A9C8A8C8A9C9D
:100CB0008A8C8A9C8A8C8A9C8A8C8A9C8A8C8A9C44
:100CC000F28E0DD0FE0EE66E16EC18F0E5520028FE
:100CD000EA6AA00FE96E000EEA22040EEF6E09EF39
:100CE00018F0140EE66E16EC18F0E552F29E8A9A91
:100CF0008A8C8A9C8A8C8A9C00008A8A8A8C8A9C2C
:100D000000008A9A8A8C8A9C8A8C8A9C8A8C8A9C0B
:100D1000938A06500D6E0D5009E00000000000009F
:100D200000000000000000000D06F5D78A8C8A9CA8
:100D30000E0E0D6E8A8C8A9CD89081BAD88014329F
:100D400013320D2EF7D7D89014321332D8901432B4
:100D500013328A8C939A8A9CF28E14C0E6FF16ECAA
:100D600018F0E55213C0E6FF16EC18F0E55209EF53
:100D700018F0150EE66E16EC18F0E552F29E8A8A0F
:100D80008A8C8A9C00008A9A8A8C8A9C00008A8AB3
:100D90008A8C8A9C00008A9A8A8C8A9C8A8C8A9C7B
:100DA0008A8C8A9C938A06500D6E0D5009E00000D3
:100DB0000000000000000000000000000D06F5D754
:100DC0008A8C8A9C080E0D6E8A8C8A9CD89081BA77
:100DD000D88013320D2EF8D78A8C8A9C8A8C8A9CF4
:100DE0008A8C8A9C8A8C8A9C8A8C8A9C8A8C8A9C13
:100DF0008A8C939A8A9CF28E13C0E6FF16EC18F048
:100E0000E55209EF18F0160EE66E16EC18F0E552F2
:100E1000F29E8A9A8A8C8A9C00008A8A8A8C8A9C92
:100E20008A8C8A9C8A9A8A8C8A9C8A8C8A9C8A8CD4
:100E30008A9CF28E09EF18F0170EE66E16EC18F089
:100E4000E5520028286E0001FD51285C2FE2F29E39
:100E5000002A0050EA6AA00FE96E000EEA22EFCFE6
:100E600013F00001135020E08A9A8A8C8A9C0000BB
:100E70008A8A8A8C8A9C8A8C8A9C8A9A8A8C8A9C86
:100E80008A8C8A9C8A8C8A9C06500D6E0D5009E0D3
:100E900000000000000000000000000000000D063F
:100EA000F5D700011306DDD7F28E0DD0FE0EE66EEB
:100EB00016EC18F0E5520028EA6AA00FE96E000E61
:100EC000EA22040EEF6E09EF18F0180EE66E16EC2B
:100ED00018F0E552F29E8A9A8A8C8A9C8A8C8A9CA7
:100EE0008A8C8A9C00008A8A8A8C8A9C00008A9A52
:100EF0008A8C8A9C8A8C8A9CF28E09EF18F0190ED3
:100F0000E66E16EC18F0E552F29E8A8A8A8C8A9C6C
:100F100000008A9A8A8C8A9C8A8C8A9C00008A8A21
:100F20008A8C8A9C00008A9A8A8C8A9C8A8C8A9CE9
:100F3000F28E09EF18F01A0EE66E16EC18F0E55274
:100F4000F29E8A9A8A8C8A9C00008A8A8A8C8A9C61
:100F500000008A9A8A8C8A9C00008A8A8A8C8A9CE1
:100F600000008A9A8A8C8A9C8A8C8A9CF28E09EF6D
:100F700018F01B0EE66E16EC18F0E552F29E8A8A07
:100F80008A8C8A9C8A8C8A9C00008A9A8A8C8A9C89
:100F900000008A8A8A8C8A9C00008A9A8A8C8A9CA1
:100FA0008A8C8A9CF28E09EF18F01C0EE66E16EC05
:100FB00018F0E552F29E8A9A8A8C8A9C00008A8AEE
:100FC0008A8C8A9C8A8C8A9C8A8C8A9C00008A9A49
:100FD0008A8C8A9C8A8C8A9CF28E09EF18F01D0EEE
:100FE000E66E16EC18F0E552F29E8A8A8A8C8A9C8C
:100FF00000008A9A8A8C8A9C8A8C8A9C8A8C8A9C19
:1010000000008A8A8A8C8A9C00008A9A8A8C8A9C30
:10101000F28E09EF18F01E0EE66E16EC18F0E5528F
:10102000F29E8A9A8A8C8A9C8A8C8A9C8A8C8A9C58
:1010300000008A8A8A8C8A9C8A8C8A9C00008A9A00
:101040008A8C8A9CF28E09EF18F01F0EE66E16EC61
:1010500018F0E5520028286E0001FD51285C17E2C7
:10106000002A0050EA6AA00FE96E000EEA22EFCFD4
:1010700013F0F29E060E0D6E1332819AD8B0818A5B
:10108000818C819C0D2EF8D78A9AF28E0DD0FE0E9F
:10109000E66E16EC18F0E5520028EA6AA00FE96E39
:1010A000000EEA22040EEF6E09EF18F0200EE66E35
:1010B00016EC18F0E552020E0024286E0001FD51D6
:1010C000285C01E36BD1002A0050EA6AA00FE96EA8
:1010D000000EEA22EFCF14F0002A0050EA6AA00FB7
:1010E000E96E000EEA22EFCF13F0010E13C0DBFF12
:1010F000020E14C0DBFFF29E8A9A8A8C8A9C000042
:101100008A8A8A8C8A9C00008A9A8A8C8A9C8A8C19
:101110008A9C8A8C8A9C8A8C8A9C06500D6E0D5003
:1011200009E00000000000000000000000000000D6
:101130000D06F5D78A8C8A9C0E0E0D6E1432133272
:10114000819AD8B0818A818C819C0D2EF7D78A9A9A
:101150008A8C8A9C030EDB6A040EDB6A030EDBCFEB
:1011600028F0040EDBCF29F00001ED51000129AE7B
:1011700002D0D89003D0285C000E295801E39DD0FE
:101180008A9A8A8C8A9C8A8C8A9C8A8C8A9C000087
:101190008A8A8A8C8A9C00008A9A8A8C8A9C8A8C89
:1011A0008A9CECC00DF00D5009E00000000000002A
:1011B00000000000000000000D06F5D78A9A8A8C16
:1011C0008A9C00008A8A8A8C8A9C8A8C8A9C8A8C57
:1011D0008A9C00008A9A8A8C8A9C8A8C8A9C0650F7
:1011E0000D6E0D5009E0000000000000000000003E
:1011F000000000000D06F5D78A9A8A8C8A9C8A8C9A
:101200008A9C00008A8A8A8C8A9C00008A9A8A8C2E
:101210008A9C8A8C8A9C8A8C8A9C938A06500D6E42
:101220000D5009E000000000000000000000000078
:1012300000000D06F5D78A8C8A9C0E0E0D6E8A8CE6
:101240008A9CD89081BAD880143213320D2EF7D7E9
:10125000D89014321332D890143213328A8C939A65
:101260008A9C06500D6E0D5009E000000000000041
:1012700000000000000000000D06F5D7010EDBCFD6
:1012800028F0020EDBCF29F01350281802E1145089
:1012900029180DE1030EDBCF28F0040EDBCF29F077
:1012A000010E28240D6E030EDB68040EDB6A030EAC
:1012B000DB2A040E01E3DB2A51D7F28EF29ED950CD
:1012C000030FE96EDACFEAFFEE5002E1010EED18EE
:1012D0005EE10D50E66E16EC18F0E5520001EE519D
:1012E0000D02F350E66ED950030FE96EDACFEAFF34
:1012F000E552E750EE6EED6AD950030FE96EDACF92
:10130000EAFFEE50ED1042E08A9A8A8C8A9C8A8C21
:101310008A9C8A8C8A9C00008A8A8A8C8A9C00001B
:101320008A9A8A8C8A9C8A8C8A9CECC00DF00D501B
:1013300009E00000000000000000000000000000C4
:101340000D06F5D78A9A8A8C8A9C00008A8A8A8C34
:101350008A9C8A8C8A9C8A8C8A9C00008A9A8A8CB5
:101360008A9C8A8C8A9C06500D6E0D5009E0000004
:101370000000000000000000000000000D06F5D78E
:10138000030EDB06040E01E2DB06B6D705D0FE0E27
:10139000E66E16EC18F0E552F28E0DD0FE0EE66EFB
:1013A00016EC18F0E5520028EA6AA00FE96E000E6C
:1013B000EA22040EEF6E09EF18F0210EE66E16EC2D
:1013C00018F0E552020E0024286E0001FD51285C41
:1013D0002BE2F29E8A8C939A8A9A8A9C8A8C8A9CA7
:1013E0008A8C8A9C8A8C8A9C002A0050EA6AA00F08
:1013F000E96E000EEA22EFCF14F0002A0050EA6AEC
:10140000A00FE96E000EEA22EFCF13F0100E0D6E62
:1014100014321332819AD8B0818A818C819C0D2E2E
:10142000F7D78A9AF28E0DD0FE0EE66E16EC18F003
:10143000E5520028EA6AA00FE96E000EEA22040EC7
:10144000EF6E09EF18F0220EE66E16EC18F0E5527A
:10145000F29E8A8C939A8A9A8A9C8A8A8A8C8A9C1F
:101460008A9A8A8C8A9C8A8C8A9C8A8C8A9C8A8C8E
:101470008A9C8A8C8A9C8A8C8A9C8A8C8A9C8A8C7C
:101480008A9C8A8C8A9C8A8C8A9C938A080E0D6E10
:10149000818C819CD89081BAD88013320D2EF8D7D8
:1014A0008A9AF28E13C0E6FF16EC18F0E55209EFA7
:1014B00018F0230EE66E16EC18F0E552F29E8A8CB8
:1014C000939A8A9A8A9C8A8C8A9C8A8C8A9C8A8A19
:1014D0008A8C8A9C8A9A8A8C8A9C8A8C8A9C8A8C1E
:1014E0008A9C8A8C8A9C8A8C8A9C8A8C8A9C8A8C0C
:1014F0008A9C8A8C8A9C938A080E0D6E818C819CB2
:10150000D89081BAD88013320D2EF8D78A9AF28EED
:1015100013C0E6FF16EC18F0E55209EF18F0240EA0
:10152000E66E16EC18F0E552002A0050EA6AA00FA9
:10153000E96E000EEA22EF500D6E0001FD51005CD5
:1015400045E201500D24286E400E285C3FE20D500C
:10155000E66E16EC18F0E552050E0DC0DBFF050E29
:10156000DB5033E0F29E8A8C939A8A8A8A9C8A9A0C
:101570008A8C8A9C8A8C8A9C8A8A8A8C8A9C8A9A7F
:101580008A8C8A9C8A8C8A9C8A8C8A9C8A8C8A9C6B
:101590008A8C8A9C8A8C8A9C8A8C8A9C8A8C8A9C5B
:1015A000938A080E0D6E818C819CD89081BAD88068
:1015B00013320D2EF8D78A9AF28E13C0E6FF16EC7E
:1015C00018F0E552050EDB06CAD70DD0FE0EE66E0A
:1015D00016EC18F0E5520028EA6AA00FE96E000E3A
:1015E000EA22040EEF6E09EF18F0250EE66E16ECF7
:1015F00018F0E552020E0024286E0001FD51285C0F
:101600002CE2F29E8A8C939A8A9A8A9C8A8C8A9C73
:101610008A8A8A8C8A9C8A8C8A9C002A0050EA6A70
:10162000A00FE96E000EEA22EFCF14F0002A00505E
:10163000EA6AA00FE96E000EEA22EFCF13F0100E57
:101640000D6E14321332819AD8B0818A818C819CBC
:101650000D2EF7D78A9AF28E0DD0FE0EE66E16EC9E
:1016600018F0E5520028EA6AA00FE96E000EEA229F
:10167000040EEF6E09EF18F0260EE66E16EC18F069
:10168000E552002A0050EA6AA00FE96E000EEA2235
:10169000EF500D6E00500D240D24286E0001FD51F9
:1016A000285C36E2060E0DC0DBFF060EDB502FE095
:1016B000F29E8A8C939A8A8A8A9C8A9A8A8C8A9CBD
:1016C0008A8A8A8C8A9C8A8C8A9C002A0050EA6AC0
:1016D000A00FE96E000EEA22EFCF14F0002A0050AE
:1016E000EA6AA00FE96E000EEA22EFCF13F0100EA7
:1016F0000D6E14321332819AD8B0818A818C819C0C
:101700000D2EF7D78A9AF28E060EDB06CED70DD0B5
:10171000FE0EE66E16EC18F0E5520028EA6AA00FFD
:10172000E96E000EEA22040EEF6E09EF18F0270EA4
:10173000E66E16EC18F0E552040E0024286E000147
:10174000FD51285C65E2F29E8A8C939A8A8A8A9C73
:101750008A8C8A9C8A8C8A9C8A8C8A9C002A00505B
:10176000EA6AA00FE96E000EEA22EFCF14F0002A19
:101770000050EA6AA00FE96E000EEA22EFCF13F0E4
:10178000100E0D6E14321332819AD8B0818A818C7A
:10179000819C0D2EF7D78A9A8A8C8A9C8A8C8A9C87
:1017A0008A8C8A9C8A8C002A0050EA6AA00FE96E13
:1017B000000EEA22EFCF14F0002A0050EA6AA00FD0
:1017C000E96E000EEA22EFCF13F01350141008E078
:1017D00000000000000000001306000E145AF5D7A8
:1017E0008A9CECC00DF00D5009E0000000000000E4
:1017F00000000000000000000D06F5D7100E0D6E71
:101800000D5004E08A8C8A9C0D06FAD7F28E0DD01A
:10181000FE0EE66E16EC18F0E5520028EA6AA00FFC
:10182000E96E000EEA22040EEF6E09EF18F0280EA2
:10183000E66E16EC18F0E552040E0024286E000146
:10184000FD51285C66E2F29E8A8C939A8A9A8A9C61
:101850008A8A8A8C8A9C8A8C8A9C8A8C8A9C002A96
:101860000050EA6AA00FE96E000EEA22EFCF14F0F2
:10187000002A0050EA6AA00FE96E000EEA22EFCFBC
:1018800013F0100E0D6E14321332819AD8B0818A83
:10189000818C819C0D2EF7D78A9A8A8C8A9C8A8C9F
:1018A0008A9C8A8C8A9C8A8C002A0050EA6AA00F43
:1018B000E96E000EEA22EFCF14F0002A0050EA6A27
:1018C000A00FE96E000EEA22EFCF13F013501410B0
:1018D00008E000000000000000001306000E145A8B
:1018E000F5D78A9CECC00DF00D5009E00000000017
:1018F000000000000000000000000D06F5D7100EEB
:101900000D6E0D5004E08A8C8A9C0D06FAD7F28E7B
:101910000DD0FE0EE66E16EC18F0E5520028EA6ACD
:10192000A00FE96E000EEA22040EEF6E09EF18F028
:10193000290EE66E16EC18F0E552030E0024286E10
:101940000001FD51285C36E2002A0050EA6AA00F2F
:10195000E96E000EEA22EFCF13F0F29E8A8C939A82
:10196000040E0D6E1332819AD8B0818A818C819CCD
:101970000D2EF8D7002A0050EA6AA00FE96E000E7B
:10198000EA22EFCF14F0002A0050EA6AA00FE96EB5
:10199000000EEA22EFCF13F0100E0D6E1432133248
:1019A000819AD8B0818A818C819C0D2EF7D78A9A32
:1019B000F28E0DD0FE0EE66E16EC18F0E552002801
:1019C000EA6AA00FE96E000EEA22040EEF6E09EF3C
:1019D00018F02A0EE66E16EC18F0E5520028286E74
:1019E0000001FD51285C39E2002A0050EA6AA00F8C
:1019F000E96E000EEA22EFCF13F0F29E8A8C939AE2
:101A0000040E0D6E1332819AD8B0818A818C819C2C
:101A10000D2EF8D78A8C8A9C8A8C8A9C8A8C8A9C08
:101A20008A8C8A9C8A8C8A9C8A8C8A9C8A8C8A9CC6
:101A30008A8C8A9C938A080E0D6E818C819CD8902A
:101A400081BAD88013320D2EF8D78A9AF28E13C03D
:101A5000E6FF16EC18F0E5520DD0FE0EE66E16EC21
:101A600018F0E5520028EA6AA00FE96E000EEA229B
:101A7000040EEF6E09EF18F02B0EE66E16EC18F060
:101A8000E5520028286E0001FD51285C1EE2002A64
:101A90000050EA6AA00FE96E000EEA22EF500D6EC8
:101AA000FF0E0D5C03E19368948C0ED0C70E936E0D
:101AB0008A6A0DB08A860DB28A880DB48A8A949C8F
:101AC0008B9C0001050EEC6F0DD0FE0EE66E16EC41
:101AD00018F0E5520028EA6AA00FE96E000EEA222B
:101AE000040EEF6E09EF18F02C0EE66E16EC18F0EF
:101AF000E552030E0024286E0001FD51285C01E32D
:101B00008BD0002A0050EA6AA00FE96E000EEA228C
:101B1000EF500D6E0001010E146E002A0050EA6AAB
:101B2000A00FE96E000EEA22EFCF13F0C9EC18F017
:101B30000D5042E0FE0E00011314E66EEBEC18F0BF
:101B4000E552CDEC18F0000936E1002A0050EA6AAF
:101B5000A00FE96E000EEA22EF50E66EEBEC18F0F3
:101B6000E552CDEC18F0000926E10DEC19F0010E5C
:101B700000011310E66EEBEC18F0E552CDEC18F016
:101B8000000919E10001146A0D50E66E16EC18F018
:101B9000E5520D500EE0D6EC18F0F350E66E16EC60
:101BA00018F0E5520D50010802E228EC19F00D067C
:101BB000F0D722EC19F019D0010E00011310E66ED7
:101BC000EBEC18F0E552CDEC18F000090EE1010E37
:101BD000E66E16EC18F0E552D6EC18F0F350E66E0F
:101BE00016EC18F0E55222EC19F0CDEC18F00009D3
:101BF00010E0000114500DE0FD0EE66E16EC18F03A
:101C0000E5520028EA6AA00FE96E000EEA22040EEF
:101C1000EF6E17EC19F00DD0FE0EE66E16EC18F014
:101C2000E5520028EA6AA00FE96E000EEA22040ECF
:101C3000EF6E09EF18F02E0EE66E16EC18F0E55276
:101C4000040E0024286E0001FD51285C01E37FD0C2
:101C5000002A0050EA6AA00FE96E000EEA22EF5057
:101C60000D6E0001010E146E002A0050EA6AA00FEA
:101C7000E96E000EEA22EFCF13F0C9EC18F0FE0E69
:101C800000011314E66EEBEC18F0E552CDEC18F001
:101C9000000946E1002A0050EA6AA00FE96E000E32
:101CA000EA22EF50E66EEBEC18F0E552CDEC18F0BE
:101CB000000936E1002A0050EA6AA00FE96E000E22
:101CC000EA22EF50E66EEBEC18F0E552CDEC18F09E
:101CD000000926E10DEC19F0010E00011310E66E6B
:101CE000EBEC18F0E552CDEC18F0000919E1000119
:101CF000146A0D50E66E16EC18F0E5520D500EE029
:101D0000D6EC18F0F350E66E16EC18F0E5520D50D4
:101D1000010802E228EC19F00D06F0D722EC19F0C8
:101D2000CDEC18F0000910E0000114500DE0FD0E9C
:101D3000E66E16EC18F0E5520028EA6AA00FE96E8C
:101D4000000EEA22040EEF6E17EC19F00DD0FE0E15
:101D5000E66E16EC18F0E5520028EA6AA00FE96E6C
:101D6000000EEA22040EEF6E09EF18F02D0EE66E5B
:101D700016EC18F0E552002A0050EA6AA00FE96E4E
:101D8000000EEA22EF500D6E020E00240D24286E84
:101D90000001FD51285C50E2C9EC18F0002A005007
:101DA000EA6AA00FE96E000EEA22EF50FE0BE66E23
:101DB000EBEC18F0E552CDEC18F000092BE1002A0D
:101DC0000050EA6AA00FE96E000EEA22EF50E66EBC
:101DD000EBEC18F0E552CDEC18F000091BE10D50CA
:101DE000E66E16EC18F0E5520D5014E0002A005093
:101DF000EA6AA00FE96E000EEA22EF50E66EEBEC05
:101E000018F0E552CDEC18F0000902E00D6802D0A0
:101E10000D06EAD70D500DE0FD0EE66E16EC18F03B
:101E2000E5520028EA6AA00FE96E000EEA22040ECD
:101E3000EF6E17EC19F00DD0FE0EE66E16EC18F0F2
:101E4000E5520028EA6AA00FE96E000EEA22040EAD
:101E5000EF6E09EF18F02F0EE66E16EC18F0E55253
:101E60000028286E0001FD51285C3BE2002A00504A
:101E7000EA6AA00FE96E000EEA22EF500D6EFF0E27
:101E80000D5C09E19368948C948E010E066E00013E
:101E9000640EEC6F25D0E50E936E0DA602D08A82FB
:101EA00001D08A92949C8B9C949E0C0E0D14000180
:101EB000EC6F030E0D160D5003E1120E066E10D0DE
:101EC0000D0403E1080E066E0BD0020E0D5C03E15B
:101ED000050E066E05D0030E0D5C02E1020E066EC5
:101EE0000DD0FE0EE66E16EC18F0E5520028EA6AF8
:101EF000A00FE96E000EEA22040EEF6E09EF18F053
:101F0000300EE66E16EC18F0E5520028286E00013F
:101F1000FD51285C23E2002A0050EA6AA00FE96E16
:101F2000000EEA22EF500D6E0D50E66E16EC18F022
:101F3000E5520D5005E1E66A16EC18F0E5520DD0B9
:101F400093800D500AE0E66A3EEC19F0E552E66E29
:101F500016EC18F0E5520D06F4D70DD0FE0EE66E25
:101F600016EC18F0E5520028EA6AA00FE96E000EA0
:101F7000EA22040EEF6E09EF18F0310EE66E16EC51
:101F800018F0E552002A0050EA6AA00FE96E000E30
:101F9000EA22EF500D6E00500D24286E0001FD5115
:101FA000285C17E20D50E66E16EC18F0E552949E90
:101FB0000D500EE0002A0050EA6AA00FE96E000EF4
:101FC000EA22EF50E66E3EEC19F0E5520D06F0D72E
:101FD0000DD0FE0EE66E16EC18F0E5520028EA6A07
:101FE000A00FE96E000EEA22040EEF6E09EF18F062
:101FF000320EE66E16EC18F0E552020E0024286E42
:102000000001FD51285C21E2002A0050EA6AA00F7D
:10201000E96E000EEA22EF508A6E002A0050EA6A4A
:10202000A00FE96E000EEA22EF500D6EC00E0D14E7
:10203000286E3F0E8B1428108B6E380E0D14286EF0
:10204000C70E89142810896E0DD0FE0EE66E16ECB0
:1020500018F0E5520028EA6AA00FE96E000EEA22A5
:10206000040EEF6E09EF18F0330EE66E16EC18F062
:10207000E552030E0024286E0001FD51285C6BE23E
:10208000002A0050EA6AA00FE96E000EEA22EF5023
:102090000D6E002A0050EA6AA00FE96E000EEA22D7
:1020A000EFCF14F0002A0050EA6AA00FE96E000E8C
:1020B000EA22EFCF13F001500D240D24286E400EBC
:1020C000285C3BE20D50E66E16EC18F0E5520D5020
:1020D00033E0200EE66E3EEC19F0E55214C0E6FF48
:1020E0003EEC19F0E55213C0E6FF3EEC19F0E55264
:1020F000E66A3EEC19F0E552E66E16EC18F0E55291
:10210000280EE66E3EEC19F0E55214C0E6FF3EECF8
:1021100019F0E55213C0E6FF3EEC19F0E552E66A0D
:102120003EEC19F0E552E66E16EC18F0E552132A73
:10213000000E14220D06CBD70DD0FE0EE66E16EC67
:1021400018F0E5520028EA6AA00FE96E000EEA22B4
:10215000040EEF6E0DD0FE0EE66E16EC18F0E55292
:102160000028EA6AA00FE96E000EEA22040EEF6E64
:1021700009EF18F0340EE66E16EC18F0E552002A5E
:102180000050EA6AA00FE96E000EEA22EF500D6ED1
:1021900000500D240D24020F286E0001FD51285C13
:1021A00055E20D50E66E16EC18F0E552002A00508C
:1021B000EA6AA00FE96E000EEA22EFCF14F0002ABF
:1021C0000050EA6AA00FE96E000EEA22EFCF13F08A
:1021D0000D503BE0400EE66E3EEC19F0E55214C0A7
:1021E000E6FF3EEC19F0E55213C0E6FF3EEC19F0B5
:1021F000E552002A0050EA6AA00FE96E000EEA22BA
:10220000EF50E66E3EEC19F0E552480EE66E3EECFD
:1022100019F0E55214C0E6FF3EEC19F0E55213C088
:10222000E6FF3EEC19F0E552002A0050EA6AA00FE2
:10223000E96E000EEA22EF50E66E3EEC19F0E55230
:10224000132A000E14220D06C3D70DD0FE0EE66E23
:1022500016EC18F0E5520028EA6AA00FE96E000EAD
:10226000EA22040EEF6E09EF18F0350EE66E16EC5A
:1022700018F0E5520028286E0001FD51285C11E29B
:10228000002A0050EA6AA00FE96E000EEA22EF5021
:102290000D6EFF0E0D5C02E18A9602D093968A863F
:1022A0000DD0FE0EE66E16EC18F0E5520028EA6A34
:1022B000A00FE96E000EEA22040EEF6E09EF18F08F
:1022C000360EE66E16EC18F0E552030E0024286E6A
:1022D0000001FD51285C4AE2F29E939A8A9A00001E
:1022E0008A8C0000000000008A9C00008A8C00009C
:1022F000000000008A9C00008A8C000000000000A2
:102300008A9C00008A8C0000000000008A9C002A41
:102310000050EA6AA00FE96E000EEA22EFCF14F037
:10232000002A0050EA6AA00FE96E000EEA22EFCF01
:1023300013F0002A0050EA6AA00FE96E000EEA22AC
:10234000EF500E6E180E0D6E143213320E32D8A0EE
:10235000819AD8B0818A0000818C000000000000C2
:10236000819C0D2EF1D78A9AF28E0DD0FE0EE66E6C
:1023700016EC18F0E5520028EA6AA00FE96E000E8C
:10238000EA22040EEF6E09EF18F03E0EE66E16EC30
:1023900018F0E552030E0024286E0001FD51285C60
:1023A00056E2F29E939A8A9A00008A8C00000000FE
:1023B00000008A9C00008A8C0000000000008A9CBB
:1023C00000008A8C0000000000008A9C00008A8CBB
:1023D0000000000000008A9C002A0050EA6AA00F5A
:1023E000E96E000EEA22EFCF14F0002A0050EA6AEC
:1023F000A00FE96E000EEA22EFCF13F0002A005082
:10240000EA6AA00FE96E000EEA22EF500E6E180E77
:102410000D6E143213320E32D8A0819AD8B0818A50
:102420000000818C000000000000819C0D2EF1D77F
:102430008A9A0D6A380E0D5C08E200008A8C000052
:10244000000000008A9C0D2AF5D7F28E0DD0FE0EFA
:10245000E66E16EC18F0E5520028EA6AA00FE96E65
:10246000000EEA22040EEF6E09EF18F03F0EE66E42
:1024700016EC18F0E552002A0050EA6AA00FE96E47
:10248000000EEA22EF500D6E3F0E0D140E6E00503E
:102490000E240E240E24286E0001FD51285C01E359
:1024A00086D0C00E0D14E76E080EE7CFDBFF080ED6
:1024B000DB50400806E11C0EF36E080EF3CFDBFF85
:1024C00013D0080EDB50800806E1380EF36E080EBC
:1024D000F3CFDBFF09D0080EDB50C00805E1540E36
:1024E000F36E080EF3CFDBFFF29E939A3F0E0D14AE
:1024F000E76E070EE7CFDBFF070EDB5056E08A9A48
:1025000000008A8C0000000000008A9C00008A8C79
:102510000000000000008A9C00008A8C000000007F
:1025200000008A9C00008A8C0000000000008A9C49
:10253000002A0050EA6AA00FE96E000EEA22EFCFEF
:1025400014F0002A0050EA6AA00FE96E000EEA2299
:10255000EFCF13F0002A0050EA6AA00FE96E000ED8
:10256000EA22EF500E6E180E0D6E143213320E3238
:10257000D8A0819AD8B0818A0000818C0000000028
:102580000000819C0D2EF1D78A9A080EDB500D6E4B
:102590000D5008E000008A8C0000000000008A9CBA
:1025A0000D06F6D7070EDB06A7D7F28E0DD0FE0E6E
:1025B000E66E16EC18F0E5520028EA6AA00FE96E04
:1025C000000EEA22040EEF6E09EF18F0370EE66EE9
:1025D00016EC18F0E552F29E939A8A8A00008A8CD3
:1025E0000000000000008A9C8A9A0D6A0B0E0D5CA8
:1025F00008E200008A8C0000000000008A9C0D2A7E
:10260000F5D7938A100E0D6E818C0000000000003B
:10261000D89081BAD88014321332819C0D2EF4D711
:102620008A9AF28E14C0E6FF16EC18F0E55213C039
:10263000E6FF16EC18F0E55209EF18F0380EE66EDA
:1026400016EC18F0E552F29E939A8A9A0D6A1C0EC7
:102650000D5C08E200008A8C0000000000008A9CEB
:102660000D2AF5D7F28E09EF18F0390EE66E16EC4A
:1026700018F0E552002A0050EA6AA00FE96E000E39
:10268000EA22EF500D6E00500D240D24286E00013B
:10269000FD51285C48E2F29E939A090E0DC0DBFFC3
:1026A000090EDB503CE0002A0050EA6AA00FE96EF8
:1026B000000EEA22EFCF14F0002A0050EA6AA00FC1
:1026C000E96E000EEA22EFCF13F0100E0D6E1336F6
:1026D0001436D8A0819AD8B0818A0000818C06C0B7
:1026E0000EF00E0609E000000000000000000000EF
:1026F000000000000000F5D7819C06C00EF00E0619
:1027000009E00000000000000000000000000000E0
:102710000000F5D70D2EDBD7090EDB06C1D78A9A4C
:10272000938AF28E0DD0FE0EE66E16EC18F0E5528E
:102730000028EA6AA00FE96E000EEA22040EEF6E8E
:1027400009EF18F03A0EE66E16EC18F0E552002A82
:102750000050EA6AA00FE96E000EEA22EF500D6EFB
:102760000001FD51005C48E201500D240D24286E4B
:10277000400E285C41E20D50E66E16EC18F0E55272
:10278000F29E938A0A0E0DC0DBFF0A0EDB5032E088
:10279000100E0D6E818C06C00EF00E0609E00000D2
:1027A0000000000000000000000000000000F5D75D
:1027B000D89081BAD88013361436819C06C00EF0AA
:1027C0000E0609E00000000000000000000000000C
:1027D00000000000F5D70D2EDDD714C0E6FF16EC83
:1027E00018F0E55213C0E6FF16EC18F0E5520A0E99
:1027F000DB06CBD7F28E0DD0FE0EE66E16EC18F08F
:10280000E5520028EA6AA00FE96E000EEA22040EE3
:10281000EF6E09EF18F03B0EE66E16EC18F0E5527D
:10282000C50E936E8A6A949E09EF18F03C0EE66E10
:1028300016EC18F0E552002A0050EA6AA00FE96E83
:10284000000EEA22EF500D6E0D040024E8380F0B45
:10285000286E0001FD51285C22E2F29E0E6A0D50A6
:1028600000081BE20E500BE1002A0050EA6AA00F9C
:10287000E96E000EEA22EFCF13F0080E0E6E13364B
:10288000D8A08B9ED8B08B8E8A82000000000000FA
:1028900000008A920D060E06E2D7F28E0CD0FE0ED4
:1028A000E66EC4DBE5520028EA6AA00FE96E000E6E
:1028B000EA22040EEF6EADD33D0EE66EB7DBE552B5
:1028C0000028286E0001FD51285C38E20D04012427
:1028D000E8380F0B296E400E295C30E2002A0050C8
:1028E000EA6AA00FE96E000EEA22EF500D6E0D505D
:1028F000E66E9CDBE552F29E0001136A080E0E6E36
:102900000D50000819E28A8200000000000000005B
:102910008A92D89081B0D88013360E060E5002E00D
:102920000D0408E1080E0E6E13C0E6FF7FDBE552D2
:102930000001136A0D06E4D7F28E0CD0FE0EE66E8F
:1029400075DBE5520028EA6AA00FE96E000EEA2264
:10295000040EEF6E5ED3400EE66E68DBE552F29E2B
:102960008A80939000008A90FA0EE66EAFEC18F021
:10297000E552FA0EE66EAFEC18F0E5528A800000E0
:102980009380460EE66EAFEC18F0E55281B005D0AC
:10299000010EE66E4BDBE55203D0E66A47DBE552FB
:1029A000960EE66EDCDBE552960EE66ED8DBE5525F
:1029B000F28E2FD3410EE66E39DBE552002A00502D
:1029C000EA6AA00FE96E000EEA22EF500D6E005089
:1029D0000D24286E0001FD51285C36E20D5033E0D5
:1029E000002A0050EA6AA00FE96E000EEA22EF50BA
:1029F0000E6EF29E080EF36E0B0EF3CFDBFF0B0E86
:102A0000DB5000081DE28A9093900EA00AD0040EBD
:102A1000E66EA5DBE5528A80420EE66EA0DBE5524B
:102A200009D03C0EE66E9BDBE5528A800A0EE66E0C
:102A300096DBE5520E407F0B0E6E0B0EDB06DFD7EA
:102A4000F28E0D06CBD70CD0FE0EE66EEFDAE55215
:102A50000028EA6AA00FE96E000EEA22040EEF6E6B
:102A6000D8D2420EE66EE2DAE552002A0050EA6A57
:102A7000A00FE96E000EEA22EF500D6E0001FD512D
:102A8000005C42E201500D24286E400E285C3CE2BE
:102A90000D50E66ECBDAE5520D5035E0F29E0E6A2F
:102AA000080EF36E0C0EF3CFDBFF0C0EDB500008AC
:102AB00023E28A909390060EE66E51DBE5528A80FF
:102AC00000009380080EE66E4ADBE5520E407F0B55
:102AD0000E6E81A002D0800E0E26280EE66E3FDB21
:102AE000E5528A80939000009380100EE66E37DBEB
:102AF000E5520C0EDB06D9D70E50E66E97DAE5529A
:102B0000F28E0D06C9D70CD0FE0EE66E8FDAE552B6
:102B10000028EA6AA00FE96E000EEA22040EEF6EAA
:102B200078D2430EE66E82DAE552F29E8A90939056
:102B30000A0EE66E14DBE5528A80FA0EE66E0FDBB3
:102B4000E552FA0EE66E0BDBE5526E0EE66E07DB23
:102B5000E5529380F28E5DD2440EE66E67DAE5525E
:102B6000002A0050EA6AA00FE96E000EEA22EF5038
:102B70000D6E002A0050EA6AA00FE96E000EEA22EC
:102B8000EF500E6E00500D24286E0001FD51285CA0
:102B900001E38DD101500E24296E400E295C01E322
:102BA00086D1F29E0D5065E08A909390140EE66EE9
:102BB000D6DAE5528A800A0EE66ED1DAE5528A90BC
:102BC000140EE66ECCDAE5528A80140EE66EC7DA91
:102BD000E5528A90140EE66EC2DAE5528A80140E2F
:102BE000E66EBDDAE5528A90140EE66EB8DAE5526A
:102BF0008A80140EE66EB3DAE5528A90140EE66E01
:102C0000AEDAE5528A800A0EE66EA9DAE5528A90BB
:102C10000A0EE66EA4DAE5528A800A0EE66E9FDAA4
:102C2000E5529380050EE66E9ADAE5520D0EDB6AE8
:102C300081B005D0010EF36E0D0EF3CFDBFF0A0E4F
:102C4000E66E8DDAE55281B005D0010EF36E0D0E01
:102C5000F3CFDBFF020EE66E82DAE5520D0EDB509B
:102C600008E0FD0EE66EE2D9E5520E6A0D6A0D50DF
:102C700000260D5001E17DD0002A0050EA6AA00F25
:102C8000E96E000EEA220E0EEFCFDBFF8A909390E2
:102C9000080EF36E0D0EF3CFDBFF0D0EDB500008B8
:102CA0001DE20E0EDBAE07D08A900A0EE66E57DAF2
:102CB000E5528A8006D08A800A0EE66E50DAE55226
:102CC0008A90080EE66E4BDAE5520E0EDB50020DCE
:102CD0000E0EF3CFDBFF0D0EDB06DFD70E5003E148
:102CE0000D50010807E28A900A0EE66E38DAE552C6
:102CF0008A8006D08A800A0EE66E31DAE5528A9022
:102D00000A0EE66E2CDAE5529380050EE66E27DA9F
:102D1000E5520D0EDB6A81A005D0010EF36E0D0E9B
:102D2000F3CFDBFF0A0EE66E1ADAE55281B005D06A
:102D3000010EF36E0D0EF3CFDBFF0D0EDB5009E03D
:102D4000FD0EE66E73D9E552010E0D6E0E6A0D5042
:102D500000260D5001080BE20000000000000000FA
:102D600000000000000000000000000000000D0650
:102D700080D70000000000000E50E66E57D9E552E3
:102D80000E5001E192D00E0EDB6A9380080EF36EB6
:102D90000D0EF3CFDBFF0D0EDB50000835E2030E06
:102DA000E66EDDD9E5520E0EDB50020D0E0EF3CFAE
:102DB000DBFF81B00AD00A0EE66ED1D9E55281A0C0
:102DC00003D00E0EDB2A00D00AD00A0EE66EC7D959
:102DD000E55281A000D000000000000000000000CB
:102DE00000000000000000000D0EDB50010805E2AD
:102DF000040EE66EB4D9E55204D0020EE66EAFD9E9
:102E0000E5520D0EDB06C7D70000000000000000F1
:102E10000000000093900E50010807E28A900A0E0D
:102E2000E66E9DD9E5528A8006D08A800A0EE66E4B
:102E300096D9E5528A900E0EDBCFE6FFF7D8E55221
:102E4000070EE66E8CD9E5529380050EE66E87D9A3
:102E5000E5520D0EDB6A81A005D0010EF36E0D0E5A
:102E6000F3CFDBFF0A0EE66E7AD9E55281B005D0CA
:102E7000010EF36E0D0EF3CFDBFF030EE66E6FD97E
:102E8000E55200000000000000000000000000000B
:102E9000000000000D0EDB5006E0FD0EE66EC6D809
:102EA000E552010E0E6E0E066BD7F28E0CD0FE0EA2
:102EB000E66EBCD8E5520028EA6AA00FE96E000E63
:102EC000EA22040EEF6EA5D0400E015C09E201502B
:102ED000EA6A600FE96E000EEA22EF6A012AF4D76F
:102EE000016A04010CBF0BD0400EE66E600EE66E68
:102EF000000EE66E76EC19F0E552E552E5520068F8
:102F000088D0F00EE66E92D8E552020E0024286EAC
:102F10000001FD51285C25E2002A0050EA6AA00F5A
:102F2000E96E000EEA22EFCF14F0002A0050EA6AA0
:102F3000A00FE96E000EEA22EFCF13F014C0E6FFF7
:102F400075D8E55213C0E6FF71D8E55214C0EAFF08
:102F500013C0E9FFEF500D6E0D50E66E67D8E552D5
:102F60000CD0FE0EE66E62D8E5520028EA6AA00F89
:102F7000E96E000EEA22040EEF6E4BD0F10EE66E03
:102F800055D8E552030E0024286E0001FD51285C3F
:102F90002EE2002A0050EA6AA00FE96E000EEA2233
:102FA000EFCF14F0002A0050EA6AA00FE96E000E7D
:102FB000EA22EFCF13F0002A0050EA6AA00FE96E70
:102FC000000EEA22EF500D6E14C0E6FF2FD8E55236
:102FD00013C0E6FF2BD8E5520D50E66E27D8E55218
:102FE00014C0EAFF13C0E9FF0D50EF6E0CD0FE0EC7
:102FF000E66E1CD8E5520028EA6AA00FE96E000EC2
:10300000EA22040EEF6E05D0FE0EE66E0FD8E552F2
:1030100000D0002A01D089920F0EE15C02E2E16A41
:10302000E552E16EE552E7CFD9FF1200D9CFE6FFB6
:10303000E1CFD9FF0001EA510AE00A0E025C11E279
:103040000250022AEA6AE00FE96E000E06D0015033
:10305000012AEA6A600FE96E000EEA22FE0EDBCF5B
:10306000EFFF400E015C13E1016A04010CBF0CD0BC
:10307000400EE66E600EE66E000EE66E76EC19F01F
:10308000E552E552E55203D00001010EEA6FE55228
:10309000E7CFD9FF1200D8CFE4FFE0CFE4FFE46E22
:1030A000DACFE4FFE2CFDAFFF3CFE4FFF4CFE4FFBF
:1030B000E652C282F40ECF6E480ECE6EC2B2FED77A
:1030C0009E9007C009F008C00AF0C4CF08F0C3CF33
:1030D00007F00B50075E0C50085AE10E0902F4CFBE
:1030E00010F0F3CF0FF0E10E0A02F35010260F504C
:1030F000032610500422E40E0702F4CF10F0F3CFA1
:103100000FF0E40E0802F35010260F50035E10502B
:10311000045A0001043402E3036A046A0550000102
:10312000D880045402E205C004F004C0BEFF0001D0
:103130000350E840E8403F0B300B2C6ECF0EBD141F
:103140002C10BD6EE552E5CFF4FFE5CFF3FFE5CFE0
:10315000DAFFE550E5CFE0FFE5CFD8FF1000D9CF8B
:10316000E6FFE1CFD9FFE652FE0EDB50FE0FDF6E29
:10317000DF5009E000000000000000000000000037
:103180000000DF06F5D700D0E552E552E7CFD9FFC2
:1031900012008A9093902FEF19F08A929392938065
:1031A0005ED893825CD881B0FF0C000C080E166EBE
:1031B0008A929392938053D8938251D8159E154644
:1031C000159081B015801606F4E1296A15C0F3FF49
:1031D00029C0F4FF1200D9CFE6FFE1CFD9FF080ED6
:1031E000166EFE0EDB50156E8A921537D8A006D0EB
:1031F0009392938034D8938232D806D093928A9057
:1032000093902DD893822BD816061650EEE1000E1F
:1032100000D0E552E7CFD9FF12008A9293929380B3
:103220001ED893821CD88A9093902FEF19F08A921F
:1032300093928A90939013D8938211D893800FD849
:103240002FEF19F0939293800AD893822FEF19F001
:1032500093928A90939003D893822FEF19F0ECC049
:1032600017F0175009E00000000000000000000007
:10327000000000001706F5D700D01200D9CFE6FFF6
:10328000E1CFD9FFF29EFE0EDB50156EECC00FF0C1
:10329000080E0E6E0FB404D015AE829E15BE828E3F
:1032A0000650176E172EFED70FA681820FB6819299
:1032B0000FA405D015AE829E15BE828E02D081303D
:1032C00015360650176E172EFED70FA681920FB631
:1032D00081820FA402D0813015360E2EDBD7F28EFC
:0C32E000155000D0E552E7CFD9FF1200D6
:0432EC00D9CFE6FF51
:1032F000E1CFD9FFE65204010CAF02D0000E33D06B
:10330000FC0EDB50400805E2400EF36EFC0EF3CFDE
:10331000DBFFDF6AFC0EDB50DF5C19E2DF50E76E9B
:10332000FD0EDBCFE9FFFE0EDBCFEAFFE750E9261B
:10333000000EEA22EF50E66EDF50EA6A680FE96E8F
:10334000040EEA22E552E750EF6EDF2AE3D7FC0EC7
:10335000DBCF0DF404010CAD02D0880E01D0C80EF5
:103360000C6FFC0EDB50E552E552E7CFD9FF12009F
:10337000D9CFE6FFE1CFD9FF0101536B040108BFAC
:1033800032D0FC0EDBCF28F00951D880285403E25C
:10339000FC0E09C4DBFF0101536BFC0EDB50535DD7
:1033A00019E25351EA6A280FE96E040EEA22EF503F
:1033B000E66E5351E76EFD0EDBCFE9FFFE0EDBCF6D
:1033C000EAFFE750E926000EEA22E552E750EF6EE9
:1033D000532BE3D70401400E096F08AD02D0880ECD
:1033E00001D0C80E086F01015351E552E7CFD9FF54
:1033F00012000101536B1E0E716E0401400E096F25
:10340000280E286E040E28C00AF40B6F880E086F71
:10341000680E286E040E28C00EF40F6F400E0C6F5D
:103420001200D9CFE6FFE1CFD9FFE65212C4DFFF89
:103430000101010E476FE552E552E7CFD9FF1200B7
:10344000D9CFE6FFE1CFD9FFE65212C4DFFF010179
:10345000010E476FE552E552E7CFD9FF1200D9CFF1
:10346000E6FFE1CFD9FF020EE1261F0E0401101581
:10347000010865E1145163E111C4DFFF060EDF5C52
:1034800023E1010E13C4DBFFDB50210809E1010138
:10349000010E476FB50E4A6F3C0E4B6F090E0CD0F4
:1034A000010EDB5022080DE10101010E476FD50E20
:1034B0004A6F3C0E4B6F220E4E6F4F6B010E506FDA
:1034C00003D0010EDB502308600E04011015200804
:1034D00036E1DF0402E1A5DF32D0090EDF5C05E151
:1034E0000101010E466FACDF2AD0020EDF5C07E15E
:1034F0000101010E476F510E486F010E12D00A0EE6
:10350000DF5C06E10101010E476F13C451F117D0D2
:10351000030EDF5C0CE10101010E476F520E486F94
:10352000010E496F010E4E6F4F6B506B08D00B0EA2
:10353000DF5C05E10101010E476F12C452F1020E7A
:10354000E15C02E2E16AE552E16EE552E7CFD9FFC4
:103550001200D9CFE6FFE1CFD9FF020EE126800E9F
:103560000401105D3CE113C4DFFF010E12C4DBFF58
:10357000DF0409E10101010E476F9A0E4A6F3C0E0C
:103580004B6F120E28D0020EDF5C09E10101010E23
:10359000476FAC0E4A6F3C0E4B6F290E1CD0030ECA
:1035A000DF5C1DE10101010E476FDB5004E1F70E06
:1035B0004A6F3C0E0AD0010EDB0404E1FB0E4A6F99
:1035C0003C0E03D01B0E4A6F3D0E4B6F4AC1F6FFF7
:1035D000F76E0800F5504E6F4F6B010E506F020EE4
:1035E000E15C02E2E16AE552E16EE552E7CFD9FF24
:1035F0001200D9CFE6FFE1CFD9FF030EE1261F0E5F
:1036000004011015DF6E206B216BDF500DE101010D
:10361000010E476F435102E0040120810101415135
:1036200035E00401208332D0DF0404E10101010E02
:10363000476F2CD0020EDF5C29E10F0E1415E76EE8
:10364000010EE7CFDBFF800E1415E76E020EE7CF09
:10365000DBFF0101010E476FDB50080DF3504C6F8B
:103660004D6B000E4C27040E4D23020EDB5004E080
:10367000040E4C27000E4D234CC1E9FF4DC1EAFF5B
:10368000EF50040B03E00401010E206F01014751CC
:1036900008E0200E486F040E496F020E4E6F4F6B0C
:1036A000506B030EE15C02E2E16AE552E16EE55225
:1036B000E7CFD9FF1200D9CFE6FFE1CFD9FF040E43
:1036C000E1261F0E04011015DF6E010E12C4DBFF90
:1036D000DF5011E1010EDB044CE10101010E476FE7
:1036E000030E0401115D04E10101010E416F41D09F
:1036F0000101416B3ED0020EDF5C3BE10F0E141561
:10370000E76E020EE7CFDBFF800E1415E76E030EA7
:10371000E7CFDBFF010EDB502CE1020EDB5029E08E
:103720000101010E476F020EDB50080DF3504C6F84
:103730004D6B000E4C27040E4D23030EDB5004E0AE
:10374000040E4C27000E4D23030E0401115D02E10F
:10375000840E0AD0030EDB0406E14CC1E9FF4DC123
:10376000EAFFEF6A06D0880E4CC1E9FF4DC1EAFFBF
:10377000EF6E040EE15C02E2E16AE552E16EE552B1
:10378000E7CFD9FF1200D9CFE6FFE1CFD9FFE6524C
:1037900011C4DFFF600E0401101554E1050EDF5C5B
:1037A00008E10101010E476F040E406F12C442F19F
:1037B00049D0060EDF5C02E1CCDE44D0090EDF5CAE
:1037C0000EE10101010E476F12C444F1445103E1BF
:1037D000040E406F37D0050E406F0BDE33D0080E5D
:1037E000DF5C07E10101010E476F440E486F010ED7
:1037F00017D0DF5002E1FDDE25D0DF0403E0030E29
:10380000DF5C02E158DF1ED00A0EDF5C0FE1010130
:10381000010E476F0401206B0101200E486F040E5A
:10382000496F010E4E6F4F6B506B0CD00B0EDF5C6F
:1038300004E10101010E476F05D0070EDF5C02E0D5
:103840000C0EDF5CE552E552E7CFD9FF1200D9CF6D
:10385000E6FFE1CFD9FF030EE1260101080E4E5D20
:10386000000E4F5907E2010E4EC1DBFF020E4FC1A1
:10387000DBFF07D0080EF36E010EF3CFDBFF020E65
:10388000DB6AFC0E04010417010E020EDBCF29F0E7
:10389000000E030E291629C028F029500413FF0E2C
:1038A000E76E010EDBCF28F0020EE750281628C085
:1038B00005F4200E286E040E2B6A28C006F4076F4C
:1038C000010EDB5001014E5F020EDB504F5B200EFC
:1038D0004C6F040E4D6F500524E1DF6ADFCF28F0F6
:1038E000010EDBCF29F0020EDBCF2AF02950285C35
:1038F000000E2A5439E24AC1F6FF4BC1F7FF4A2BAA
:10390000000E4B230800F550E66E4CC1E9FF4DC197
:10391000EAFF4C2B000E4D23E552E750EF6EDF2AF5
:10392000DDD7DF6ADFCF28F0010EDBCF29F0020EF2
:10393000DBCF2AF02950285C000E2A5415E248C13A
:10394000E9FF49C1EAFF482B000E4923EF50E66E1C
:103950004CC1E9FF4DC1EAFF4C2B000E4D23E5524F
:10396000E750EF6EDF2ADED7030EE15C02E2E16A88
:10397000E552E16EE552E7CFD9FF1200D9CFE6FF5D
:10398000E1CFD9FF040EE1260401F3500111E66EE8
:10399000D950020FE96EDACFEAFFE552E750EE6E3A
:1039A000ED6A020EDB5001014E27030EDB504F2360
:1039B000200E486F040E496FDE6ADD6ADECF28F004
:1039C000DDCF29F0020EDBCF2AF0030EDBCF2BF088
:1039D0002A50285C2B50295818E248C1E9FF49C1F8
:1039E000EAFF482B000E4923EF50E66E4CC1E9FF79
:1039F0004DC1EAFF4C2B000E4D23E552E750EF6E10
:103A0000DF2A010EDBE3DB2AD9D7040EE15C02E2F8
:103A1000E16AE552E16EE552E7CFD9FF12000401F9
:103A2000049F009F0101456B476B466B4E6B4F6BCC
:103A3000AADE15DD010147510EE10401080E016FF8
:103A4000100E286E040E2A6A2B6A28C002F4036F37
:103A5000840E006F30D0040110AF2FD001014E5101
:103A60000401165D01014F510401175904E216C407
:103A70004EF117C44FF1EBDE0101020E456F040158
:103A8000080E016F100E286E040E296E2A6A2B6A2A
:103A90002A6A2B6A28C002F4036F800E006F200E82
:103AA000286E040E296E2A6A2B6A2A6A2B6A28C09D
:103AB00006F4076FC80E046F16D00101010E456FA2
:103AC0000401056BC80E046F080E016F200E286EEE
:103AD000040E296E2A6A2B6A2A6A2B6A28C002F40D
:103AE000036FC80E006F6D9812000101456B040151
:103AF000080E016F100E286E040E28C002F4036F2A
:103B0000880E006F046B1200D9CFE6FFE1CFD9FF1A
:103B1000020EE1266C5024E13C0E04010015E84041
:103B2000E8403F0BDF6E0D0EDF5C02E178DF35D041
:103B30000101450531E122DF0101465109E0010E95
:103B400012C4DBFF020E0401135D02E0030E135DDD
:103B5000040100AD02D0880E01D0C80E006F1DD048
:103B6000040E6C5C1AE16E500AE1040E0101405D26
:103B700006E112C46EFF6E5002E1030E406F020EAA
:103B80000101455D09E163DE040104AD02D0880E48
:103B900001D0C80E046F01D0A8DF020EE15C02E282
:103BA000E16AE552E16EE552E7CFD9FF12006DB64A
:103BB00006D06D6A696A6D860101010E406F0101D0
:103BC000400509E16D50200B06E1686A696A698069
:103BD0006988020E406F12006D9269946894120019
:103BE000689C120070A002D080DF7090689A12006A
:103BF00012006A6A686A9F0E6B6E7B0E696E6E6A4F
:103C0000160E706E68A602D06896FCD76D986DDFB0
:103C10000101416B436B446B030E406F12000101C5
:103C2000405101E112006850040B04E06950040B9C
:103C300001E0D2DF6DB212006850010B04E0695060
:103C4000010B01E0D6DF6850100B04E06950100B47
:103C500001E0CEDF6850400B04E06950400B01E00A
:103C6000BFDF6850200B04E06950200B01E0BADF91
:103C70006850020B04E06950020B01E06892030EE9
:103C80000101405D01E212006850080B05E0695037
:0A3C9000080B02E039DF689612000D
:063C9A001201000200000F
:103CA0000008D804000101000102000109022900F6
:103CB000010100A0320904000002030000000921F4
:103CC00001010001222200070581034000010705D0
:103CD000010340000106A0FF0901A101090315002D
:103CE00026FF007508954081020904150026FF0093
:103CF000750895409102C00403090420034F007029
:103D00000065006E002000500072006F00670072B6
:103D10000061006D006D00650072003E034F007091
:103D20000065006E002000500072006F0067007296
:103D30000061006D006D00650072002000200055DC
:103D40000053004200200048004900440020006366
:093D5000006C00610073007300B7
:013D59000069
:063D5A002A0EF66E000EB9
:103D6000F76E000EF86E00010900F550F86F0900BB
:103D7000F550F96F03E1F86701D03DD00900F55027
:103D8000F36F0900F550F46F0900F550F56F090065
:103D90000900F550E96E0900F550EA6E09000900C6
:103DA0000900F550F66F0900F550F76F090009009A
:103DB000F6CFFAF0F7CFFBF0F8CFFCF0F3C0F6FF48
:103DC000F4C0F7FFF5C0F8FF0001F65302E1F75326
:103DD00007E00900F550EE6EF607F8E2F707F9D7AD
:103DE000FAC0F6FFFBC0F7FFFCC0F8FF0001F807C0
:083DF000000EF95BBFD71200C1
:083DF800186A26AE05EF1FF06A
:103E0000256C261EE86A2622181E21AE0DEF1FF033
:103E1000206C211EE86A2122181E22EC1FF021BE10
:103E20001DEF1FF018AE000C206C211EE86A212245
:103E30001C6C1D1EE86A1D22000C18BE14EF1FF03A
:043E40001988FF0CD2
:0C3E44001D6A1C6A100EE76ED890203634
:103E500021361C361D3625501C5C26501D5805E3A6
:103E600025501C5E26501D5A202AE72EF0D712003E
:103E70000F0EC112140E6F6E0101406B0101416BF8
:103E80000101446B22EC00F0D7EC1DF06FBE02D0B4
:0A3E90000FEC1EF061EC00F0F7D714
:063E9A0011EE00F021EE24
:103EA00000F0F86A199CADEC1EF062EC1FF038ECE3
:063EB0001FF0FBD7120019
:0A3EB60000EE00F00F0EEE6AEA6263
:043EC000FDD7120018
:023EC4001200EA
:0A3EC600000000000064010000008D
:0E3ED00000AB03000000000000000000000036
:020000040030CA
:0100000022DD
:010001000EF0
:010002003DC0
:010003001EDE
:0100050000FA
:010006008178
:00000001FF
