:020000040000FA
:0600000038EF27F01200AA
:060008001BEF20F01200C6
:06002A000200A84E0000D8
:1000300014010000080000008E4E000000000000C7
:040040001A000000A2
:0C004400700ED36E900EB56E0F01010E11
:100050005B6F5C6B5D6BC16AC26E860EC06E84B6F0
:1000600003D00101010E156F0001EA6BEB6B8A6A88
:10007000896AF90E926E976ABD6A010E066E640E69
:10008000EC6FD00EEF6F070EF06F080EED6F0B0EDA
:10009000EE6F000E036E046A096E0A6A076E086A44
:1000A000800ED56E1200F2A418D0F2940001EB2B52
:1000B000050E0101005D07E20A0E0001EB5D03E39E
:1000C0008974EB6B1200050E0101005D06E12E0E36
:1000D0000001EB5D02E38974EB6B1200E4DF050EB7
:1000E0000101005D66E36050020B01E012000001B7
:1000F000EA5129E0800E04010C1525E1400EE66E60
:10010000600EE66E000EE66E51EC21F0E552E5520F
:10011000E5520001EA6B016A0250015C13E20150F2
:10012000EA6AE00FE96E000EEA22EF50E66E015037
:10013000EA6A600FE96E000EEA22E552E750EF6EC0
:10014000012AEAD7026A01011451005C31E301502F
:100150001FE0400E015C09E20150EA6A600FE96E9F
:10016000000EEA22EF6A012AF4D7016A04010CBFEB
:100170000CD0400EE66E600EE66E000EE66E51ECA0
:1001800021F0E552E552E55203D00001010EEA6F7D
:10019000400EE66EA00EE66E000EE66E93EC21F0C9
:1001A000E552E552E5520101146FE85001E0006AA2
:1001B00001D81200D9CFE6FFE1CFD9FF100EE1261A
:1001C00001011451005C02E3DBEF1FF00001EA5172
:1001D00002E0DBEF1FF089820050EA6AA00FE96EAF
:1001E000000EEA22EF50F60A02E197EF1FF0030A31
:1001F00002E16CEF1FF0010A02E121EF1FF0070A94
:1002000002E1E0EF1EF0020A02E19AEF1EF0010A9D
:1002100002E15DEF1EF0020A02E140EF1EF0AB0AC0
:1002200002E1E2EF1DF0010A02E188EF1DF00F0A82
:1002300002E158EF1DF0010A02E1D9EF1CF0030AB8
:1002400002E15CEF1CF0010A02E115EF1CF0070A65
:1002500002E1E3EF1BF01B0A02E16FEF1BF00F0A54
:1002600002E15EEF1BF0010A02E152EF1BF0030A0C
:1002700002E116EF1BF0010A02E133EF19F0070A61
:1002800002E112EF19F0010A02E1A9EF18F0030AE6
:1002900002E14BEF18F0010A02E116EF18F07D0AB7
:1002A00002E1C2EF17F0010A02E17AEF17F0070A44
:1002B00002E16FEF17F0010A02E106EF17F0030AFF
:1002C00002E199EF16F0010A02E182EF16F00F0A3F
:1002D00002E14AEF16F0080A02E19AEF15F0760AF9
:1002E00002E121EF15F0770A02E1B0EF14F0080AFD
:1002F00002E14BEF14F0030A02E1EBEF13F0010A05
:1003000002E170EF13F0070A02E1EAEF12F0010ACE
:1003100002E1AEEF12F0030A02E173EF12F0010AFC
:1003200002E136EF12F01F0A02E1E1EF11F0020ADA
:1003300002E16CEF11F0030A02E1D1EF10F0020AC2
:1003400002E12AEF10F0070A02E1F2EF0FF0010AD2
:1003500002E19FEF0FF0030A02E14EEF0FF0010AF6
:1003600002E1CDEF0EF00F0A02E14DEF0EF0010AAF
:1003700002E1F2EF0DF0030A02E1ABEF0DF0010A2A
:1003800002E145EF0DF0070A02E10FEF0DF0010A5F
:1003900002E1D9EF0CF0030A02E18CEF0CF0730AD2
:1003A00002E135EF0CF0030A02E1C6EF0BF0010A9F
:1003B00002E140EF0BF0700A02E175EF09F03F0A2D
:1003C00002E143EF09F0010A02E11FEF09F0030A1D
:1003D00002E1FAEF08F0010A02E1D6EF08F0070A9D
:1003E00002E1B1EF08F0010A02E18BEF08F0030A25
:1003F00002E166EF08F0010A02E142EF08F00F0A9D
:1004000002E1EEEF07F0010A02E1CAEF07F0030A8A
:1004100002E168EF07F0010A02E112EF07F0070AB4
:1004200002E199EF06F0010A02E12CEF06F0030A5F
:1004300001E1A7D3010A01E18BD31F0A01E10CD32B
:10044000010A01E1BDD2030A01E122D2010A01E160
:10045000FBD1070A01E1C7D1010A01E1ACD1030ACE
:1004600001E193D1010A01E17AD10F0A01E1F9D04A
:10047000010A01E1EAD0030A01E1BFD0010A01E16A
:1004800099D0070A65E0010A42E0030A0AE0010A7E
:1004900002E0D4EF1FF0E66AE6EC1FF0E552D9EF78
:1004A0001FF0010EE66EE6EC1FF0E552CBDDE66ACA
:1004B000E6EC1FF0E5520C0EE66EE6EC1FF0E5529E
:1004C000E66AE6EC1FF0E552E66AE6EC1FF0E5525C
:1004D000E66AE6EC1FF0E552040EE66EE6EC1FF06D
:1004E000E552200EE66EE6EC1FF0E552520EE66E87
:1004F000E6EC1FF0E552530EE66EE6EC1FF0E55217
:10050000540EE66EE6EC1FF0E552D9EF1FF0020E36
:10051000E66EE6EC1FF0E552E66AE6EC1FF0E55207
:100520000C0EE66EE6EC1FF0E552E66AE6EC1FF014
:10053000E552E66AE6EC1FF0E552E66AE6EC1FF0EB
:10054000E552040EE66EE6EC1FF0E552D9EF1FF01F
:10055000030EE66EE6EC1FF0E55200282A6E01015C
:1005600014512A5C18E2002A0050EA6AA00FE96ED2
:10057000000EEA22EFCFDFFF590EDF5C06E2DFCF8D
:10058000E6FFE6EC1FF0E55205D0FE0EE66EE6EC67
:100590001FF0E5520DD0FE0EE66EE6EC1FF0E552C0
:1005A0000028EA6AA00FE96E000EEA22040EEF6E40
:1005B000D9EF1FF0400E015C09E20150EA6A600FBA
:1005C000E96E000EEA22EF6A012AF4D7016A0401FB
:1005D0000CBF0CD0400EE66E600EE66E000EE66EAE
:1005E00051EC21F0E552E552E55203D00001010E35
:1005F000EA6F14C100F0D9EF1FF0050EE66EE6ECCD
:100600001FF0E552000E036E046A096E0A6A076E57
:10061000086A840EBB6E040EBA6E0B0E916EB80E95
:10062000906E9E9C9D8CB36AB26A0F015987030E2F
:10063000B16E0B0E976EBE6A0C0EBD6E9494C00E1A
:10064000F26E1E0E9C6ED9EF1FF0060EE66EE6EC03
:100650001FF0E5529D9C976ABD6A0E0E9C6ED9EF05
:100660001FF0070EE66EE6EC1FF0E552030E0024C5
:100670002A6E010114512A5C63E2002A0050EA6AE2
:10068000A00FE96E000EEA22EF500D6E0D50030A26
:1006900040E0010A2BE0030A16E0010A01E04CD019
:1006A000002A0050EA6AA00FE96E000EEA22EF501D
:1006B000066E002A0050EA6AA00FE96E000EEA22D8
:1006C000EFCFECF03CD0002A0050EA6AA00FE96EB0
:1006D000000EEA22EFCFF0F0002A0050EA6AA00FE5
:1006E000E96E000EEA22EFCFEFF029D0002A005089
:1006F000EA6AA00FE96E000EEA22EFCFF2F0002ABC
:100700000050EA6AA00FE96E000EEA22EFCFF1F086
:1007100016D0002A0050EA6AA00FE96E000EEA2205
:10072000EFCFEDF0002A0050EA6AA00FE96E000E4C
:10073000EA22EFCFEEF003D0020E002600D00DD05B
:10074000FE0EE66EE6EC1FF0E5520028EA6AA00F06
:10075000E96E000EEA22040EEF6ED9EF1FF0080ECC
:10076000E66EE6EC1FF0E552F29E06500D6E0D505F
:1007700009E0000000000000000000000000000090
:100780000D06F5D7F28ED9EF1FF0090EE66EE6ECF6
:100790001FF0E552F29EECC00DF00D5009E0000094
:1007A0000000000000000000000000000D06F5D76A
:1007B000F28ED9EF1FF00A0EE66EE6EC1FF0E5525E
:1007C000F29EEFC013F0F0C014F01350141008E0C4
:1007D00000000000000000001306000E145AF5D7B8
:1007E000F28ED9EF1FF00B0EE66EE6EC1FF0E5522D
:1007F00000282A6E010114512A5C17E2F29E002A99
:100800000050EA6AA00FE96E000EEA22EF500D6E6A
:100810000D5009E000000000000000000000000092
:1008200000000D06F5D7F28E0DD0FE0EE66EE6EC5A
:100830001FF0E5520028EA6AA00FE96E000EEA22D6
:10084000040EEF6ED9EF1FF0A1940C0EE66EE6ECED
:100850001FF0E552F29EC282C2B2FED79E9CF28E7B
:10086000A1A40AD0E66AE6EC1FF0E552E66AE6ECDF
:100870001FF0E552D9EF1FF0C450E66EE6EC1FF012
:10088000E552C350E66EE6EC1FF0E552D9EF1FF0DB
:100890000D0EE66EE6EC1FF0E55200282A6E01010F
:1008A00014512A5C01E37DD09D50400B03E09C5025
:1008B000200B06E1FE0EE66EE6EC1FF0E55270D06E
:1008C000A194002A0050EA6AA00FE96E000EEA2205
:1008D000EF50136E146A13C00BF014C00CF0480EE6
:1008E0000C02F3CF0CF0480E0B02F3CF0BF0F450D8
:1008F0000C260A0E276E286A0BC022F00CC023F0CB
:10090000D9EC26F022C00BF023C00CF00F0E0D6EB8
:10091000E80E136E030E146E1350141008E000005E
:100920000000000000001306000E145AF5D70D0653
:10093000083404E207500E08000E085408E3D8807B
:10094000085004E7F20E075CFF0E085802E20D5053
:10095000DFE1A1A405D0E66AE6EC1FF0E55220D065
:10096000083404E207500E08000E085408E3D8804B
:10097000085004E7F20E075CFF0E085806E2FE0E70
:10098000E66EE6EC1FF0E5520BD00050EA6AA00FCD
:10099000E96E000EEA22EF50E66EE6EC1FF0E5523B
:1009A0000DD0FE0EE66EE6EC1FF0E5520028EA6A76
:1009B000A00FE96E000EEA22040EEF6ED9EF1FF0D1
:1009C0000E0EE66EE6EC1FF0E55200282A6E0101DD
:1009D00014512A5C32E2002A0050EA6AA00FE96E44
:1009E000000EEA22EF500D6E010E0D1402E0000E13
:1009F00001D0010EE8B08B82E8A08B92020E0D149C
:100A000002E0010E01D0000EE8B09482E8A09492BA
:100A1000040E0D1402E0010E01D0000EE8B08B8030
:100A2000E8A08B90080E0D1402E0010E01D0000E1C
:100A3000E8B09480E8A094900DD0FE0EE66EE6EC4F
:100A40001FF0E5520028EA6AA00FE96E000EEA22C4
:100A5000040EEF6ED9EF1FF00F0EE66EE6EC1FF0FE
:100A6000E55200282A6E010114512A5C62E2002A34
:100A70000050EA6AA00FE96E000EEA22EF50010B67
:100A800002E0010E01D0000EE8B08A8AE8A08A9A3E
:100A90000050EA6AA00FE96E000EEA22EF50020B46
:100AA00002E0010E01D0000EE8B0938AE8A0939A0C
:100AB0000050EA6AA00FE96E000EEA22EF50040B24
:100AC00002E0010E01D0000EE8B08A8CE8A08A9CFA
:100AD0000050EA6AA00FE96E000EEA22EF50080B00
:100AE00002E0010E01D0000EE8B0938CE8A0939CC8
:100AF0000050EA6AA00FE96E000EEA22EF50100BD8
:100B000002E0010E01D0000EE8B08A8EE8A08A9EB5
:100B10000050EA6AA00FE96E000EEA22EF50200BA7
:100B200002E0010E01D0000EE8B0938EE8A0939E83
:100B30000DD0FE0EE66EE6EC1FF0E5520028EA6AE4
:100B4000A00FE96E000EEA22040EEF6ED9EF1FF03F
:100B5000100EE66EE6EC1FF0E5520D6A81BA0D80CC
:100B600093BA0D8281BC0D8493BC0D8681BE0D8825
:100B700093BE0D8A0D50E66EE6EC1FF0E552D9EFFC
:100B80001FF0110EE66EE6EC1FF0E552020E002497
:100B90002A6E010114512A5C50E2002A0050EA6AD0
:100BA000A00FE96E000EEA22EFCF14F0002A0050E9
:100BB000EA6AA00FE96E000EEA22EFCF13F0F29E70
:100BC0008A9A8A8C00008A9C00008A8C00008A9C89
:100BD00000008A8C00008A9C00008A8C00008A9C9D
:100BE00000008A8C00008A9C00008A8C00008A9C8D
:100BF000000006500D6E0D5009E0000000000000DE
:100C000000000000000000000D06F5D78A8C0000EF
:100C10008A9C00000E0E0D6E143213328A9AD8B0E0
:100C20008A8A8A8C00008A9C0D2EF6D78A9A8A8C32
:100C300000008A9C0000F28E0DD0FE0EE66EE6ECFF
:100C40001FF0E5520028EA6AA00FE96E000EEA22C2
:100C5000040EEF6ED9EF1FF0120EE66EE6EC1FF0F9
:100C6000E552020E00242A6E010114512A5C52E260
:100C7000002A0050EA6AA00FE96E000EEA22EFCFC8
:100C800014F0002A0050EA6AA00FE96E000EEA2272
:100C9000EFCF13F0F29E8A9A8A8C00008A9C0000A3
:100CA0008A8A8A8C00008A9C00008A9A8A8C0000BA
:100CB0008A9C00008A8C00008A9C00008A8C0000BC
:100CC0008A9C00008A8C00008A9C000006500D6EF1
:100CD0000D5009E0000000000000000000000000CE
:100CE00000000D06F5D78A8C00008A9C00000E0ECD
:100CF0000D6E143213328A9AD8B08A8A8A8C000018
:100D00008A9C0D2EF6D78A9A8A8C00008A9C000055
:100D1000F28E0DD0FE0EE66EE6EC1FF0E5520028D6
:100D2000EA6AA00FE96E000EEA22040EEF6ED9EF18
:100D30001FF0130EE66EE6EC1FF0E55200282A6E57
:100D4000010114512A5C5FE2002A0050EA6AA00FF8
:100D5000E96E000EEA22EFCF13F0F29E8A8A8A8CA7
:100D600000008A9C00008A8C00008A9C00008A9AFD
:100D70008A8C00008A9C00008A8C00008A9C0000FB
:100D80008A8C00008A9C00008A8C00008A9C0000EB
:100D900006500D6E0D5009E000000000000000003C
:100DA0000000000000000D06F5D78A8C00008A9C28
:100DB0000000080E0D6E13328A9AD8B08A8A8A8C87
:100DC00000008A9C0D2EF7D78A9A8A8C00008A9C94
:100DD00000008A8C00008A9C00008A8C00008A9C9B
:100DE00000008A8C00008A9C00008A8C00008A9C8B
:100DF00000008A8C00008A9C00008A8C00008A9C7B
:100E00000000F28E0DD0FE0EE66EE6EC1FF0E5520D
:100E10000028EA6AA00FE96E000EEA22040EEF6EC7
:100E2000D9EF1FF0140EE66EE6EC1FF0E552F29ECD
:100E30008A9A8A8C00008A9C00008A8C00008A9C16
:100E400000008A8A8A8C00008A9C00008A9A8A8C18
:100E500000008A9C00008A8C00008A9C00008A8C1A
:100E600000008A9C0000938A06500D6E0D5009E028
:100E700000000000000000000000000000000D065F
:100E8000F5D78A8C00008A9C00000E0E0D6E8A8CAD
:100E900000008A9CD8908A9C81BAD8801432133280
:100EA0000D2EF5D7D89014321332D8901432133255
:100EB0008A8C939A8A9CF28E14C0E6FFE6EC1FF0AF
:100EC000E55213C0E6FFE6EC1FF0E552D9EF1FF044
:100ED000150EE66EE6EC1FF0E552F29E8A8A8A8CC9
:100EE00000008A9C00008A9A8A8C00008A9C00007C
:100EF0008A8A8A8C00008A9C00008A9A8A8C000068
:100F00008A9C00008A8C00008A9C00008A8C000069
:100F10008A9C0000938A06500D6E0D5009E0000077
:100F20000000000000000000000000000D06F5D7E2
:100F30008A8C00008A9C0000080E0D6E8A8C0000CE
:100F40008A9CD89081BAD88013320D2EF7D78A8C1C
:100F500000008A9C00008A8C00008A9C00008A8C19
:100F600000008A9C00008A8C00008A9C00008A8C09
:100F700000008A9C00008A8C00008A9C00008A8CF9
:100F8000939A8A9CF28E13C0E6FFE6EC1FF0E552BE
:100F9000D9EF1FF0160EE66EE6EC1FF0E552F29E5A
:100FA0008A9A8A8C00008A9C00008A8A8A8C0000B7
:100FB0008A9C00008A8C00008A9C00008A9A8A8C95
:100FC00000008A9C00008A8C00008A9C00008A8CA9
:100FD00000008A9C0000F28ED9EF1FF0170EE66E1B
:100FE000E6EC1FF0E55200282A6E010114512A5C3C
:100FF0003AE2F29E002A0050EA6AA00FE96E000E63
:10100000EA22EFCF13F0000113502BE08A9A8A8C6A
:1010100000008A9C00008A8A8A8C00008A9C00005A
:101020008A8C00008A9C00008A9A8A8C00008A9C24
:1010300000008A8C00008A9C00008A8C00008A9C38
:10104000000006500D6E0D5009E000000000000089
:1010500000000000000000000D06F5D70001130697
:10106000D2D7F28E0DD0FE0EE66EE6EC1FF0E55202
:101070000028EA6AA00FE96E000EEA22040EEF6E65
:10108000D9EF1FF0180EE66EE6EC1FF0E552F29E67
:101090008A9A8A8C00008A9C00008A8C00008A9CB4
:1010A00000008A8C00008A9C00008A8A8A8C0000DA
:1010B0008A9C00008A9A8A8C00008A9C00008A8C94
:1010C00000008A9C0000F28ED9EF1FF0190EE66E28
:1010D000E6EC1FF0E552F29E8A8A8A8C00008A9C18
:1010E00000008A9A8A8C00008A9C00008A8C00008A
:1010F0008A9C00008A8A8A8C00008A9C00008A9A56
:101100008A8C00008A9C00008A8C00008A9C000067
:10111000F28ED9EF1FF01A0EE66EE6EC1FF0E552E4
:10112000F29E8A9A8A8C00008A9C00008A8A8A8CA5
:1011300000008A9C00008A9A8A8C00008A9C000029
:101140008A8A8A8C00008A9C00008A9A8A8C000015
:101150008A9C00008A8C00008A9C0000F28ED9EFE5
:101160001FF01B0EE66EE6EC1FF0E552F29E8A8A37
:101170008A8C00008A9C00008A8C00008A9C0000F7
:101180008A9A8A8C00008A9C00008A8A8A8C0000D5
:101190008A9C00008A9A8A8C00008A9C00008A8CB3
:1011A00000008A9C0000F28ED9EF1FF01C0EE66E44
:1011B000E6EC1FF0E552F29E8A9A8A8C00008A9C27
:1011C00000008A8A8A8C00008A9C00008A8C0000B9
:1011D0008A9C00008A8C00008A9C00008A9A8A8C73
:1011E00000008A9C00008A8C00008A9C0000F28E1D
:1011F000D9EF1FF01D0EE66EE6EC1FF0E552F29EF1
:101200008A8A8A8C00008A9C00008A9A8A8C000054
:101210008A9C00008A8C00008A9C00008A8C000056
:101220008A9C00008A8A8A8C00008A9C00008A9A24
:101230008A8C00008A9C0000F28ED9EF1FF01E0EEF
:10124000E66EE6EC1FF0E552F29E8A9A8A8C000068
:101250008A9C00008A8C00008A9C00008A8C000016
:101260008A9C00008A8A8A8C00008A9C00008A8CF2
:1012700000008A9C00008A9A8A8C00008A9C0000E8
:10128000F28ED9EF1FF01F0EE66EE6EC1FF0E5526E
:1012900000282A6E010114512A5C18E2002A00502D
:1012A000EA6AA00FE96E000EEA22EFCF13F0F29E79
:1012B000060E0D6E13328A9AD8B08A8A8A8C000084
:1012C0008A9C0D2EF7D78A9AF28E0DD0FE0EE66E0E
:1012D000E6EC1FF0E5520028EA6AA00FE96E000E66
:1012E000EA22040EEF6ED9EF1FF0200EE66EE6EC58
:1012F0001FF0E552020E00242A6E010114512A5CEF
:1013000001E3AFD1002A0050EA6AA00FE96E000E97
:10131000EA22EFCF14F0002A0050EA6AA00FE96E2B
:10132000000EEA22EFCF13F0010E13C0DBFF020E16
:1013300014C0DBFFF29E8A9A8A8C00008A9C00000F
:101340008A8A8A8C00008A9C00008A9A8A8C000013
:101350008A9C00008A8C00008A9C00008A8C000015
:101360008A9C00008A8C00008A9C000006500D6E4A
:101370000D5009E000000000000000000000000027
:1013800000000D06F5D78A8C00008A9C00000E0E26
:101390000D6E143213328A9AD8B08A8A8A8C000071
:1013A0008A9C0D2EF6D78A9A8A8C00008A9C0000AF
:1013B000030EDB6A040EDB6A030EDBCF2AF0040E99
:1013C000DBCF2BF00001ED5100012BAE02D0D89005
:1013D00003D02A5C000E2B5801E3BED08A9A8A8C77
:1013E00000008A9C00008A8C00008A9C00008A8C85
:1013F00000008A9C00008A8A8A8C00008A9C000077
:101400008A9A8A8C00008A9C00008A8C00008A9C40
:101410000000ECC00DF00D5009E0000000000000DD
:1014200000000000000000000D06F5D78A9A8A8CA3
:1014300000008A9C00008A8A8A8C00008A9C000036
:101440008A8C00008A9C00008A8C00008A9C000024
:101450008A9A8A8C00008A9C00008A8C00008A9CF0
:10146000000006500D6E0D5009E000000000000065
:1014700000000000000000000D06F5D78A9A8A8C53
:1014800000008A9C00008A8C00008A9C00008A8AE6
:101490008A8C00008A9C00008A9A8A8C00008A9CB0
:1014A00000008A8C00008A9C00008A8C00008A9CC4
:1014B0000000938A06500D6E0D5009E000000000F8
:1014C000000000000000000000000D06F5D78A8C27
:1014D00000008A9C00000E0E0D6E8A8C00008A9C13
:1014E000D89081BAD880143213320D2EF6D7D89006
:1014F00014321332D890143213328A8C939A8A9C05
:1015000006500D6E0D5009E00000000000000000C4
:101510000000000000000D06F5D7010EDBCF2AF019
:10152000020EDBCF2BF013502A1802E114502B18B7
:101530000DE1030EDBCF2AF0040EDBCF2BF0010E02
:101540002A240D6E030EDB68040EDB6A030EDB2A11
:10155000040E01E3DB2A30D7F28EF29ED950030F3E
:10156000E96EDACFEAFFEE5002E1010EED1872E10A
:101570000D50E66EE6EC1FF0E5520001EE510D0253
:10158000F350E66ED950030FE96EDACFEAFFE55269
:10159000E750EE6EED6AD950030FE96EDACFEAFF3D
:1015A000EE50ED1056E08A9A8A8C00008A9C00006A
:1015B0008A8C00008A9C00008A8C00008A9C0000B3
:1015C0008A8A8A8C00008A9C00008A9A8A8C000091
:1015D0008A9C00008A8C00008A9C0000ECC00DF000
:1015E0000D5009E0000000000000000000000000B5
:1015F00000000D06F5D78A9A8A8C00008A9C0000AC
:101600008A8A8A8C00008A9C00008A8C00008A9C4E
:1016100000008A8C00008A9C00008A9A8A8C000054
:101620008A9C00008A8C00008A9C000006500D6E87
:101630000D5009E000000000000000000000000064
:1016400000000D06F5D7030EDB06040E01E2DB06F3
:10165000A2D705D0FE0EE66EE6EC1FF0E552F28E44
:101660000DD0FE0EE66EE6EC1FF0E5520028EA6AA9
:10167000A00FE96E000EEA22040EEF6ED9EF1FF004
:10168000500EE66EE6EC1FF0E552020E00242A6EC4
:10169000010114512A5C6BE2002A0050EA6AA00F93
:1016A000E96E000EEA22EFCF14F0002A0050EA6A39
:1016B000A00FE96E000EEA22EFCF13F0F29E8A8AA5
:1016C0008A8C00008A9C00008A9A8A8C00008A9C7E
:1016D00000008A8A8A8C00008A9C00008A8C0000A4
:1016E0008A9C00008A8C00008A9C00008A9A8A8C5E
:1016F00000008A9C000006500D6E0D5009E00000AD
:101700000000000000000000000000000D06F5D7FA
:101710008A8C00008A9C0000100E0D6E1432133269
:101720008A9AD8B08A8A8A8C00008A9C0D2EF6D7B5
:101730008A9A8A8C00008A9C00008A8C00008A9C0D
:1017400000008A8C00008A9C00008A8C00008A9C21
:1017500000008A8C00008A9C00008A8C00008A9C11
:1017600000008A8C00008A9C0000F28E0DD0FE0ED4
:10177000E66EE6EC1FF0E5520028EA6AA00FE96E7B
:10178000000EEA22040EEF6ED9EF1FF0510EE66E46
:10179000E6EC1FF0E552020E00242A6E01011451FE
:1017A0002A5C54E2002A0050EA6AA00FE96E000E9B
:1017B000EA22EFCF14F0002A0050EA6AA00FE96E87
:1017C000000EEA22EFCF13F0F29E8A9A8A8C000074
:1017D0008A9C00008A8A8A8C00008A9C00008A9A6F
:1017E0008A8C00008A9C00008A8C00008A9C000081
:1017F0008A8C00008A9C00008A8A8A8C00008A9C5D
:10180000000006500D6E0D5009E0000000000000C1
:1018100000000000000000000D06F5D78A9A8A8CAF
:1018200000008A9C00000E0E0D6E143213328A9A4C
:10183000D8B08A8A8A8C00008A9C0D2EF6D78A9AA4
:101840008A8C00008A9C0000F28E0DD0FE0EE66E9F
:10185000E6EC1FF0E5520028EA6AA00FE96E000EE0
:10186000EA22040EEF6ED9EF1FF0520EE66EE6ECA0
:101870001FF0E552F29E8A9A8A8C00008A9C000032
:101880008A8C00008A9C00008A8A8A8C00008A9CCC
:1018900000008A9A8A8C00008A9C00008A8C0000D2
:1018A0008A9C00008A8A8A8C00008A9C0000938AA5
:1018B00006500D6E0D5009E0000000000000000011
:1018C0000000000000000D06F5D78A9A8A8C0000FF
:1018D0008A9C00000E0E0D6E8A8C00008A9CD890A7
:1018E00081BAD880143213320D2EF6D7D890143224
:1018F0001332D890143213328A8C939A8A9CF28EC7
:1019000014C0E6FFE6EC1FF0E55213C0E6FFE6EC7C
:101910001FF0E552D9EF1FF0210EE66EE6EC1FF046
:10192000E552020E00242A6E010114512A5C32E2B3
:10193000F29E8A8C939A8A9A8A9C8A8C00008A9C4E
:1019400000008A8C00008A9C00008A8C00008A9C1F
:101950000000002A0050EA6AA00FE96E000EEA2299
:10196000EFCF14F0002A0050EA6AA00FE96E000ED3
:10197000EA22EFCF13F0100E0D6E143213328A9A52
:10198000D8B08A8A8A8C00008A9C0D2EF6D78A9A53
:10199000F28E0DD0FE0EE66EE6EC1FF0E55200284A
:1019A000EA6AA00FE96E000EEA22040EEF6ED9EF8C
:1019B0001FF0220EE66EE6EC1FF0E552F29E8A8CD6
:1019C000939A8A9A8A9C8A8A8A8C8A9C8A9A8A8C16
:1019D0008A9C8A8C8A9C8A8C8A9C8A8C8A9C8A8C17
:1019E0008A9C8A8C8A9C8A8C8A9C8A8C8A9C8A8C07
:1019F0008A9C8A8C8A9C938A080E0D6E8A8C8A9C9B
:101A0000D89081BAD88013320D2EF8D78A9AF28EE8
:101A100013C0E6FFE6EC1FF0E552D9EF1FF0230EEE
:101A2000E66EE6EC1FF0E552F29E8A8C939A8A9A53
:101A30008A9C8A8C8A9C8A8C8A9C8A8A8A8C8A9CB8
:101A40008A9A8A8C8A9C8A8C8A9C8A8C8A9C8A8CA8
:101A50008A9C8A8C8A9C8A8C8A9C8A8C8A9C8A8C96
:101A60008A9C938A080E0D6E8A8C8A9CD89081BAC3
:101A7000D88013320D2EF8D78A9AF28E13C0E6FF63
:101A8000E6EC1FF0E552D9EF1FF0240EE66EE6EC0F
:101A90001FF0E552002A0050EA6AA00FE96E000E1E
:101AA000EA22EF500D6E01011451005C45E2015035
:101AB0000D242A6E400E2A5C3FE20D50E66EE6ECE5
:101AC0001FF0E552050E0DC0DBFF050EDB5033E0C5
:101AD000F29E8A8C939A8A8A8A9C8A9A8A8C8A9C99
:101AE0008A8C8A9C8A8A8A8C8A9C8A9A8A8C8A9C0A
:101AF0008A8C8A9C8A8C8A9C8A8C8A9C8A8C8A9CF6
:101B00008A8C8A9C8A8C8A9C8A8C8A9C938A080EEE
:101B10000D6E8A8C8A9CD89081BAD88013320D2E93
:101B2000F8D78A9AF28E13C0E6FFE6EC1FF0E55272
:101B3000050EDB06CAD70DD0FE0EE66EE6EC1FF0F2
:101B4000E5520028EA6AA00FE96E000EEA22040EB0
:101B5000EF6ED9EF1FF0250EE66EE6EC1FF0E552B2
:101B6000020E00242A6E010114512A5C2CE2F29E1E
:101B70008A8C939A8A9A8A9C8A8C8A9C8A8A8A8C72
:101B80008A9C8A8C8A9C002A0050EA6AA00FE96E1F
:101B9000000EEA22EFCF14F0002A0050EA6AA00FEC
:101BA000E96E000EEA22EFCF13F0100E0D6E143224
:101BB00013328A9AD8B08A8A8A8C8A9C0D2EF7D7DB
:101BC0008A9AF28E0DD0FE0EE66EE6EC1FF0E5521C
:101BD0000028EA6AA00FE96E000EEA22040EEF6EFA
:101BE000D9EF1FF0260EE66EE6EC1FF0E552002A54
:101BF0000050EA6AA00FE96E000EEA22EF500D6E67
:101C000000500D240D242A6E010114512A5C36E285
:101C1000060E0DC0DBFF060EDB502FE0F29E8A8C15
:101C2000939A8A8A8A9C8A9A8A8C8A9C8A8A8A8CC3
:101C30008A9C8A8C8A9C002A0050EA6AA00FE96E6E
:101C4000000EEA22EFCF14F0002A0050EA6AA00F3B
:101C5000E96E000EEA22EFCF13F0100E0D6E143273
:101C600013328A9AD8B08A8A8A8C8A9C0D2EF7D72A
:101C70008A9AF28E060EDB06CED70DD0FE0EE66EE9
:101C8000E6EC1FF0E5520028EA6AA00FE96E000EAC
:101C9000EA22040EEF6ED9EF1FF0270EE66EE6EC97
:101CA0001FF0E552040E00242A6E010114512A5C33
:101CB00065E2F29E8A8C939A8A8A8A9C8A8C8A9C94
:101CC0008A8C8A9C8A8C8A9C002A0050EA6AA00F1F
:101CD000E96E000EEA22EFCF14F0002A0050EA6A03
:101CE000A00FE96E000EEA22EFCF13F0100E0D6E7A
:101CF000143213328A9AD8B08A8A8A8C8A9C0D2E22
:101D0000F7D78A9A8A8C8A9C8A8C8A9C8A8C8A9C2D
:101D10008A8C002A0050EA6AA00FE96E000EEA22BF
:101D2000EFCF14F0002A0050EA6AA00FE96E000E0F
:101D3000EA22EFCF13F01350141008E00000000067
:101D4000000000001306000E145AF5D78A9CECC060
:101D50000DF00D5009E00000000000000000000040
:101D6000000000000D06F5D7100E0D6E0D5004E0BA
:101D70008A8C8A9C0D06FAD7F28E0DD0FE0EE66E86
:101D8000E6EC1FF0E5520028EA6AA00FE96E000EAB
:101D9000EA22040EEF6ED9EF1FF0280EE66EE6EC95
:101DA0001FF0E552040E00242A6E010114512A5C32
:101DB00066E2F29E8A8C939A8A9A8A9C8A8A8A8C94
:101DC0008A9C8A8C8A9C8A8C8A9C002A0050EA6AA7
:101DD000A00FE96E000EEA22EFCF14F0002A0050A7
:101DE000EA6AA00FE96E000EEA22EFCF13F0100EA0
:101DF0000D6E143213328A9AD8B08A8A8A8C8A9CE1
:101E00000D2EF7D78A9A8A8C8A9C8A8C8A9C8A8C17
:101E10008A9C8A8C002A0050EA6AA00FE96E000EA4
:101E2000EA22EFCF14F0002A0050EA6AA00FE96E10
:101E3000000EEA22EFCF13F01350141008E0000058
:101E40000000000000001306000E145AF5D78A9C0B
:101E5000ECC00DF00D5009E0000000000000000093
:101E60000000000000000D06F5D7100E0D6E0D509D
:101E700004E08A8C8A9C0D06FAD7F28E0DD0FE0EF5
:101E8000E66EE6EC1FF0E5520028EA6AA00FE96E64
:101E9000000EEA22040EEF6ED9EF1FF0290EE66E57
:101EA000E6EC1FF0E552030E00242A6E01011451E6
:101EB0002A5C36E2002A0050EA6AA00FE96E000EA2
:101EC000EA22EFCF13F0F29E8A8C939A040E0D6EE5
:101ED00013328A9AD8B08A8A8A8C8A9C0D2EF8D7B7
:101EE000002A0050EA6AA00FE96E000EEA22EFCF46
:101EF00014F0002A0050EA6AA00FE96E000EEA22F0
:101F0000EFCF13F0100E0D6E143213328A9AD8B040
:101F10008A8A8A8C8A9C0D2EF7D78A9AF28E0DD0E7
:101F2000FE0EE66EE6EC1FF0E5520028EA6AA00F0E
:101F3000E96E000EEA22040EEF6ED9EF1FF02A0EB2
:101F4000E66EE6EC1FF0E55200282A6E01011451FE
:101F50002A5C39E2002A0050EA6AA00FE96E000EFE
:101F6000EA22EFCF13F0F29E8A8C939A040E0D6E44
:101F700013328A9AD8B08A8A8A8C8A9C0D2EF8D716
:101F80008A8C8A9C8A8C8A9C8A8C8A9C8A8C8A9C61
:101F90008A8C8A9C8A8C8A9C8A8C8A9C8A8C8A9C51
:101FA000938A080E0D6E8A8C8A9CD89081BAD8804C
:101FB00013320D2EF8D78A9AF28E13C0E6FFE6ECA4
:101FC0001FF0E5520DD0FE0EE66EE6EC1FF0E55276
:101FD0000028EA6AA00FE96E000EEA22040EEF6EF6
:101FE000D9EF1FF02B0EE66EE6EC1FF0E55200284D
:101FF0002A6E010114512A5C1EE2002A0050EA6A8E
:10200000A00FE96E000EEA22EF500D6EFF0E0D5C80
:1020100003E19368948C0ED0C70E936E8A6A0DB05C
:102020008A860DB28A880DB48A8A949C8B9C0001A2
:10203000050EEC6F0DD0FE0EE66EE6EC1FF0E552DD
:102040000028EA6AA00FE96E000EEA22040EEF6E85
:10205000D9EF1FF02C0EE66EE6EC1FF0E552030EF2
:1020600000242A6E010114512A5C01E38BD0002A5E
:102070000050EA6AA00FE96E000EEA22EF500D6EE2
:102080000001010E146E002A0050EA6AA00FE96EEA
:10209000000EEA22EFCF13F0A4EC20F00D5042E046
:1020A000FE0E00011314E66EC6EC20F0E552A8EC1B
:1020B00020F0000936E1002A0050EA6AA00FE96E1C
:1020C000000EEA22EF50E66EC6EC20F0E552A8ECD6
:1020D00020F0000926E1E8EC20F0010E00011310C9
:1020E000E66EC6EC20F0E552A8EC20F0000919E1FC
:1020F0000001146A0D50E66EE6EC1FF0E5520D503B
:102100000EE0B1EC20F0F350E66EE6EC1FF0E55285
:102110000D50010802E203EC21F00D06F0D7FDECB2
:1021200020F019D0010E00011310E66EC6EC20F06D
:10213000E552A8EC20F000090EE1010EE66EE6EC97
:102140001FF0E552B1EC20F0F350E66EE6EC1FF024
:10215000E552FDEC20F0A8EC20F0000910E00001B1
:1021600014500DE0FD0EE66EE6EC1FF0E55200287F
:10217000EA6AA00FE96E000EEA22040EEF6EF2EC9E
:1021800020F00DD0FE0EE66EE6EC1FF0E5520028C2
:10219000EA6AA00FE96E000EEA22040EEF6ED9EF94
:1021A0001FF02E0EE66EE6EC1FF0E552040E002442
:1021B0002A6E010114512A5C01E37FD0002A0050ED
:1021C000EA6AA00FE96E000EEA22EF500D6E0001E0
:1021D000010E146E002A0050EA6AA00FE96E000E8C
:1021E000EA22EFCF13F0A4EC20F0FE0E000113144E
:1021F000E66EC6EC20F0E552A8EC20F0000946E1BE
:10220000002A0050EA6AA00FE96E000EEA22EF50A1
:10221000E66EC6EC20F0E552A8EC20F0000936E1AD
:10222000002A0050EA6AA00FE96E000EEA22EF5081
:10223000E66EC6EC20F0E552A8EC20F0000926E19D
:10224000E8EC20F0010E00011310E66EC6EC20F061
:10225000E552A8EC20F0000919E10001146A0D50C4
:10226000E66EE6EC1FF0E5520D500EE0B1EC20F00A
:10227000F350E66EE6EC1FF0E5520D50010802E265
:1022800003EC21F00D06F0D7FDEC20F0A8EC20F0D7
:10229000000910E0000114500DE0FD0EE66EE6ECC2
:1022A0001FF0E5520028EA6AA00FE96E000EEA224C
:1022B000040EEF6EF2EC20F00DD0FE0EE66EE6ECB2
:1022C0001FF0E5520028EA6AA00FE96E000EEA222C
:1022D000040EEF6ED9EF1FF02D0EE66EE6EC1FF048
:1022E000E552002A0050EA6AA00FE96E000EEA22C9
:1022F000EF500D6E020E00240D242A6E01011451C0
:102300002A5C50E2A4EC20F0002A0050EA6AA00FF8
:10231000E96E000EEA22EF50FE0BE66EC6EC20F0EE
:10232000E552A8EC20F000092BE1002A0050EA6AEF
:10233000A00FE96E000EEA22EF50E66EC6EC20F028
:10234000E552A8EC20F000091BE10D50E66EE6EC2A
:102350001FF0E5520D5014E0002A0050EA6AA00F69
:10236000E96E000EEA22EF50E66EC6EC20F0E55270
:10237000A8EC20F0000902E00D6802D00D06EAD7B3
:102380000D500DE0FD0EE66EE6EC1FF0E552002864
:10239000EA6AA00FE96E000EEA22040EEF6EF2EC7C
:1023A00020F00DD0FE0EE66EE6EC1FF0E5520028A0
:1023B000EA6AA00FE96E000EEA22040EEF6ED9EF72
:1023C0001FF02F0EE66EE6EC1FF0E55200282A6E95
:1023D000010114512A5C3BE2002A0050EA6AA00F76
:1023E000E96E000EEA22EF500D6EFF0E0D5C09E162
:1023F0009368948C948E010E066E0001640EEC6F4F
:1024000025D0E50E936E0DA602D08A8201D08A9265
:10241000949C8B9C949E0C0E0D140001EC6F030E8B
:102420000D160D5003E1120E066E10D00D0403E1DF
:10243000080E066E0BD0020E0D5C03E1050E066E53
:1024400005D0030E0D5C02E1020E066E0DD0FE0EED
:10245000E66EE6EC1FF0E5520028EA6AA00FE96E8E
:10246000000EEA22040EEF6ED9EF1FF0300EE66E7A
:10247000E6EC1FF0E55200282A6E010114512A5C97
:1024800023E2002A0050EA6AA00FE96E000EEA2259
:10249000EF500D6E0D50E66EE6EC1FF0E5520D505C
:1024A00005E1E66AE6EC1FF0E5520DD093800D5091
:1024B0000AE0E66A19EC21F0E552E66EE6EC1FF060
:1024C000E5520D06F4D70DD0FE0EE66EE6EC1FF0D9
:1024D000E5520028EA6AA00FE96E000EEA22040E17
:1024E000EF6ED9EF1FF0310EE66EE6EC1FF0E5520D
:1024F000002A0050EA6AA00FE96E000EEA22EF50AF
:102500000D6E00500D242A6E010114512A5C17E251
:102510000D50E66EE6EC1FF0E552949E0D500EE075
:10252000002A0050EA6AA00FE96E000EEA22EF507E
:10253000E66E19EC21F0E5520D06F0D70DD0FE0E37
:10254000E66EE6EC1FF0E5520028EA6AA00FE96E9D
:10255000000EEA22040EEF6ED9EF1FF0320EE66E87
:10256000E6EC1FF0E552020E00242A6E0101145120
:102570002A5C21E2002A0050EA6AA00FE96E000EF0
:10258000EA22EF508A6E002A0050EA6AA00FE96E34
:10259000000EEA22EF500D6EC00E0D142A6E3F0E93
:1025A0008B142A108B6E380E0D142A6EC70E8914E8
:1025B0002A10896E0DD0FE0EE66EE6EC1FF0E55295
:1025C0000028EA6AA00FE96E000EEA22040EEF6E00
:1025D000D9EF1FF0330EE66EE6EC1FF0E552030E66
:1025E00000242A6E010114512A5C6BE2002A00507B
:1025F000EA6AA00FE96E000EEA22EF500D6E002A83
:102600000050EA6AA00FE96E000EEA22EFCF14F044
:10261000002A0050EA6AA00FE96E000EEA22EFCF0E
:1026200013F001500D240D242A6E400E2A5C3BE26B
:102630000D50E66EE6EC1FF0E5520D5033E0200E33
:10264000E66E19EC21F0E55214C0E6FF19EC21F01A
:10265000E55213C0E6FF19EC21F0E552E66A19ECE9
:1026600021F0E552E66EE6EC1FF0E552280EE66E2C
:1026700019EC21F0E55214C0E6FF19EC21F0E55207
:1026800013C0E6FF19EC21F0E552E66A19EC21F0DF
:10269000E552E66EE6EC1FF0E552132A000E142216
:1026A0000D06CBD70DD0FE0EE66EE6EC1FF0E55220
:1026B0000028EA6AA00FE96E000EEA22040EEF6E0F
:1026C0000DD0FE0EE66EE6EC1FF0E5520028EA6A39
:1026D000A00FE96E000EEA22040EEF6ED9EF1FF094
:1026E000340EE66EE6EC1FF0E552002A0050EA6A6E
:1026F000A00FE96E000EEA22EF500D6E00500D247F
:102700000D24020F2A6E010114512A5C55E20D506E
:10271000E66EE6EC1FF0E552002A0050EA6AA00FD0
:10272000E96E000EEA22EFCF14F0002A0050EA6AA8
:10273000A00FE96E000EEA22EFCF13F00D503BE040
:10274000400EE66E19EC21F0E55214C0E6FF19ECDC
:1027500021F0E55213C0E6FF19EC21F0E552002A02
:102760000050EA6AA00FE96E000EEA22EF50E66E12
:1027700019EC21F0E552480EE66E19EC21F0E55215
:1027800014C0E6FF19EC21F0E55213C0E6FF19EC86
:1027900021F0E552002A0050EA6AA00FE96E000E0F
:1027A000EA22EF50E66E19EC21F0E552132A000EF2
:1027B00014220D06C3D70DD0FE0EE66EE6EC1FF018
:1027C000E5520028EA6AA00FE96E000EEA22040E24
:1027D000EF6ED9EF1FF0350EE66EE6EC1FF0E55216
:1027E00000282A6E010114512A5C46E2002A00509A
:1027F000EA6AA00FE96E000EEA22EF500D6EFF0E9E
:102800000D5C05E1976ABD6A8A96B16A34D09484FA
:102810009396B368B26AC10EB16E916ABF6A0D50E9
:1028200003E13B0EBE6E21D00D0403E11D0EBE6E12
:102830001CD0020E0D5C03E10B0EBE6E16D0030E13
:102840000D5C03E1050EBE6E10D0040E0D5C03E1BD
:10285000020EBE6E0AD0050E0D5C03E1010EBE6EC7
:1028600004D0060E0D5C01E1BE6A010E906E0B0EE7
:10287000BD6E020E976E0DD0FE0EE66EE6EC1FF0FA
:10288000E5520028EA6AA00FE96E000EEA22040E63
:10289000EF6ED9EF1FF0360EE66EE6EC1FF0E55254
:1028A000030E00242A6E010114512A5C4AE2F29EB2
:1028B000939A8A9A00008A8C0000000000008A9C8B
:1028C00000008A8C0000000000008A9C00008A8CB6
:1028D0000000000000008A9C00008A8C00000000BC
:1028E00000008A9C002A0050EA6AA00FE96E000EE0
:1028F000EA22EFCF14F0002A0050EA6AA00FE96E36
:10290000000EEA22EFCF13F0002A0050EA6AA00F6F
:10291000E96E000EEA22EF500E6E180E0D6E1432A4
:1029200013320E32D8A08A9AD8B08A8A00008A8CD4
:102930000000000000008A9C0D2EF1D78A9AF28ECA
:102940000DD0FE0EE66EE6EC1FF0E5520028EA6AB6
:10295000A00FE96E000EEA22040EEF6ED9EF1FF011
:102960003E0EE66EE6EC1FF0E552030E00242A6EE2
:10297000010114512A5C56E2F29E939A8A9A000051
:102980008A8C0000000000008A9C00008A8C0000F5
:10299000000000008A9C00008A8C000000000000FB
:1029A0008A9C00008A8C0000000000008A9C002A9B
:1029B0000050EA6AA00FE96E000EEA22EFCF14F091
:1029C000002A0050EA6AA00FE96E000EEA22EFCF5B
:1029D00013F0002A0050EA6AA00FE96E000EEA2206
:1029E000EF500E6E180E0D6E143213320E32D8A048
:1029F0008A9AD8B08A8A00008A8C00000000000001
:102A00008A9C0D2EF1D78A9A0D6A380E0D5C08E269
:102A100000008A8C0000000000008A9C0D2AF5D777
:102A2000F28E0DD0FE0EE66EE6EC1FF0E5520028A9
:102A3000EA6AA00FE96E000EEA22040EEF6ED9EFEB
:102A40001FF0490EE66EE6EC1FF0E552030E00247F
:102A50002A6E010114512A5C5EE2F29E939A8A9AD0
:102A600000008A8C0000000000008A9C00008A8C14
:102A70000000000000008A9C00008A8C000000001A
:102A800000008A9C00008A8C0000000000008A9CE4
:102A9000002A0050EA6AA00FE96E000EEA22EFCF8A
:102AA00014F0002A0050EA6AA00FE96E000EEA2234
:102AB000EFCF13F0002A0050EA6AA00FE96E000E73
:102AC000EA22EF500E6E180E0D6E143213320E32D3
:102AD000D8A08A9AD8B08A8A00008A8C00000000A8
:102AE00000008A9C0D2EF1D78A9A0D6A0D502A6E2D
:102AF0002B6AD8902B5004E68C0E2A5C000E2B58C3
:102B000008E200008A8C0000000000008A9C0D2A68
:102B1000EDD7F28E0DD0FE0EE66EE6EC1FF0E5521C
:102B20000028EA6AA00FE96E000EEA22040EEF6E9A
:102B3000D9EF1FF03F0EE66EE6EC1FF0E552002ADB
:102B40000050EA6AA00FE96E000EEA22EF500D6E07
:102B50003F0E0D140E6E00500E240E240E242A6E0D
:102B6000010114512A5C01E386D0C00E0D14E76EFA
:102B7000080EE7CFDBFF080EDB50400806E11C0E15
:102B8000F36E080EF3CFDBFF13D0080EDB50800886
:102B900006E1380EF36E080EF3CFDBFF09D0080E06
:102BA000DB50C00805E1540EF36E080EF3CFDBFFD7
:102BB000F29E939A3F0E0D14E76E070EE7CFDBFFF0
:102BC000070EDB5056E08A9A00008A8C0000000055
:102BD00000008A9C00008A8C0000000000008A9C93
:102BE00000008A8C0000000000008A9C00008A8C93
:102BF0000000000000008A9C002A0050EA6AA00F32
:102C0000E96E000EEA22EFCF14F0002A0050EA6AC3
:102C1000A00FE96E000EEA22EFCF13F0002A005059
:102C2000EA6AA00FE96E000EEA22EF500E6E180E4F
:102C30000D6E143213320E32D8A08A9AD8B08A8A16
:102C400000008A8C0000000000008A9C0D2EF1D745
:102C50008A9A080EDB500D6E0D5008E000008A8C39
:102C60000000000000008A9C0D06F6D7070EDB0668
:102C7000A7D7F28E0DD0FE0EE66EE6EC1FF0E55201
:102C80000028EA6AA00FE96E000EEA22040EEF6E39
:102C9000D9EF1FF0370EE66EE6EC1FF0E552F29E1C
:102CA000939A8A8A00008A8C0000000000008A9CA7
:102CB0008A9A0D6A0B0E0D5C08E200008A8C0000F7
:102CC000000000008A9C0D2AF5D7938A100E0D6E25
:102CD0008A8C000000000000D89081BAD88014329D
:102CE00013328A9C0D2EF4D78A9AF28E14C0E6FF16
:102CF000E6EC1FF0E55213C0E6FFE6EC1FF0E552EC
:102D0000D9EF1FF0380EE66EE6EC1FF0E552F29EAA
:102D1000939A8A9A0D6A1C0E0D5C08E200008A8C58
:102D20000000000000008A9C0D2AF5D7F28ED9EF32
:102D30001FF0390EE66EE6EC1FF0E552002A005057
:102D4000EA6AA00FE96E000EEA22EF500D6E005005
:102D50000D240D242A6E010114512A5C48E2F29ED2
:102D6000939A090E0DC0DBFF090EDB503CE0002AF0
:102D70000050EA6AA00FE96E000EEA22EFCF14F0CD
:102D8000002A0050EA6AA00FE96E000EEA22EFCF97
:102D900013F0100E0D6E13361436D8A08A9AD8B0E0
:102DA0008A8A00008A8C06C00EF00E0609E0000038
:102DB0000000000000000000000000000000F5D747
:102DC0008A9C06C00EF00E0609E00000000000001C
:102DD00000000000000000000000F5D70D2EDBD73A
:102DE000090EDB06C1D78A9A938AF28E0DD0FE0EA9
:102DF000E66EE6EC1FF0E5520028EA6AA00FE96EE5
:102E0000000EEA22040EEF6ED9EF1FF03A0EE66EC6
:102E1000E6EC1FF0E552002A0050EA6AA00FE96EC6
:102E2000000EEA22EF500D6E01011451005C48E2E1
:102E300001500D240D242A6E400E2A5C41E20D50F3
:102E4000E66EE6EC1FF0E552F29E938A0A0E0DC084
:102E5000DBFF0A0EDB5032E0100E0D6E8A8C06C0CE
:102E60000EF00E0609E00000000000000000000067
:102E7000000000000000F5D7D89081BAD880133642
:102E800014368A9C06C00EF00E0609E00000000011
:102E9000000000000000000000000000F5D70D2E2B
:102EA000DDD714C0E6FFE6EC1FF0E55213C0E6FFE5
:102EB000E6EC1FF0E5520A0EDB06CBD7F28E0DD002
:102EC000FE0EE66EE6EC1FF0E5520028EA6AA00F5F
:102ED000E96E000EEA22040EEF6ED9EF1FF03B0EF2
:102EE000E66EE6EC1FF0E552C50E936E8A6A949E7C
:102EF000D9EF1FF03C0EE66EE6EC1FF0E552002A1B
:102F00000050EA6AA00FE96E000EEA22EF500D6E43
:102F10000D040024E8380F0B2A6E010114512A5CBD
:102F200022E2F29E0E6A0D5000081BE20E500BE1E9
:102F3000002A0050EA6AA00FE96E000EEA22EFCFE5
:102F400013F0080E0E6E1336D8A08B9ED8B08B8E61
:102F50008A8200000000000000008A920D060E0622
:102F6000E2D7F28E0DD0FE0EE66EE6EC1FF0E552D3
:102F70000028EA6AA00FE96E000EEA22040EEF6E46
:102F8000D9EF1FF03D0EE66EE6EC1FF0E55200288B
:102F90002A6E010114512A5C3AE20D040124E8383A
:102FA0000F0B2B6E400E2B5C32E2002A0050EA6AB7
:102FB000A00FE96E000EEA22EF500D6E0D50E66E86
:102FC000E6EC1FF0E552F29E0001136A080E0E6E49
:102FD0000D5000081AE28A82000000000000000084
:102FE0008A92D89081B0D88013360E060E5002E037
:102FF0000D0409E1080E0E6E13C0E6FFE6EC1FF0AB
:10300000E5520001136A0D06E3D7F28E0DD0FE0ED5
:10301000E66EE6EC1FF0E5520028EA6AA00FE96EC2
:10302000000EEA22040EEF6ED9EF1FF0400EE66E9E
:10303000E6EC1FF0E552F29E8A80939000008A90A1
:10304000FA0EE66E8AEC20F0E552FA0EE66E8AEC95
:1030500020F0E5528A8000009380460EE66E8AECEE
:1030600020F0E55281B006D0010EE66EE6EC1FF0CE
:10307000E55204D0E66AE6EC1FF0E552960EE66EE5
:103080008AEC20F0E552960EE66E8AEC20F0E552CE
:10309000F28ED9EF1FF0410EE66EE6EC1FF0E5521E
:1030A000002A0050EA6AA00FE96E000EEA22EF50F3
:1030B0000D6E00500D242A6E010114512A5C3AE273
:1030C0000D5037E0002A0050EA6AA00FE96E000EAA
:1030D000EA22EF500E6EF29E080EF36E0B0EF3CF47
:1030E000DBFF0B0EDB50000821E28A9093900EA0CC
:1030F0000CD0040EE66E8AEC20F0E5528A80420E77
:10310000E66E8AEC20F0E5520BD03C0EE66E8AECBF
:1031100020F0E5528A800A0EE66E8AEC20F0E55235
:103120000E407F0B0E6E0B0EDB06DBD7F28E0D060C
:10313000C7D70DD0FE0EE66EE6EC1FF0E552002874
:10314000EA6AA00FE96E000EEA22040EEF6ED9EFD4
:103150001FF0420EE66EE6EC1FF0E552002A00502A
:10316000EA6AA00FE96E000EEA22EF500D6E01012F
:103170001451005C48E201500D242A6E400E2A5C76
:1031800042E20D50E66EE6EC1FF0E5520D503AE0DB
:10319000F29E0E6A080EF36E0C0EF3CFDBFF0C0EE0
:1031A000DB50000827E28A909390060EE66E8AECC8
:1031B00020F0E5528A8000009380080EE66E8AECCB
:1031C00020F0E5520E407F0B0E6E81A002D0800EE3
:1031D0000E26280EE66E8AEC20F0E5528A80939047
:1031E00000009380100EE66E8AEC20F0E5520C0E83
:1031F000DB06D5D70E50E66EE6EC1FF0E552F28EF8
:103200000D06C4D70DD0FE0EE66EE6EC1FF0E552BB
:103210000028EA6AA00FE96E000EEA22040EEF6EA3
:10322000D9EF1FF0430EE66EE6EC1FF0E552F29E7A
:103230008A9093900A0EE66E8AEC20F0E5528A801E
:10324000FA0EE66E8AEC20F0E552FA0EE66E8AEC93
:1032500020F0E5526E0EE66E8AEC20F0E552938087
:10326000F28ED9EF1FF0440EE66EE6EC1FF0E55249
:10327000002A0050EA6AA00FE96E000EEA22EF5021
:103280000D6E002A0050EA6AA00FE96E000EEA22D5
:10329000EF500E6E00500D242A6E010114512A5C6D
:1032A00001E3B5D101500E242B6E400E2B5C01E3DF
:1032B000AED1F29E0D5001E175D08A909390140E1C
:1032C000E66E8AEC20F0E5528A800A0EE66E8AEC01
:1032D00020F0E5528A90140EE66E8AEC20F0E5525A
:1032E0008A80140EE66E8AEC20F0E5528A90140E65
:1032F000E66E8AEC20F0E5528A80140EE66E8AECC7
:1033000020F0E5528A90140EE66E8AEC20F0E55229
:103310008A80140EE66E8AEC20F0E5528A90140E34
:10332000E66E8AEC20F0E5528A800A0EE66E8AECA0
:1033300020F0E5528A900A0EE66E8AEC20F0E55203
:103340008A800A0EE66E8AEC20F0E5529380050E24
:10335000E66E8AEC20F0E5520D0EDB6A81B005D0F6
:10336000010EF36E0D0EF3CFDBFF0A0EE66E8AEC54
:1033700020F0E55281B005D0010EF36E0D0EF3CFB3
:10338000DBFF020EE66E8AEC20F0E5520D0EDB50FC
:1033900009E0FD0EE66EE6EC1FF0E5520E6A0D6ADE
:1033A0000D5000260D5001E186D0002A0050EA6A37
:1033B000A00FE96E000EEA220E0EEFCFDBFF8A901F
:1033C0009390080EF36E0D0EF3CFDBFF0D0EDB5066
:1033D000000820E20E0EDBAE08D08A900A0EE66EE0
:1033E0008AEC20F0E5528A8007D08A800A0EE66EC9
:1033F0008AEC20F0E5528A90080EE66E8AEC20F006
:10340000E5520E0EDB50020D0E0EF3CFDBFF0D0E5C
:10341000DB06DCD70E5003E10D50010808E28A906C
:103420000A0EE66E8AEC20F0E5528A8007D08A8088
:103430000A0EE66E8AEC20F0E5528A900A0EE66EDD
:103440008AEC20F0E5529380050EE66E8AEC20F0BF
:10345000E5520D0EDB6A81A005D0010EF36E0D0E54
:10346000F3CFDBFF0A0EE66E8AEC20F0E55281B066
:1034700005D0010EF36E0D0EF3CFDBFF0D0EDB500A
:103480000AE0FD0EE66EE6EC1FF0E552010E0D6E51
:103490000E6A0D5000260D5001080BE200000000DE
:1034A000000000000000000000000000000000001C
:1034B00000000D0677D70000000000000E50E66EF9
:1034C000E6EC1FF0E5520E5001E19FD00E0EDB6AD4
:1034D0009380080EF36E0D0EF3CFDBFF0D0EDB5065
:1034E00000083AE2030EE66E8AEC20F0E5520E0E7A
:1034F000DB50020D0E0EF3CFDBFF81B00BD00A0EB6
:10350000E66E8AEC20F0E55281A003D00E0EDB2A95
:1035100000D00BD00A0EE66E8AEC20F0E55281A0B6
:1035200000D00000000000000000000000000000CB
:10353000000000000D0EDB50010806E2040EE66EEE
:103540008AEC20F0E55205D0020EE66E8AEC20F0FF
:10355000E5520D0EDB06C2D700000000000000009F
:103560000000000093900E50010808E28A900A0EB5
:10357000E66E8AEC20F0E5528A8007D08A800A0E37
:10358000E66E8AEC20F0E5528A900E0EDBCFE6FF65
:10359000E6EC1FF0E552070EE66E8AEC20F0E552ED
:1035A0009380050EE66E8AEC20F0E5520D0EDB6A84
:1035B00081A005D0010EF36E0D0EF3CFDBFF0A0ED6
:1035C000E66E8AEC20F0E55281B005D0010EF36E74
:1035D0000D0EF3CFDBFF030EE66E8AEC20F0E55212
:1035E00000000000000000000000000000000000DB
:1035F00000000D0EDB5007E0FD0EE66EE6EC1FF05E
:10360000E552010E0E6E0E065ED7F28E0DD0FE0E46
:10361000E66EE6EC1FF0E5520028EA6AA00FE96EBC
:10362000000EEA22040EEF6ED9EF1FF0450EE66E93
:10363000E6EC1FF0E552020E00242A6E010114513F
:103640002A5C21E2002A0050EA6AA00FE96E000E0F
:10365000EA22EF50936E002A0050EA6AA00FE96E4A
:10366000000EEA22EF500D6EC00E0D142A6E3F0EB2
:1036700094142A10946E380E0D142A6EC70E9214EC
:103680002A10926E0DD0FE0EE66EE6EC1FF0E552AB
:103690000028EA6AA00FE96E000EEA22040EEF6E1F
:1036A000D9EF1FF0460EE66EE6EC1FF0E5528150B2
:1036B000E66EE6EC1FF0E552D9EF1FF0470EE66E1E
:1036C000E6EC1FF0E552C00E82142A6E380E80140C
:1036D0002A10E66EE6EC1FF0E552D9EF1FF0480E17
:1036E000E66EE6EC1FF0E552002A0050EA6AA00FF1
:1036F000E96E000EEA22EF500D6E00500D240D24ED
:103700002A6E010114512A5C50E2F29E8B9C8A9031
:103710008B9E9390949E949C0F0E0DC0DBFF0F0E1A
:10372000DB503CE0002A0050EA6AA00FE96E000E70
:10373000EA22EFCF13F0002A0050EA6AA00FE96EE8
:10374000000EEA22EFCF14F08B8C000000008B9C5F
:10375000080E0D6ED89081B2D8800E361336D8A0E0
:103760008A90D8B08A801436D8A08B9ED8B08B8E21
:1037700000008B8C000000008B9C0D2EEBD78B8CF7
:10378000000000008B9C000000008B8C00000000FB
:103790008B9C8A908B9E0F0EDB06C1D70E50E66E77
:1037A000E6EC1FF0E552F28E0DD0FE0EE66EE6EC72
:1037B0001FF0E5520028EA6AA00FE96E000EEA2227
:1037C000040EEF6EF6D3530EE66EE6EC1FF0E552F4
:1037D00000282A6E010114512A5C1AE2002A0050C6
:1037E000EA6AA00FE96E000EEA22EFCF13F0F29E14
:1037F000133613368A9E060E0D6E1336D8A08A989D
:10380000D8B08A888A8C8A9C0D2EF7D7F28E0CD07D
:10381000FE0EE66EDBDBE5520028EA6AA00FE96ED9
:10382000000EEA22040EEF6EC4D3540EE66ECEDB19
:10383000E55200282A6E010114512A5C30E2002A68
:103840000050EA6AA00FE96E000EEA22EFCF13F0F3
:10385000F29E8A9E8A888A8C8A9C8A8C8A9C8A9804
:103860008A8C8A9C8A8C8A9C040E0D6E1332D8A096
:103870008A9ED8B08A8E8A8C8A9C0D2EF7D78A8829
:103880001332D8A08A9ED8B08A8E8A8C8A9C8A9E4F
:103890008A8C8A9C8A988A8C8A9CF28E0CD0FE0E26
:1038A000E66E94DBE5520028EA6AA00FE96E000E8E
:1038B000EA22040EEF6E7DD3550EE66E87DBE552ED
:1038C000040E00242A6E010114512A5C65E2002ACC
:1038D0000050EA6AA00FE96E000EEA22EFCF16F060
:1038E000002A0050EA6AA00FE96E000EEA22EFCF2C
:1038F00015F0002A0050EA6AA00FE96E000EEA22D5
:10390000EFCF14F0002A0050EA6AA00FE96E000E13
:10391000EA22EFCF13F0F29E8A9E8A888A8C8A9CD4
:103920008A988A8C8A9C8A8C8A9C1F0E0D6E16320D
:10393000153214321332D8A08A9ED8B08A8E169EC1
:1039400081BA168E8A8C8A9C0D2EF1D78A881632FF
:10395000153214321332D8A08A9ED8B08A8E169EA1
:1039600081BA168E8A8C8A9C8A9E8A8C8A9C8A98B6
:103970008A8C8A9C16C0E6FF29DBE55215C0E6FF5B
:1039800025DBE55214C0E6FF21DBE55213C0E6FF5C
:103990001DDBE552F28E0CD0FE0EE66E17DBE55213
:1039A0000028EA6AA00FE96E000EEA22040EEF6E0C
:1039B00000D3560EE66E0ADBE552040E00242A6E92
:1039C000010114512A5C67E2002A0050EA6AA00F44
:1039D000E96E000EEA22EFCF16F0002A0050EA6AE4
:1039E000A00FE96E000EEA22EFCF15F0002A00507A
:1039F000EA6AA00FE96E000EEA22EFCF14F0002A67
:103A00000050EA6AA00FE96E000EEA22EFCF13F031
:103A1000F29E8A9E8A888A8C8A9C8A988A8C8A9C42
:103A20008A8C8A9C8A8C8A9C1F0E0D6E16321532E7
:103A300014321332D8A08A9ED8B08A8E169E81BACC
:103A4000168E8A8C8A9C0D2EF1D78A8816321532F2
:103A500014321332D8A08A9ED8B08A8E169E81BAAC
:103A6000168E8A8C8A9C8A9E8A8C8A9C8A988A8CDA
:103A70008A9C16C0E6FFAADAE55215C0E6FFA6DA70
:103A8000E55214C0E6FFA2DAE55213C0E6FF9EDA63
:103A9000E552F28E0CD0FE0EE66E98DAE552002862
:103AA000EA6AA00FE96E000EEA22040EEF6E81D2E0
:103AB000570EE66E8BDAE55200282A6E010114518A
:103AC0002A5C19E2002A0050EA6AA00FE96E000E93
:103AD000EA22EFCF13F0F29E939A080E0D6E133682
:103AE0008A9AD8B08A8A8A8C00008A9C0D2EF7D7D1
:103AF0008A9AF28E0CD0FE0EE66E68DAE552002845
:103B0000EA6AA00FE96E000EEA22040EEF6E51D2AF
:103B1000580EE66E5BDAE55200282A6E0101145158
:103B20002A5C43E2002A0050EA6AA00FE96E000E08
:103B3000EA22EFCF13F0F29E939A080E0D6E133621
:103B40008A9AD8B08A8A8A8C00008A9C0D2EF7D770
:103B50008A9A938A0D6A020E0D5C03E200000D2A18
:103B6000FAD70D6A070E0D5C06E28A8C00008A9C6B
:103B700000000D2AF7D7136A146A100E0D6E8A8C96
:103B8000D8908A9C81BAD880133614360D2EF7D778
:103B90008A8C939A8A9CF28E14C0E6FF17DAE5525B
:103BA00013C0E6FF13DAE5520CD0FE0EE66E0EDA15
:103BB000E5520028EA6AA00FE96E000EEA22040E20
:103BC000EF6EF7D1590EE66E01DAE552030E0024CE
:103BD0002A6E010114512A5C46E2002A0050EA6A6A
:103BE000A00FE96E000EEA22EFCF13F0F29E939A37
:103BF000080E0D6E13368A9AD8B08A8A8A8C000015
:103C00008A9C0D2EF7D78A9A002A0050EA6AA00FE4
:103C1000E96E000EEA22EFCF14F0002A0050EA6AA3
:103C2000A00FE96E000EEA22EFCF13F00D6A070E27
:103C30000D5C06E28A8C00008A9C00000D2AF7D7F2
:103C4000100E0D6E133614368A9AD8B08A8A8A8C72
:103C500000008A9C0D2EF6D78A9A8A8C00008A9CD6
:103C60000000F28E0CD0FE0EE66EB0D9E5520028B0
:103C7000EA6AA00FE96E000EEA22040EEF6E99D1F7
:103C8000400E015C09E20150EA6A600FE96E000E25
:103C9000EA22EF6A012AF4D7016A04010CBF0BD0B3
:103CA000400EE66E600EE66E000EE66E51EC21F000
:103CB000E552E552E55200687CD1F00EE66E86D9F9
:103CC000E552020E00242A6E010114512A5C25E2FD
:103CD000002A0050EA6AA00FE96E000EEA22EFCF38
:103CE00014F0002A0050EA6AA00FE96E000EEA22E2
:103CF000EFCF13F014C0E6FF69D9E55213C0E6FF19
:103D000065D9E55214C0EAFF13C0E9FFEF500D6E0C
:103D10000D50E66E5BD9E5520CD0FE0EE66E56D91C
:103D2000E5520028EA6AA00FE96E000EEA22040EAE
:103D3000EF6E3FD1F10EE66E49D9E552030E002435
:103D40002A6E010114512A5C2EE2002A0050EA6A10
:103D5000A00FE96E000EEA22EFCF14F0002A005007
:103D6000EA6AA00FE96E000EEA22EFCF13F0002AF4
:103D70000050EA6AA00FE96E000EEA22EF500D6EC5
:103D800014C0E6FF23D9E55213C0E6FF1FD9E55260
:103D90000D50E66E1BD9E55214C0EAFF13C0E9FFCF
:103DA0000D50EF6E0CD0FE0EE66E10D9E5520028D5
:103DB000EA6AA00FE96E000EEA22040EEF6EF9D057
:103DC000F30EE66E03D9E552030E00242A6E0101BC
:103DD00014512A5C29E20101155126E0002A005005
:103DE000EA6AA00FE96E000EEA22EF50F86E002A90
:103DF0000050EA6AA00FE96E000EEA22EF50F76E5B
:103E0000002A0050EA6AA00FE96E000EEA22EF5085
:103E1000F66E0900F550E66ED9D8E5520A00F55065
:103E2000E66ED4D8E5520CD0FE0EE66ECFD8E55241
:103E30000028EA6AA00FE96E000EEA22040EEF6E77
:103E4000B8D0F40EE66EC2D8E552050E00242A6EF4
:103E5000010114512A5C33E20101155130E0002ABE
:103E60000050EA6AA00FE96E000EEA22EF50F86EE9
:103E7000002A0050EA6AA00FE96E000EEA22EF5015
:103E8000F76E002A0050EA6AA00FE96E000EEA22DF
:103E9000EF50F66E002A0050EA6AA00FE96E000E9D
:103EA000EA22EF50F56E0D00002A0050EA6AA00FDA
:103EB000E96E000EEA22EF50F56E0E000CD0FE0EF9
:103EC000E66E84D8E5520028EA6AA00FE96E000E7B
:103ED000EA22040EEF6E6DD0F50EE66E77D8E5524D
:103EE00000282A6E010114512A5C14E2002A0050B5
:103EF000EA6AA00FE96E000EEA22EF500101186F86
:103F0000196B18C1E6FF62D8E552002801011A6F4B
:103F10001B6B0CD0FE0EE66E59D8E5520028EA6AFB
:103F2000A00FE96E000EEA22040EEF6E42D0F60EEC
:103F3000E66E4CD8E55201011807000E195B18C156
:103F4000E6FF44D8E5520101193504E21851000892
:103F5000000E195528E2400E015C09E20150EA6AA0
:103F6000600FE96E000EEA22EF6A012AF4D7016AB7
:103F700004010CBF0CD0400EE66E600EE66E000E23
:103F8000E66E51EC21F0E552E552E55203D0000116
:103F9000010EEA6F1AC12AF01BC12BF02A06000E8F
:103FA0002B5A2A50006E05D0FE0EE66E0FD8E55251
:103FB00000D0002A01D08992100EE15C02E2E16A91
:103FC000E552E16EE552E7CFD9FF1200D9CFE6FF07
:103FD000E1CFD9FF0001EA510AE00A0E025C11E2CA
:103FE0000250022AEA6AE00FE96E000E06D0015084
:103FF000012AEA6A600FE96E000EEA22FE0EDBCFAC
:10400000EFFF400E015C13E1016A04010CBF0CD00C
:10401000400EE66E600EE66E000EE66E51EC21F08C
:10402000E552E552E55203D00001010EEA6FE55278
:10403000E7CFD9FF1200D8CFE4FFE0CFE4FFE46E72
:10404000DACFE4FFE2CFDAFFF3CFE4FFF4CFE4FF0F
:10405000E652C2B2FED79E9C07C009F008C00AF023
:10406000C4CF08F0C3CF07F00B50075E0C50085ABE
:10407000E10E0902F4CF10F0F3CF0FF0E10E0A02C7
:10408000F35010260F50032610500422E40E0702AE
:10409000F4CF10F0F3CF0FF0E40E0802F350102627
:1040A0000F50035E1050045A043404E30350000818
:1040B000FE0E045403E3036AFE0E046E043404E2AD
:1040C00003500008640E045403E2036A640E046E95
:1040D0000001043405E3BE6ACF0EBD14BD6E0DD0E1
:1040E00004C0BEFF00010350E840E8403F0B300B26
:1040F0002E6ECF0EBD142E10BD6EE552E5CFF4FF2F
:10410000E5CFF3FFE5CFDAFFE550E5CFE0FFE5CF00
:10411000D8FF1000D9CFE6FFE1CFD9FFE652FE0E5F
:10412000DB50FE0FDF6EDF5009E0000000000000F2
:104130000000000000000000DF06F5D700D0E552C7
:10414000E552E7CFD9FF12008A9093900AEF21F051
:104150008A92939293805ED893825CD881B0FF0C50
:10416000000C080E186E8A929392938053D8938213
:1041700051D8179E1746179081B017801806F4E1A2
:104180002B6A17C0F3FF2BC0F4FF1200D9CFE6FF54
:10419000E1CFD9FF080E186EFE0EDB50176E8A9223
:1041A0001736D8A006D09392938034D8938232D811
:1041B00006D093928A9093902DD893822BD818068C
:1041C0001850EEE1000E00D0E552E7CFD9FF120003
:1041D0008A92939293801ED893821CD88A9093904F
:1041E0000AEF21F08A9293928A90939013D8938247
:1041F00011D893800FD80AEF21F0939293800AD8B8
:1042000093820AEF21F093928A90939003D893823D
:104210000AEF21F0ECC019F0195009E0000000008D
:10422000000000000000000000001906F5D700D0D3
:104230001200D9CFE6FFE1CFD9FFF29EFE0EDB5090
:10424000176EECC00FF0080E0E6E0FB404D017AE50
:104250008B9E17BE8B8E0650196E192EFED70FA699
:104260008A820FB68A920FA405D017AE8B9E17BE16
:104270008B8E02D0813017360650196E192EFED75C
:104280000FA68A920FB68A820FA402D08130173609
:104290000E2EDBD7F28E175000D0E552E7CFD9FFB4
:0242A00012000A
:0E42A200D9CFE6FFE1CFD9FFE65204010CAF01
:1042B00002D0000E33D0FC0EDB50400805E2400E69
:1042C000F36EFC0EF3CFDBFFDF6AFC0EDB50DF5C2E
:1042D00019E2DF50E76EFD0EDBCFE9FFFE0EDBCF0C
:1042E000EAFFE750E926000EEA22EF50E66EDF50C3
:1042F000EA6A580FE96E050EEA22E552E750EF6EC2
:10430000DF2AE3D7FC0EDBCF0DF404010CAD02D0A5
:10431000880E01D0C80E0C6FFC0EDB50E552E55242
:10432000E7CFD9FF1200D9CFE6FFE1CFD9FF0101D6
:10433000136B040108BF32D0FC0EDBCF2AF0095109
:10434000D8802A5403E2FC0E09C4DBFF0101136B81
:10435000FC0EDB50135D19E21351EA6A180FE96E87
:10436000050EEA22EF50E66E1351E76EFD0EDBCF2D
:10437000E9FFFE0EDBCFEAFFE750E926000EEA2256
:10438000E552E750EF6E132BE3D70401400E096F9F
:1043900008AD02D0880E01D0C80E086F010113517C
:1043A000E552E7CFD9FF12000101136B1E0E6B6EB1
:1043B0000401400E096F180E2A6E050E2AC00AF479
:1043C0000B6F880E086F580E2A6E050E2AC00EF469
:1043D0000F6F400E0C6F1200D9CFE6FFE1CFD9FF6F
:1043E000E65202C5DFFF0101010E076FE552E552FB
:1043F000E7CFD9FF1200D9CFE6FFE1CFD9FFE652D0
:1044000002C5DFFF0101010E076FE552E552E7CF5C
:10441000D9FF1200D9CFE6FFE1CFD9FF020EE12686
:104420001F0E05010015010865E1045163E101C596
:10443000DFFF060EDF5C23E1010E03C5DBFFDB506F
:10444000210809E10101010E076F6F0E0A6F4C0E82
:104450000B6F090E0CD0010EDB5022080DE101019B
:10446000010E076F8F0E0A6F4C0E0B6F220E0E6F30
:104470000F6B010E106F03D0010EDB502308600E8E
:1044800005010015200836E1DF0402E1A5DF32D086
:10449000090EDF5C05E10101010E066FACDF2AD0D9
:1044A000020EDF5C07E10101010E076F110E086FBC
:1044B000010E12D00A0EDF5C06E10101010E076F4A
:1044C00003C511F117D0030EDF5C0CE10101010EF1
:1044D000076F120E086F010E096F010E0E6F0F6B42
:1044E000106B08D00B0EDF5C05E10101010E076FB8
:1044F00002C512F1020EE15C02E2E16AE552E16EF0
:10450000E552E7CFD9FF1200D9CFE6FFE1CFD9FFBF
:10451000020EE126800E0501005D3CE103C5DFFFD0
:10452000010E02C5DBFFDF0409E10101010E076F87
:10453000540E0A6F4C0E0B6F120E28D0020EDF5C69
:1045400009E10101010E076F660E0A6F4C0E0B6F39
:10455000290E1CD0030EDF5C1DE10101010E076F67
:10456000DB5004E1B10E0A6F4C0E0AD0010EDB04E1
:1045700004E1B50E0A6F4C0E03D0D50E0A6F4C0E37
:104580000B6F0AC1F6FFF76E0800F5500E6F0F6B48
:10459000010E106F020EE15C02E2E16AE552E16E8B
:1045A000E552E7CFD9FF1200D9CFE6FFE1CFD9FF1F
:1045B000030EE1261F0E05010015DF6E106B116B57
:1045C000DF500DE10101010E076F035102E005010B
:1045D00010810101015135E00501108332D0DF0463
:1045E00004E10101010E076F2CD0020EDF5C29E10E
:1045F0000F0E0415E76E010EE7CFDBFF800E0415EA
:10460000E76E020EE7CFDBFF0101010E076FDB5003
:10461000080DF3500C6F0D6B000E0C27040E0D23CC
:10462000020EDB5004E0040E0C27000E0D230CC11B
:10463000E9FF0DC1EAFFEF50040B03E00501010E95
:10464000106F0101075108E0100E086F050E096F89
:10465000020E0E6F0F6B106B030EE15C02E2E16A5B
:10466000E552E16EE552E7CFD9FF1200D9CFE6FF60
:10467000E1CFD9FF040EE1261F0E05010015DF6E04
:10468000010E02C5DBFFDF5011E1010EDB044CE13E
:104690000101010E076F030E0501015D04E1010137
:1046A000010E016F41D00101016B3ED0020EDF5CB3
:1046B0003BE10F0E0415E76E020EE7CFDBFF800E25
:1046C0000415E76E030EE7CFDBFF010EDB502CE194
:1046D000020EDB5029E00101010E076F020EDB50D4
:1046E000080DF3500C6F0D6B000E0C27040E0D23FC
:1046F000030EDB5004E0040E0C27000E0D23030E06
:104700000501015D02E1840E0AD0030EDB0406E11F
:104710000CC1E9FF0DC1EAFFEF6A06D0880E0CC19B
:10472000E9FF0DC1EAFFEF6E040EE15C02E2E16A0F
:10473000E552E16EE552E7CFD9FF1200D9CFE6FF8F
:10474000E1CFD9FFE65201C5DFFF600E050100157C
:1047500054E1050EDF5C08E10101010E076F040E54
:10476000006F02C502F149D0060EDF5C02E1CCDE2B
:1047700044D0090EDF5C0EE10101010E076F02C596
:1047800004F1045103E1040E006F37D0050E006FF1
:104790000BDE33D0080EDF5C07E10101010E076F6D
:1047A000040E086F010E17D0DF5002E1FDDE25D0A8
:1047B000DF0403E0030EDF5C02E158DF1ED00A0EC7
:1047C000DF5C0FE10101010E076F0501106B0101B4
:1047D000100E086F050E096F010E0E6F0F6B106B38
:1047E0000CD00B0EDF5C04E10101010E076F05D058
:1047F000070EDF5C02E00C0EDF5CE552E552E7CF0E
:10480000D9FF1200D9CFE6FFE1CFD9FF030EE12691
:104810000101080E0E5D000E0F5907E2010E0EC1D8
:10482000DBFF020E0FC1DBFF07D0080EF36E010E97
:10483000F3CFDBFF020EDB6AFC0E04010417010E4E
:10484000020EDBCF2BF0000E030E2B162BC02AF02E
:104850002B500413FF0EE76E010EDBCF2AF0020E81
:10486000E7502A162AC005F4100E2A6E050E2D6A8E
:104870002AC006F4076F010EDB5001010E5F020E25
:10488000DB500F5B100E0C6F050E0D6F100524E151
:10489000DF6ADFCF2AF0010EDBCF2BF0020EDBCF79
:1048A0002CF02B502A5C000E2C5439E20AC1F6FF82
:1048B0000BC1F7FF0A2B000E0B230800F550E66E24
:1048C0000CC1E9FF0DC1EAFF0C2B000E0D23E552D0
:1048D000E750EF6EDF2ADDD7DF6ADFCF2AF0010E67
:1048E000DBCF2BF0020EDBCF2CF02B502A5C000E1E
:1048F0002C5415E208C1E9FF09C1EAFF082B000E9C
:104900000923EF50E66E0CC1E9FF0DC1EAFF0C2B45
:10491000000E0D23E552E750EF6EDF2ADED7030EBF
:10492000E15C02E2E16AE552E16EE552E7CFD9FFD0
:104930001200D9CFE6FFE1CFD9FF040EE126030E26
:1049400004010015F3500111E66ED950020FE96E13
:10495000DACFEAFFE552E750EE6EED6A020EDB5069
:1049600001010E27030EDB500F23100E086F050EFA
:10497000096FDE6ADD6ADECF2AF0DDCF2BF0020E92
:10498000DBCF2CF0030EDBCF2DF02C502A5C2D500A
:104990002B5818E208C1E9FF09C1EAFF082B000EF5
:1049A0000923EF50E66E0CC1E9FF0DC1EAFF0C2BA5
:1049B000000E0D23E552E750EF6EDF2A010EDBE318
:1049C000DB2AD9D7040EE15C02E2E16AE552E16E2E
:1049D000E552E7CFD9FF12000401049F009F0101B7
:1049E000056B076B066B0E6B0F6BA8DE13DD010109
:1049F00007510EE10401080E016F000E2A6E050E2C
:104A00002C6A2D6A2AC002F4036F840E006F30D026
:104A1000050100AF2FD001010E510501065D010116
:104A20000F510501075904E206C50EF107C50FF144
:104A3000E9DE0101020E056F0401080E016F000E90
:104A40002A6E050E2B6E2C6A2D6A2C6A2D6A2AC0DE
:104A500002F4036F800E006F100E2A6E050E2B6E8F
:104A60002C6A2D6A2C6A2D6A2AC006F4076FC80EBC
:104A7000046F16D00101010E056F0401056BC80E0D
:104A8000046F080E016F100E2A6E050E2B6E2C6A35
:104A90002D6A2C6A2D6A2AC002F4036FC80E006FBB
:104AA000609812000101056B0401080E016F000EF1
:104AB0002A6E050E2AC002F4036F880E006F046B85
:104AC0001200D9CFE6FFE1CFD9FF020EE1266150F7
:104AD00024E13C0E04010015E840E8403F0BDF6E86
:104AE0000D0EDF5C02E178DF35D00101050531E113
:104AF00020DF0101065109E0010E02C5DBFF020EB5
:104B00000501035D02E0030E035D040100AD02D068
:104B1000880E01D0C80E006F1DD0040E615C1AE132
:104B200063500AE1040E0101005D06E102C563FF66
:104B3000635002E1030E006F020E0101055D09E101
:104B400061DE040104AD02D0880E01D0C80E046FEE
:104B500001D0A8DF020EE15C02E2E16AE552E16EFB
:104B6000E552E7CFD9FF120060B606D0606A646AEA
:104B700060860101010E006F0101000509E160502E
:104B8000200B06E1656A646A64806488020E006F27
:104B900012006092649465941200659C12006AA0F1
:104BA00002D080DF6A90659A12001200676A656A17
:104BB0009F0E666E7B0E646E636A160E6A6E65A645
:104BC00002D06596FCD760986DDF0101016B036B25
:104BD000046B030E006F12000101005101E112008D
:104BE0006550040B04E06450040B01E0D2DF60B2B6
:104BF00012006550010B04E06450010B01E0D6DFA8
:104C00006550100B04E06450100B01E0CEDF6550DE
:104C1000400B04E06450400B01E0BFDF6550200B07
:104C200004E06450200B01E0BADF6550020B04E0A1
:104C30006450020B01E06592030E0101005D01E288
:104C400012006550080B05E06450080B02E039DFE4
:044C50006596120053
:0C4C540012010002000000080912325496
:104C600001000102000109022900010100A032092E
:104C700004000002030000000921010100012222BA
:104C800000070581034000010705010340000106FC
:104C9000A0FF0901A1010903150026FF0075089571
:104CA0004081020904150026FF0075089540910215
:104CB000C00403090420034F00700065006E00204B
:104CC00000500072006F006700720061006D006D9F
:104CD00000650072003E034F00700065006E00200A
:104CE00000500072006F006700720061006D006D7F
:104CF0000065007200200020005500530042002093
:104D000000480049004400200063006C006100730B
:034D10000073002D
:0C4D14002A0EF66E000EF76E000EF86E10
:104D200000010900F550F86F0900F550F96F03E133
:104D3000F86701D03DD00900F550F36F0900F55038
:104D4000F46F0900F550F56F09000900F550E96EA0
:104D50000900F550EA6E090009000900F550F66FE8
:104D60000900F550F76F09000900F6CFFAF0F7CF08
:104D7000FBF0F8CFFCF0F3C0F6FFF4C0F7FFF5C08E
:104D8000F8FF0001F65302E1F75307E00900F55080
:104D9000EE6EF607F8E2F707F9D7FAC0F6FFFBC0A8
:104DA000F7FFFCC0F8FF0001F807000EF95BBFD762
:024DB0001200EF
:0E4DB2001A6A28AEE2EF26F0276C281EE86A87
:104DC00028221A1E23AEEAEF26F0226C231EE86A80
:104DD00023221A1EFFEC26F023BEFAEF26F01AAEAD
:104DE000000C226C231EE86A23221E6C1F1EE86A38
:0E4DF0001F22000C1ABEF1EF26F01B88FF0CEC
:024DFE001F6A2A
:104E00001E6A100EE76ED890223623361E361F36E5
:104E100027501E5C28501F5805E327501E5E28505F
:0A4E20001F5A222AE72EF0D71200D5
:064E2A0022EC00F0140E62
:104E3000626E0101006B0101016B0101046BB4ECB6
:104E400025F062BE02D0ECEC25F06EEC00F0F7D756
:104E5000000EF36E00EE00F0080E01D81200EA60BA
:104E600002D0EE6AFCD7F350E9601200EE6AFCD77C
:104E700013EE00F023EE00F0F86A1B9C8AEC26F09B
:0C4E800046EC27F015EC27F0FBD71200E1
:024E8C00120012
:024E8E00000022
:104E9000000000640100000000AB030000000000FF
:084EA00000000000000000000A
:084EA800000000000000000002
:020000040030CA
:0100000023DC
:0100010008F6
:010002005F9E
:010003003CC0
:0100050050AA
:010006008178
:010008000FE8
:01000900C036
:01000A000FE6
:01000B00E014
:01000C000FE4
:01000D0040B2
:0200000400F00A
:100000004F70656E2050726F6772616D6D65722002
:10001000762E2000302E31322E3000202D20436FDE
:10002000707972696768742028432920323030392A
:100030002D3230323220416C626572746F204D6116
:100040006363696F6E69202D20546869732069733A
:0F005000206672656520736F6674776172650054
:00000001FF
